{
  "contractName": "ConfiSale",
  "abi": [
    {
      "inputs": [
        {
          "internalType": "address",
          "name": "_confi",
          "type": "address"
        },
        {
          "internalType": "address",
          "name": "_cMoonToken",
          "type": "address"
        },
        {
          "internalType": "address",
          "name": "_devAddr",
          "type": "address"
        }
      ],
      "payable": false,
      "stateMutability": "nonpayable",
      "type": "constructor"
    },
    {
      "anonymous": false,
      "inputs": [
        {
          "indexed": true,
          "internalType": "address",
          "name": "previousOwner",
          "type": "address"
        },
        {
          "indexed": true,
          "internalType": "address",
          "name": "newOwner",
          "type": "address"
        }
      ],
      "name": "OwnershipTransferred",
      "type": "event"
    },
    {
      "anonymous": false,
      "inputs": [
        {
          "indexed": true,
          "internalType": "address",
          "name": "from",
          "type": "address"
        },
        {
          "indexed": false,
          "internalType": "bool",
          "name": "originalPause",
          "type": "bool"
        },
        {
          "indexed": false,
          "internalType": "bool",
          "name": "newPause",
          "type": "bool"
        }
      ],
      "name": "SetPaused",
      "type": "event"
    },
    {
      "anonymous": false,
      "inputs": [
        {
          "indexed": true,
          "internalType": "address",
          "name": "from",
          "type": "address"
        },
        {
          "indexed": false,
          "internalType": "address",
          "name": "to",
          "type": "address"
        },
        {
          "indexed": false,
          "internalType": "uint256",
          "name": "tokenId",
          "type": "uint256"
        },
        {
          "indexed": false,
          "internalType": "uint256",
          "name": "value",
          "type": "uint256"
        }
      ],
      "name": "TokenBuy",
      "type": "event"
    },
    {
      "anonymous": false,
      "inputs": [
        {
          "indexed": true,
          "internalType": "address",
          "name": "from",
          "type": "address"
        },
        {
          "indexed": false,
          "internalType": "address",
          "name": "to",
          "type": "address"
        },
        {
          "indexed": false,
          "internalType": "uint256",
          "name": "tokenId",
          "type": "uint256"
        }
      ],
      "name": "TokenStake",
      "type": "event"
    },
    {
      "anonymous": false,
      "inputs": [
        {
          "indexed": true,
          "internalType": "address",
          "name": "tokenAddress",
          "type": "address"
        },
        {
          "indexed": true,
          "internalType": "address",
          "name": "from",
          "type": "address"
        },
        {
          "indexed": false,
          "internalType": "address",
          "name": "to",
          "type": "address"
        },
        {
          "indexed": false,
          "internalType": "uint256",
          "name": "value",
          "type": "uint256"
        }
      ],
      "name": "TokenTransfer",
      "type": "event"
    },
    {
      "anonymous": false,
      "inputs": [
        {
          "indexed": true,
          "internalType": "address",
          "name": "from",
          "type": "address"
        },
        {
          "indexed": false,
          "internalType": "address",
          "name": "to",
          "type": "address"
        },
        {
          "indexed": false,
          "internalType": "uint256",
          "name": "tokenId",
          "type": "uint256"
        }
      ],
      "name": "TokenUnStake",
      "type": "event"
    },
    {
      "anonymous": false,
      "inputs": [
        {
          "indexed": true,
          "internalType": "address",
          "name": "from",
          "type": "address"
        },
        {
          "indexed": false,
          "internalType": "uint256",
          "name": "count",
          "type": "uint256"
        }
      ],
      "name": "uploadNFTEvent",
      "type": "event"
    },
    {
      "constant": true,
      "inputs": [],
      "name": "SPONSOR",
      "outputs": [
        {
          "internalType": "contract SponsorWhitelistControl",
          "name": "",
          "type": "address"
        }
      ],
      "payable": false,
      "stateMutability": "view",
      "type": "function"
    },
    {
      "constant": true,
      "inputs": [],
      "name": "accTokenPerShare",
      "outputs": [
        {
          "internalType": "uint256",
          "name": "",
          "type": "uint256"
        }
      ],
      "payable": false,
      "stateMutability": "view",
      "type": "function"
    },
    {
      "constant": true,
      "inputs": [],
      "name": "apyRatio",
      "outputs": [
        {
          "internalType": "uint256",
          "name": "",
          "type": "uint256"
        }
      ],
      "payable": false,
      "stateMutability": "view",
      "type": "function"
    },
    {
      "constant": true,
      "inputs": [],
      "name": "cMoonToken",
      "outputs": [
        {
          "internalType": "address",
          "name": "",
          "type": "address"
        }
      ],
      "payable": false,
      "stateMutability": "view",
      "type": "function"
    },
    {
      "constant": true,
      "inputs": [],
      "name": "confi",
      "outputs": [
        {
          "internalType": "address",
          "name": "",
          "type": "address"
        }
      ],
      "payable": false,
      "stateMutability": "view",
      "type": "function"
    },
    {
      "constant": true,
      "inputs": [
        {
          "internalType": "uint256",
          "name": "",
          "type": "uint256"
        }
      ],
      "name": "confiCategories",
      "outputs": [
        {
          "internalType": "uint256",
          "name": "",
          "type": "uint256"
        }
      ],
      "payable": false,
      "stateMutability": "view",
      "type": "function"
    },
    {
      "constant": true,
      "inputs": [
        {
          "internalType": "uint256",
          "name": "",
          "type": "uint256"
        }
      ],
      "name": "confiIds",
      "outputs": [
        {
          "internalType": "uint256",
          "name": "",
          "type": "uint256"
        }
      ],
      "payable": false,
      "stateMutability": "view",
      "type": "function"
    },
    {
      "constant": true,
      "inputs": [
        {
          "internalType": "uint256",
          "name": "",
          "type": "uint256"
        }
      ],
      "name": "confiStls",
      "outputs": [
        {
          "internalType": "bool",
          "name": "",
          "type": "bool"
        }
      ],
      "payable": false,
      "stateMutability": "view",
      "type": "function"
    },
    {
      "constant": true,
      "inputs": [],
      "name": "confiSupply",
      "outputs": [
        {
          "internalType": "uint256",
          "name": "",
          "type": "uint256"
        }
      ],
      "payable": false,
      "stateMutability": "view",
      "type": "function"
    },
    {
      "constant": true,
      "inputs": [],
      "name": "devAddr",
      "outputs": [
        {
          "internalType": "address",
          "name": "",
          "type": "address"
        }
      ],
      "payable": false,
      "stateMutability": "view",
      "type": "function"
    },
    {
      "constant": true,
      "inputs": [],
      "name": "devBalance",
      "outputs": [
        {
          "internalType": "uint256",
          "name": "",
          "type": "uint256"
        }
      ],
      "payable": false,
      "stateMutability": "view",
      "type": "function"
    },
    {
      "constant": true,
      "inputs": [],
      "name": "getPause",
      "outputs": [
        {
          "internalType": "bool",
          "name": "",
          "type": "bool"
        }
      ],
      "payable": false,
      "stateMutability": "view",
      "type": "function"
    },
    {
      "constant": true,
      "inputs": [],
      "name": "intervalBlock",
      "outputs": [
        {
          "internalType": "uint256",
          "name": "",
          "type": "uint256"
        }
      ],
      "payable": false,
      "stateMutability": "view",
      "type": "function"
    },
    {
      "constant": true,
      "inputs": [],
      "name": "isOwner",
      "outputs": [
        {
          "internalType": "bool",
          "name": "",
          "type": "bool"
        }
      ],
      "payable": false,
      "stateMutability": "view",
      "type": "function"
    },
    {
      "constant": true,
      "inputs": [],
      "name": "lastRewardBlock",
      "outputs": [
        {
          "internalType": "uint256",
          "name": "",
          "type": "uint256"
        }
      ],
      "payable": false,
      "stateMutability": "view",
      "type": "function"
    },
    {
      "constant": true,
      "inputs": [],
      "name": "multiple",
      "outputs": [
        {
          "internalType": "uint256",
          "name": "",
          "type": "uint256"
        }
      ],
      "payable": false,
      "stateMutability": "view",
      "type": "function"
    },
    {
      "constant": true,
      "inputs": [],
      "name": "multipleCategoryId",
      "outputs": [
        {
          "internalType": "uint256",
          "name": "",
          "type": "uint256"
        }
      ],
      "payable": false,
      "stateMutability": "view",
      "type": "function"
    },
    {
      "constant": true,
      "inputs": [],
      "name": "outEnable",
      "outputs": [
        {
          "internalType": "bool",
          "name": "",
          "type": "bool"
        }
      ],
      "payable": false,
      "stateMutability": "view",
      "type": "function"
    },
    {
      "constant": true,
      "inputs": [],
      "name": "owner",
      "outputs": [
        {
          "internalType": "address",
          "name": "",
          "type": "address"
        }
      ],
      "payable": false,
      "stateMutability": "view",
      "type": "function"
    },
    {
      "constant": true,
      "inputs": [],
      "name": "poolBalance",
      "outputs": [
        {
          "internalType": "uint256",
          "name": "",
          "type": "uint256"
        }
      ],
      "payable": false,
      "stateMutability": "view",
      "type": "function"
    },
    {
      "constant": false,
      "inputs": [],
      "name": "renounceOwnership",
      "outputs": [],
      "payable": false,
      "stateMutability": "nonpayable",
      "type": "function"
    },
    {
      "constant": true,
      "inputs": [],
      "name": "rewardRatio",
      "outputs": [
        {
          "internalType": "uint256",
          "name": "",
          "type": "uint256"
        }
      ],
      "payable": false,
      "stateMutability": "view",
      "type": "function"
    },
    {
      "constant": false,
      "inputs": [
        {
          "internalType": "bool",
          "name": "isPause",
          "type": "bool"
        }
      ],
      "name": "setPause",
      "outputs": [],
      "payable": false,
      "stateMutability": "nonpayable",
      "type": "function"
    },
    {
      "constant": true,
      "inputs": [],
      "name": "stageNo",
      "outputs": [
        {
          "internalType": "uint256",
          "name": "",
          "type": "uint256"
        }
      ],
      "payable": false,
      "stateMutability": "view",
      "type": "function"
    },
    {
      "constant": true,
      "inputs": [
        {
          "internalType": "uint256",
          "name": "",
          "type": "uint256"
        }
      ],
      "name": "stages",
      "outputs": [
        {
          "internalType": "uint256",
          "name": "stageNo",
          "type": "uint256"
        },
        {
          "internalType": "uint256",
          "name": "total",
          "type": "uint256"
        },
        {
          "internalType": "uint256",
          "name": "balance",
          "type": "uint256"
        },
        {
          "internalType": "bool",
          "name": "isOpen",
          "type": "bool"
        },
        {
          "internalType": "uint256",
          "name": "price",
          "type": "uint256"
        }
      ],
      "payable": false,
      "stateMutability": "view",
      "type": "function"
    },
    {
      "constant": true,
      "inputs": [],
      "name": "stakeEnable",
      "outputs": [
        {
          "internalType": "bool",
          "name": "",
          "type": "bool"
        }
      ],
      "payable": false,
      "stateMutability": "view",
      "type": "function"
    },
    {
      "constant": true,
      "inputs": [],
      "name": "totalDevAmount",
      "outputs": [
        {
          "internalType": "uint256",
          "name": "",
          "type": "uint256"
        }
      ],
      "payable": false,
      "stateMutability": "view",
      "type": "function"
    },
    {
      "constant": true,
      "inputs": [],
      "name": "totalNumber",
      "outputs": [
        {
          "internalType": "uint256",
          "name": "",
          "type": "uint256"
        }
      ],
      "payable": false,
      "stateMutability": "view",
      "type": "function"
    },
    {
      "constant": true,
      "inputs": [],
      "name": "totalPoolAmount",
      "outputs": [
        {
          "internalType": "uint256",
          "name": "",
          "type": "uint256"
        }
      ],
      "payable": false,
      "stateMutability": "view",
      "type": "function"
    },
    {
      "constant": true,
      "inputs": [],
      "name": "totalWeight",
      "outputs": [
        {
          "internalType": "uint256",
          "name": "",
          "type": "uint256"
        }
      ],
      "payable": false,
      "stateMutability": "view",
      "type": "function"
    },
    {
      "constant": false,
      "inputs": [
        {
          "internalType": "address",
          "name": "newOwner",
          "type": "address"
        }
      ],
      "name": "transferOwnership",
      "outputs": [],
      "payable": false,
      "stateMutability": "nonpayable",
      "type": "function"
    },
    {
      "constant": true,
      "inputs": [
        {
          "internalType": "address",
          "name": "",
          "type": "address"
        }
      ],
      "name": "userInfo",
      "outputs": [
        {
          "internalType": "uint256",
          "name": "weight",
          "type": "uint256"
        },
        {
          "internalType": "uint256",
          "name": "rewardDebt",
          "type": "uint256"
        },
        {
          "internalType": "uint256",
          "name": "balance",
          "type": "uint256"
        },
        {
          "internalType": "uint256",
          "name": "number",
          "type": "uint256"
        }
      ],
      "payable": false,
      "stateMutability": "view",
      "type": "function"
    },
    {
      "constant": true,
      "inputs": [
        {
          "internalType": "address",
          "name": "",
          "type": "address"
        }
      ],
      "name": "userLatestBuy",
      "outputs": [
        {
          "internalType": "uint256",
          "name": "",
          "type": "uint256"
        }
      ],
      "payable": false,
      "stateMutability": "view",
      "type": "function"
    },
    {
      "constant": true,
      "inputs": [
        {
          "internalType": "address",
          "name": "",
          "type": "address"
        },
        {
          "internalType": "uint256",
          "name": "",
          "type": "uint256"
        },
        {
          "internalType": "uint256",
          "name": "",
          "type": "uint256"
        }
      ],
      "name": "userStakeConfi",
      "outputs": [
        {
          "internalType": "uint256",
          "name": "",
          "type": "uint256"
        }
      ],
      "payable": false,
      "stateMutability": "view",
      "type": "function"
    },
    {
      "constant": true,
      "inputs": [
        {
          "internalType": "address",
          "name": "",
          "type": "address"
        },
        {
          "internalType": "uint256",
          "name": "",
          "type": "uint256"
        }
      ],
      "name": "userStakeCounts",
      "outputs": [
        {
          "internalType": "uint256",
          "name": "",
          "type": "uint256"
        }
      ],
      "payable": false,
      "stateMutability": "view",
      "type": "function"
    },
    {
      "constant": true,
      "inputs": [],
      "name": "confiIdsLength",
      "outputs": [
        {
          "internalType": "uint256",
          "name": "",
          "type": "uint256"
        }
      ],
      "payable": false,
      "stateMutability": "view",
      "type": "function"
    },
    {
      "constant": false,
      "inputs": [
        {
          "internalType": "uint256",
          "name": "_stageNo",
          "type": "uint256"
        }
      ],
      "name": "setStageNo",
      "outputs": [],
      "payable": false,
      "stateMutability": "nonpayable",
      "type": "function"
    },
    {
      "constant": false,
      "inputs": [
        {
          "internalType": "uint256",
          "name": "_stageNo",
          "type": "uint256"
        },
        {
          "internalType": "uint256",
          "name": "_total",
          "type": "uint256"
        },
        {
          "internalType": "bool",
          "name": "_isOpen",
          "type": "bool"
        },
        {
          "internalType": "uint256",
          "name": "_price",
          "type": "uint256"
        }
      ],
      "name": "initStage",
      "outputs": [],
      "payable": false,
      "stateMutability": "nonpayable",
      "type": "function"
    },
    {
      "constant": false,
      "inputs": [
        {
          "internalType": "uint256",
          "name": "_catId",
          "type": "uint256"
        },
        {
          "internalType": "uint256",
          "name": "_multiple",
          "type": "uint256"
        }
      ],
      "name": "setMultiple",
      "outputs": [],
      "payable": false,
      "stateMutability": "nonpayable",
      "type": "function"
    },
    {
      "constant": false,
      "inputs": [
        {
          "internalType": "uint256",
          "name": "_stageNo",
          "type": "uint256"
        },
        {
          "internalType": "uint256",
          "name": "_count",
          "type": "uint256"
        },
        {
          "internalType": "bool",
          "name": "isAdd",
          "type": "bool"
        }
      ],
      "name": "updateTotal",
      "outputs": [],
      "payable": false,
      "stateMutability": "nonpayable",
      "type": "function"
    },
    {
      "constant": false,
      "inputs": [
        {
          "internalType": "uint256",
          "name": "_stageNo",
          "type": "uint256"
        },
        {
          "internalType": "uint256",
          "name": "_price",
          "type": "uint256"
        }
      ],
      "name": "updatePrice",
      "outputs": [],
      "payable": false,
      "stateMutability": "nonpayable",
      "type": "function"
    },
    {
      "constant": false,
      "inputs": [
        {
          "internalType": "uint256",
          "name": "_stageNo",
          "type": "uint256"
        },
        {
          "internalType": "bool",
          "name": "_isOpen",
          "type": "bool"
        }
      ],
      "name": "setIsOpen",
      "outputs": [],
      "payable": false,
      "stateMutability": "nonpayable",
      "type": "function"
    },
    {
      "constant": false,
      "inputs": [
        {
          "internalType": "uint256",
          "name": "_rewardRatio",
          "type": "uint256"
        }
      ],
      "name": "setRewardRatio",
      "outputs": [],
      "payable": false,
      "stateMutability": "nonpayable",
      "type": "function"
    },
    {
      "constant": false,
      "inputs": [
        {
          "internalType": "uint256",
          "name": "_apyRatio",
          "type": "uint256"
        }
      ],
      "name": "setApyRatio",
      "outputs": [],
      "payable": false,
      "stateMutability": "nonpayable",
      "type": "function"
    },
    {
      "constant": false,
      "inputs": [
        {
          "internalType": "uint256",
          "name": "_id",
          "type": "uint256"
        }
      ],
      "name": "unstakeById",
      "outputs": [],
      "payable": false,
      "stateMutability": "nonpayable",
      "type": "function"
    },
    {
      "constant": false,
      "inputs": [
        {
          "internalType": "uint256[]",
          "name": "_ids",
          "type": "uint256[]"
        }
      ],
      "name": "uploadConfiCategory",
      "outputs": [],
      "payable": false,
      "stateMutability": "nonpayable",
      "type": "function"
    },
    {
      "constant": false,
      "inputs": [],
      "name": "harvest",
      "outputs": [],
      "payable": false,
      "stateMutability": "nonpayable",
      "type": "function"
    },
    {
      "constant": false,
      "inputs": [
        {
          "internalType": "uint256",
          "name": "_amount",
          "type": "uint256"
        }
      ],
      "name": "devWithdraw",
      "outputs": [],
      "payable": false,
      "stateMutability": "nonpayable",
      "type": "function"
    },
    {
      "constant": true,
      "inputs": [
        {
          "internalType": "address",
          "name": "_user",
          "type": "address"
        }
      ],
      "name": "pendingToken",
      "outputs": [
        {
          "internalType": "uint256",
          "name": "",
          "type": "uint256"
        }
      ],
      "payable": false,
      "stateMutability": "view",
      "type": "function"
    },
    {
      "constant": false,
      "inputs": [
        {
          "internalType": "address",
          "name": "_to",
          "type": "address"
        },
        {
          "internalType": "uint256",
          "name": "_count",
          "type": "uint256"
        }
      ],
      "name": "retrieve",
      "outputs": [],
      "payable": false,
      "stateMutability": "nonpayable",
      "type": "function"
    },
    {
      "constant": false,
      "inputs": [
        {
          "internalType": "address",
          "name": "_to",
          "type": "address"
        },
        {
          "internalType": "uint256",
          "name": "_tokenId",
          "type": "uint256"
        }
      ],
      "name": "forceRetrieve",
      "outputs": [],
      "payable": false,
      "stateMutability": "nonpayable",
      "type": "function"
    },
    {
      "constant": true,
      "inputs": [
        {
          "internalType": "address",
          "name": "_user",
          "type": "address"
        },
        {
          "internalType": "uint256",
          "name": "_confiSupply",
          "type": "uint256"
        }
      ],
      "name": "_seed",
      "outputs": [
        {
          "internalType": "uint256",
          "name": "",
          "type": "uint256"
        }
      ],
      "payable": false,
      "stateMutability": "view",
      "type": "function"
    },
    {
      "constant": false,
      "inputs": [
        {
          "internalType": "address",
          "name": "_operator",
          "type": "address"
        },
        {
          "internalType": "address",
          "name": "_from",
          "type": "address"
        },
        {
          "internalType": "uint256",
          "name": "_id",
          "type": "uint256"
        },
        {
          "internalType": "uint256",
          "name": "_amount",
          "type": "uint256"
        },
        {
          "internalType": "bytes",
          "name": "_data",
          "type": "bytes"
        }
      ],
      "name": "onERC1155Received",
      "outputs": [
        {
          "internalType": "bytes4",
          "name": "",
          "type": "bytes4"
        }
      ],
      "payable": false,
      "stateMutability": "nonpayable",
      "type": "function"
    },
    {
      "constant": false,
      "inputs": [
        {
          "internalType": "address",
          "name": "_operator",
          "type": "address"
        },
        {
          "internalType": "address",
          "name": "_from",
          "type": "address"
        },
        {
          "internalType": "uint256[]",
          "name": "_ids",
          "type": "uint256[]"
        },
        {
          "internalType": "uint256[]",
          "name": "_amounts",
          "type": "uint256[]"
        },
        {
          "internalType": "bytes",
          "name": "_data",
          "type": "bytes"
        }
      ],
      "name": "onERC1155BatchReceived",
      "outputs": [
        {
          "internalType": "bytes4",
          "name": "",
          "type": "bytes4"
        }
      ],
      "payable": false,
      "stateMutability": "nonpayable",
      "type": "function"
    },
    {
      "constant": false,
      "inputs": [
        {
          "internalType": "address",
          "name": "operator",
          "type": "address"
        },
        {
          "internalType": "address",
          "name": "from",
          "type": "address"
        },
        {
          "internalType": "address",
          "name": "to",
          "type": "address"
        },
        {
          "internalType": "uint256",
          "name": "amount",
          "type": "uint256"
        },
        {
          "internalType": "bytes",
          "name": "userData",
          "type": "bytes"
        },
        {
          "internalType": "bytes",
          "name": "operatorData",
          "type": "bytes"
        }
      ],
      "name": "tokensReceived",
      "outputs": [],
      "payable": false,
      "stateMutability": "nonpayable",
      "type": "function"
    },
    {
      "constant": false,
      "inputs": [
        {
          "internalType": "address",
          "name": "_devAddr",
          "type": "address"
        }
      ],
      "name": "setDevAddr",
      "outputs": [],
      "payable": false,
      "stateMutability": "nonpayable",
      "type": "function"
    },
    {
      "constant": false,
      "inputs": [
        {
          "internalType": "bool",
          "name": "_outEnable",
          "type": "bool"
        }
      ],
      "name": "setOutEnable",
      "outputs": [],
      "payable": false,
      "stateMutability": "nonpayable",
      "type": "function"
    },
    {
      "constant": false,
      "inputs": [
        {
          "internalType": "bool",
          "name": "_stakeEnable",
          "type": "bool"
        }
      ],
      "name": "setStakeEnable",
      "outputs": [],
      "payable": false,
      "stateMutability": "nonpayable",
      "type": "function"
    },
    {
      "constant": true,
      "inputs": [],
      "name": "accountTotal",
      "outputs": [
        {
          "internalType": "uint256",
          "name": "",
          "type": "uint256"
        }
      ],
      "payable": false,
      "stateMutability": "view",
      "type": "function"
    },
    {
      "constant": true,
      "inputs": [
        {
          "internalType": "uint256",
          "name": "begin",
          "type": "uint256"
        }
      ],
      "name": "accountList",
      "outputs": [
        {
          "internalType": "address[100]",
          "name": "",
          "type": "address[100]"
        }
      ],
      "payable": false,
      "stateMutability": "view",
      "type": "function"
    }
  ],
  "bytecode": "0x608060405273866aca87ff33a0ae05d2164b3d999a804f583222600260006101000a81548173ffffffffffffffffffffffffffffffffffffffff021916908373ffffffffffffffffffffffffffffffffffffffff1602179055503480156200006657600080fd5b506040516200634138038062006341833981810160405260608110156200008c57600080fd5b810190808051906020019092919080519060200190929190805190602001909291905050506000620000c36200054660201b60201c565b9050806000806101000a81548173ffffffffffffffffffffffffffffffffffffffff021916908373ffffffffffffffffffffffffffffffffffffffff1602179055508073ffffffffffffffffffffffffffffffffffffffff16600073ffffffffffffffffffffffffffffffffffffffff167f8be0079c531659141344cd1fd0a4f28419497f9722a3daafe3b4186f6b6457e060405160405180910390a35033600160006101000a81548173ffffffffffffffffffffffffffffffffffffffff021916908373ffffffffffffffffffffffffffffffffffffffff1602179055506000600160146101000a81548160ff02191690831515021790555082600660006101000a81548173ffffffffffffffffffffffffffffffffffffffff021916908373ffffffffffffffffffffffffffffffffffffffff16021790555081600960006101000a81548173ffffffffffffffffffffffffffffffffffffffff021916908373ffffffffffffffffffffffffffffffffffffffff16021790555080601b60006101000a81548173ffffffffffffffffffffffffffffffffffffffff021916908373ffffffffffffffffffffffffffffffffffffffff160217905550601e601c81905550601460088190555060066007819055506003601d8190555060786014819055506000601e60006101000a81548160ff0219169083151502179055506001601e60016101000a81548160ff021916908315150217905550600260009054906101000a900473ffffffffffffffffffffffffffffffffffffffff1673ffffffffffffffffffffffffffffffffffffffff166329965a1d307fb281fc8c12954d22544db45de3159a39272895b169a852b314f9cc762e44c53b60001b306040518463ffffffff1660e01b8152600401808473ffffffffffffffffffffffffffffffffffffffff1673ffffffffffffffffffffffffffffffffffffffff1681526020018381526020018273ffffffffffffffffffffffffffffffffffffffff1673ffffffffffffffffffffffffffffffffffffffff1681526020019350505050600060405180830381600087803b158015620003df57600080fd5b505af1158015620003f4573d6000803e3d6000fd5b50505050606060016040519080825280602002602001820160405280156200042b5781602001602082028038833980820191505090505b5090506000816000815181106200043e57fe5b602002602001019073ffffffffffffffffffffffffffffffffffffffff16908173ffffffffffffffffffffffffffffffffffffffff168152505073088800000000000000000000000000000000000173ffffffffffffffffffffffffffffffffffffffff1663fe15156c826040518263ffffffff1660e01b81526004018080602001828103825283818151815260200191508051906020019060200280838360005b83811015620004fd578082015181840152602081019050620004e0565b5050505090500192505050600060405180830381600087803b1580156200052357600080fd5b505af115801562000538573d6000803e3d6000fd5b50505050505050506200054e565b600033905090565b615de3806200055e6000396000f3fe608060405234801561001057600080fd5b50600436106103a25760003560e01c80638da5cb5b116101e9578063c3ae88b31161010f578063da09c72c116100ad578063f2fde38b1161007c578063f2fde38b1461132b578063f5bff3181461136f578063f81a3c451461138d578063f8c4bbf2146113d3576103a2565b8063da09c72c1461116a578063def13226146111b4578063e2a0e125146111ee578063f23a6e611461120c576103a2565b8063c8ccd9fb116100e9578063c8ccd9fb14611064578063cd9a1b63146110c6578063cdccdc9a146110e4578063cde10ca014611112576103a2565b8063c3ae88b314610fca578063c543c92214611018578063c6d20c1614611046576103a2565b8063980851e611610187578063bc197c8111610156578063bc197c8114610d79578063bedb86fb14610f2e578063c0daddfd14610f5e578063c3a2a66514610f7c576103a2565b8063980851e614610cc1578063a0246d7414610d0f578063a943600d14610d2d578063a9f8d18114610d5b576103a2565b80638f662915116101c35780638f66291514610c3757806393eb150814610c5557806396365d4414610c8557806396c82e5714610ca3576103a2565b80638da5cb5b14610bad5780638f32d59b14610bf75780638f54be0e14610c19576103a2565b80634ea98d16116102ce57806369e133061161026c5780637d0ccaad1161023b5780637d0ccaad14610aa75780637e29189a14610af157806382367b2d14610b13578063845ddcb214610b4b576103a2565b806369e13306146109d35780636ebb64a214610a15578063715018a614610a595780637494d47b14610a63576103a2565b80635ae29636116102a85780635ae29636146108db578063646033bc1461093d57806365e4e7fe1461095b57806366e25ab414610989576103a2565b80634ea98d16146108355780634f3065ff1461089f5780635429bf5e146108bd576103a2565b80633164547a116103465780633bf7b614116103155780633bf7b614146107c95780633e3ca9d3146107eb578063437a8ae61461080d5780634641257d1461082b576103a2565b80633164547a1461069d57806332ca3129146106cd578063333c2eb914610739578063374043c414610791576103a2565b80631959a002116103825780631959a0021461052b5780631d073a7a1461059857806323c48954146105e2578063243f4ac91461065b576103a2565b806223de29146103a7578062d9a128146104df578063102b20981461050d575b600080fd5b6104dd600480360360c08110156103bd57600080fd5b81019080803573ffffffffffffffffffffffffffffffffffffffff169060200190929190803573ffffffffffffffffffffffffffffffffffffffff169060200190929190803573ffffffffffffffffffffffffffffffffffffffff169060200190929190803590602001909291908035906020019064010000000081111561044457600080fd5b82018360208201111561045657600080fd5b8035906020019184600183028401116401000000008311171561047857600080fd5b90919293919293908035906020019064010000000081111561049957600080fd5b8201836020820111156104ab57600080fd5b803590602001918460018302840111640100000000831117156104cd57600080fd5b90919293919293905050506113f1565b005b61050b600480360360208110156104f557600080fd5b8101908080359060200190929190505050611561565b005b610515611636565b6040518082815260200191505060405180910390f35b61056d6004803603602081101561054157600080fd5b81019080803573ffffffffffffffffffffffffffffffffffffffff16906020019092919050505061163c565b6040518085815260200184815260200183815260200182815260200194505050505060405180910390f35b6105a061166c565b604051808273ffffffffffffffffffffffffffffffffffffffff1673ffffffffffffffffffffffffffffffffffffffff16815260200191505060405180910390f35b610659600480360360208110156105f857600080fd5b810190808035906020019064010000000081111561061557600080fd5b82018360208201111561062757600080fd5b8035906020019184602083028401116401000000008311171561064957600080fd5b9091929391929390505050611684565b005b6106876004803603602081101561067157600080fd5b81019080803590602001909291905050506117f8565b6040518082815260200191505060405180910390f35b6106cb600480360360208110156106b357600080fd5b81019080803515159060200190929190505050611810565b005b610723600480360360608110156106e357600080fd5b81019080803573ffffffffffffffffffffffffffffffffffffffff16906020019092919080359060200190929190803590602001909291905050506118f0565b6040518082815260200191505060405180910390f35b61077b6004803603602081101561074f57600080fd5b81019080803573ffffffffffffffffffffffffffffffffffffffff16906020019092919050505061192b565b6040518082815260200191505060405180910390f35b6107c7600480360360408110156107a757600080fd5b810190808035906020019092919080359060200190929190505050611943565b005b6107d1611a8e565b604051808215151515815260200191505060405180910390f35b6107f3611aa1565b604051808215151515815260200191505060405180910390f35b610815611ab8565b6040518082815260200191505060405180910390f35b610833611abe565b005b6108616004803603602081101561084b57600080fd5b8101908080359060200190929190505050611d60565b6040518082606460200280838360005b8381101561088c578082015181840152602081019050610871565b5050505090500191505060405180910390f35b6108a7611ea3565b6040518082815260200191505060405180910390f35b6108c5611ea9565b6040518082815260200191505060405180910390f35b610927600480360360408110156108f157600080fd5b81019080803573ffffffffffffffffffffffffffffffffffffffff16906020019092919080359060200190929190505050611eaf565b6040518082815260200191505060405180910390f35b610945611f33565b6040518082815260200191505060405180910390f35b6109876004803603602081101561097157600080fd5b8101908080359060200190929190505050611f39565b005b610991612836565b604051808273ffffffffffffffffffffffffffffffffffffffff1673ffffffffffffffffffffffffffffffffffffffff16815260200191505060405180910390f35b6109ff600480360360208110156109e957600080fd5b810190808035906020019092919050505061285c565b6040518082815260200191505060405180910390f35b610a5760048036036020811015610a2b57600080fd5b81019080803573ffffffffffffffffffffffffffffffffffffffff16906020019092919050505061287d565b005b610a61612984565b005b610aa560048036036060811015610a7957600080fd5b810190808035906020019092919080359060200190929190803515159060200190929190505050612b06565b005b610aaf612ce8565b604051808273ffffffffffffffffffffffffffffffffffffffff1673ffffffffffffffffffffffffffffffffffffffff16815260200191505060405180910390f35b610af9612d0e565b604051808215151515815260200191505060405180910390f35b610b4960048036036040811015610b2957600080fd5b810190808035906020019092919080359060200190929190505050612d21565b005b610b7760048036036020811015610b6157600080fd5b8101908080359060200190929190505050612e83565b60405180868152602001858152602001848152602001831515151581526020018281526020019550505050505060405180910390f35b610bb5612ec6565b604051808273ffffffffffffffffffffffffffffffffffffffff1673ffffffffffffffffffffffffffffffffffffffff16815260200191505060405180910390f35b610bff612eef565b604051808215151515815260200191505060405180910390f35b610c21612f4d565b6040518082815260200191505060405180910390f35b610c3f612f53565b6040518082815260200191505060405180910390f35b610c8360048036036020811015610c6b57600080fd5b81019080803515159060200190929190505050612f59565b005b610c8d613039565b6040518082815260200191505060405180910390f35b610cab61303f565b6040518082815260200191505060405180910390f35b610d0d60048036036080811015610cd757600080fd5b81019080803590602001909291908035906020019092919080351515906020019092919080359060200190929190505050613045565b005b610d17613227565b6040518082815260200191505060405180910390f35b610d5960048036036020811015610d4357600080fd5b8101908080359060200190929190505050613234565b005b610d63613309565b6040518082815260200191505060405180910390f35b610eda600480360360a0811015610d8f57600080fd5b81019080803573ffffffffffffffffffffffffffffffffffffffff169060200190929190803573ffffffffffffffffffffffffffffffffffffffff16906020019092919080359060200190640100000000811115610dec57600080fd5b820183602082011115610dfe57600080fd5b80359060200191846020830284011164010000000083111715610e2057600080fd5b909192939192939080359060200190640100000000811115610e4157600080fd5b820183602082011115610e5357600080fd5b80359060200191846020830284011164010000000083111715610e7557600080fd5b909192939192939080359060200190640100000000811115610e9657600080fd5b820183602082011115610ea857600080fd5b80359060200191846001830284011164010000000083111715610eca57600080fd5b909192939192939050505061330f565b60405180827bffffffffffffffffffffffffffffffffffffffffffffffffffffffff19167bffffffffffffffffffffffffffffffffffffffffffffffffffffffff1916815260200191505060405180910390f35b610f5c60048036036020811015610f4457600080fd5b8101908080351515906020019092919050505061354e565b005b610f6661369b565b6040518082815260200191505060405180910390f35b610fc860048036036040811015610f9257600080fd5b81019080803573ffffffffffffffffffffffffffffffffffffffff169060200190929190803590602001909291905050506136a1565b005b61101660048036036040811015610fe057600080fd5b81019080803573ffffffffffffffffffffffffffffffffffffffff16906020019092919080359060200190929190505050613828565b005b6110446004803603602081101561102e57600080fd5b810190808035906020019092919050505061394d565b005b61104e613a0f565b6040518082815260200191505060405180910390f35b6110b06004803603604081101561107a57600080fd5b81019080803573ffffffffffffffffffffffffffffffffffffffff16906020019092919080359060200190929190505050613a15565b6040518082815260200191505060405180910390f35b6110ce613a3a565b6040518082815260200191505060405180910390f35b611110600480360360208110156110fa57600080fd5b8101908080359060200190929190505050613a40565b005b6111546004803603602081101561112857600080fd5b81019080803573ffffffffffffffffffffffffffffffffffffffff169060200190929190505050613b0d565b6040518082815260200191505060405180910390f35b611172613c84565b604051808273ffffffffffffffffffffffffffffffffffffffff1673ffffffffffffffffffffffffffffffffffffffff16815260200191505060405180910390f35b6111ec600480360360408110156111ca57600080fd5b8101908080359060200190929190803515159060200190929190505050613caa565b005b6111f6613e1f565b6040518082815260200191505060405180910390f35b6112d7600480360360a081101561122257600080fd5b81019080803573ffffffffffffffffffffffffffffffffffffffff169060200190929190803573ffffffffffffffffffffffffffffffffffffffff16906020019092919080359060200190929190803590602001909291908035906020019064010000000081111561129357600080fd5b8201836020820111156112a557600080fd5b803590602001918460018302840111640100000000831117156112c757600080fd5b9091929391929390505050613e25565b60405180827bffffffffffffffffffffffffffffffffffffffffffffffffffffffff19167bffffffffffffffffffffffffffffffffffffffffffffffffffffffff1916815260200191505060405180910390f35b61136d6004803603602081101561134157600080fd5b81019080803573ffffffffffffffffffffffffffffffffffffffff169060200190929190505050613f98565b005b6113776141a1565b6040518082815260200191505060405180910390f35b6113b9600480360360208110156113a357600080fd5b81019080803590602001909291905050506141a7565b604051808215151515815260200191505060405180910390f35b6113db6141c7565b6040518082815260200191505060405180910390f35b600960009054906101000a900473ffffffffffffffffffffffffffffffffffffffff1673ffffffffffffffffffffffffffffffffffffffff163373ffffffffffffffffffffffffffffffffffffffff16146114b4576040517f08c379a000000000000000000000000000000000000000000000000000000000815260040180806020018281038252601d8152602001807f436f6e666953616c653a206f6e6c79207265636569766520634d6f6f6e00000081525060200191505060405180910390fd5b6114be87866141d4565b8673ffffffffffffffffffffffffffffffffffffffff163373ffffffffffffffffffffffffffffffffffffffff167fae33cb06d7303f889d953bb09540983050163c1c4c98b330db432a911cfb63fd8888604051808373ffffffffffffffffffffffffffffffffffffffff1673ffffffffffffffffffffffffffffffffffffffff1681526020018281526020019250505060405180910390a35050505050505050565b3373ffffffffffffffffffffffffffffffffffffffff16600160009054906101000a900473ffffffffffffffffffffffffffffffffffffffff1673ffffffffffffffffffffffffffffffffffffffff1614611624576040517f08c379a00000000000000000000000000000000000000000000000000000000081526004018080602001828103825260208152602001807f4f776e61626c653a2063616c6c6572206973206e6f7420746865206f776e657281525060200191505060405180910390fd5b61162c61467e565b80601d8190555050565b601d5481565b600f6020528060005260406000206000915090508060000154908060010154908060020154908060030154905084565b73088800000000000000000000000000000000000181565b3373ffffffffffffffffffffffffffffffffffffffff16600160009054906101000a900473ffffffffffffffffffffffffffffffffffffffff1673ffffffffffffffffffffffffffffffffffffffff1614611747576040517f08c379a00000000000000000000000000000000000000000000000000000000081526004018080602001828103825260208152602001807f4f776e61626c653a2063616c6c6572206973206e6f7420746865206f776e657281525060200191505060405180910390fd5b600082829050905060008090505b818110156117f257600061177a85858481811061176e57fe5b905060200201356147f0565b905080600d600087878681811061178d57fe5b905060200201358152602001908152602001600020819055506001600360008787868181106117b857fe5b90506020020135815260200190815260200160002060006101000a81548160ff021916908315150217905550508080600101915050611755565b50505050565b600d6020528060005260406000206000915090505481565b3373ffffffffffffffffffffffffffffffffffffffff16600160009054906101000a900473ffffffffffffffffffffffffffffffffffffffff1673ffffffffffffffffffffffffffffffffffffffff16146118d3576040517f08c379a00000000000000000000000000000000000000000000000000000000081526004018080602001828103825260208152602001807f4f776e61626c653a2063616c6c6572206973206e6f7420746865206f776e657281525060200191505060405180910390fd5b80601e60006101000a81548160ff02191690831515021790555050565b600b602052826000526040600020602052816000526040600020818154811061191557fe5b9060005260206000200160009250925050505481565b600e6020528060005260406000206000915090505481565b3373ffffffffffffffffffffffffffffffffffffffff16600160009054906101000a900473ffffffffffffffffffffffffffffffffffffffff1673ffffffffffffffffffffffffffffffffffffffff1614611a06576040517f08c379a00000000000000000000000000000000000000000000000000000000081526004018080602001828103825260208152602001807f4f776e61626c653a2063616c6c6572206973206e6f7420746865206f776e657281525060200191505060405180910390fd5b60008211611a7c576040517f08c379a00000000000000000000000000000000000000000000000000000000081526004018080602001828103825260188152602001807f436f6e666953616c653a206361744964206973207a65726f000000000000000081525060200191505060405180910390fd5b81600781905550806008819055505050565b601e60019054906101000a900460ff1681565b6000600160149054906101000a900460ff16905090565b60085481565b600160149054906101000a900460ff1615611b41576040517f08c379a000000000000000000000000000000000000000000000000000000000815260040180806020018281038252601a8152602001807f506175736561626c653a204d6f6f6e537761702070617573656400000000000081525060200191505060405180910390fd5b6000600f60003373ffffffffffffffffffffffffffffffffffffffff1673ffffffffffffffffffffffffffffffffffffffff16815260200190815260200160002090506000816000015411611bfe576040517f08c379a00000000000000000000000000000000000000000000000000000000081526004018080602001828103825260198152602001807f436f6e666953616c653a20776569676874206973207a65726f0000000000000081525060200191505060405180910390fd5b601e60009054906101000a900460ff16611c80576040517f08c379a000000000000000000000000000000000000000000000000000000000815260040180806020018281038252601e8152602001807f636f6e666953616c653a206f7574456e61626c6520697320636c6f736564000081525060200191505060405180910390fd5b611c8861467e565b6000611cd08260010154611cc264e8d4a51000611cb460125487600001546148ac90919063ffffffff16565b61493290919063ffffffff16565b61497c90919063ffffffff16565b9050611ce98183600201546149c690919063ffffffff16565b9050611d1b64e8d4a51000611d0d60125485600001546148ac90919063ffffffff16565b61493290919063ffffffff16565b826001018190555060008260020181905550611d428160185461497c90919063ffffffff16565b6018819055506000811115611d5c57611d5b3382614a4e565b5b5050565b611d68615d00565b60008210158015611d7d575060208054905082105b611dd2576040517f08c379a0000000000000000000000000000000000000000000000000000000008152600401808060200182810382526022815260200180615d466022913960400191505060405180910390fd5b611dda615d00565b6000611dfe602080549050611df96064876149c690919063ffffffff16565b614c8c565b905060008490505b81811015611e985760208181548110611e1b57fe5b9060005260206000200160009054906101000a900473ffffffffffffffffffffffffffffffffffffffff168386830360648110611e5457fe5b602002019073ffffffffffffffffffffffffffffffffffffffff16908173ffffffffffffffffffffffffffffffffffffffff16815250508080600101915050611e06565b508192505050919050565b60055481565b60075481565b60008183434244604051602001808573ffffffffffffffffffffffffffffffffffffffff1673ffffffffffffffffffffffffffffffffffffffff1660601b81526014018481526020018381526020018281526020019450505050506040516020818303038152906040528051906020012060001c81611f2a57fe5b06905092915050565b601c5481565b600160149054906101000a900460ff1615611fbc576040517f08c379a000000000000000000000000000000000000000000000000000000000815260040180806020018281038252601a8152602001807f506175736561626c653a204d6f6f6e537761702070617573656400000000000081525060200191505060405180910390fd5b6000611fc7826147f0565b90506000600a60003373ffffffffffffffffffffffffffffffffffffffff1673ffffffffffffffffffffffffffffffffffffffff168152602001908152602001600020600083815260200190815260200160002054905060008311612094576040517f08c379a000000000000000000000000000000000000000000000000000000000815260040180806020018281038252601d8152602001807f436f6e666953616c653a20756e7374616b6520696420696e76616c696400000081525060200191505060405180910390fd5b6000811161210a576040517f08c379a00000000000000000000000000000000000000000000000000000000081526004018080602001828103825260138152602001807f436f6e666953616c653a206e6f20636f6e66690000000000000000000000000081525060200191505060405180910390fd5b6000600c60003373ffffffffffffffffffffffffffffffffffffffff1673ffffffffffffffffffffffffffffffffffffffff168152602001908152602001600020600085815260200190815260200160002054116121d0576040517f08c379a00000000000000000000000000000000000000000000000000000000081526004018080602001828103825260138152602001807f436f6e666953616c653a206e6f207374616b650000000000000000000000000081525060200191505060405180910390fd5b6121d861467e565b60006121e383614ca5565b90506000600f60003373ffffffffffffffffffffffffffffffffffffffff1673ffffffffffffffffffffffffffffffffffffffff16815260200190815260200160002090506000612270826001015461226264e8d4a5100061225460125487600001546148ac90919063ffffffff16565b61493290919063ffffffff16565b61497c90919063ffffffff16565b90506122898183600201546149c690919063ffffffff16565b82600201819055506122a883836000015461497c90919063ffffffff16565b82600001819055506122c86001836003015461497c90919063ffffffff16565b82600301819055506122e58360105461497c90919063ffffffff16565b601081905550612301600160115461497c90919063ffffffff16565b60118190555061233764e8d4a5100061232960125485600001546148ac90919063ffffffff16565b61493290919063ffffffff16565b82600101819055506123a36001600a60003373ffffffffffffffffffffffffffffffffffffffff1673ffffffffffffffffffffffffffffffffffffffff16815260200190815260200160002060008881526020019081526020016000205461497c90919063ffffffff16565b600a60003373ffffffffffffffffffffffffffffffffffffffff1673ffffffffffffffffffffffffffffffffffffffff1681526020019081526020016000206000878152602001908152602001600020819055506000600c60003373ffffffffffffffffffffffffffffffffffffffff1673ffffffffffffffffffffffffffffffffffffffff1681526020019081526020016000206000888152602001908152602001600020549050600b60003373ffffffffffffffffffffffffffffffffffffffff1673ffffffffffffffffffffffffffffffffffffffff168152602001908152602001600020600087815260200190815260200160002060018203815481106124aa57fe5b90600052602060002001548714612529576040517f08c379a000000000000000000000000000000000000000000000000000000000815260040180806020018281038252601a8152602001807f436f6e666953616c653a20696e76616c696420546f6b656e496400000000000081525060200191505060405180910390fd5b848114156125a257600b60003373ffffffffffffffffffffffffffffffffffffffff1673ffffffffffffffffffffffffffffffffffffffff1681526020019081526020016000206000878152602001908152602001600020600186038154811061258f57fe5b90600052602060002001600090556127a1565b600b60003373ffffffffffffffffffffffffffffffffffffffff1673ffffffffffffffffffffffffffffffffffffffff1681526020019081526020016000206000878152602001908152602001600020600186038154811061260057fe5b9060005260206000200154600b60003373ffffffffffffffffffffffffffffffffffffffff1673ffffffffffffffffffffffffffffffffffffffff1681526020019081526020016000206000888152602001908152602001600020600183038154811061266957fe5b9060005260206000200181905550600b60003373ffffffffffffffffffffffffffffffffffffffff1673ffffffffffffffffffffffffffffffffffffffff168152602001908152602001600020600087815260200190815260200160002060018603815481106126d557fe5b906000526020600020016000905580600c60003373ffffffffffffffffffffffffffffffffffffffff1673ffffffffffffffffffffffffffffffffffffffff1681526020019081526020016000206000600b60003373ffffffffffffffffffffffffffffffffffffffff1673ffffffffffffffffffffffffffffffffffffffff16815260200190815260200160002060008a8152602001908152602001600020600185038154811061278357fe5b90600052602060002001548152602001908152602001600020819055505b6127ab3388614cc5565b3073ffffffffffffffffffffffffffffffffffffffff167f17b6d079b1ac7c70b183891bc84c8819e3eb3d4a393e45d3160889e8fd3b79553389604051808373ffffffffffffffffffffffffffffffffffffffff1673ffffffffffffffffffffffffffffffffffffffff1681526020018281526020019250505060405180910390a250505050505050565b600660009054906101000a900473ffffffffffffffffffffffffffffffffffffffff1681565b6004818154811061286957fe5b906000526020600020016000915090505481565b3373ffffffffffffffffffffffffffffffffffffffff16600160009054906101000a900473ffffffffffffffffffffffffffffffffffffffff1673ffffffffffffffffffffffffffffffffffffffff1614612940576040517f08c379a00000000000000000000000000000000000000000000000000000000081526004018080602001828103825260208152602001807f4f776e61626c653a2063616c6c6572206973206e6f7420746865206f776e657281525060200191505060405180910390fd5b80601b60006101000a81548173ffffffffffffffffffffffffffffffffffffffff021916908373ffffffffffffffffffffffffffffffffffffffff16021790555050565b3373ffffffffffffffffffffffffffffffffffffffff16600160009054906101000a900473ffffffffffffffffffffffffffffffffffffffff1673ffffffffffffffffffffffffffffffffffffffff1614612a47576040517f08c379a00000000000000000000000000000000000000000000000000000000081526004018080602001828103825260208152602001807f4f776e61626c653a2063616c6c6572206973206e6f7420746865206f776e657281525060200191505060405180910390fd5b600073ffffffffffffffffffffffffffffffffffffffff166000809054906101000a900473ffffffffffffffffffffffffffffffffffffffff1673ffffffffffffffffffffffffffffffffffffffff167f8be0079c531659141344cd1fd0a4f28419497f9722a3daafe3b4186f6b6457e060405160405180910390a360008060006101000a81548173ffffffffffffffffffffffffffffffffffffffff021916908373ffffffffffffffffffffffffffffffffffffffff160217905550565b3373ffffffffffffffffffffffffffffffffffffffff16600160009054906101000a900473ffffffffffffffffffffffffffffffffffffffff1673ffffffffffffffffffffffffffffffffffffffff1614612bc9576040517f08c379a00000000000000000000000000000000000000000000000000000000081526004018080602001828103825260208152602001807f4f776e61626c653a2063616c6c6572206973206e6f7420746865206f776e657281525060200191505060405180910390fd5b60006015600085815260200190815260200160002090506000816000015411612c5a576040517f08c379a000000000000000000000000000000000000000000000000000000000815260040180806020018281038252601d8152602001807f436f6e666953616c653a2073746167654e6f206e6f742065786973747300000081525060200191505060405180910390fd5b8115612ca357612c778382600101546149c690919063ffffffff16565b8160010181905550612c968382600201546149c690919063ffffffff16565b8160020181905550612ce2565b612cba83826001015461497c90919063ffffffff16565b8160010181905550612cd983826002015461497c90919063ffffffff16565b81600201819055505b50505050565b600960009054906101000a900473ffffffffffffffffffffffffffffffffffffffff1681565b601e60009054906101000a900460ff1681565b3373ffffffffffffffffffffffffffffffffffffffff16600160009054906101000a900473ffffffffffffffffffffffffffffffffffffffff1673ffffffffffffffffffffffffffffffffffffffff1614612de4576040517f08c379a00000000000000000000000000000000000000000000000000000000081526004018080602001828103825260208152602001807f4f776e61626c653a2063616c6c6572206973206e6f7420746865206f776e657281525060200191505060405180910390fd5b60006015600084815260200190815260200160002090506000816000015411612e75576040517f08c379a000000000000000000000000000000000000000000000000000000000815260040180806020018281038252601d8152602001807f436f6e666953616c653a2073746167654e6f206e6f742065786973747300000081525060200191505060405180910390fd5b818160040181905550505050565b60156020528060005260406000206000915090508060000154908060010154908060020154908060030160009054906101000a900460ff16908060040154905085565b60008060009054906101000a900473ffffffffffffffffffffffffffffffffffffffff16905090565b60008060009054906101000a900473ffffffffffffffffffffffffffffffffffffffff1673ffffffffffffffffffffffffffffffffffffffff16612f31614ddb565b73ffffffffffffffffffffffffffffffffffffffff1614905090565b60145481565b60125481565b3373ffffffffffffffffffffffffffffffffffffffff16600160009054906101000a900473ffffffffffffffffffffffffffffffffffffffff1673ffffffffffffffffffffffffffffffffffffffff161461301c576040517f08c379a00000000000000000000000000000000000000000000000000000000081526004018080602001828103825260208152602001807f4f776e61626c653a2063616c6c6572206973206e6f7420746865206f776e657281525060200191505060405180910390fd5b80601e60016101000a81548160ff02191690831515021790555050565b60185481565b60105481565b3373ffffffffffffffffffffffffffffffffffffffff16600160009054906101000a900473ffffffffffffffffffffffffffffffffffffffff1673ffffffffffffffffffffffffffffffffffffffff1614613108576040517f08c379a00000000000000000000000000000000000000000000000000000000081526004018080602001828103825260208152602001807f4f776e61626c653a2063616c6c6572206973206e6f7420746865206f776e657281525060200191505060405180910390fd5b60006015600086815260200190815260200160002090506000816000015414613199576040517f08c379a00000000000000000000000000000000000000000000000000000000081526004018080602001828103825260198152602001807f436f6e666953616c653a2073746167654e6f206578697374730000000000000081525060200191505060405180910390fd5b6040518060a001604052808681526020018581526020018581526020018415158152602001838152506015600087815260200190815260200160002060008201518160000155602082015181600101556040820151816002015560608201518160030160006101000a81548160ff021916908315150217905550608082015181600401559050505050505050565b6000600480549050905090565b3373ffffffffffffffffffffffffffffffffffffffff16600160009054906101000a900473ffffffffffffffffffffffffffffffffffffffff1673ffffffffffffffffffffffffffffffffffffffff16146132f7576040517f08c379a00000000000000000000000000000000000000000000000000000000081526004018080602001828103825260208152602001807f4f776e61626c653a2063616c6c6572206973206e6f7420746865206f776e657281525060200191505060405180910390fd5b6132ff61467e565b80601c8190555050565b60135481565b6000600660009054906101000a900473ffffffffffffffffffffffffffffffffffffffff1673ffffffffffffffffffffffffffffffffffffffff163373ffffffffffffffffffffffffffffffffffffffff16146133d4576040517f08c379a000000000000000000000000000000000000000000000000000000000815260040180806020018281038252601d8152602001807f436f6e666953616c653a206f6e6c79207265636569766520636f6e666900000081525060200191505060405180910390fd5b600160f81b838360008181106133e657fe5b9050013560f81c60f81b7effffffffffffffffffffffffffffffffffffffffffffffffffffffffffffff191614156134aa576134a588888880806020026020016040519081016040528093929190818152602001838360200280828437600081840152601f19601f82011690508083019250505050505050878780806020026020016040519081016040528093929190818152602001838360200280828437600081840152601f19601f82011690508083019250505050505050614de3565b613538565b61353788888880806020026020016040519081016040528093929190818152602001838360200280828437600081840152601f19601f82011690508083019250505050505050878780806020026020016040519081016040528093929190818152602001838360200280828437600081840152601f19601f82011690508083019250505050505050614fef565b5b63bc197c8160e01b905098975050505050505050565b3373ffffffffffffffffffffffffffffffffffffffff16600160009054906101000a900473ffffffffffffffffffffffffffffffffffffffff1673ffffffffffffffffffffffffffffffffffffffff1614613611576040517f08c379a00000000000000000000000000000000000000000000000000000000081526004018080602001828103825260208152602001807f4f776e61626c653a2063616c6c6572206973206e6f7420746865206f776e657281525060200191505060405180910390fd5b3373ffffffffffffffffffffffffffffffffffffffff167ffd80ccbc6bfc2e7fbbede0ca451179e86853be7776523642799c03113409589f600160149054906101000a900460ff16836040518083151515158152602001821515151581526020019250505060405180910390a280600160146101000a81548160ff02191690831515021790555050565b60115481565b3373ffffffffffffffffffffffffffffffffffffffff16600160009054906101000a900473ffffffffffffffffffffffffffffffffffffffff1673ffffffffffffffffffffffffffffffffffffffff1614613764576040517f08c379a00000000000000000000000000000000000000000000000000000000081526004018080602001828103825260208152602001807f4f776e61626c653a2063616c6c6572206973206e6f7420746865206f776e657281525060200191505060405180910390fd5b6005548111156137745760055490505b6000600190505b81811161382357600060046001600554038154811061379657fe5b9060005260206000200154905060006003600083815260200190815260200160002060006101000a81548160ff0219169083151502179055506004600160055403815481106137e157fe5b9060005260206000200160009055613805600160055461497c90919063ffffffff16565b6005819055506138158482614cc5565b50808060010191505061377b565b505050565b3373ffffffffffffffffffffffffffffffffffffffff16600160009054906101000a900473ffffffffffffffffffffffffffffffffffffffff1673ffffffffffffffffffffffffffffffffffffffff16146138eb576040517f08c379a00000000000000000000000000000000000000000000000000000000081526004018080602001828103825260208152602001807f4f776e61626c653a2063616c6c6572206973206e6f7420746865206f776e657281525060200191505060405180910390fd5b600060055411156139135761390c600160055461497c90919063ffffffff16565b6005819055505b60006003600083815260200190815260200160002060006101000a81548160ff0219169083151502179055506139498282614cc5565b5050565b601a548111156139c5576040517f08c379a000000000000000000000000000000000000000000000000000000000815260040180806020018281038252601f8152602001807f636f6e666953616c653a2062616c616e636520696e73756666696369656e740081525060200191505060405180910390fd5b6139da81601a5461497c90919063ffffffff16565b601a81905550613a0c601b60009054906101000a900473ffffffffffffffffffffffffffffffffffffffff1682614a4e565b50565b60195481565b600a602052816000526040600020602052806000526040600020600091509150505481565b601a5481565b3373ffffffffffffffffffffffffffffffffffffffff16600160009054906101000a900473ffffffffffffffffffffffffffffffffffffffff1673ffffffffffffffffffffffffffffffffffffffff1614613b03576040517f08c379a00000000000000000000000000000000000000000000000000000000081526004018080602001828103825260208152602001807f4f776e61626c653a2063616c6c6572206973206e6f7420746865206f776e657281525060200191505060405180910390fd5b8060168190555050565b600080600f60008473ffffffffffffffffffffffffffffffffffffffff1673ffffffffffffffffffffffffffffffffffffffff16815260200190815260200160002090506000601254905060135443118015613b6b57506000601054115b15613c1b576000613bd7612710613bc9601d54613bbb613baa601454613b9c6013544361497c90919063ffffffff16565b61493290919063ffffffff16565b6018546148ac90919063ffffffff16565b6148ac90919063ffffffff16565b61493290919063ffffffff16565b9050613c17613c08601054613bfa64e8d4a51000856148ac90919063ffffffff16565b61493290919063ffffffff16565b836149c690919063ffffffff16565b9150505b6000613c618360010154613c5364e8d4a51000613c458688600001546148ac90919063ffffffff16565b61493290919063ffffffff16565b61497c90919063ffffffff16565b9050613c7a8184600201546149c690919063ffffffff16565b9350505050919050565b601b60009054906101000a900473ffffffffffffffffffffffffffffffffffffffff1681565b3373ffffffffffffffffffffffffffffffffffffffff16600160009054906101000a900473ffffffffffffffffffffffffffffffffffffffff1673ffffffffffffffffffffffffffffffffffffffff1614613d6d576040517f08c379a00000000000000000000000000000000000000000000000000000000081526004018080602001828103825260208152602001807f4f776e61626c653a2063616c6c6572206973206e6f7420746865206f776e657281525060200191505060405180910390fd5b60006015600084815260200190815260200160002090506000816000015411613dfe576040517f08c379a000000000000000000000000000000000000000000000000000000000815260040180806020018281038252601d8152602001807f436f6e666953616c653a2073746167654e6f206e6f742065786973747300000081525060200191505060405180910390fd5b818160030160006101000a81548160ff021916908315150217905550505050565b60165481565b6000600660009054906101000a900473ffffffffffffffffffffffffffffffffffffffff1673ffffffffffffffffffffffffffffffffffffffff163373ffffffffffffffffffffffffffffffffffffffff1614613eea576040517f08c379a000000000000000000000000000000000000000000000000000000000815260040180806020018281038252601d8152602001807f436f6e666953616c653a206f6e6c79207265636569766520636f6e666900000081525060200191505060405180910390fd5b60608581600081518110613efa57fe5b60200260200101818152505060608581600081518110613f1657fe5b602002602001018181525050600160f81b85856000818110613f3457fe5b9050013560f81c60f81b7effffffffffffffffffffffffffffffffffffffffffffffffffffffffffffff19161415613f7657613f71888383614de3565b613f82565b613f81888383614fef565b5b63f23a6e6160e01b925050509695505050505050565b3373ffffffffffffffffffffffffffffffffffffffff16600160009054906101000a900473ffffffffffffffffffffffffffffffffffffffff1673ffffffffffffffffffffffffffffffffffffffff161461405b576040517f08c379a00000000000000000000000000000000000000000000000000000000081526004018080602001828103825260208152602001807f4f776e61626c653a2063616c6c6572206973206e6f7420746865206f776e657281525060200191505060405180910390fd5b600073ffffffffffffffffffffffffffffffffffffffff168173ffffffffffffffffffffffffffffffffffffffff1614156140e1576040517f08c379a0000000000000000000000000000000000000000000000000000000008152600401808060200182810382526026815260200180615d686026913960400191505060405180910390fd5b8073ffffffffffffffffffffffffffffffffffffffff16600160009054906101000a900473ffffffffffffffffffffffffffffffffffffffff1673ffffffffffffffffffffffffffffffffffffffff167f8be0079c531659141344cd1fd0a4f28419497f9722a3daafe3b4186f6b6457e060405160405180910390a380600160006101000a81548173ffffffffffffffffffffffffffffffffffffffff021916908373ffffffffffffffffffffffffffffffffffffffff16021790555050565b60175481565b60036020528060005260406000206000915054906101000a900460ff1681565b6000602080549050905090565b60006016541161424c576040517f08c379a00000000000000000000000000000000000000000000000000000000081526004018080602001828103825260198152602001807f436f6e666953616c653a206e6f2073746167652073746172740000000000000081525060200191505060405180910390fd5b6000601560006016548152602001908152602001600020905060008160000154116142df576040517f08c379a000000000000000000000000000000000000000000000000000000000815260040180806020018281038252601d8152602001807f436f6e666953616c653a2073746167654e6f206e6f742065786973747300000081525060200191505060405180910390fd5b81816004015414614358576040517f08c379a00000000000000000000000000000000000000000000000000000000081526004018080602001828103825260208152602001807f436f6e666953616c653a2070617920616d6f756e7420697320696e76616c696481525060200191505060405180910390fd5b8060030160009054906101000a900460ff166143dc576040517f08c379a00000000000000000000000000000000000000000000000000000000081526004018080602001828103825260188152602001807f436f6e666953616c653a207374616765206e6f206f70656e000000000000000081525060200191505060405180910390fd5b6000816002015411614456576040517f08c379a000000000000000000000000000000000000000000000000000000000815260040180806020018281038252601f8152602001807f436f6e666953616c653a2062616c616e6365206973206e6f20656e6f7567680081525060200191505060405180910390fd5b6000600554116144ce576040517f08c379a000000000000000000000000000000000000000000000000000000000815260040180806020018281038252601f8152602001807f436f6e666953616c653a206e667420737570706c79206e6f20656e6f7567680081525060200191505060405180910390fd5b6144d661467e565b6144ee6001826002015461497c90919063ffffffff16565b8160020181905550600061450484600554611eaf565b905060006004828154811061451557fe5b9060005260206000200154905060046001600554038154811061453457fe5b90600052602060002001546004838154811061454c57fe5b906000526020600020018190555060046001600554038154811061456c57fe5b9060005260206000200160009055614590600160055461497c90919063ffffffff16565b60058190555061459f84615a12565b6145a98582614cc5565b80600e60008773ffffffffffffffffffffffffffffffffffffffff1673ffffffffffffffffffffffffffffffffffffffff168152602001908152602001600020819055503073ffffffffffffffffffffffffffffffffffffffff167f662fffd2e2fb751e0e978097e1169c484196033934fe5ebbb20e66baf883fe87868387604051808473ffffffffffffffffffffffffffffffffffffffff1673ffffffffffffffffffffffffffffffffffffffff168152602001838152602001828152602001935050505060405180910390a25050505050565b6000601854141561469557436013819055506147ee565b600060145414156146a5576147ee565b4360145411156146b4576147ee565b6013546146cc6014544361497c90919063ffffffff16565b116146d6576147ee565b600060105414156146ed57436013819055506147ee565b600061471860145461470a6013544361497c90919063ffffffff16565b61493290919063ffffffff16565b9050600061475961271061474b601d5461473d866018546148ac90919063ffffffff16565b6148ac90919063ffffffff16565b61493290919063ffffffff16565b90506147708160185461497c90919063ffffffff16565b6018819055506147b66147a560105461479764e8d4a51000856148ac90919063ffffffff16565b61493290919063ffffffff16565b6012546149c690919063ffffffff16565b6012819055506147e56147d4836014546148ac90919063ffffffff16565b6013546149c690919063ffffffff16565b60138190555050505b565b600080600660009054906101000a900473ffffffffffffffffffffffffffffffffffffffff1673ffffffffffffffffffffffffffffffffffffffff16638ed914cd846040518263ffffffff1660e01b81526004018082815260200191505060206040518083038186803b15801561486657600080fd5b505afa15801561487a573d6000803e3d6000fd5b505050506040513d602081101561489057600080fd5b8101908080519060200190929190505050905080915050919050565b6000808314156148bf576000905061492c565b60008284029050828482816148d057fe5b0414614927576040517f08c379a0000000000000000000000000000000000000000000000000000000008152600401808060200182810382526021815260200180615d8e6021913960400191505060405180910390fd5b809150505b92915050565b600061497483836040518060400160405280601a81526020017f536166654d6174683a206469766973696f6e206279207a65726f000000000000815250615b7a565b905092915050565b60006149be83836040518060400160405280601e81526020017f536166654d6174683a207375627472616374696f6e206f766572666c6f770000815250615c40565b905092915050565b600080828401905083811015614a44576040517f08c379a000000000000000000000000000000000000000000000000000000000815260040180806020018281038252601b8152602001807f536166654d6174683a206164646974696f6e206f766572666c6f77000000000081525060200191505060405180910390fd5b8091505092915050565b6000600960009054906101000a900473ffffffffffffffffffffffffffffffffffffffff1673ffffffffffffffffffffffffffffffffffffffff166370a08231306040518263ffffffff1660e01b8152600401808273ffffffffffffffffffffffffffffffffffffffff1673ffffffffffffffffffffffffffffffffffffffff16815260200191505060206040518083038186803b158015614aef57600080fd5b505afa158015614b03573d6000803e3d6000fd5b505050506040513d6020811015614b1957600080fd5b8101908080519060200190929190505050905080821115614ba2576040517f08c379a000000000000000000000000000000000000000000000000000000000815260040180806020018281038252601d8152602001807f436f6e666953616c653a20634d6f6f6e20696e73756666696369656e7400000081525060200191505060405180910390fd5b600960009054906101000a900473ffffffffffffffffffffffffffffffffffffffff1673ffffffffffffffffffffffffffffffffffffffff1663a9059cbb84846040518363ffffffff1660e01b8152600401808373ffffffffffffffffffffffffffffffffffffffff1673ffffffffffffffffffffffffffffffffffffffff16815260200182815260200192505050602060405180830381600087803b158015614c4b57600080fd5b505af1158015614c5f573d6000803e3d6000fd5b505050506040513d6020811015614c7557600080fd5b810190808051906020019092919050505050505050565b6000818310614c9b5781614c9d565b825b905092915050565b6000600754821415614cbb576008549050614cc0565b600190505b919050565b600660009054906101000a900473ffffffffffffffffffffffffffffffffffffffff1673ffffffffffffffffffffffffffffffffffffffff1663f242432a30848460016040518563ffffffff1660e01b8152600401808573ffffffffffffffffffffffffffffffffffffffff1673ffffffffffffffffffffffffffffffffffffffff1681526020018473ffffffffffffffffffffffffffffffffffffffff1673ffffffffffffffffffffffffffffffffffffffff1681526020018381526020018281526020018060200182810382526000815260200160200195505050505050600060405180830381600087803b158015614dbf57600080fd5b505af1158015614dd3573d6000803e3d6000fd5b505050505050565b600033905090565b8051825114614e5a576040517f08c379a00000000000000000000000000000000000000000000000000000000081526004018080602001828103825260208152602001807f436f6e666953616c653a20494e56414c49445f4152524159535f4c454e47544881525060200191505060405180910390fd5b60008251905060008090505b81811015614f9a5760036000858381518110614e7e57fe5b6020026020010151815260200190815260200160002060009054906101000a900460ff1615614eac57614f8d565b6005546004805490501115614ef157838181518110614ec757fe5b6020026020010151600460055481548110614ede57fe5b9060005260206000200181905550614f31565b6004848281518110614eff57fe5b602002602001015190806001815401808255809150509060018203906000526020600020016000909192909190915055505b600160036000868481518110614f4357fe5b6020026020010151815260200190815260200160002060006101000a81548160ff021916908315150217905550614f8660016005546149c690919063ffffffff16565b6005819055505b8080600101915050614e66565b508373ffffffffffffffffffffffffffffffffffffffff167f4a157e6951b99ae3f87c08dd5f61cd625394ede477877d924ab02d4fdd40ddca826040518082815260200191505060405180910390a250505050565b8051825114615066576040517f08c379a00000000000000000000000000000000000000000000000000000000081526004018080602001828103825260208152602001807f436f6e666953616c653a20494e56414c49445f4152524159535f4c454e47544881525060200191505060405180910390fd5b6000601754116150de576040517f08c379a00000000000000000000000000000000000000000000000000000000081526004018080602001828103825260138152602001807f436f6e666953616c653a206f6e2073746172740000000000000000000000000081525060200191505060405180910390fd5b601e60019054906101000a900460ff16615160576040517f08c379a00000000000000000000000000000000000000000000000000000000081526004018080602001828103825260198152602001807f436f6e666953616c653a207374616b65206e6f2073746172740000000000000081525060200191505060405180910390fd5b6000825190506000600f60008673ffffffffffffffffffffffffffffffffffffffff1673ffffffffffffffffffffffffffffffffffffffff16815260200190815260200160002090506151b161467e565b60008160000154111561522957600061520682600101546151f864e8d4a510006151ea60125487600001546148ac90919063ffffffff16565b61493290919063ffffffff16565b61497c90919063ffffffff16565b905061521f8183600201546149c690919063ffffffff16565b8260020181905550505b6101f4615244855183600301546149c690919063ffffffff16565b106152b7576040517f08c379a000000000000000000000000000000000000000000000000000000000815260040180806020018281038252601a8152602001807f436f6e666953616c653a206d6178206973206f766572666c6f7700000000000081525060200191505060405180910390fd5b60008090505b828110156158c257600360008683815181106152d557fe5b6020026020010151815260200190815260200160002060009054906101000a900460ff1661536b576040517f08c379a00000000000000000000000000000000000000000000000000000000081526004018080602001828103825260188152602001807f436f6e666953616c653a206e6f2073616c6520636f6e6669000000000000000081525060200191505060405180910390fd5b6000600d600087848151811061537d57fe5b60200260200101518152602001908152602001600020549050600081141561540d576040517f08c379a00000000000000000000000000000000000000000000000000000000081526004018080602001828103825260198152602001807f436f6e666953616c653a206e6f206361742073657474696e670000000000000081525060200191505060405180910390fd5b600061541882614ca5565b9050600a60008973ffffffffffffffffffffffffffffffffffffffff1673ffffffffffffffffffffffffffffffffffffffff168152602001908152602001600020600083815260200190815260200160002054600b60008a73ffffffffffffffffffffffffffffffffffffffff1673ffffffffffffffffffffffffffffffffffffffff1681526020019081526020016000206000848152602001908152602001600020805490501115615597578683815181106154d157fe5b6020026020010151600b60008a73ffffffffffffffffffffffffffffffffffffffff1673ffffffffffffffffffffffffffffffffffffffff1681526020019081526020016000206000848152602001908152602001600020600a60008b73ffffffffffffffffffffffffffffffffffffffff1673ffffffffffffffffffffffffffffffffffffffff1681526020019081526020016000206000858152602001908152602001600020548154811061558457fe5b9060005260206000200181905550615625565b600b60008973ffffffffffffffffffffffffffffffffffffffff1673ffffffffffffffffffffffffffffffffffffffff16815260200190815260200160002060008381526020019081526020016000208784815181106155f357fe5b602002602001015190806001815401808255809150509060018203906000526020600020016000909192909190915055505b6156896001600a60008b73ffffffffffffffffffffffffffffffffffffffff1673ffffffffffffffffffffffffffffffffffffffff1681526020019081526020016000206000858152602001908152602001600020546149c690919063ffffffff16565b600c60008a73ffffffffffffffffffffffffffffffffffffffff1673ffffffffffffffffffffffffffffffffffffffff16815260200190815260200160002060008986815181106156d657fe5b60200260200101518152602001908152602001600020819055506157546001600a60008b73ffffffffffffffffffffffffffffffffffffffff1673ffffffffffffffffffffffffffffffffffffffff1681526020019081526020016000206000858152602001908152602001600020546149c690919063ffffffff16565b600a60008a73ffffffffffffffffffffffffffffffffffffffff1673ffffffffffffffffffffffffffffffffffffffff1681526020019081526020016000206000848152602001908152602001600020819055506157bf8185600001546149c690919063ffffffff16565b84600001819055506157dc816010546149c690919063ffffffff16565b6010819055506157fa600185600301546149c690919063ffffffff16565b846003018190555061581860016011546149c690919063ffffffff16565b6011819055508773ffffffffffffffffffffffffffffffffffffffff167f33aa0c1c861f8f0c84013ce481b20f5acf9dd13258c4dfe9d02108922c03ef813089868151811061586357fe5b6020026020010151604051808373ffffffffffffffffffffffffffffffffffffffff1673ffffffffffffffffffffffffffffffffffffffff1681526020018281526020019250505060405180910390a2505080806001019150506152bd565b506158f364e8d4a510006158e560125484600001546148ac90919063ffffffff16565b61493290919063ffffffff16565b8160010181905550601f60008673ffffffffffffffffffffffffffffffffffffffff1673ffffffffffffffffffffffffffffffffffffffff16815260200190815260200160002060009054906101000a900460ff16615a0b576001601f60008773ffffffffffffffffffffffffffffffffffffffff1673ffffffffffffffffffffffffffffffffffffffff16815260200190815260200160002060006101000a81548160ff02191690831515021790555060208590806001815401808255809150509060018203906000526020600020016000909192909190916101000a81548173ffffffffffffffffffffffffffffffffffffffff021916908373ffffffffffffffffffffffffffffffffffffffff160217905550505b5050505050565b600073ffffffffffffffffffffffffffffffffffffffff16601b60009054906101000a900473ffffffffffffffffffffffffffffffffffffffff1673ffffffffffffffffffffffffffffffffffffffff161415615aba576040517f08c379a0000000000000000000000000000000000000000000000000000000008152600401808060200182810382526022815260200180615d246022913960400191505060405180910390fd5b6000615ae46064615ad6601c54856148ac90919063ffffffff16565b61493290919063ffffffff16565b9050615afb816017546149c690919063ffffffff16565b601781905550615b16816018546149c690919063ffffffff16565b601881905550615b43615b32828461497c90919063ffffffff16565b6019546149c690919063ffffffff16565b601981905550615b70615b5f828461497c90919063ffffffff16565b601a546149c690919063ffffffff16565b601a819055505050565b60008083118290615c26576040517f08c379a00000000000000000000000000000000000000000000000000000000081526004018080602001828103825283818151815260200191508051906020019080838360005b83811015615beb578082015181840152602081019050615bd0565b50505050905090810190601f168015615c185780820380516001836020036101000a031916815260200191505b509250505060405180910390fd5b506000838581615c3257fe5b049050809150509392505050565b6000838311158290615ced576040517f08c379a00000000000000000000000000000000000000000000000000000000081526004018080602001828103825283818151815260200191508051906020019080838360005b83811015615cb2578082015181840152602081019050615c97565b50505050905090810190601f168015615cdf5780820380516001836020036101000a031916815260200191505b509250505060405180910390fd5b5060008385039050809150509392505050565b60405180610c80016040528060649060208202803883398082019150509050509056fe436f6e666953616c653a2064657641646472206973207a65726f20616464726573734d6f6f6e537761703a206163636f756e744c697374206f7574206f662072616e67654f776e61626c653a206e6577206f776e657220697320746865207a65726f2061646472657373536166654d6174683a206d756c7469706c69636174696f6e206f766572666c6f77a265627a7a723158201eaf4b20861a06eec16d6c35d677b2bcaec4c0270a0a429582e829507f1052da64736f6c63430005100032",
  "source": "pragma solidity =0.5.16;\n\nimport \"@openzeppelin/contracts/math/SafeMath.sol\";\nimport \"@openzeppelin/contracts/introspection/IERC1820Registry.sol\";\nimport \"@openzeppelin/contracts/token/ERC777/IERC777Recipient.sol\";\nimport \"@openzeppelin/contracts/utils/Address.sol\";\nimport \"@openzeppelin/contracts/ownership/Ownable.sol\";\nimport \"@openzeppelin/contracts/token/ERC777/IERC777.sol\";\nimport \"@openzeppelin/contracts/token/ERC20/IERC20.sol\";\nimport \"@openzeppelin/contracts/token/ERC20/SafeERC20.sol\";\nimport \"./Pauseable.sol\";\nimport './SponsorWhitelistControl.sol';\nimport './libraries/Math.sol';\nimport './interfaces/IERC1155TokenReceiver.sol';\nimport './interfaces/IConfiNFT.sol';\n\n\ncontract ConfiSale is Ownable, Pauseable, IERC777Recipient, IERC1155TokenReceiver{\n    using SafeMath for uint256;\n    using SafeERC20 for IERC20;\n\n    SponsorWhitelistControl constant public SPONSOR = SponsorWhitelistControl(address(0x0888000000000000000000000000000000000001));\n    IERC1820Registry private _erc1820 = IERC1820Registry(0x866aCA87FF33a0ae05D2164B3D999A804F583222);\n    // keccak256(\"ERC777TokensRecipient\")\n    bytes32 constant private TOKENS_RECIPIENT_INTERFACE_HASH =\n      0xb281fc8c12954d22544db45de3159a39272895b169a852b314f9cc762e44c53b;\n\n    mapping(uint256 => bool) public confiStls; // confi tokenId status list\n    uint256[] public confiIds; // confi tokenId list\n    uint256 public confiSupply;\n    address public confi;\n    uint256 public multipleCategoryId;\n    uint256 public multiple;\n    address public cMoonToken;\n\n    struct UserInfo {\n      uint256 weight; // calc weight\n      uint256 rewardDebt;\n      uint256 balance;\n      uint256 number; //user stake number\n    }\n\n    // userAddr => catId =>\n    mapping(address => mapping(uint256 => uint256)) public userStakeCounts;\n    mapping(address => mapping(uint256 => uint256[])) public userStakeConfi;\n    // from 1 start\n    mapping(address => mapping(uint256 => uint256)) userConfiIndexes;\n    mapping(uint256 => uint256) public confiCategories; // tokenId => catId\n    mapping(address => uint256) public userLatestBuy;\n\n    mapping(address => UserInfo) public userInfo;\n    // calc reward\n    uint256 public totalWeight;\n    uint256 public totalNumber; // total stake number\n    uint256 public accTokenPerShare;\n    uint256 public lastRewardBlock;\n    uint256 public intervalBlock; // reward interval block num\n    // buy stage\n    struct Stage {\n      uint256 stageNo;\n      uint256 total;\n      uint256 balance;\n      bool isOpen;\n      uint256 price;\n    }\n    mapping(uint256 => Stage) public stages;\n\n    uint256 public stageNo;\n    uint256 public totalPoolAmount;\n    uint256 public poolBalance;\n    uint256 public totalDevAmount;\n    uint256 public devBalance;\n    address public devAddr;\n    uint256 public rewardRatio;\n    uint256 public apyRatio; // 0.01%\n    bool public outEnable; // game end open harvest\n    bool public stakeEnable; // game stake enable\n\n    mapping (address => bool) private _accountCheck;\n    address[] private _accountList;\n\n    // event\n    event TokenTransfer(address indexed tokenAddress, address indexed from, address to, uint256 value);\n    event uploadNFTEvent(address indexed from, uint256 count);\n    event TokenBuy(address indexed from, address to, uint256 tokenId, uint256 value);\n    event TokenStake(address indexed from, address to, uint256 tokenId);\n    event TokenUnStake(address indexed from, address to, uint256 tokenId);\n\n    constructor(\n          address _confi,\n          address _cMoonToken,\n          address _devAddr\n      ) public {\n          confi = _confi;\n          cMoonToken = _cMoonToken;\n          devAddr = _devAddr;\n\n          rewardRatio = 30; // 30% to pool reward\n          multiple = 20;\n          multipleCategoryId = 6;\n          apyRatio = 3;\n          intervalBlock = 120;\n\n          outEnable = false;\n          stakeEnable = true;\n\n          _erc1820.setInterfaceImplementer(address(this), TOKENS_RECIPIENT_INTERFACE_HASH, address(this));\n\n          // register all users as sponsees\n          address[] memory users = new address[](1);\n          users[0] = address(0);\n          SPONSOR.add_privilege(users);\n    }\n\n    // functions\n    // 0x7a280947\n    function _uploadNFT(address _from, uint256[] memory _ids, uint256[] memory _amounts) internal {\n      require(_ids.length == _amounts.length, \"ConfiSale: INVALID_ARRAYS_LENGTH\");\n      uint256 range = _ids.length;\n\n      for(uint256 i = 0; i < range; i ++){\n        if(confiStls[_ids[i]]){\n          continue;\n        }\n        if(confiIds.length > confiSupply){\n          confiIds[confiSupply] = _ids[i];\n        }else{\n            confiIds.push(_ids[i]);\n        }\n        confiStls[_ids[i]] = true;\n        confiSupply = confiSupply.add(1);\n      }\n\n      emit uploadNFTEvent(_from, range);\n    }\n\n    function confiIdsLength() external view returns(uint256) {\n      return confiIds.length;\n    }\n\n    function setStageNo(uint256 _stageNo) external onlyOwner {\n      stageNo = _stageNo;\n    }\n\n    function initStage(uint256 _stageNo, uint256 _total, bool _isOpen, uint256 _price) external onlyOwner {\n        Stage storage _stage = stages[_stageNo];\n        require(_stage.stageNo == 0, \"ConfiSale: stageNo exists\");\n        stages[_stageNo] = Stage({\n            stageNo: _stageNo,\n            total: _total,\n            balance: _total,\n            isOpen: _isOpen,\n            price: _price\n        });\n    }\n\n    function setMultiple(uint256 _catId, uint256 _multiple) external onlyOwner {\n        require(_catId > 0, \"ConfiSale: catId is zero\");\n        multipleCategoryId = _catId;\n        multiple = _multiple;\n    }\n\n    function updateTotal(uint256 _stageNo, uint256 _count, bool isAdd) external onlyOwner {\n      Stage storage _stage = stages[_stageNo];\n      require(_stage.stageNo > 0, \"ConfiSale: stageNo not exists\");\n      if(isAdd){\n        _stage.total = _stage.total.add(_count);\n        _stage.balance = _stage.balance.add(_count);\n      }else{\n        _stage.total = _stage.total.sub(_count);\n        _stage.balance = _stage.balance.sub(_count);\n      }\n    }\n\n    function updatePrice(uint256 _stageNo, uint256 _price) external onlyOwner {\n      Stage storage _stage = stages[_stageNo];\n      require(_stage.stageNo > 0, \"ConfiSale: stageNo not exists\");\n      _stage.price = _price;\n    }\n\n    function setIsOpen(uint256 _stageNo, bool _isOpen) external onlyOwner {\n      Stage storage _stage = stages[_stageNo];\n      require(_stage.stageNo > 0, \"ConfiSale: stageNo not exists\");\n      _stage.isOpen = _isOpen;\n    }\n\n    function setRewardRatio(uint256 _rewardRatio) external onlyOwner {\n        _poolLogic();\n        rewardRatio = _rewardRatio;\n    }\n\n    function setApyRatio(uint256 _apyRatio) external onlyOwner {\n        _poolLogic();\n        apyRatio = _apyRatio;\n    }\n\n    // user\n    function _buy(address _from, uint256 _amount) internal {\n      require(stageNo > 0, \"ConfiSale: no stage start\");\n      Stage storage _stage = stages[stageNo];\n      require(_stage.stageNo > 0, \"ConfiSale: stageNo not exists\");\n      require(_stage.price == _amount, \"ConfiSale: pay amount is invalid\");\n      require(_stage.isOpen, \"ConfiSale: stage no open\");\n      require(_stage.balance > 0, \"ConfiSale: balance is no enough\");\n      require(confiSupply > 0, \"ConfiSale: nft supply no enough\");\n\n      _poolLogic();\n      _stage.balance = _stage.balance.sub(1);\n      // random assign tokenId`\n      uint256 _index = _seed(_from, confiSupply);\n      uint256 _tokenId = confiIds[_index];\n      confiIds[_index] = confiIds[confiSupply - 1];\n      delete confiIds[confiSupply - 1];\n      confiSupply = confiSupply.sub(1);\n      _poolAssign(_amount);\n      _safeNFTTransfer(_from, _tokenId);\n\n      userLatestBuy[_from] = _tokenId;\n      emit TokenBuy(address(this), _from, _tokenId, _amount);\n    }\n\n    function unstakeById(uint256 _id) external whenPaused {\n        uint256 _catId = _getCatId(_id);\n        uint256 _stakeCount = userStakeCounts[msg.sender][_catId];\n        require(_id > 0, \"ConfiSale: unstake id invalid\");\n        require(_stakeCount > 0, \"ConfiSale: no confi\");\n        require(userConfiIndexes[msg.sender][_id] > 0, \"ConfiSale: no stake\");\n        _poolLogic();\n        uint256 _weight = _getMultiple(_catId);\n        UserInfo storage user = userInfo[msg.sender];\n        uint256 pending = user.weight.mul(accTokenPerShare).div(1e12).sub(user.rewardDebt);\n        user.balance = user.balance.add(pending);\n\n        // From the back forward\n        user.weight = user.weight.sub(_weight);\n        user.number = user.number.sub(1);\n        totalWeight = totalWeight.sub(_weight);\n        totalNumber = totalNumber.sub(1);\n        user.rewardDebt = user.weight.mul(accTokenPerShare).div(1e12);\n        userStakeCounts[msg.sender][_catId] = userStakeCounts[msg.sender][_catId].sub(1);\n\n        uint256 _posIndex = userConfiIndexes[msg.sender][_id];\n        require(_id == userStakeConfi[msg.sender][_catId][_posIndex - 1], \"ConfiSale: invalid TokenId\");\n        if(_posIndex == _stakeCount){\n          delete userStakeConfi[msg.sender][_catId][_stakeCount - 1];\n        }else{\n          userStakeConfi[msg.sender][_catId][_posIndex - 1] = userStakeConfi[msg.sender][_catId][_stakeCount - 1];\n          delete userStakeConfi[msg.sender][_catId][_stakeCount - 1];\n          userConfiIndexes[msg.sender][userStakeConfi[msg.sender][_catId][_posIndex - 1]] = _posIndex;\n        }\n\n        _safeNFTTransfer(msg.sender, _id);\n\n        emit TokenUnStake(address(this), msg.sender, _id);\n    }\n\n    function uploadConfiCategory(uint256[] calldata _ids) external onlyOwner {\n\n      uint256 range = _ids.length;\n      for(uint256 i = 0; i < range; i ++){\n        uint256 _catId = _getCatId(_ids[i]);\n        confiCategories[_ids[i]] = _catId;\n        confiStls[_ids[i]] = true;\n      }\n    }\n\n    //  stake\n    function _stake(address _from, uint256[] memory _ids, uint256[] memory _amounts) internal {\n        require(_ids.length == _amounts.length, \"ConfiSale: INVALID_ARRAYS_LENGTH\");\n        require(totalPoolAmount > 0, \"ConfiSale: on start\");\n        require(stakeEnable, \"ConfiSale: stake no start\");\n        uint256 range = _ids.length;\n        UserInfo storage user = userInfo[_from];\n        _poolLogic();\n        // harvest\n        if(user.weight > 0){\n          uint256 pending = user.weight.mul(accTokenPerShare).div(1e12).sub(user.rewardDebt);\n          user.balance = user.balance.add(pending);\n        }\n\n        require(user.number.add(_ids.length) < 500, \"ConfiSale: max is overflow\");\n\n        // stake\n        for(uint256 i = 0; i < range; i ++){\n            if(!confiStls[_ids[i]]){\n              revert(\"ConfiSale: no sale confi\");\n            }\n            uint256 _catId = confiCategories[_ids[i]];\n            if(_catId == 0){\n               revert(\"ConfiSale: no cat setting\");\n            }\n\n            uint256 _weight = _getMultiple(_catId);\n\n            if(userStakeConfi[_from][_catId].length > userStakeCounts[_from][_catId]){\n                userStakeConfi[_from][_catId][userStakeCounts[_from][_catId]] = _ids[i];\n            }else{\n              userStakeConfi[_from][_catId].push(_ids[i]);\n            }\n\n            userConfiIndexes[_from][_ids[i]] = userStakeCounts[_from][_catId].add(1);\n            userStakeCounts[_from][_catId] = userStakeCounts[_from][_catId].add(1);\n            user.weight = user.weight.add(_weight);\n            totalWeight = totalWeight.add(_weight);\n            user.number = user.number.add(1);\n            totalNumber = totalNumber.add(1);\n\n            emit TokenStake(_from, address(this), _ids[i]);\n        }\n        // cacl deposit part\n        user.rewardDebt = user.weight.mul(accTokenPerShare).div(1e12);\n\n        // data migration\n        if (!_accountCheck[_from]) {\n            _accountCheck[_from] = true;\n            _accountList.push(_from);\n        }\n    }\n\n    function _getMultiple(uint256 _catId) internal view returns(uint256) {\n        if(_catId == multipleCategoryId){\n          return multiple;\n        }else{\n          return 1;\n        }\n    }\n\n\n    function _getCatId(uint256 _id) internal view returns(uint256){\n      uint256 _catId = IConfiNFT(confi).categoryOf(_id);\n      return _catId;\n    }\n\n    function harvest() external whenPaused {\n      UserInfo storage user = userInfo[msg.sender];\n      require(user.weight > 0, \"ConfiSale: weight is zero\");\n      require(outEnable, \"confiSale: outEnable is closed\");\n      _poolLogic();\n      uint256 pending = user.weight.mul(accTokenPerShare).div(1e12).sub(user.rewardDebt);\n      pending = user.balance.add(pending);\n      user.rewardDebt = user.weight.mul(accTokenPerShare).div(1e12);\n      user.balance = 0;\n      poolBalance = poolBalance.sub(pending);\n      if(pending > 0){\n        _safeTokenTransfer(msg.sender, pending);\n      }\n    }\n\n    function devWithdraw(uint256 _amount) external {\n      require(_amount <= devBalance, \"confiSale: balance insufficient\");\n      devBalance = devBalance.sub(_amount);\n      _safeTokenTransfer(devAddr, _amount);\n    }\n\n    function pendingToken(address _user) external view returns(uint256) {\n      UserInfo storage user = userInfo[_user];\n      uint256 _accTokenPerShare = accTokenPerShare;\n      if (block.number > lastRewardBlock && totalWeight > 0) {\n          uint256 shareReward = poolBalance\n              .mul(block.number.sub(lastRewardBlock).div(intervalBlock))\n              .mul(apyRatio)\n              .div(10000);\n\n          _accTokenPerShare = _accTokenPerShare.add(shareReward.mul(1e12).div(totalWeight));\n      }\n\n      uint256 pending = user.weight.mul(_accTokenPerShare).div(1e12).sub(user.rewardDebt);\n      return user.balance.add(pending);\n    }\n\n    // limit confi token\n    function retrieve(address _to, uint256 _count) external onlyOwner {\n      if(_count > confiSupply) {\n        _count = confiSupply;\n      }\n\n      for(uint256 i = 1; i <= _count; i ++){\n          uint256 _tokenId = confiIds[confiSupply - 1];\n          confiStls[_tokenId] = false;\n          delete confiIds[confiSupply - 1];\n          confiSupply = confiSupply.sub(1);\n          _safeNFTTransfer(_to, _tokenId);\n      }\n    }\n\n    function forceRetrieve(address _to, uint256 _tokenId) external onlyOwner{\n        if(confiSupply > 0){\n          confiSupply = confiSupply.sub(1);\n        }\n        confiStls[_tokenId] = false;\n        _safeNFTTransfer(_to, _tokenId);\n    }\n\n    function _poolLogic() internal {\n      if(poolBalance == 0){\n        lastRewardBlock = block.number;\n        return;\n      }\n      if(intervalBlock == 0){\n        return;\n      }\n      if(intervalBlock > block.number){\n        return;\n      }\n      if(block.number.sub(intervalBlock) <= lastRewardBlock){\n        return;\n      }\n      if(totalWeight == 0){\n        lastRewardBlock = block.number;\n        return;\n      }\n\n      uint256 _times = block.number.sub(lastRewardBlock).div(intervalBlock);\n      uint256 shareReward = poolBalance\n            .mul(_times)\n            .mul(apyRatio)\n            .div(10000);\n      poolBalance = poolBalance.sub(shareReward);\n      accTokenPerShare = accTokenPerShare.add(shareReward.mul(1e12).div(totalWeight));\n      lastRewardBlock = lastRewardBlock.add(intervalBlock.mul(_times));\n    }\n\n    function _poolAssign(uint256 _amount) internal {\n      require(devAddr != address(0), \"ConfiSale: devAddr is zero address\");\n      uint256 _reward = _amount.mul(rewardRatio).div(100);\n      totalPoolAmount = totalPoolAmount.add(_reward);\n      poolBalance = poolBalance.add(_reward);\n      totalDevAmount = totalDevAmount.add(_amount.sub(_reward));\n      devBalance = devBalance.add(_amount.sub(_reward));\n    }\n\n    function _seed(address _user, uint256 _confiSupply) public view returns (uint256) {\n        return uint256(\n            uint256(keccak256(abi.encodePacked(_user, block.number, block.timestamp, block.difficulty))) % _confiSupply\n        );\n    }\n\n    function _safeNFTTransfer(address _to, uint256 _id) internal {\n        IConfiNFT(confi).safeTransferFrom(address(this), _to, _id, 1, '');\n    }\n\n    function _safeTokenTransfer(address _to, uint256 _amount) internal {\n        uint256 tokenBal = IERC20(cMoonToken).balanceOf(address(this));\n        require(_amount <= tokenBal, \"ConfiSale: cMoon insufficient\");\n        IERC20(cMoonToken).transfer(_to, _amount);\n    }\n\n    function onERC1155Received(\n          address _operator,\n          address _from,\n          uint256 _id,\n          uint256 _amount,\n          bytes calldata _data) external returns(bytes4){\n\n          require(msg.sender == confi, \"ConfiSale: only receive confi\");\n          uint256[] memory _ids;\n          _ids[0] = _id;\n          uint256[] memory _amounts;\n          _amounts[0] = _amount;\n          if(_data[0] == 0x01) {\n            //\n            _uploadNFT(_from, _ids, _amounts);\n          }else{\n            _stake(_from, _ids, _amounts);\n          }\n\n          return 0xf23a6e61;\n    }\n\n    function onERC1155BatchReceived(\n          address _operator,\n          address _from,\n          uint256[] calldata _ids,\n          uint256[] calldata _amounts,\n          bytes calldata _data) external returns(bytes4){\n\n          require(msg.sender == confi, \"ConfiSale: only receive confi\");\n          if(_data[0] == 0x01) {\n            // uploadNFT\n            _uploadNFT(_from, _ids, _amounts);\n          }else{\n            // stake\n            _stake(_from, _ids, _amounts);\n          }\n\n          return 0xbc197c81;\n    }\n\n    // erc777 receiveToken\n    function tokensReceived(address operator, address from, address to, uint amount,\n          bytes calldata userData,\n          bytes calldata operatorData) external {\n\n          require(msg.sender == cMoonToken, \"ConfiSale: only receive cMoon\");\n          _buy(from, amount);\n          emit TokenTransfer(msg.sender, from, to, amount);\n    }\n\n    function setDevAddr(address _devAddr) external onlyOwner {\n        devAddr = _devAddr;\n    }\n\n    function setOutEnable(bool _outEnable) external onlyOwner {\n       outEnable = _outEnable;\n    }\n\n    function setStakeEnable(bool _stakeEnable) external onlyOwner {\n       stakeEnable = _stakeEnable;\n    }\n\n    //---------------- Data Migration ----------------------\n    function accountTotal() public view returns (uint256) {\n       return _accountList.length;\n    }\n\n    function accountList(uint256 begin) public view returns (address[100] memory) {\n        require(begin >= 0 && begin < _accountList.length, \"MoonSwap: accountList out of range\");\n        address[100] memory res;\n        uint256 range = Math.min(_accountList.length, begin.add(100));\n        for (uint256 i = begin; i < range; i++) {\n            res[i-begin] = _accountList[i];\n        }\n        return res;\n    }\n}\n",
  "sourcePath": "/Users/junhuazhou/Documents/GitHub/moonswap-amm/contracts/ConfiSale.sol",
  "compiler": {
    "name": "solc",
    "version": "0.5.16+commit.9c3226ce.Emscripten.clang"
  },
  "schemaVersion": "3.2.0",
  "updatedAt": "2020-10-16T16:26:22.320Z",
  "devdoc": {
    "methods": {
      "isOwner()": {
        "details": "Returns true if the caller is the current owner."
      },
      "owner()": {
        "details": "Returns the address of the current owner."
      },
      "renounceOwnership()": {
        "details": "Leaves the contract without owner. It will not be possible to call `onlyOwner` functions anymore. Can only be called by the current owner.     * NOTE: Renouncing ownership will leave the contract without an owner, thereby removing any functionality that is only available to the owner."
      }
    }
  },
  "userdoc": {
    "methods": {}
  }
}