{
  "contractName": "ConfluxStar",
  "abi": [
    {
      "inputs": [
        {
          "internalType": "address",
          "name": "_cMoon",
          "type": "address"
        },
        {
          "internalType": "uint256",
          "name": "_tokenPerSecond",
          "type": "uint256"
        },
        {
          "internalType": "uint256",
          "name": "_startBlock",
          "type": "uint256"
        }
      ],
      "payable": false,
      "stateMutability": "nonpayable",
      "type": "constructor"
    },
    {
      "anonymous": false,
      "inputs": [
        {
          "indexed": true,
          "internalType": "address",
          "name": "user",
          "type": "address"
        },
        {
          "indexed": true,
          "internalType": "uint256",
          "name": "pid",
          "type": "uint256"
        },
        {
          "indexed": false,
          "internalType": "uint256",
          "name": "amount",
          "type": "uint256"
        }
      ],
      "name": "Deposit",
      "type": "event"
    },
    {
      "anonymous": false,
      "inputs": [
        {
          "indexed": true,
          "internalType": "address",
          "name": "user",
          "type": "address"
        },
        {
          "indexed": true,
          "internalType": "uint256",
          "name": "pid",
          "type": "uint256"
        },
        {
          "indexed": false,
          "internalType": "uint256",
          "name": "amount",
          "type": "uint256"
        }
      ],
      "name": "EmergencyWithdraw",
      "type": "event"
    },
    {
      "anonymous": false,
      "inputs": [
        {
          "indexed": true,
          "internalType": "address",
          "name": "previousOwner",
          "type": "address"
        },
        {
          "indexed": true,
          "internalType": "address",
          "name": "newOwner",
          "type": "address"
        }
      ],
      "name": "OwnershipTransferred",
      "type": "event"
    },
    {
      "anonymous": false,
      "inputs": [
        {
          "indexed": true,
          "internalType": "address",
          "name": "from",
          "type": "address"
        },
        {
          "indexed": false,
          "internalType": "bool",
          "name": "originalPause",
          "type": "bool"
        },
        {
          "indexed": false,
          "internalType": "bool",
          "name": "newPause",
          "type": "bool"
        }
      ],
      "name": "SetPaused",
      "type": "event"
    },
    {
      "anonymous": false,
      "inputs": [
        {
          "indexed": true,
          "internalType": "address",
          "name": "tokenAddress",
          "type": "address"
        },
        {
          "indexed": true,
          "internalType": "address",
          "name": "from",
          "type": "address"
        },
        {
          "indexed": false,
          "internalType": "address",
          "name": "to",
          "type": "address"
        },
        {
          "indexed": false,
          "internalType": "uint256",
          "name": "value",
          "type": "uint256"
        }
      ],
      "name": "TokenTransfer",
      "type": "event"
    },
    {
      "anonymous": false,
      "inputs": [
        {
          "indexed": true,
          "internalType": "address",
          "name": "user",
          "type": "address"
        },
        {
          "indexed": true,
          "internalType": "uint256",
          "name": "pid",
          "type": "uint256"
        },
        {
          "indexed": false,
          "internalType": "uint256",
          "name": "amount",
          "type": "uint256"
        }
      ],
      "name": "Withdraw",
      "type": "event"
    },
    {
      "constant": true,
      "inputs": [],
      "name": "SPONSOR",
      "outputs": [
        {
          "internalType": "contract SponsorWhitelistControl",
          "name": "",
          "type": "address"
        }
      ],
      "payable": false,
      "stateMutability": "view",
      "type": "function"
    },
    {
      "constant": true,
      "inputs": [],
      "name": "cMoonToken",
      "outputs": [
        {
          "internalType": "address",
          "name": "",
          "type": "address"
        }
      ],
      "payable": false,
      "stateMutability": "view",
      "type": "function"
    },
    {
      "constant": true,
      "inputs": [],
      "name": "getPause",
      "outputs": [
        {
          "internalType": "bool",
          "name": "",
          "type": "bool"
        }
      ],
      "payable": false,
      "stateMutability": "view",
      "type": "function"
    },
    {
      "constant": true,
      "inputs": [],
      "name": "isOwner",
      "outputs": [
        {
          "internalType": "bool",
          "name": "",
          "type": "bool"
        }
      ],
      "payable": false,
      "stateMutability": "view",
      "type": "function"
    },
    {
      "constant": true,
      "inputs": [],
      "name": "owner",
      "outputs": [
        {
          "internalType": "address",
          "name": "",
          "type": "address"
        }
      ],
      "payable": false,
      "stateMutability": "view",
      "type": "function"
    },
    {
      "constant": true,
      "inputs": [
        {
          "internalType": "address",
          "name": "",
          "type": "address"
        }
      ],
      "name": "poolIndexs",
      "outputs": [
        {
          "internalType": "uint256",
          "name": "",
          "type": "uint256"
        }
      ],
      "payable": false,
      "stateMutability": "view",
      "type": "function"
    },
    {
      "constant": true,
      "inputs": [
        {
          "internalType": "uint256",
          "name": "",
          "type": "uint256"
        }
      ],
      "name": "poolInfo",
      "outputs": [
        {
          "internalType": "contract IERC20",
          "name": "lpToken",
          "type": "address"
        },
        {
          "internalType": "uint256",
          "name": "allocPoint",
          "type": "uint256"
        },
        {
          "internalType": "uint256",
          "name": "lastRewardBlock",
          "type": "uint256"
        },
        {
          "internalType": "uint256",
          "name": "accTokenPerShare",
          "type": "uint256"
        }
      ],
      "payable": false,
      "stateMutability": "view",
      "type": "function"
    },
    {
      "constant": false,
      "inputs": [],
      "name": "renounceOwnership",
      "outputs": [],
      "payable": false,
      "stateMutability": "nonpayable",
      "type": "function"
    },
    {
      "constant": false,
      "inputs": [
        {
          "internalType": "bool",
          "name": "isPause",
          "type": "bool"
        }
      ],
      "name": "setPause",
      "outputs": [],
      "payable": false,
      "stateMutability": "nonpayable",
      "type": "function"
    },
    {
      "constant": true,
      "inputs": [],
      "name": "startBlock",
      "outputs": [
        {
          "internalType": "uint256",
          "name": "",
          "type": "uint256"
        }
      ],
      "payable": false,
      "stateMutability": "view",
      "type": "function"
    },
    {
      "constant": true,
      "inputs": [],
      "name": "startFarmBlock",
      "outputs": [
        {
          "internalType": "uint256",
          "name": "",
          "type": "uint256"
        }
      ],
      "payable": false,
      "stateMutability": "view",
      "type": "function"
    },
    {
      "constant": true,
      "inputs": [],
      "name": "startFarmTime",
      "outputs": [
        {
          "internalType": "uint256",
          "name": "",
          "type": "uint256"
        }
      ],
      "payable": false,
      "stateMutability": "view",
      "type": "function"
    },
    {
      "constant": true,
      "inputs": [],
      "name": "tokenPerSecond",
      "outputs": [
        {
          "internalType": "uint256",
          "name": "",
          "type": "uint256"
        }
      ],
      "payable": false,
      "stateMutability": "view",
      "type": "function"
    },
    {
      "constant": true,
      "inputs": [],
      "name": "totalAllocPoint",
      "outputs": [
        {
          "internalType": "uint256",
          "name": "",
          "type": "uint256"
        }
      ],
      "payable": false,
      "stateMutability": "view",
      "type": "function"
    },
    {
      "constant": false,
      "inputs": [
        {
          "internalType": "address",
          "name": "newOwner",
          "type": "address"
        }
      ],
      "name": "transferOwnership",
      "outputs": [],
      "payable": false,
      "stateMutability": "nonpayable",
      "type": "function"
    },
    {
      "constant": true,
      "inputs": [
        {
          "internalType": "uint256",
          "name": "",
          "type": "uint256"
        },
        {
          "internalType": "address",
          "name": "",
          "type": "address"
        }
      ],
      "name": "userInfo",
      "outputs": [
        {
          "internalType": "uint256",
          "name": "amount",
          "type": "uint256"
        },
        {
          "internalType": "uint256",
          "name": "rewardDebt",
          "type": "uint256"
        },
        {
          "internalType": "uint256",
          "name": "timestamp",
          "type": "uint256"
        }
      ],
      "payable": false,
      "stateMutability": "view",
      "type": "function"
    },
    {
      "constant": true,
      "inputs": [],
      "name": "poolLength",
      "outputs": [
        {
          "internalType": "uint256",
          "name": "",
          "type": "uint256"
        }
      ],
      "payable": false,
      "stateMutability": "view",
      "type": "function"
    },
    {
      "constant": false,
      "inputs": [
        {
          "internalType": "uint256",
          "name": "_allocPoint",
          "type": "uint256"
        },
        {
          "internalType": "contract IERC20",
          "name": "_lpToken",
          "type": "address"
        },
        {
          "internalType": "bool",
          "name": "_withUpdate",
          "type": "bool"
        }
      ],
      "name": "add",
      "outputs": [],
      "payable": false,
      "stateMutability": "nonpayable",
      "type": "function"
    },
    {
      "constant": false,
      "inputs": [
        {
          "internalType": "uint256",
          "name": "_pid",
          "type": "uint256"
        },
        {
          "internalType": "uint256",
          "name": "_allocPoint",
          "type": "uint256"
        },
        {
          "internalType": "bool",
          "name": "_withUpdate",
          "type": "bool"
        }
      ],
      "name": "set",
      "outputs": [],
      "payable": false,
      "stateMutability": "nonpayable",
      "type": "function"
    },
    {
      "constant": false,
      "inputs": [
        {
          "internalType": "uint256",
          "name": "_tokenPerSecond",
          "type": "uint256"
        }
      ],
      "name": "setTokenPerSecond",
      "outputs": [],
      "payable": false,
      "stateMutability": "nonpayable",
      "type": "function"
    },
    {
      "constant": false,
      "inputs": [
        {
          "internalType": "uint256",
          "name": "_startBlock",
          "type": "uint256"
        }
      ],
      "name": "setStartFarmBlock",
      "outputs": [],
      "payable": false,
      "stateMutability": "nonpayable",
      "type": "function"
    },
    {
      "constant": true,
      "inputs": [
        {
          "internalType": "uint256",
          "name": "_pid",
          "type": "uint256"
        },
        {
          "internalType": "address",
          "name": "_user",
          "type": "address"
        }
      ],
      "name": "pendingToken",
      "outputs": [
        {
          "internalType": "uint256",
          "name": "",
          "type": "uint256"
        }
      ],
      "payable": false,
      "stateMutability": "view",
      "type": "function"
    },
    {
      "constant": false,
      "inputs": [],
      "name": "massUpdatePools",
      "outputs": [],
      "payable": false,
      "stateMutability": "nonpayable",
      "type": "function"
    },
    {
      "constant": false,
      "inputs": [
        {
          "internalType": "uint256",
          "name": "_pid",
          "type": "uint256"
        }
      ],
      "name": "updatePool",
      "outputs": [],
      "payable": false,
      "stateMutability": "nonpayable",
      "type": "function"
    },
    {
      "constant": false,
      "inputs": [
        {
          "internalType": "uint256",
          "name": "_pid",
          "type": "uint256"
        },
        {
          "internalType": "uint256",
          "name": "_amount",
          "type": "uint256"
        },
        {
          "internalType": "address",
          "name": "to",
          "type": "address"
        }
      ],
      "name": "deposit",
      "outputs": [],
      "payable": false,
      "stateMutability": "nonpayable",
      "type": "function"
    },
    {
      "constant": false,
      "inputs": [
        {
          "internalType": "uint256",
          "name": "_pid",
          "type": "uint256"
        },
        {
          "internalType": "uint256",
          "name": "_amount",
          "type": "uint256"
        }
      ],
      "name": "withdraw",
      "outputs": [],
      "payable": false,
      "stateMutability": "nonpayable",
      "type": "function"
    },
    {
      "constant": false,
      "inputs": [
        {
          "internalType": "uint256",
          "name": "_pid",
          "type": "uint256"
        }
      ],
      "name": "emergencyWithdraw",
      "outputs": [],
      "payable": false,
      "stateMutability": "nonpayable",
      "type": "function"
    },
    {
      "constant": true,
      "inputs": [],
      "name": "moonBalance",
      "outputs": [
        {
          "internalType": "uint256",
          "name": "",
          "type": "uint256"
        }
      ],
      "payable": false,
      "stateMutability": "view",
      "type": "function"
    },
    {
      "constant": false,
      "inputs": [
        {
          "internalType": "address",
          "name": "operator",
          "type": "address"
        },
        {
          "internalType": "address",
          "name": "from",
          "type": "address"
        },
        {
          "internalType": "address",
          "name": "to",
          "type": "address"
        },
        {
          "internalType": "uint256",
          "name": "amount",
          "type": "uint256"
        },
        {
          "internalType": "bytes",
          "name": "userData",
          "type": "bytes"
        },
        {
          "internalType": "bytes",
          "name": "operatorData",
          "type": "bytes"
        }
      ],
      "name": "tokensReceived",
      "outputs": [],
      "payable": false,
      "stateMutability": "nonpayable",
      "type": "function"
    },
    {
      "constant": true,
      "inputs": [],
      "name": "accountTotal",
      "outputs": [
        {
          "internalType": "uint256",
          "name": "",
          "type": "uint256"
        }
      ],
      "payable": false,
      "stateMutability": "view",
      "type": "function"
    },
    {
      "constant": true,
      "inputs": [
        {
          "internalType": "uint256",
          "name": "begin",
          "type": "uint256"
        }
      ],
      "name": "accountList",
      "outputs": [
        {
          "internalType": "address[100]",
          "name": "",
          "type": "address[100]"
        }
      ],
      "payable": false,
      "stateMutability": "view",
      "type": "function"
    }
  ],
  "bytecode": "0x608060405273866aca87ff33a0ae05d2164b3d999a804f583222600260006101000a81548173ffffffffffffffffffffffffffffffffffffffff021916908373ffffffffffffffffffffffffffffffffffffffff16021790555060006009553480156200006b57600080fd5b506040516200379138038062003791833981810160405260608110156200009157600080fd5b810190808051906020019092919080519060200190929190805190602001909291905050506000620000c86200047960201b60201c565b9050806000806101000a81548173ffffffffffffffffffffffffffffffffffffffff021916908373ffffffffffffffffffffffffffffffffffffffff1602179055508073ffffffffffffffffffffffffffffffffffffffff16600073ffffffffffffffffffffffffffffffffffffffff167f8be0079c531659141344cd1fd0a4f28419497f9722a3daafe3b4186f6b6457e060405160405180910390a35033600160006101000a81548173ffffffffffffffffffffffffffffffffffffffff021916908373ffffffffffffffffffffffffffffffffffffffff1602179055506000600160146101000a81548160ff02191690831515021790555082600360006101000a81548173ffffffffffffffffffffffffffffffffffffffff021916908373ffffffffffffffffffffffffffffffffffffffff1602179055508160048190555080600681905550600260009054906101000a900473ffffffffffffffffffffffffffffffffffffffff1673ffffffffffffffffffffffffffffffffffffffff166329965a1d307fb281fc8c12954d22544db45de3159a39272895b169a852b314f9cc762e44c53b60001b306040518463ffffffff1660e01b8152600401808473ffffffffffffffffffffffffffffffffffffffff1673ffffffffffffffffffffffffffffffffffffffff1681526020018381526020018273ffffffffffffffffffffffffffffffffffffffff1673ffffffffffffffffffffffffffffffffffffffff1681526020019350505050600060405180830381600087803b1580156200031257600080fd5b505af115801562000327573d6000803e3d6000fd5b50505050606060016040519080825280602002602001820160405280156200035e5781602001602082028038833980820191505090505b5090506000816000815181106200037157fe5b602002602001019073ffffffffffffffffffffffffffffffffffffffff16908173ffffffffffffffffffffffffffffffffffffffff168152505073088800000000000000000000000000000000000173ffffffffffffffffffffffffffffffffffffffff1663fe15156c826040518263ffffffff1660e01b81526004018080602001828103825283818151815260200191508051906020019060200280838360005b838110156200043057808201518184015260208101905062000413565b5050505090500192505050600060405180830381600087803b1580156200045657600080fd5b505af11580156200046b573d6000803e3d6000fd5b505050505050505062000481565b600033905090565b61330080620004916000396000f3fe608060405234801561001057600080fd5b50600436106101e45760003560e01c8063630b5ba11161010f5780639cc4e3f6116100a2578063f2fde38b11610071578063f2fde38b1461091a578063f8c4bbf21461095e578063f9bcf3351461097c578063ff5b0c9c1461099a576101e4565b80639cc4e3f614610846578063bedb86fb14610874578063cf55055d146108a4578063d3d346ed146108c2576101e4565b80638da5cb5b116100de5780638da5cb5b146107125780638dbdbe6d1461075c5780638f32d59b146107b457806393f1a40b146107d6576101e4565b8063630b5ba11461067057806364482f791461067a578063715018a6146106be5780637d0ccaad146106c8576101e4565b8063441a3e70116101875780634ea98d16116101565780634ea98d161461058c57806351eb05a6146105f65780635312ea8e146106245780635fa7b83f14610652576101e4565b8063441a3e70146104a6578063451c9eb0146104de57806348cd4cb11461050c57806348e43af41461052a576101e4565b806317caf6f1116101c357806317caf6f1146103c25780631d073a7a146103e05780631eaaa0451461042a5780633e3ca9d314610484576101e4565b806223de29146101e9578063081e3eda146103215780631526fe271461033f575b600080fd5b61031f600480360360c08110156101ff57600080fd5b81019080803573ffffffffffffffffffffffffffffffffffffffff169060200190929190803573ffffffffffffffffffffffffffffffffffffffff169060200190929190803573ffffffffffffffffffffffffffffffffffffffff169060200190929190803590602001909291908035906020019064010000000081111561028657600080fd5b82018360208201111561029857600080fd5b803590602001918460018302840111640100000000831117156102ba57600080fd5b9091929391929390803590602001906401000000008111156102db57600080fd5b8201836020820111156102ed57600080fd5b8035906020019184600183028401116401000000008311171561030f57600080fd5b90919293919293905050506109b8565b005b610329610a5b565b6040518082815260200191505060405180910390f35b61036b6004803603602081101561035557600080fd5b8101908080359060200190929190505050610a68565b604051808573ffffffffffffffffffffffffffffffffffffffff1673ffffffffffffffffffffffffffffffffffffffff16815260200184815260200183815260200182815260200194505050505060405180910390f35b6103ca610ac5565b6040518082815260200191505060405180910390f35b6103e8610acb565b604051808273ffffffffffffffffffffffffffffffffffffffff1673ffffffffffffffffffffffffffffffffffffffff16815260200191505060405180910390f35b6104826004803603606081101561044057600080fd5b8101908080359060200190929190803573ffffffffffffffffffffffffffffffffffffffff169060200190929190803515159060200190929190505050610ae3565b005b61048c610db8565b604051808215151515815260200191505060405180910390f35b6104dc600480360360408110156104bc57600080fd5b810190808035906020019092919080359060200190929190505050610dcf565b005b61050a600480360360208110156104f457600080fd5b8101908080359060200190929190505050611112565b005b6105146111e7565b6040518082815260200191505060405180910390f35b6105766004803603604081101561054057600080fd5b8101908080359060200190929190803573ffffffffffffffffffffffffffffffffffffffff1690602001909291905050506111ed565b6040518082815260200191505060405180910390f35b6105b8600480360360208110156105a257600080fd5b8101908080359060200190929190505050611409565b6040518082606460200280838360005b838110156105e35780820151818401526020810190506105c8565b5050505090500191505060405180910390f35b6106226004803603602081101561060c57600080fd5b810190808035906020019092919050505061154c565b005b6106506004803603602081101561063a57600080fd5b8101908080359060200190929190505050611766565b005b61065a611993565b6040518082815260200191505060405180910390f35b610678611999565b005b6106bc6004803603606081101561069057600080fd5b810190808035906020019092919080359060200190929190803515159060200190929190505050611a4c565b005b6106c6611b91565b005b6106d0611d13565b604051808273ffffffffffffffffffffffffffffffffffffffff1673ffffffffffffffffffffffffffffffffffffffff16815260200191505060405180910390f35b61071a611d39565b604051808273ffffffffffffffffffffffffffffffffffffffff1673ffffffffffffffffffffffffffffffffffffffff16815260200191505060405180910390f35b6107b26004803603606081101561077257600080fd5b810190808035906020019092919080359060200190929190803573ffffffffffffffffffffffffffffffffffffffff169060200190929190505050611d62565b005b6107bc612118565b604051808215151515815260200191505060405180910390f35b610822600480360360408110156107ec57600080fd5b8101908080359060200190929190803573ffffffffffffffffffffffffffffffffffffffff169060200190929190505050612176565b60405180848152602001838152602001828152602001935050505060405180910390f35b6108726004803603602081101561085c57600080fd5b81019080803590602001909291905050506121ad565b005b6108a26004803603602081101561088a57600080fd5b8101908080351515906020019092919050505061231d565b005b6108ac61246a565b6040518082815260200191505060405180910390f35b610904600480360360208110156108d857600080fd5b81019080803573ffffffffffffffffffffffffffffffffffffffff16906020019092919050505061254b565b6040518082815260200191505060405180910390f35b61095c6004803603602081101561093057600080fd5b81019080803573ffffffffffffffffffffffffffffffffffffffff169060200190929190505050612563565b005b61096661276c565b6040518082815260200191505060405180910390f35b610984612779565b6040518082815260200191505060405180910390f35b6109a261277f565b6040518082815260200191505060405180910390f35b8673ffffffffffffffffffffffffffffffffffffffff163373ffffffffffffffffffffffffffffffffffffffff167fae33cb06d7303f889d953bb09540983050163c1c4c98b330db432a911cfb63fd8888604051808373ffffffffffffffffffffffffffffffffffffffff1673ffffffffffffffffffffffffffffffffffffffff1681526020018281526020019250505060405180910390a35050505050505050565b6000600780549050905090565b60078181548110610a7557fe5b90600052602060002090600402016000915090508060000160009054906101000a900473ffffffffffffffffffffffffffffffffffffffff16908060010154908060020154908060030154905084565b60095481565b73088800000000000000000000000000000000000181565b3373ffffffffffffffffffffffffffffffffffffffff16600160009054906101000a900473ffffffffffffffffffffffffffffffffffffffff1673ffffffffffffffffffffffffffffffffffffffff1614610ba6576040517f08c379a00000000000000000000000000000000000000000000000000000000081526004018080602001828103825260208152602001807f4f776e61626c653a2063616c6c6572206973206e6f7420746865206f776e657281525060200191505060405180910390fd5b8015610bb557610bb4611999565b5b6001600b60008473ffffffffffffffffffffffffffffffffffffffff1673ffffffffffffffffffffffffffffffffffffffff1681526020019081526020016000205410610c6a576040517f08c379a000000000000000000000000000000000000000000000000000000000815260040180806020018281038252600e8152602001807f4c70546f6b656e2065786973747300000000000000000000000000000000000081525060200191505060405180910390fd5b60006006544311610c7d57600654610c7f565b435b9050610c968460095461278590919063ffffffff16565b600981905550600760405180608001604052808573ffffffffffffffffffffffffffffffffffffffff16815260200186815260200183815260200160008152509080600181540180825580915050906001820390600052602060002090600402016000909192909190915060008201518160000160006101000a81548173ffffffffffffffffffffffffffffffffffffffff021916908373ffffffffffffffffffffffffffffffffffffffff160217905550602082015181600101556040820151816002015560608201518160030155505050600780549050600b60008573ffffffffffffffffffffffffffffffffffffffff1673ffffffffffffffffffffffffffffffffffffffff1681526020019081526020016000208190555050505050565b6000600160149054906101000a900460ff16905090565b600160149054906101000a900460ff1615610e52576040517f08c379a000000000000000000000000000000000000000000000000000000000815260040180806020018281038252601a8152602001807f506175736561626c653a204d6f6f6e537761702070617573656400000000000081525060200191505060405180910390fd5b600060078381548110610e6157fe5b9060005260206000209060040201905060006008600085815260200190815260200160002060003373ffffffffffffffffffffffffffffffffffffffff1673ffffffffffffffffffffffffffffffffffffffff168152602001908152602001600020905060008311610f3b576040517f08c379a00000000000000000000000000000000000000000000000000000000081526004018080602001828103825260138152602001807f7573657220616d6f756e74206973207a65726f0000000000000000000000000081525060200191505060405180910390fd5b8281600001541015610fb5576040517f08c379a00000000000000000000000000000000000000000000000000000000081526004018080602001828103825260128152602001807f77697468647261773a206e6f7420676f6f64000000000000000000000000000081525060200191505060405180910390fd5b610fbe8461154c565b60006110088260010154610ffa64e8d4a51000610fec8760030154876000015461280d90919063ffffffff16565b61289390919063ffffffff16565b6128dd90919063ffffffff16565b90506110143382612927565b61102b8483600001546128dd90919063ffffffff16565b826000018190555061106564e8d4a510006110578560030154856000015461280d90919063ffffffff16565b61289390919063ffffffff16565b82600101819055506110bc33858560000160009054906101000a900473ffffffffffffffffffffffffffffffffffffffff1673ffffffffffffffffffffffffffffffffffffffff16612b489092919063ffffffff16565b843373ffffffffffffffffffffffffffffffffffffffff167ff279e6a1f5e320cca91135676d9cb6e44ca8a08c0b88342bcdb1144f6511b568866040518082815260200191505060405180910390a35050505050565b3373ffffffffffffffffffffffffffffffffffffffff16600160009054906101000a900473ffffffffffffffffffffffffffffffffffffffff1673ffffffffffffffffffffffffffffffffffffffff16146111d5576040517f08c379a00000000000000000000000000000000000000000000000000000000081526004018080602001828103825260208152602001807f4f776e61626c653a2063616c6c6572206973206e6f7420746865206f776e657281525060200191505060405180910390fd5b6111dd611999565b8060048190555050565b600a5481565b600080600784815481106111fd57fe5b9060005260206000209060040201905060006008600086815260200190815260200160002060008573ffffffffffffffffffffffffffffffffffffffff1673ffffffffffffffffffffffffffffffffffffffff168152602001908152602001600020905060008260030154905060008360000160009054906101000a900473ffffffffffffffffffffffffffffffffffffffff1673ffffffffffffffffffffffffffffffffffffffff166370a08231306040518263ffffffff1660e01b8152600401808273ffffffffffffffffffffffffffffffffffffffff1673ffffffffffffffffffffffffffffffffffffffff16815260200191505060206040518083038186803b15801561130d57600080fd5b505afa158015611321573d6000803e3d6000fd5b505050506040513d602081101561133757600080fd5b8101908080519060200190929190505050905083600201544311801561135e575060008114155b156113b957600061137785600201548660010154612c19565b90506113b56113a68361139864e8d4a510008561280d90919063ffffffff16565b61289390919063ffffffff16565b8461278590919063ffffffff16565b9250505b6113fd83600101546113ef64e8d4a510006113e186886000015461280d90919063ffffffff16565b61289390919063ffffffff16565b6128dd90919063ffffffff16565b94505050505092915050565b6114116131f4565b600082101580156114265750600d8054905082105b61147b576040517f08c379a00000000000000000000000000000000000000000000000000000000081526004018080602001828103825260228152602001806132186022913960400191505060405180910390fd5b6114836131f4565b60006114a7600d805490506114a260648761278590919063ffffffff16565b612c83565b905060008490505b8181101561154157600d81815481106114c457fe5b9060005260206000200160009054906101000a900473ffffffffffffffffffffffffffffffffffffffff1683868303606481106114fd57fe5b602002019073ffffffffffffffffffffffffffffffffffffffff16908173ffffffffffffffffffffffffffffffffffffffff168152505080806001019150506114af565b508192505050919050565b600160149054906101000a900460ff16156115cf576040517f08c379a000000000000000000000000000000000000000000000000000000000815260040180806020018281038252601a8152602001807f506175736561626c653a204d6f6f6e537761702070617573656400000000000081525060200191505060405180910390fd5b6000600782815481106115de57fe5b90600052602060002090600402019050806002015443116115ff5750611763565b60008160000160009054906101000a900473ffffffffffffffffffffffffffffffffffffffff1673ffffffffffffffffffffffffffffffffffffffff166370a08231306040518263ffffffff1660e01b8152600401808273ffffffffffffffffffffffffffffffffffffffff1673ffffffffffffffffffffffffffffffffffffffff16815260200191505060206040518083038186803b1580156116a257600080fd5b505afa1580156116b6573d6000803e3d6000fd5b505050506040513d60208110156116cc57600080fd5b8101908080519060200190929190505050905060008114156116f8574382600201819055505050611763565b600061170c83600201548460010154612c19565b905061174e61173b8361172d64e8d4a510008561280d90919063ffffffff16565b61289390919063ffffffff16565b846003015461278590919063ffffffff16565b83600301819055504383600201819055505050505b50565b600160149054906101000a900460ff16156117e9576040517f08c379a000000000000000000000000000000000000000000000000000000000815260040180806020018281038252601a8152602001807f506175736561626c653a204d6f6f6e537761702070617573656400000000000081525060200191505060405180910390fd5b6000600782815481106117f857fe5b9060005260206000209060040201905060006008600084815260200190815260200160002060003373ffffffffffffffffffffffffffffffffffffffff1673ffffffffffffffffffffffffffffffffffffffff1681526020019081526020016000209050600081600001549050600081116118db576040517f08c379a00000000000000000000000000000000000000000000000000000000081526004018080602001828103825260138152602001807f7573657220616d6f756e74206973207a65726f0000000000000000000000000081525060200191505060405180910390fd5b600082600001819055506000826001018190555061193e33828560000160009054906101000a900473ffffffffffffffffffffffffffffffffffffffff1673ffffffffffffffffffffffffffffffffffffffff16612b489092919063ffffffff16565b833373ffffffffffffffffffffffffffffffffffffffff167fbb757047c2b5f3974fe26b7c10f732e7bce710b0952a71082702781e62ae0595836040518082815260200191505060405180910390a350505050565b60045481565b600160149054906101000a900460ff1615611a1c576040517f08c379a000000000000000000000000000000000000000000000000000000000815260040180806020018281038252601a8152602001807f506175736561626c653a204d6f6f6e537761702070617573656400000000000081525060200191505060405180910390fd5b6000600780549050905060008090505b81811015611a4857611a3d8161154c565b806001019050611a2c565b5050565b3373ffffffffffffffffffffffffffffffffffffffff16600160009054906101000a900473ffffffffffffffffffffffffffffffffffffffff1673ffffffffffffffffffffffffffffffffffffffff1614611b0f576040517f08c379a00000000000000000000000000000000000000000000000000000000081526004018080602001828103825260208152602001807f4f776e61626c653a2063616c6c6572206973206e6f7420746865206f776e657281525060200191505060405180910390fd5b8015611b1e57611b1d611999565b5b611b6382611b5560078681548110611b3257fe5b9060005260206000209060040201600101546009546128dd90919063ffffffff16565b61278590919063ffffffff16565b6009819055508160078481548110611b7757fe5b906000526020600020906004020160010181905550505050565b3373ffffffffffffffffffffffffffffffffffffffff16600160009054906101000a900473ffffffffffffffffffffffffffffffffffffffff1673ffffffffffffffffffffffffffffffffffffffff1614611c54576040517f08c379a00000000000000000000000000000000000000000000000000000000081526004018080602001828103825260208152602001807f4f776e61626c653a2063616c6c6572206973206e6f7420746865206f776e657281525060200191505060405180910390fd5b600073ffffffffffffffffffffffffffffffffffffffff166000809054906101000a900473ffffffffffffffffffffffffffffffffffffffff1673ffffffffffffffffffffffffffffffffffffffff167f8be0079c531659141344cd1fd0a4f28419497f9722a3daafe3b4186f6b6457e060405160405180910390a360008060006101000a81548173ffffffffffffffffffffffffffffffffffffffff021916908373ffffffffffffffffffffffffffffffffffffffff160217905550565b600360009054906101000a900473ffffffffffffffffffffffffffffffffffffffff1681565b60008060009054906101000a900473ffffffffffffffffffffffffffffffffffffffff16905090565b600160149054906101000a900460ff1615611de5576040517f08c379a000000000000000000000000000000000000000000000000000000000815260040180806020018281038252601a8152602001807f506175736561626c653a204d6f6f6e537761702070617573656400000000000081525060200191505060405180910390fd5b600073ffffffffffffffffffffffffffffffffffffffff168173ffffffffffffffffffffffffffffffffffffffff161415611e1e573390505b600060078481548110611e2d57fe5b9060005260206000209060040201905060006008600086815260200190815260200160002060008473ffffffffffffffffffffffffffffffffffffffff1673ffffffffffffffffffffffffffffffffffffffff1681526020019081526020016000209050611e9a8561154c565b600081600001541115611eff576000611ef18260010154611ee364e8d4a51000611ed58760030154876000015461280d90919063ffffffff16565b61289390919063ffffffff16565b6128dd90919063ffffffff16565b9050611efd8482612927565b505b611f503330868560000160009054906101000a900473ffffffffffffffffffffffffffffffffffffffff1673ffffffffffffffffffffffffffffffffffffffff16612c9c909392919063ffffffff16565b611f6784826000015461278590919063ffffffff16565b8160000181905550611fa164e8d4a51000611f938460030154846000015461280d90919063ffffffff16565b61289390919063ffffffff16565b8160010181905550428160020181905550600c60008473ffffffffffffffffffffffffffffffffffffffff1673ffffffffffffffffffffffffffffffffffffffff16815260200190815260200160002060009054906101000a900460ff166120c2576001600c60008573ffffffffffffffffffffffffffffffffffffffff1673ffffffffffffffffffffffffffffffffffffffff16815260200190815260200160002060006101000a81548160ff021916908315150217905550600d8390806001815401808255809150509060018203906000526020600020016000909192909190916101000a81548173ffffffffffffffffffffffffffffffffffffffff021916908373ffffffffffffffffffffffffffffffffffffffff160217905550505b848373ffffffffffffffffffffffffffffffffffffffff167f90890809c654f11d6e72a28fa60149770a0d11ec6c92319d6ceb2bb0a4ea1a15866040518082815260200191505060405180910390a35050505050565b60008060009054906101000a900473ffffffffffffffffffffffffffffffffffffffff1673ffffffffffffffffffffffffffffffffffffffff1661215a612da2565b73ffffffffffffffffffffffffffffffffffffffff1614905090565b6008602052816000526040600020602052806000526040600020600091509150508060000154908060010154908060020154905083565b3373ffffffffffffffffffffffffffffffffffffffff16600160009054906101000a900473ffffffffffffffffffffffffffffffffffffffff1673ffffffffffffffffffffffffffffffffffffffff1614612270576040517f08c379a00000000000000000000000000000000000000000000000000000000081526004018080602001828103825260208152602001807f4f776e61626c653a2063616c6c6572206973206e6f7420746865206f776e657281525060200191505060405180910390fd5b600060078054905090504382116122ef576040517f08c379a000000000000000000000000000000000000000000000000000000000815260040180806020018281038252601d8152602001807f436f6e666c7578537461723a207374617274426c6f636b206572726f7200000081525060200191505060405180910390fd5b8160068190555060008090505b818110156123185761230d81612daa565b8060010190506122fc565b505050565b3373ffffffffffffffffffffffffffffffffffffffff16600160009054906101000a900473ffffffffffffffffffffffffffffffffffffffff1673ffffffffffffffffffffffffffffffffffffffff16146123e0576040517f08c379a00000000000000000000000000000000000000000000000000000000081526004018080602001828103825260208152602001807f4f776e61626c653a2063616c6c6572206973206e6f7420746865206f776e657281525060200191505060405180910390fd5b3373ffffffffffffffffffffffffffffffffffffffff167ffd80ccbc6bfc2e7fbbede0ca451179e86853be7776523642799c03113409589f600160149054906101000a900460ff16836040518083151515158152602001821515151581526020019250505060405180910390a280600160146101000a81548160ff02191690831515021790555050565b6000600360009054906101000a900473ffffffffffffffffffffffffffffffffffffffff1673ffffffffffffffffffffffffffffffffffffffff166370a08231306040518263ffffffff1660e01b8152600401808273ffffffffffffffffffffffffffffffffffffffff1673ffffffffffffffffffffffffffffffffffffffff16815260200191505060206040518083038186803b15801561250b57600080fd5b505afa15801561251f573d6000803e3d6000fd5b505050506040513d602081101561253557600080fd5b8101908080519060200190929190505050905090565b600b6020528060005260406000206000915090505481565b3373ffffffffffffffffffffffffffffffffffffffff16600160009054906101000a900473ffffffffffffffffffffffffffffffffffffffff1673ffffffffffffffffffffffffffffffffffffffff1614612626576040517f08c379a00000000000000000000000000000000000000000000000000000000081526004018080602001828103825260208152602001807f4f776e61626c653a2063616c6c6572206973206e6f7420746865206f776e657281525060200191505060405180910390fd5b600073ffffffffffffffffffffffffffffffffffffffff168173ffffffffffffffffffffffffffffffffffffffff1614156126ac576040517f08c379a000000000000000000000000000000000000000000000000000000000815260040180806020018281038252602681526020018061323a6026913960400191505060405180910390fd5b8073ffffffffffffffffffffffffffffffffffffffff16600160009054906101000a900473ffffffffffffffffffffffffffffffffffffffff1673ffffffffffffffffffffffffffffffffffffffff167f8be0079c531659141344cd1fd0a4f28419497f9722a3daafe3b4186f6b6457e060405160405180910390a380600160006101000a81548173ffffffffffffffffffffffffffffffffffffffff021916908373ffffffffffffffffffffffffffffffffffffffff16021790555050565b6000600d80549050905090565b60055481565b60065481565b600080828401905083811015612803576040517f08c379a000000000000000000000000000000000000000000000000000000000815260040180806020018281038252601b8152602001807f536166654d6174683a206164646974696f6e206f766572666c6f77000000000081525060200191505060405180910390fd5b8091505092915050565b600080831415612820576000905061288d565b600082840290508284828161283157fe5b0414612888576040517f08c379a00000000000000000000000000000000000000000000000000000000081526004018080602001828103825260218152602001806132606021913960400191505060405180910390fd5b809150505b92915050565b60006128d583836040518060400160405280601a81526020017f536166654d6174683a206469766973696f6e206279207a65726f000000000000815250612dd8565b905092915050565b600061291f83836040518060400160405280601e81526020017f536166654d6174683a207375627472616374696f6e206f766572666c6f770000815250612e9e565b905092915050565b6000600360009054906101000a900473ffffffffffffffffffffffffffffffffffffffff1673ffffffffffffffffffffffffffffffffffffffff166370a08231306040518263ffffffff1660e01b8152600401808273ffffffffffffffffffffffffffffffffffffffff1673ffffffffffffffffffffffffffffffffffffffff16815260200191505060206040518083038186803b1580156129c857600080fd5b505afa1580156129dc573d6000803e3d6000fd5b505050506040513d60208110156129f257600080fd5b8101908080519060200190929190505050905080821115612a5e576040517f08c379a00000000000000000000000000000000000000000000000000000000081526004018080602001828103825260218152602001806132ab6021913960400191505060405180910390fd5b600360009054906101000a900473ffffffffffffffffffffffffffffffffffffffff1673ffffffffffffffffffffffffffffffffffffffff1663a9059cbb84846040518363ffffffff1660e01b8152600401808373ffffffffffffffffffffffffffffffffffffffff1673ffffffffffffffffffffffffffffffffffffffff16815260200182815260200192505050602060405180830381600087803b158015612b0757600080fd5b505af1158015612b1b573d6000803e3d6000fd5b505050506040513d6020811015612b3157600080fd5b810190808051906020019092919050505050505050565b612c14838473ffffffffffffffffffffffffffffffffffffffff1663a9059cbb905060e01b8484604051602401808373ffffffffffffffffffffffffffffffffffffffff1673ffffffffffffffffffffffffffffffffffffffff16815260200182815260200192505050604051602081830303815290604052907bffffffffffffffffffffffffffffffffffffffffffffffffffffffff19166020820180517bffffffffffffffffffffffffffffffffffffffffffffffffffffffff8381831617835250505050612f5e565b505050565b6000612c7b600954612c6d84612c5f600454612c516002612c438b436128dd90919063ffffffff16565b61289390919063ffffffff16565b61280d90919063ffffffff16565b61280d90919063ffffffff16565b61289390919063ffffffff16565b905092915050565b6000818310612c925781612c94565b825b905092915050565b612d9c848573ffffffffffffffffffffffffffffffffffffffff166323b872dd905060e01b858585604051602401808473ffffffffffffffffffffffffffffffffffffffff1673ffffffffffffffffffffffffffffffffffffffff1681526020018373ffffffffffffffffffffffffffffffffffffffff1673ffffffffffffffffffffffffffffffffffffffff1681526020018281526020019350505050604051602081830303815290604052907bffffffffffffffffffffffffffffffffffffffffffffffffffffffff19166020820180517bffffffffffffffffffffffffffffffffffffffffffffffffffffffff8381831617835250505050612f5e565b50505050565b600033905090565b600060078281548110612db957fe5b9060005260206000209060040201905060065481600201819055505050565b60008083118290612e84576040517f08c379a00000000000000000000000000000000000000000000000000000000081526004018080602001828103825283818151815260200191508051906020019080838360005b83811015612e49578082015181840152602081019050612e2e565b50505050905090810190601f168015612e765780820380516001836020036101000a031916815260200191505b509250505060405180910390fd5b506000838581612e9057fe5b049050809150509392505050565b6000838311158290612f4b576040517f08c379a00000000000000000000000000000000000000000000000000000000081526004018080602001828103825283818151815260200191508051906020019080838360005b83811015612f10578082015181840152602081019050612ef5565b50505050905090810190601f168015612f3d5780820380516001836020036101000a031916815260200191505b509250505060405180910390fd5b5060008385039050809150509392505050565b612f7d8273ffffffffffffffffffffffffffffffffffffffff166131a9565b612fef576040517f08c379a000000000000000000000000000000000000000000000000000000000815260040180806020018281038252601f8152602001807f5361666545524332303a2063616c6c20746f206e6f6e2d636f6e74726163740081525060200191505060405180910390fd5b600060608373ffffffffffffffffffffffffffffffffffffffff16836040518082805190602001908083835b6020831061303e578051825260208201915060208101905060208303925061301b565b6001836020036101000a0380198251168184511680821785525050505050509050019150506000604051808303816000865af19150503d80600081146130a0576040519150601f19603f3d011682016040523d82523d6000602084013e6130a5565b606091505b50915091508161311d576040517f08c379a00000000000000000000000000000000000000000000000000000000081526004018080602001828103825260208152602001807f5361666545524332303a206c6f772d6c6576656c2063616c6c206661696c656481525060200191505060405180910390fd5b6000815111156131a35780806020019051602081101561313c57600080fd5b81019080805190602001909291905050506131a2576040517f08c379a000000000000000000000000000000000000000000000000000000000815260040180806020018281038252602a815260200180613281602a913960400191505060405180910390fd5b5b50505050565b60008060007fc5d2460186f7233c927e7db2dcc703c0e500b653ca82273b7bfad8045d85a47060001b9050833f91508082141580156131eb57506000801b8214155b92505050919050565b60405180610c80016040528060649060208202803883398082019150509050509056fe4d6f6f6e537761703a206163636f756e744c697374206f7574206f662072616e67654f776e61626c653a206e6577206f776e657220697320746865207a65726f2061646472657373536166654d6174683a206d756c7469706c69636174696f6e206f766572666c6f775361666545524332303a204552433230206f7065726174696f6e20646964206e6f742073756363656564436f6e666c7578537461723a2042616c616e636520696e73756666696369656e74a265627a7a723158208381c1f8b508a25e6268442d32dbe871eec1b86deed7e2d2579e610907f8c67d64736f6c63430005100032",
  "source": "pragma solidity =0.5.16;\n\nimport \"@openzeppelin/contracts/math/SafeMath.sol\";\nimport \"@openzeppelin/contracts/introspection/IERC1820Registry.sol\";\nimport \"@openzeppelin/contracts/token/ERC777/IERC777Recipient.sol\";\nimport \"@openzeppelin/contracts/utils/Address.sol\";\nimport \"@openzeppelin/contracts/ownership/Ownable.sol\";\nimport \"@openzeppelin/contracts/token/ERC777/IERC777.sol\";\nimport \"@openzeppelin/contracts/token/ERC20/IERC20.sol\";\nimport \"@openzeppelin/contracts/token/ERC20/SafeERC20.sol\";\nimport \"./Pauseable.sol\";\nimport './SponsorWhitelistControl.sol';\nimport './libraries/Math.sol';\n\n/**\n * Interstellar migration\n * Welcome to Conflux Star ##Farm\n *\n */\ncontract ConfluxStar is Ownable, Pauseable, IERC777Recipient {\n  using SafeMath for uint256;\n  using SafeERC20 for IERC20;\n\n  SponsorWhitelistControl constant public SPONSOR = SponsorWhitelistControl(address(0x0888000000000000000000000000000000000001));\n  IERC1820Registry private _erc1820 = IERC1820Registry(0x866aCA87FF33a0ae05D2164B3D999A804F583222);\n  // keccak256(\"ERC777TokensRecipient\")\n  bytes32 constant private TOKENS_RECIPIENT_INTERFACE_HASH =\n    0xb281fc8c12954d22544db45de3159a39272895b169a852b314f9cc762e44c53b;\n\n  struct UserInfo {\n    uint256 amount;\n    uint256 rewardDebt;\n    uint256 timestamp;\n  }\n\n  struct PoolInfo {\n    IERC20 lpToken;           // Address of LP token contract.\n    uint256 allocPoint;       // How many allocation points assigned to this pool. Moons to distribute per block.\n    uint256 lastRewardBlock;  //\n    uint256 accTokenPerShare; //\n  }\n\n  // Moon crosschain atom mapping\n  address public cMoonToken;\n  uint256 public tokenPerSecond;\n  uint256 public startFarmTime;\n  uint256 public startFarmBlock;\n\n  // Info of each pool.\n  PoolInfo[] public poolInfo;\n  // Info of each user that stakes LP tokens.\n  mapping (uint256 => mapping (address => UserInfo)) public userInfo;\n  // Total allocation poitns. Must be the sum of all allocation points in all pools.\n  uint256 public totalAllocPoint = 0;\n  // The block number when Token mining starts.\n  uint256 public startBlock;\n  mapping(address => uint256) public poolIndexs;\n\n  mapping (address => bool) private _accountCheck;\n  address[] private _accountList;\n\n  event TokenTransfer(address indexed tokenAddress, address indexed from, address to, uint value);\n  event Deposit(address indexed user, uint256 indexed pid, uint256 amount);\n  event Withdraw(address indexed user, uint256 indexed pid, uint256 amount);\n  event EmergencyWithdraw(address indexed user, uint256 indexed pid, uint256 amount);\n\n  constructor(\n        address _cMoon,\n        uint256 _tokenPerSecond,\n        uint256 _startBlock\n    ) public {\n        cMoonToken = _cMoon;\n        tokenPerSecond = _tokenPerSecond; // Calculate the production rate according to the mining situation\n        startFarmBlock = _startBlock;\n\n\n        _erc1820.setInterfaceImplementer(address(this), TOKENS_RECIPIENT_INTERFACE_HASH, address(this));\n\n        // register all users as sponsees\n        address[] memory users = new address[](1);\n        users[0] = address(0);\n        SPONSOR.add_privilege(users);\n    }\n\n    function poolLength() external view returns (uint256) {\n        return poolInfo.length;\n    }\n\n    function add(uint256 _allocPoint, IERC20 _lpToken, bool _withUpdate) public onlyOwner {\n        if (_withUpdate) {\n            massUpdatePools();\n        }\n        require(poolIndexs[address(_lpToken)] < 1, \"LpToken exists\");\n        uint256 lastRewardBlock = block.number > startFarmBlock ? block.number : startFarmBlock;\n        totalAllocPoint = totalAllocPoint.add(_allocPoint);\n        poolInfo.push(PoolInfo({\n            lpToken: _lpToken,\n            allocPoint: _allocPoint,\n            lastRewardBlock: lastRewardBlock,\n            accTokenPerShare: 0\n        }));\n\n        poolIndexs[address(_lpToken)] = poolInfo.length;\n    }\n\n    function set(uint256 _pid, uint256 _allocPoint, bool _withUpdate) public onlyOwner {\n        if (_withUpdate) {\n            massUpdatePools();\n        }\n        totalAllocPoint = totalAllocPoint.sub(poolInfo[_pid].allocPoint).add(_allocPoint);\n        poolInfo[_pid].allocPoint = _allocPoint;\n    }\n\n    function setTokenPerSecond(uint256 _tokenPerSecond) public onlyOwner {\n        massUpdatePools();\n\n        tokenPerSecond = _tokenPerSecond;\n    }\n\n    // only first est time execute the action\n    function setStartFarmBlock(uint256 _startBlock) public onlyOwner {\n        uint256 length = poolInfo.length;\n        require(_startBlock > block.number, \"ConfluxStar: startBlock error\");\n        startFarmBlock = _startBlock;\n        for (uint256 pid = 0; pid < length; ++pid) {\n            _updatePoolParam(pid);\n        }\n    }\n\n    function _updatePoolParam(uint256 _pid) internal {\n        PoolInfo storage pool = poolInfo[_pid];\n        pool.lastRewardBlock = startFarmBlock;\n    }\n\n\n    function pendingToken(uint256 _pid, address _user) external view returns (uint256) {\n        PoolInfo storage pool = poolInfo[_pid];\n        UserInfo storage user = userInfo[_pid][_user];\n        uint256 accTokenPerShare = pool.accTokenPerShare;\n        uint256 lpSupply = pool.lpToken.balanceOf(address(this));\n        if (block.number > pool.lastRewardBlock && lpSupply != 0) {\n            uint256 tokenReward = _getPoolReward(pool.lastRewardBlock, pool.allocPoint);\n            accTokenPerShare = accTokenPerShare.add(tokenReward.mul(1e12).div(lpSupply));\n        }\n\n        return user.amount.mul(accTokenPerShare).div(1e12).sub(user.rewardDebt);\n    }\n\n    function massUpdatePools() public whenPaused {\n        uint256 length = poolInfo.length;\n        for (uint256 pid = 0; pid < length; ++pid) {\n            updatePool(pid);\n        }\n    }\n\n\n\n    function updatePool(uint256 _pid) public whenPaused {\n        PoolInfo storage pool = poolInfo[_pid];\n        if (block.number <= pool.lastRewardBlock) {\n            return;\n        }\n        uint256 lpSupply = pool.lpToken.balanceOf(address(this));\n        if (lpSupply == 0) {\n            pool.lastRewardBlock = block.number;\n            return;\n        }\n\n        uint256 tokenReward = _getPoolReward(pool.lastRewardBlock, pool.allocPoint);\n\n        pool.accTokenPerShare = pool.accTokenPerShare.add(tokenReward.mul(1e12).div(lpSupply));\n        pool.lastRewardBlock = block.number;\n    }\n\n    //\n    function deposit(uint256 _pid, uint256 _amount, address to) public whenPaused {\n        if(to == address(0)){\n            to = address(msg.sender);\n        }\n\n        PoolInfo storage pool = poolInfo[_pid];\n        UserInfo storage user = userInfo[_pid][to];\n        updatePool(_pid);\n        if (user.amount > 0) {\n            uint256 pending = user.amount.mul(pool.accTokenPerShare).div(1e12).sub(user.rewardDebt);\n            safeTokenTransfer(to, pending);\n        }\n        pool.lpToken.safeTransferFrom(address(msg.sender), address(this), _amount);\n        user.amount = user.amount.add(_amount);\n        user.rewardDebt = user.amount.mul(pool.accTokenPerShare).div(1e12);\n        user.timestamp = block.timestamp;\n\n        // data migration\n        if (!_accountCheck[to]) {\n            _accountCheck[to] = true;\n            _accountList.push(to);\n        }\n\n        emit Deposit(to, _pid, _amount);\n    }\n\n    function withdraw(uint256 _pid, uint256 _amount) public whenPaused {\n        PoolInfo storage pool = poolInfo[_pid];\n        UserInfo storage user = userInfo[_pid][msg.sender];\n        require(_amount > 0, \"user amount is zero\");\n        require(user.amount >= _amount, \"withdraw: not good\");\n        updatePool(_pid);\n        uint256 pending = user.amount.mul(pool.accTokenPerShare).div(1e12).sub(user.rewardDebt);\n        safeTokenTransfer(msg.sender, pending);\n        user.amount = user.amount.sub(_amount);\n        user.rewardDebt = user.amount.mul(pool.accTokenPerShare).div(1e12);\n        pool.lpToken.safeTransfer(address(msg.sender), _amount);\n        emit Withdraw(msg.sender, _pid, _amount);\n    }\n\n    function emergencyWithdraw(uint256 _pid) public whenPaused {\n        PoolInfo storage pool = poolInfo[_pid];\n        UserInfo storage user = userInfo[_pid][msg.sender];\n        uint256 _amount = user.amount;\n        require(_amount > 0, \"user amount is zero\");\n        user.amount = 0;\n        user.rewardDebt = 0;\n\n        pool.lpToken.safeTransfer(address(msg.sender), _amount);\n        emit EmergencyWithdraw(msg.sender, _pid, _amount);\n    }\n\n    function moonBalance() external view returns(uint256) {\n      return IERC20(cMoonToken).balanceOf(address(this));\n    }\n\n    function safeTokenTransfer(address _to, uint256 _amount) internal {\n        uint256 tokenBal = IERC20(cMoonToken).balanceOf(address(this));\n        require(_amount <= tokenBal, \"ConfluxStar: Balance insufficient\");\n        IERC20(cMoonToken).transfer(_to, _amount);\n    }\n\n    function _getPoolReward(uint256 _poolLastRewardBlock, uint256 _poolAllocPoint) internal view returns(uint256) {\n        return block.number.sub(_poolLastRewardBlock).div(2).mul(tokenPerSecond)\n          .mul(_poolAllocPoint).div(totalAllocPoint);\n    }\n\n    // custodian deposit\n    function tokensReceived(address operator, address from, address to, uint amount,\n          bytes calldata userData,\n          bytes calldata operatorData) external {\n\n          emit TokenTransfer(msg.sender, from, to, amount);\n    }\n\n    //---------------- Data Migration ----------------------\n    function accountTotal() public view returns (uint256) {\n       return _accountList.length;\n    }\n\n    function accountList(uint256 begin) public view returns (address[100] memory) {\n        require(begin >= 0 && begin < _accountList.length, \"MoonSwap: accountList out of range\");\n        address[100] memory res;\n        uint256 range = Math.min(_accountList.length, begin.add(100));\n        for (uint256 i = begin; i < range; i++) {\n            res[i-begin] = _accountList[i];\n        }\n        return res;\n    }\n}\n",
  "sourcePath": "/Users/junhuazhou/Documents/GitHub/moonswap-amm/contracts/ConfluxStar.sol",
  "compiler": {
    "name": "solc",
    "version": "0.5.16+commit.9c3226ce.Emscripten.clang"
  },
  "schemaVersion": "3.2.0",
  "updatedAt": "2020-09-26T01:43:24.611Z",
  "devdoc": {
    "methods": {
      "isOwner()": {
        "details": "Returns true if the caller is the current owner."
      },
      "owner()": {
        "details": "Returns the address of the current owner."
      },
      "renounceOwnership()": {
        "details": "Leaves the contract without owner. It will not be possible to call `onlyOwner` functions anymore. Can only be called by the current owner.     * NOTE: Renouncing ownership will leave the contract without an owner, thereby removing any functionality that is only available to the owner."
      }
    }
  },
  "userdoc": {
    "methods": {},
    "notice": "Interstellar migration Welcome to Conflux Star ##Farm "
  }
}