{
  "contractName": "ConfluxMultiFarm",
  "abi": [
    {
      "inputs": [
        {
          "internalType": "address",
          "name": "_cMoon",
          "type": "address"
        },
        {
          "internalType": "address",
          "name": "_savingPoolAddr",
          "type": "address"
        },
        {
          "internalType": "uint256",
          "name": "_moonTokenSpeed",
          "type": "uint256"
        },
        {
          "internalType": "uint256",
          "name": "_startFarmBlock",
          "type": "uint256"
        },
        {
          "internalType": "address",
          "name": "_WCFX",
          "type": "address"
        }
      ],
      "payable": false,
      "stateMutability": "nonpayable",
      "type": "constructor"
    },
    {
      "anonymous": false,
      "inputs": [
        {
          "indexed": true,
          "internalType": "address",
          "name": "user",
          "type": "address"
        },
        {
          "indexed": true,
          "internalType": "uint256",
          "name": "pid",
          "type": "uint256"
        },
        {
          "indexed": false,
          "internalType": "uint256",
          "name": "amount",
          "type": "uint256"
        }
      ],
      "name": "Deposit",
      "type": "event"
    },
    {
      "anonymous": false,
      "inputs": [
        {
          "indexed": true,
          "internalType": "address",
          "name": "user",
          "type": "address"
        },
        {
          "indexed": true,
          "internalType": "uint256",
          "name": "pid",
          "type": "uint256"
        },
        {
          "indexed": false,
          "internalType": "uint256",
          "name": "amount",
          "type": "uint256"
        }
      ],
      "name": "EmergencyWithdraw",
      "type": "event"
    },
    {
      "anonymous": false,
      "inputs": [
        {
          "indexed": true,
          "internalType": "address",
          "name": "previousOwner",
          "type": "address"
        },
        {
          "indexed": true,
          "internalType": "address",
          "name": "newOwner",
          "type": "address"
        }
      ],
      "name": "OwnershipTransferred",
      "type": "event"
    },
    {
      "anonymous": false,
      "inputs": [
        {
          "indexed": true,
          "internalType": "address",
          "name": "tokenAddress",
          "type": "address"
        },
        {
          "indexed": true,
          "internalType": "address",
          "name": "from",
          "type": "address"
        },
        {
          "indexed": false,
          "internalType": "address",
          "name": "to",
          "type": "address"
        },
        {
          "indexed": false,
          "internalType": "uint256",
          "name": "value",
          "type": "uint256"
        }
      ],
      "name": "TokenTransfer",
      "type": "event"
    },
    {
      "anonymous": false,
      "inputs": [
        {
          "indexed": true,
          "internalType": "address",
          "name": "user",
          "type": "address"
        },
        {
          "indexed": true,
          "internalType": "uint256",
          "name": "pid",
          "type": "uint256"
        },
        {
          "indexed": false,
          "internalType": "uint256",
          "name": "amount",
          "type": "uint256"
        }
      ],
      "name": "Withdraw",
      "type": "event"
    },
    {
      "constant": true,
      "inputs": [],
      "name": "SPONSOR",
      "outputs": [
        {
          "internalType": "contract SponsorWhitelistControl",
          "name": "",
          "type": "address"
        }
      ],
      "payable": false,
      "stateMutability": "view",
      "type": "function"
    },
    {
      "constant": true,
      "inputs": [],
      "name": "WCFX",
      "outputs": [
        {
          "internalType": "address",
          "name": "",
          "type": "address"
        }
      ],
      "payable": false,
      "stateMutability": "view",
      "type": "function"
    },
    {
      "constant": true,
      "inputs": [],
      "name": "cMoonToken",
      "outputs": [
        {
          "internalType": "address",
          "name": "",
          "type": "address"
        }
      ],
      "payable": false,
      "stateMutability": "view",
      "type": "function"
    },
    {
      "constant": true,
      "inputs": [],
      "name": "isOwner",
      "outputs": [
        {
          "internalType": "bool",
          "name": "",
          "type": "bool"
        }
      ],
      "payable": false,
      "stateMutability": "view",
      "type": "function"
    },
    {
      "constant": true,
      "inputs": [],
      "name": "moonTokenSpeed",
      "outputs": [
        {
          "internalType": "uint256",
          "name": "",
          "type": "uint256"
        }
      ],
      "payable": false,
      "stateMutability": "view",
      "type": "function"
    },
    {
      "constant": true,
      "inputs": [],
      "name": "owner",
      "outputs": [
        {
          "internalType": "address",
          "name": "",
          "type": "address"
        }
      ],
      "payable": false,
      "stateMutability": "view",
      "type": "function"
    },
    {
      "constant": true,
      "inputs": [
        {
          "internalType": "uint256",
          "name": "",
          "type": "uint256"
        }
      ],
      "name": "poolInfo",
      "outputs": [
        {
          "internalType": "address",
          "name": "token",
          "type": "address"
        },
        {
          "internalType": "uint256",
          "name": "allocPoint",
          "type": "uint256"
        },
        {
          "internalType": "uint256",
          "name": "startBlock",
          "type": "uint256"
        },
        {
          "internalType": "uint256",
          "name": "endBlock",
          "type": "uint256"
        },
        {
          "internalType": "uint256",
          "name": "lastRewardBlock",
          "type": "uint256"
        },
        {
          "internalType": "uint256",
          "name": "accTokenPerShare",
          "type": "uint256"
        }
      ],
      "payable": false,
      "stateMutability": "view",
      "type": "function"
    },
    {
      "constant": true,
      "inputs": [
        {
          "internalType": "uint256",
          "name": "",
          "type": "uint256"
        },
        {
          "internalType": "address",
          "name": "",
          "type": "address"
        }
      ],
      "name": "poolRewardInfos",
      "outputs": [
        {
          "internalType": "address",
          "name": "rewardToken",
          "type": "address"
        },
        {
          "internalType": "uint256",
          "name": "lastRewardBlock",
          "type": "uint256"
        },
        {
          "internalType": "uint256",
          "name": "accTokenPerShare",
          "type": "uint256"
        },
        {
          "internalType": "uint256",
          "name": "tokenSpeed",
          "type": "uint256"
        },
        {
          "internalType": "uint256",
          "name": "totalBalance",
          "type": "uint256"
        },
        {
          "internalType": "uint256",
          "name": "sumBalance",
          "type": "uint256"
        }
      ],
      "payable": false,
      "stateMutability": "view",
      "type": "function"
    },
    {
      "constant": true,
      "inputs": [
        {
          "internalType": "uint256",
          "name": "",
          "type": "uint256"
        },
        {
          "internalType": "uint256",
          "name": "",
          "type": "uint256"
        }
      ],
      "name": "poolRewardTokens",
      "outputs": [
        {
          "internalType": "address",
          "name": "",
          "type": "address"
        }
      ],
      "payable": false,
      "stateMutability": "view",
      "type": "function"
    },
    {
      "constant": false,
      "inputs": [],
      "name": "renounceOwnership",
      "outputs": [],
      "payable": false,
      "stateMutability": "nonpayable",
      "type": "function"
    },
    {
      "constant": true,
      "inputs": [],
      "name": "savingPoolAddr",
      "outputs": [
        {
          "internalType": "address",
          "name": "",
          "type": "address"
        }
      ],
      "payable": false,
      "stateMutability": "view",
      "type": "function"
    },
    {
      "constant": true,
      "inputs": [],
      "name": "startFarmBlock",
      "outputs": [
        {
          "internalType": "uint256",
          "name": "",
          "type": "uint256"
        }
      ],
      "payable": false,
      "stateMutability": "view",
      "type": "function"
    },
    {
      "constant": true,
      "inputs": [],
      "name": "totalAllocPoint",
      "outputs": [
        {
          "internalType": "uint256",
          "name": "",
          "type": "uint256"
        }
      ],
      "payable": false,
      "stateMutability": "view",
      "type": "function"
    },
    {
      "constant": false,
      "inputs": [
        {
          "internalType": "address",
          "name": "newOwner",
          "type": "address"
        }
      ],
      "name": "transferOwnership",
      "outputs": [],
      "payable": false,
      "stateMutability": "nonpayable",
      "type": "function"
    },
    {
      "constant": true,
      "inputs": [
        {
          "internalType": "uint256",
          "name": "",
          "type": "uint256"
        },
        {
          "internalType": "address",
          "name": "",
          "type": "address"
        },
        {
          "internalType": "address",
          "name": "",
          "type": "address"
        }
      ],
      "name": "userRewards",
      "outputs": [
        {
          "internalType": "address",
          "name": "rewardToken",
          "type": "address"
        },
        {
          "internalType": "uint256",
          "name": "balance",
          "type": "uint256"
        },
        {
          "internalType": "uint256",
          "name": "rewardDebt",
          "type": "uint256"
        }
      ],
      "payable": false,
      "stateMutability": "view",
      "type": "function"
    },
    {
      "constant": true,
      "inputs": [
        {
          "internalType": "uint256",
          "name": "",
          "type": "uint256"
        },
        {
          "internalType": "address",
          "name": "",
          "type": "address"
        }
      ],
      "name": "userStakes",
      "outputs": [
        {
          "internalType": "address",
          "name": "token",
          "type": "address"
        },
        {
          "internalType": "uint256",
          "name": "amount",
          "type": "uint256"
        },
        {
          "internalType": "uint256",
          "name": "balance",
          "type": "uint256"
        },
        {
          "internalType": "uint256",
          "name": "rewardDebt",
          "type": "uint256"
        }
      ],
      "payable": false,
      "stateMutability": "view",
      "type": "function"
    },
    {
      "constant": true,
      "inputs": [],
      "name": "poolLength",
      "outputs": [
        {
          "internalType": "uint256",
          "name": "",
          "type": "uint256"
        }
      ],
      "payable": false,
      "stateMutability": "view",
      "type": "function"
    },
    {
      "constant": true,
      "inputs": [
        {
          "internalType": "uint256",
          "name": "_pid",
          "type": "uint256"
        }
      ],
      "name": "poolRewardLen",
      "outputs": [
        {
          "internalType": "uint256",
          "name": "",
          "type": "uint256"
        }
      ],
      "payable": false,
      "stateMutability": "view",
      "type": "function"
    },
    {
      "constant": false,
      "inputs": [
        {
          "internalType": "uint256",
          "name": "_allocPoint",
          "type": "uint256"
        },
        {
          "internalType": "address",
          "name": "_token",
          "type": "address"
        },
        {
          "internalType": "uint256",
          "name": "_startBlock",
          "type": "uint256"
        },
        {
          "internalType": "uint256",
          "name": "_endBlock",
          "type": "uint256"
        },
        {
          "internalType": "bool",
          "name": "_withUpdate",
          "type": "bool"
        }
      ],
      "name": "add",
      "outputs": [],
      "payable": false,
      "stateMutability": "nonpayable",
      "type": "function"
    },
    {
      "constant": false,
      "inputs": [
        {
          "internalType": "uint256",
          "name": "_pid",
          "type": "uint256"
        },
        {
          "internalType": "address",
          "name": "_rewardToken",
          "type": "address"
        }
      ],
      "name": "addPoolReward",
      "outputs": [],
      "payable": false,
      "stateMutability": "nonpayable",
      "type": "function"
    },
    {
      "constant": false,
      "inputs": [
        {
          "internalType": "uint256",
          "name": "_pid",
          "type": "uint256"
        },
        {
          "internalType": "address",
          "name": "_rewardToken",
          "type": "address"
        },
        {
          "internalType": "uint256",
          "name": "_amount",
          "type": "uint256"
        },
        {
          "internalType": "uint256",
          "name": "_tokenSpeed",
          "type": "uint256"
        }
      ],
      "name": "appendPoolReward",
      "outputs": [],
      "payable": false,
      "stateMutability": "nonpayable",
      "type": "function"
    },
    {
      "constant": false,
      "inputs": [
        {
          "internalType": "uint256",
          "name": "_pid",
          "type": "uint256"
        },
        {
          "internalType": "address",
          "name": "_rewardToken",
          "type": "address"
        },
        {
          "internalType": "uint256",
          "name": "_tokenSpeed",
          "type": "uint256"
        }
      ],
      "name": "appendPoolRewardCfx",
      "outputs": [],
      "payable": true,
      "stateMutability": "payable",
      "type": "function"
    },
    {
      "constant": false,
      "inputs": [
        {
          "internalType": "uint256",
          "name": "_pid",
          "type": "uint256"
        },
        {
          "internalType": "address",
          "name": "_rewardToken",
          "type": "address"
        },
        {
          "internalType": "uint256",
          "name": "_tokenSpeed",
          "type": "uint256"
        }
      ],
      "name": "setRewardTokenSpeed",
      "outputs": [],
      "payable": false,
      "stateMutability": "nonpayable",
      "type": "function"
    },
    {
      "constant": false,
      "inputs": [
        {
          "internalType": "uint256",
          "name": "_pid",
          "type": "uint256"
        },
        {
          "internalType": "uint256",
          "name": "_endBlock",
          "type": "uint256"
        }
      ],
      "name": "setPoolEndBlock",
      "outputs": [],
      "payable": false,
      "stateMutability": "nonpayable",
      "type": "function"
    },
    {
      "constant": false,
      "inputs": [
        {
          "internalType": "uint256",
          "name": "_pid",
          "type": "uint256"
        },
        {
          "internalType": "uint256",
          "name": "_allocPoint",
          "type": "uint256"
        },
        {
          "internalType": "bool",
          "name": "_withUpdate",
          "type": "bool"
        }
      ],
      "name": "set",
      "outputs": [],
      "payable": false,
      "stateMutability": "nonpayable",
      "type": "function"
    },
    {
      "constant": false,
      "inputs": [
        {
          "internalType": "uint256",
          "name": "_moonTokenSpeed",
          "type": "uint256"
        }
      ],
      "name": "setMoonTokenSpeed",
      "outputs": [],
      "payable": false,
      "stateMutability": "nonpayable",
      "type": "function"
    },
    {
      "constant": true,
      "inputs": [
        {
          "internalType": "uint256",
          "name": "_pid",
          "type": "uint256"
        },
        {
          "internalType": "address",
          "name": "_user",
          "type": "address"
        }
      ],
      "name": "pendingRewardTokens",
      "outputs": [
        {
          "internalType": "address[5]",
          "name": "",
          "type": "address[5]"
        },
        {
          "internalType": "uint256[5]",
          "name": "",
          "type": "uint256[5]"
        }
      ],
      "payable": false,
      "stateMutability": "view",
      "type": "function"
    },
    {
      "constant": true,
      "inputs": [
        {
          "internalType": "uint256",
          "name": "_pid",
          "type": "uint256"
        },
        {
          "internalType": "address",
          "name": "_user",
          "type": "address"
        },
        {
          "internalType": "address",
          "name": "_rewardToken",
          "type": "address"
        }
      ],
      "name": "pendingRewardToken",
      "outputs": [
        {
          "internalType": "uint256",
          "name": "",
          "type": "uint256"
        }
      ],
      "payable": false,
      "stateMutability": "view",
      "type": "function"
    },
    {
      "constant": true,
      "inputs": [
        {
          "internalType": "uint256",
          "name": "_pid",
          "type": "uint256"
        },
        {
          "internalType": "address",
          "name": "_user",
          "type": "address"
        }
      ],
      "name": "pendingMoonToken",
      "outputs": [
        {
          "internalType": "uint256",
          "name": "",
          "type": "uint256"
        }
      ],
      "payable": false,
      "stateMutability": "view",
      "type": "function"
    },
    {
      "constant": false,
      "inputs": [],
      "name": "massUpdatePools",
      "outputs": [],
      "payable": false,
      "stateMutability": "nonpayable",
      "type": "function"
    },
    {
      "constant": false,
      "inputs": [
        {
          "internalType": "uint256",
          "name": "_pid",
          "type": "uint256"
        }
      ],
      "name": "updateRewardPool",
      "outputs": [],
      "payable": false,
      "stateMutability": "nonpayable",
      "type": "function"
    },
    {
      "constant": false,
      "inputs": [
        {
          "internalType": "uint256",
          "name": "_pid",
          "type": "uint256"
        }
      ],
      "name": "updatePool",
      "outputs": [],
      "payable": false,
      "stateMutability": "nonpayable",
      "type": "function"
    },
    {
      "constant": false,
      "inputs": [
        {
          "internalType": "uint256",
          "name": "_pid",
          "type": "uint256"
        },
        {
          "internalType": "uint256",
          "name": "_amount",
          "type": "uint256"
        },
        {
          "internalType": "address",
          "name": "_user",
          "type": "address"
        }
      ],
      "name": "deposit",
      "outputs": [],
      "payable": false,
      "stateMutability": "nonpayable",
      "type": "function"
    },
    {
      "constant": false,
      "inputs": [
        {
          "internalType": "uint256",
          "name": "_pid",
          "type": "uint256"
        },
        {
          "internalType": "uint256",
          "name": "_amount",
          "type": "uint256"
        }
      ],
      "name": "withdraw",
      "outputs": [],
      "payable": false,
      "stateMutability": "nonpayable",
      "type": "function"
    },
    {
      "constant": false,
      "inputs": [
        {
          "internalType": "uint256",
          "name": "_pid",
          "type": "uint256"
        }
      ],
      "name": "emergencyWithdraw",
      "outputs": [],
      "payable": false,
      "stateMutability": "nonpayable",
      "type": "function"
    },
    {
      "constant": false,
      "inputs": [
        {
          "internalType": "uint256",
          "name": "_pid",
          "type": "uint256"
        }
      ],
      "name": "harvestBatch",
      "outputs": [],
      "payable": false,
      "stateMutability": "nonpayable",
      "type": "function"
    },
    {
      "constant": false,
      "inputs": [
        {
          "internalType": "uint256",
          "name": "_pid",
          "type": "uint256"
        }
      ],
      "name": "harvestMoon",
      "outputs": [],
      "payable": false,
      "stateMutability": "nonpayable",
      "type": "function"
    },
    {
      "constant": false,
      "inputs": [
        {
          "internalType": "uint256",
          "name": "_pid",
          "type": "uint256"
        },
        {
          "internalType": "address",
          "name": "_rewardToken",
          "type": "address"
        }
      ],
      "name": "harvest",
      "outputs": [],
      "payable": false,
      "stateMutability": "nonpayable",
      "type": "function"
    },
    {
      "constant": true,
      "inputs": [],
      "name": "moonBalance",
      "outputs": [
        {
          "internalType": "uint256",
          "name": "",
          "type": "uint256"
        }
      ],
      "payable": false,
      "stateMutability": "view",
      "type": "function"
    },
    {
      "constant": true,
      "inputs": [
        {
          "internalType": "uint256",
          "name": "_sceneId",
          "type": "uint256"
        }
      ],
      "name": "scenes",
      "outputs": [
        {
          "components": [
            {
              "internalType": "uint256",
              "name": "sceneId",
              "type": "uint256"
            },
            {
              "internalType": "uint256",
              "name": "allocPoint",
              "type": "uint256"
            },
            {
              "internalType": "uint256",
              "name": "lastRewardBlock",
              "type": "uint256"
            },
            {
              "internalType": "uint256",
              "name": "accTokenPerShare",
              "type": "uint256"
            },
            {
              "internalType": "address",
              "name": "sceneAddress",
              "type": "address"
            },
            {
              "internalType": "uint256",
              "name": "rewardDebt",
              "type": "uint256"
            }
          ],
          "internalType": "struct ISimpleScene.SceneInfo",
          "name": "",
          "type": "tuple"
        }
      ],
      "payable": false,
      "stateMutability": "view",
      "type": "function"
    },
    {
      "constant": true,
      "inputs": [],
      "name": "getSceneId",
      "outputs": [
        {
          "internalType": "uint256",
          "name": "",
          "type": "uint256"
        }
      ],
      "payable": false,
      "stateMutability": "view",
      "type": "function"
    },
    {
      "constant": false,
      "inputs": [
        {
          "internalType": "address",
          "name": "_savingPoolAddr",
          "type": "address"
        }
      ],
      "name": "setSavingPoolAddr",
      "outputs": [],
      "payable": false,
      "stateMutability": "nonpayable",
      "type": "function"
    },
    {
      "constant": true,
      "inputs": [
        {
          "internalType": "address",
          "name": "operator",
          "type": "address"
        },
        {
          "internalType": "address",
          "name": "from",
          "type": "address"
        },
        {
          "internalType": "address",
          "name": "to",
          "type": "address"
        },
        {
          "internalType": "uint256",
          "name": "amount",
          "type": "uint256"
        },
        {
          "internalType": "bytes",
          "name": "userData",
          "type": "bytes"
        },
        {
          "internalType": "bytes",
          "name": "operatorData",
          "type": "bytes"
        }
      ],
      "name": "tokensReceived",
      "outputs": [],
      "payable": false,
      "stateMutability": "view",
      "type": "function"
    },
    {
      "constant": true,
      "inputs": [],
      "name": "accountTotal",
      "outputs": [
        {
          "internalType": "uint256",
          "name": "",
          "type": "uint256"
        }
      ],
      "payable": false,
      "stateMutability": "view",
      "type": "function"
    },
    {
      "constant": true,
      "inputs": [
        {
          "internalType": "uint256",
          "name": "begin",
          "type": "uint256"
        }
      ],
      "name": "accountList",
      "outputs": [
        {
          "internalType": "address[100]",
          "name": "",
          "type": "address[100]"
        }
      ],
      "payable": false,
      "stateMutability": "view",
      "type": "function"
    }
  ],
  "bytecode": "0x60806040527388887ed889e776bcbe2f0f9932ecfabcdfcd1820600160006101000a81548173ffffffffffffffffffffffffffffffffffffffff021916908373ffffffffffffffffffffffffffffffffffffffff1602179055506000600b553480156200006b57600080fd5b50604051620070903803806200709083398181016040526200009191908101906200040f565b6000620000a3620003d960201b60201c565b9050806000806101000a81548173ffffffffffffffffffffffffffffffffffffffff021916908373ffffffffffffffffffffffffffffffffffffffff1602179055508073ffffffffffffffffffffffffffffffffffffffff16600073ffffffffffffffffffffffffffffffffffffffff167f8be0079c531659141344cd1fd0a4f28419497f9722a3daafe3b4186f6b6457e060405160405180910390a35084600760006101000a81548173ffffffffffffffffffffffffffffffffffffffff021916908373ffffffffffffffffffffffffffffffffffffffff16021790555083600860006101000a81548173ffffffffffffffffffffffffffffffffffffffff021916908373ffffffffffffffffffffffffffffffffffffffff16021790555082600a819055508160098190555080600c60006101000a81548173ffffffffffffffffffffffffffffffffffffffff021916908373ffffffffffffffffffffffffffffffffffffffff160217905550600160009054906101000a900473ffffffffffffffffffffffffffffffffffffffff1673ffffffffffffffffffffffffffffffffffffffff166329965a1d307fb281fc8c12954d22544db45de3159a39272895b169a852b314f9cc762e44c53b60001b306040518463ffffffff1660e01b8152600401620002969392919062000548565b600060405180830381600087803b158015620002b157600080fd5b505af1158015620002c6573d6000803e3d6000fd5b5050505060606001604051908082528060200260200182016040528015620002fd5781602001602082028038833980820191505090505b5090506000816000815181106200031057fe5b602002602001019073ffffffffffffffffffffffffffffffffffffffff16908173ffffffffffffffffffffffffffffffffffffffff168152505073088800000000000000000000000000000000000173ffffffffffffffffffffffffffffffffffffffff166310128d3e826040518263ffffffff1660e01b815260040162000399919062000585565b600060405180830381600087803b158015620003b457600080fd5b505af1158015620003c9573d6000803e3d6000fd5b505050505050505050506200065e565b600033905090565b600081519050620003f2816200062a565b92915050565b600081519050620004098162000644565b92915050565b600080600080600060a086880312156200042857600080fd5b60006200043888828901620003e1565b95505060206200044b88828901620003e1565b94505060406200045e88828901620003f8565b93505060606200047188828901620003f8565b92505060806200048488828901620003e1565b9150509295509295909350565b60006200049f8383620004ab565b60208301905092915050565b620004b681620005e2565b82525050565b620004c781620005e2565b82525050565b6000620004da82620005b9565b620004e68185620005d1565b9350620004f383620005a9565b8060005b838110156200052a5781516200050e888262000491565b97506200051b83620005c4565b925050600181019050620004f7565b5085935050505092915050565b6200054281620005f6565b82525050565b60006060820190506200055f6000830186620004bc565b6200056e602083018562000537565b6200057d6040830184620004bc565b949350505050565b60006020820190508181036000830152620005a18184620004cd565b905092915050565b6000819050602082019050919050565b600081519050919050565b6000602082019050919050565b600082825260208201905092915050565b6000620005ef8262000600565b9050919050565b6000819050919050565b600073ffffffffffffffffffffffffffffffffffffffff82169050919050565b6000819050919050565b6200063581620005e2565b81146200064157600080fd5b50565b6200064f8162000620565b81146200065b57600080fd5b50565b616a22806200066e6000396000f3fe6080604052600436106102705760003560e01c80635fdee4f11161014f578063b04f5d39116100c1578063ea52b3a41161007a578063ea52b3a414610985578063eadbec5d146109ae578063f2fde38b146109d7578063f6e6a0e614610a00578063f8c4bbf214610a29578063ff5b0c9c14610a5457610270565b8063b04f5d3914610862578063c05e08b91461089f578063cc39a89c146108c8578063cf55055d146108f1578063e574d1571461091c578063e89905241461094557610270565b8063693b78aa11610113578063693b78aa14610778578063715018a6146107a15780637d0ccaad146107b85780638da5cb5b146107e35780638dbdbe6d1461080e5780638f32d59b1461083757610270565b80635fdee4f1146106a557806362ecdc0a146106e2578063630b5ba11461070d57806364482f79146107245780636879ce0d1461074d57610270565b806337f42553116101e85780634f228a6c116101ac5780634f228a6c14610599578063511752a1146105c257806351eb05a6146105ed5780635312ea8e1461061657806354defd191461063f5780635b627dbb1461067c57610270565b806337f425531461048b5780633bb82023146104ca578063441a3e70146105085780634d0dbe19146105315780634ea98d161461055c57610270565b806317caf6f11161023a57806317caf6f11461035057806318fccc761461037b5780631d073a7a146103a45780631e4ea3e2146103cf578063207354651461040c57806332c57cec1461044e57610270565b80622179521461027557806223de2914610291578063081e3eda146102ba5780631487f7f3146102e55780631526fe271461030e575b600080fd5b61028f600480360361028a9190810190615881565b610a7f565b005b34801561029d57600080fd5b506102b860048036036102b3919081019061568f565b610d73565b005b3480156102c657600080fd5b506102cf610d7d565b6040516102dc91906167de565b60405180910390f35b3480156102f157600080fd5b5061030c60048036036103079190810190615881565b610d8a565b005b34801561031a57600080fd5b50610335600480360361033091908101906157a4565b610ed2565b60405161034796959493929190616464565b60405180910390f35b34801561035c57600080fd5b50610365610f3b565b60405161037291906167de565b60405180910390f35b34801561038757600080fd5b506103a2600480360361039d91908101906157f6565b610f41565b005b3480156103b057600080fd5b506103b96112bd565b6040516103c69190616526565b60405180910390f35b3480156103db57600080fd5b506103f660048036036103f191908101906157f6565b6112d5565b60405161040391906167de565b60405180910390f35b34801561041857600080fd5b50610433600480360361042e91908101906157f6565b6115dc565b60405161044596959493929190616464565b60405180910390f35b34801561045a57600080fd5b50610475600480360361047091908101906157a4565b611645565b60405161048291906167c3565b60405180910390f35b34801561049757600080fd5b506104b260048036036104ad9190810190615832565b6116ff565b6040516104c1939291906163e8565b60405180910390f35b3480156104d657600080fd5b506104f160048036036104ec91908101906157f6565b611763565b6040516104ff9291906164e1565b60405180910390f35b34801561051457600080fd5b5061052f600480360361052a91908101906159aa565b6118dc565b005b34801561053d57600080fd5b50610546611b6f565b60405161055391906167de565b60405180910390f35b34801561056857600080fd5b50610583600480360361057e91908101906157a4565b611b75565b60405161059091906164c5565b60405180910390f35b3480156105a557600080fd5b506105c060048036036105bb91908101906158d0565b611ca2565b005b3480156105ce57600080fd5b506105d7611f2e565b6040516105e4919061636d565b60405180910390f35b3480156105f957600080fd5b50610614600480360361060f91908101906157a4565b611f54565b005b34801561062257600080fd5b5061063d600480360361063891908101906157a4565b612157565b005b34801561064b57600080fd5b50610666600480360361066191908101906159aa565b6122d8565b604051610673919061636d565b60405180910390f35b34801561068857600080fd5b506106a3600480360361069e91908101906157f6565b612323565b005b3480156106b157600080fd5b506106cc60048036036106c79190810190615832565b612580565b6040516106d991906167de565b60405180910390f35b3480156106ee57600080fd5b506106f7612a97565b604051610704919061636d565b60405180910390f35b34801561071957600080fd5b50610722612abd565b005b34801561073057600080fd5b5061074b60048036036107469190810190615a35565b612aed565b005b34801561075957600080fd5b50610762612bb6565b60405161076f91906167de565b60405180910390f35b34801561078457600080fd5b5061079f600480360361079a91908101906159aa565b612c68565b005b3480156107ad57600080fd5b506107b6612e0a565b005b3480156107c457600080fd5b506107cd612f10565b6040516107da919061636d565b60405180910390f35b3480156107ef57600080fd5b506107f8612f36565b604051610805919061636d565b60405180910390f35b34801561081a57600080fd5b50610835600480360361083091908101906159e6565b612f5f565b005b34801561084357600080fd5b5061084c61341c565b604051610859919061650b565b60405180910390f35b34801561086e57600080fd5b50610889600480360361088491908101906157a4565b61347a565b60405161089691906167de565b60405180910390f35b3480156108ab57600080fd5b506108c660048036036108c191908101906157a4565b61349a565b005b3480156108d457600080fd5b506108ef60048036036108ea91908101906157a4565b61365f565b005b3480156108fd57600080fd5b5061090661373f565b60405161091391906167de565b60405180910390f35b34801561092857600080fd5b50610943600480360361093e9190810190615666565b6137f1565b005b34801561095157600080fd5b5061096c600480360361096791908101906157f6565b6138ec565b60405161097c949392919061641f565b60405180910390f35b34801561099157600080fd5b506109ac60048036036109a791908101906157a4565b613949565b005b3480156109ba57600080fd5b506109d560048036036109d091908101906157a4565b6139a2565b005b3480156109e357600080fd5b506109fe60048036036109f99190810190615666565b613aa5565b005b348015610a0c57600080fd5b50610a276004803603610a229190810190615933565b613af8565b005b348015610a3557600080fd5b50610a3e613d4d565b604051610a4b91906167de565b60405180910390f35b348015610a6057600080fd5b50610a69613d5a565b604051610a7691906167de565b60405180910390f35b610a8761341c565b610ac6576040517f08c379a0000000000000000000000000000000000000000000000000000000008152600401610abd90616683565b60405180910390fd5b600c60009054906101000a900473ffffffffffffffffffffffffffffffffffffffff1673ffffffffffffffffffffffffffffffffffffffff168273ffffffffffffffffffffffffffffffffffffffff1614610b56576040517f08c379a0000000000000000000000000000000000000000000000000000000008152600401610b4d906165a3565b60405180910390fd5b6000349050610b658484613d60565b60006005600086815260200190815260200160002060008573ffffffffffffffffffffffffffffffffffffffff1673ffffffffffffffffffffffffffffffffffffffff1681526020019081526020016000209050600073ffffffffffffffffffffffffffffffffffffffff168160000160009054906101000a900473ffffffffffffffffffffffffffffffffffffffff1673ffffffffffffffffffffffffffffffffffffffff161415610c4d576040517f08c379a0000000000000000000000000000000000000000000000000000000008152600401610c4490616583565b60405180910390fd5b610c6482826004015461404f90919063ffffffff16565b8160040181905550610c8382826005015461404f90919063ffffffff16565b8160050181905550828160030181905550610c9c615342565b60048681548110610ca957fe5b90600052602060002090600602016040518060c00160405290816000820160009054906101000a900473ffffffffffffffffffffffffffffffffffffffff1673ffffffffffffffffffffffffffffffffffffffff1673ffffffffffffffffffffffffffffffffffffffff16815260200160018201548152602001600282015481526020016003820154815260200160048201548152602001600582015481525050905043816080015111610d5d5743610d63565b80608001515b8260010181905550505050505050565b5050505050505050565b6000600480549050905090565b610d9261341c565b610dd1576040517f08c379a0000000000000000000000000000000000000000000000000000000008152600401610dc890616683565b60405180910390fd5b610ddb8383613d60565b60006005600085815260200190815260200160002060008473ffffffffffffffffffffffffffffffffffffffff1673ffffffffffffffffffffffffffffffffffffffff1681526020019081526020016000209050600073ffffffffffffffffffffffffffffffffffffffff168160000160009054906101000a900473ffffffffffffffffffffffffffffffffffffffff1673ffffffffffffffffffffffffffffffffffffffff161415610ec3576040517f08c379a0000000000000000000000000000000000000000000000000000000008152600401610eba90616583565b60405180910390fd5b81816003018190555050505050565b60048181548110610edf57fe5b90600052602060002090600602016000915090508060000160009054906101000a900473ffffffffffffffffffffffffffffffffffffffff16908060010154908060020154908060030154908060040154908060050154905086565b600b5481565b610f4961538e565b6002600084815260200190815260200160002060003373ffffffffffffffffffffffffffffffffffffffff1673ffffffffffffffffffffffffffffffffffffffff1681526020019081526020016000206040518060800160405290816000820160009054906101000a900473ffffffffffffffffffffffffffffffffffffffff1673ffffffffffffffffffffffffffffffffffffffff1673ffffffffffffffffffffffffffffffffffffffff1681526020016001820154815260200160028201548152602001600382015481525050905060006003600085815260200190815260200160002060003373ffffffffffffffffffffffffffffffffffffffff1673ffffffffffffffffffffffffffffffffffffffff16815260200190815260200160002060008473ffffffffffffffffffffffffffffffffffffffff1673ffffffffffffffffffffffffffffffffffffffff16815260200190815260200160002090506110b36153cc565b6005600086815260200190815260200160002060008573ffffffffffffffffffffffffffffffffffffffff1673ffffffffffffffffffffffffffffffffffffffff1681526020019081526020016000206040518060c00160405290816000820160009054906101000a900473ffffffffffffffffffffffffffffffffffffffff1673ffffffffffffffffffffffffffffffffffffffff1673ffffffffffffffffffffffffffffffffffffffff16815260200160018201548152602001600282015481526020016003820154815260200160048201548152602001600582015481525050905060006111e283600201546111d464e8d4a510006111c6866040015189602001516140a490919063ffffffff16565b61411490919063ffffffff16565b61415e90919063ffffffff16565b905060006111fd82856001015461404f90919063ffffffff16565b9050600c60009054906101000a900473ffffffffffffffffffffffffffffffffffffffff1673ffffffffffffffffffffffffffffffffffffffff168673ffffffffffffffffffffffffffffffffffffffff1614156112645761125f33826141a8565b611270565b61126f86338361428f565b5b600084600101819055506112ac64e8d4a5100061129e856040015188602001516140a490919063ffffffff16565b61411490919063ffffffff16565b846002018190555050505050505050565b73088800000000000000000000000000000000000181565b60006112df615342565b600484815481106112ec57fe5b90600052602060002090600602016040518060c00160405290816000820160009054906101000a900473ffffffffffffffffffffffffffffffffffffffff1673ffffffffffffffffffffffffffffffffffffffff1673ffffffffffffffffffffffffffffffffffffffff16815260200160018201548152602001600282015481526020016003820154815260200160048201548152602001600582015481525050905061139761538e565b6002600086815260200190815260200160002060008573ffffffffffffffffffffffffffffffffffffffff1673ffffffffffffffffffffffffffffffffffffffff1681526020019081526020016000206040518060800160405290816000820160009054906101000a900473ffffffffffffffffffffffffffffffffffffffff1673ffffffffffffffffffffffffffffffffffffffff1673ffffffffffffffffffffffffffffffffffffffff1681526020016001820154815260200160028201548152602001600382015481525050905060008260a0015190506000836000015173ffffffffffffffffffffffffffffffffffffffff166370a08231306040518263ffffffff1660e01b81526004016114b0919061636d565b60206040518083038186803b1580156114c857600080fd5b505afa1580156114dc573d6000803e3d6000fd5b505050506040513d601f19601f8201168201806040525061150091908101906157cd565b9050836080015143118015611516575060008114155b156115765760006115348560600151866080015187602001516143f3565b90506115726115638361155564e8d4a51000856140a490919063ffffffff16565b61411490919063ffffffff16565b8461404f90919063ffffffff16565b9250505b6115d06115bd84606001516115af64e8d4a510006115a18789602001516140a490919063ffffffff16565b61411490919063ffffffff16565b61415e90919063ffffffff16565b846040015161404f90919063ffffffff16565b94505050505092915050565b6005602052816000526040600020602052806000526040600020600091509150508060000160009054906101000a900473ffffffffffffffffffffffffffffffffffffffff16908060010154908060020154908060030154908060040154908060050154905086565b61164d615418565b600860009054906101000a900473ffffffffffffffffffffffffffffffffffffffff1673ffffffffffffffffffffffffffffffffffffffff166332c57cec836040518263ffffffff1660e01b81526004016116a891906167de565b60c06040518083038186803b1580156116c057600080fd5b505afa1580156116d4573d6000803e3d6000fd5b505050506040513d601f19601f820116820180604052506116f8919081019061577b565b9050919050565b600360205282600052604060002060205281600052604060002060205280600052604060002060009250925050508060000160009054906101000a900473ffffffffffffffffffffffffffffffffffffffff16908060010154908060020154905083565b61176b615464565b611773615486565b60606006600086815260200190815260200160002080548060200260200160405190810160405280929190818152602001828054801561180857602002820191906000526020600020905b8160009054906101000a900473ffffffffffffffffffffffffffffffffffffffff1673ffffffffffffffffffffffffffffffffffffffff16815260200190600101908083116117be575b50505050509050611817615464565b61181f615486565b60008351905060008090505b818110156118ca5784818151811061183f57fe5b602002602001015184826005811061185357fe5b602002019073ffffffffffffffffffffffffffffffffffffffff16908173ffffffffffffffffffffffffffffffffffffffff16815250506118a8898987848151811061189b57fe5b6020026020010151612580565b8382600581106118b457fe5b602002018181525050808060010191505061182b565b50828295509550505050509250929050565b6000600483815481106118eb57fe5b9060005260206000209060060201905060006002600085815260200190815260200160002060003373ffffffffffffffffffffffffffffffffffffffff1673ffffffffffffffffffffffffffffffffffffffff168152602001908152602001600020905060008311611992576040517f08c379a000000000000000000000000000000000000000000000000000000000815260040161198990616783565b60405180910390fd5b82816001015410156119d9576040517f08c379a00000000000000000000000000000000000000000000000000000000081526004016119d0906166a3565b60405180910390fd5b6119e284611f54565b6119eb8461365f565b6119f361454b565b6000611a3d8260030154611a2f64e8d4a51000611a21876005015487600101546140a490919063ffffffff16565b61411490919063ffffffff16565b61415e90919063ffffffff16565b9050611a5681836002015461404f90919063ffffffff16565b9050808260020181905550611a7185338460010154876145f0565b611a8884836001015461415e90919063ffffffff16565b8260010181905550611ac264e8d4a51000611ab4856005015485600101546140a490919063ffffffff16565b61411490919063ffffffff16565b8260030181905550611b1933858560000160009054906101000a900473ffffffffffffffffffffffffffffffffffffffff1673ffffffffffffffffffffffffffffffffffffffff166149059092919063ffffffff16565b843373ffffffffffffffffffffffffffffffffffffffff167ff279e6a1f5e320cca91135676d9cb6e44ca8a08c0b88342bcdb1144f6511b56886604051611b6091906167de565b60405180910390a35050505050565b600a5481565b611b7d6154a8565b60008210158015611b925750600e8054905082105b611bd1576040517f08c379a0000000000000000000000000000000000000000000000000000000008152600401611bc890616563565b60405180910390fd5b611bd96154a8565b6000611bfd600e80549050611bf860648761404f90919063ffffffff16565b6149a4565b905060008490505b81811015611c9757600e8181548110611c1a57fe5b9060005260206000200160009054906101000a900473ffffffffffffffffffffffffffffffffffffffff168386830360648110611c5357fe5b602002019073ffffffffffffffffffffffffffffffffffffffff16908173ffffffffffffffffffffffffffffffffffffffff16815250508080600101915050611c05565b508192505050919050565b611caa61341c565b611ce9576040517f08c379a0000000000000000000000000000000000000000000000000000000008152600401611ce090616683565b60405180910390fd5b611cf38484613d60565b60006005600086815260200190815260200160002060008573ffffffffffffffffffffffffffffffffffffffff1673ffffffffffffffffffffffffffffffffffffffff1681526020019081526020016000209050600073ffffffffffffffffffffffffffffffffffffffff168160000160009054906101000a900473ffffffffffffffffffffffffffffffffffffffff1673ffffffffffffffffffffffffffffffffffffffff161415611ddb576040517f08c379a0000000000000000000000000000000000000000000000000000000008152600401611dd290616583565b60405180910390fd5b611e083330858773ffffffffffffffffffffffffffffffffffffffff166149bd909392919063ffffffff16565b611e1f83826004015461404f90919063ffffffff16565b8160040181905550611e3e83826005015461404f90919063ffffffff16565b8160050181905550818160030181905550611e57615342565b60048681548110611e6457fe5b90600052602060002090600602016040518060c00160405290816000820160009054906101000a900473ffffffffffffffffffffffffffffffffffffffff1673ffffffffffffffffffffffffffffffffffffffff1673ffffffffffffffffffffffffffffffffffffffff16815260200160018201548152602001600282015481526020016003820154815260200160048201548152602001600582015481525050905043816080015111611f185743611f1e565b80608001515b8260010181905550505050505050565b600c60009054906101000a900473ffffffffffffffffffffffffffffffffffffffff1681565b600060048281548110611f6357fe5b9060005260206000209060060201905080600401544311611f845750612154565b60008160000160009054906101000a900473ffffffffffffffffffffffffffffffffffffffff1673ffffffffffffffffffffffffffffffffffffffff166370a08231306040518263ffffffff1660e01b8152600401611fe3919061636d565b60206040518083038186803b158015611ffb57600080fd5b505afa15801561200f573d6000803e3d6000fd5b505050506040513d601f19601f8201168201806040525061203391908101906157cd565b9050600081141561204e574382600401819055505050612154565b6000826003015411801561206a57508160030154826004015410155b1561207f574382600401819055505050612154565b6000600b54141561209a574382600401819055505050612154565b6000600a5414156120b5574382600401819055505050612154565b60006120ce8360030154846004015485600101546143f3565b90506121106120fd836120ef64e8d4a51000856140a490919063ffffffff16565b61411490919063ffffffff16565b846005015461404f90919063ffffffff16565b83600501819055506000836003015411801561212f5750438360030154105b156121465782600301548360040181905550612150565b4383600401819055505b5050505b50565b60006004828154811061216657fe5b9060005260206000209060060201905060006002600084815260200190815260200160002060003373ffffffffffffffffffffffffffffffffffffffff1673ffffffffffffffffffffffffffffffffffffffff168152602001908152602001600020905060008160010154905060008111612216576040517f08c379a000000000000000000000000000000000000000000000000000000000815260040161220d90616783565b60405180910390fd5b60008260010181905550600082600301819055506000826002018190555061228333828560000160009054906101000a900473ffffffffffffffffffffffffffffffffffffffff1673ffffffffffffffffffffffffffffffffffffffff166149059092919063ffffffff16565b833373ffffffffffffffffffffffffffffffffffffffff167fbb757047c2b5f3974fe26b7c10f732e7bce710b0952a71082702781e62ae0595836040516122ca91906167de565b60405180910390a350505050565b600660205281600052604060002081815481106122f157fe5b906000526020600020016000915091509054906101000a900473ffffffffffffffffffffffffffffffffffffffff1681565b61232b61341c565b61236a576040517f08c379a000000000000000000000000000000000000000000000000000000000815260040161236190616683565b60405180910390fd5b600073ffffffffffffffffffffffffffffffffffffffff168173ffffffffffffffffffffffffffffffffffffffff1614156123da576040517f08c379a00000000000000000000000000000000000000000000000000000000081526004016123d1906166c3565b60405180910390fd5b60006005600084815260200190815260200160002060008373ffffffffffffffffffffffffffffffffffffffff1673ffffffffffffffffffffffffffffffffffffffff1681526020019081526020016000209050600073ffffffffffffffffffffffffffffffffffffffff168160000160009054906101000a900473ffffffffffffffffffffffffffffffffffffffff1673ffffffffffffffffffffffffffffffffffffffff16146124c1576040517f08c379a00000000000000000000000000000000000000000000000000000000081526004016124b890616603565b60405180910390fd5b818160000160006101000a81548173ffffffffffffffffffffffffffffffffffffffff021916908373ffffffffffffffffffffffffffffffffffffffff160217905550600660008481526020019081526020016000208290806001815401808255809150509060018203906000526020600020016000909192909190916101000a81548173ffffffffffffffffffffffffffffffffffffffff021916908373ffffffffffffffffffffffffffffffffffffffff16021790555050505050565b600061258a615342565b6004858154811061259757fe5b90600052602060002090600602016040518060c00160405290816000820160009054906101000a900473ffffffffffffffffffffffffffffffffffffffff1673ffffffffffffffffffffffffffffffffffffffff1673ffffffffffffffffffffffffffffffffffffffff16815260200160018201548152602001600282015481526020016003820154815260200160048201548152602001600582015481525050905061264261538e565b6002600087815260200190815260200160002060008673ffffffffffffffffffffffffffffffffffffffff1673ffffffffffffffffffffffffffffffffffffffff1681526020019081526020016000206040518060800160405290816000820160009054906101000a900473ffffffffffffffffffffffffffffffffffffffff1673ffffffffffffffffffffffffffffffffffffffff1673ffffffffffffffffffffffffffffffffffffffff168152602001600182015481526020016002820154815260200160038201548152505090506000826000015173ffffffffffffffffffffffffffffffffffffffff166370a08231306040518263ffffffff1660e01b8152600401612752919061636d565b60206040518083038186803b15801561276a57600080fd5b505afa15801561277e573d6000803e3d6000fd5b505050506040513d601f19601f820116820180604052506127a291908101906157cd565b90506127ac6153cc565b6005600089815260200190815260200160002060008773ffffffffffffffffffffffffffffffffffffffff1673ffffffffffffffffffffffffffffffffffffffff1681526020019081526020016000206040518060c00160405290816000820160009054906101000a900473ffffffffffffffffffffffffffffffffffffffff1673ffffffffffffffffffffffffffffffffffffffff1673ffffffffffffffffffffffffffffffffffffffff1681526020016001820154815260200160028201548152602001600382015481526020016004820154815260200160058201548152505090506128996154cb565b600360008a815260200190815260200160002060008973ffffffffffffffffffffffffffffffffffffffff1673ffffffffffffffffffffffffffffffffffffffff16815260200190815260200160002060008873ffffffffffffffffffffffffffffffffffffffff1673ffffffffffffffffffffffffffffffffffffffff1681526020019081526020016000206040518060600160405290816000820160009054906101000a900473ffffffffffffffffffffffffffffffffffffffff1673ffffffffffffffffffffffffffffffffffffffff1673ffffffffffffffffffffffffffffffffffffffff1681526020016001820154815260200160028201548152505090506000826040015190508260200151431180156129ba575060008414155b15612a2e5760006129d8876060015185602001518660600151614a5f565b905083608001518111156129ee57836080015190505b612a2a612a1b86612a0d64e8d4a51000856140a490919063ffffffff16565b61411490919063ffffffff16565b8361404f90919063ffffffff16565b9150505b612a88612a758360400151612a6764e8d4a51000612a59868b602001516140a490919063ffffffff16565b61411490919063ffffffff16565b61415e90919063ffffffff16565b836020015161404f90919063ffffffff16565b96505050505050509392505050565b600860009054906101000a900473ffffffffffffffffffffffffffffffffffffffff1681565b6000600480549050905060008090505b81811015612ae957612ade81611f54565b806001019050612acd565b5050565b612af561341c565b612b34576040517f08c379a0000000000000000000000000000000000000000000000000000000008152600401612b2b90616683565b60405180910390fd5b8015612b4357612b42612abd565b5b612b8882612b7a60048681548110612b5757fe5b906000526020600020906006020160010154600b5461415e90919063ffffffff16565b61404f90919063ffffffff16565b600b819055508160048481548110612b9c57fe5b906000526020600020906006020160010181905550505050565b6000600860009054906101000a900473ffffffffffffffffffffffffffffffffffffffff1673ffffffffffffffffffffffffffffffffffffffff16635d86a8f2306040518263ffffffff1660e01b8152600401612c13919061636d565b60206040518083038186803b158015612c2b57600080fd5b505afa158015612c3f573d6000803e3d6000fd5b505050506040513d601f19601f82011682018060405250612c6391908101906157cd565b905090565b612c7061341c565b612caf576040517f08c379a0000000000000000000000000000000000000000000000000000000008152600401612ca690616683565b60405180910390fd5b600081118015612cbe57504381115b612cfd576040517f08c379a0000000000000000000000000000000000000000000000000000000008152600401612cf4906167a3565b60405180910390fd5b612d0682611f54565b606060066000848152602001908152602001600020805480602002602001604051908101604052809291908181526020018280548015612d9b57602002820191906000526020600020905b8160009054906101000a900473ffffffffffffffffffffffffffffffffffffffff1673ffffffffffffffffffffffffffffffffffffffff1681526020019060010190808311612d51575b5050505050905060008151905060008090505b81811015612de057612dd385848381518110612dc657fe5b6020026020010151613d60565b8080600101915050612dae565b508260048581548110612def57fe5b90600052602060002090600602016003018190555050505050565b612e1261341c565b612e51576040517f08c379a0000000000000000000000000000000000000000000000000000000008152600401612e4890616683565b60405180910390fd5b600073ffffffffffffffffffffffffffffffffffffffff166000809054906101000a900473ffffffffffffffffffffffffffffffffffffffff1673ffffffffffffffffffffffffffffffffffffffff167f8be0079c531659141344cd1fd0a4f28419497f9722a3daafe3b4186f6b6457e060405160405180910390a360008060006101000a81548173ffffffffffffffffffffffffffffffffffffffff021916908373ffffffffffffffffffffffffffffffffffffffff160217905550565b600760009054906101000a900473ffffffffffffffffffffffffffffffffffffffff1681565b60008060009054906101000a900473ffffffffffffffffffffffffffffffffffffffff16905090565b600073ffffffffffffffffffffffffffffffffffffffff168173ffffffffffffffffffffffffffffffffffffffff161415612f98573390505b6000600860009054906101000a900473ffffffffffffffffffffffffffffffffffffffff1673ffffffffffffffffffffffffffffffffffffffff16635d86a8f2306040518263ffffffff1660e01b8152600401612ff5919061636d565b60206040518083038186803b15801561300d57600080fd5b505afa158015613021573d6000803e3d6000fd5b505050506040513d601f19601f8201168201806040525061304591908101906157cd565b90506000811161308a576040517f08c379a000000000000000000000000000000000000000000000000000000000815260040161308190616703565b60405180910390fd5b60006004858154811061309957fe5b9060005260206000209060060201905060006002600087815260200190815260200160002060008573ffffffffffffffffffffffffffffffffffffffff1673ffffffffffffffffffffffffffffffffffffffff168152602001908152602001600020905061310686611f54565b61310f8661365f565b61311761454b565b60008160010154111561319457600061316e826003015461316064e8d4a51000613152876005015487600101546140a490919063ffffffff16565b61411490919063ffffffff16565b61415e90919063ffffffff16565b905061318781836002015461404f90919063ffffffff16565b9050808260020181905550505b6131a48685836001015488614ad7565b6131f53330878560000160009054906101000a900473ffffffffffffffffffffffffffffffffffffffff1673ffffffffffffffffffffffffffffffffffffffff166149bd909392919063ffffffff16565b8160000160009054906101000a900473ffffffffffffffffffffffffffffffffffffffff168160000160006101000a81548173ffffffffffffffffffffffffffffffffffffffff021916908373ffffffffffffffffffffffffffffffffffffffff16021790555061327385826001015461404f90919063ffffffff16565b81600101819055506132ad64e8d4a5100061329f846005015484600101546140a490919063ffffffff16565b61411490919063ffffffff16565b8160030181905550600d60008573ffffffffffffffffffffffffffffffffffffffff1673ffffffffffffffffffffffffffffffffffffffff16815260200190815260200160002060009054906101000a900460ff166133c5576001600d60008673ffffffffffffffffffffffffffffffffffffffff1673ffffffffffffffffffffffffffffffffffffffff16815260200190815260200160002060006101000a81548160ff021916908315150217905550600e8490806001815401808255809150509060018203906000526020600020016000909192909190916101000a81548173ffffffffffffffffffffffffffffffffffffffff021916908373ffffffffffffffffffffffffffffffffffffffff160217905550505b858473ffffffffffffffffffffffffffffffffffffffff167f90890809c654f11d6e72a28fa60149770a0d11ec6c92319d6ceb2bb0a4ea1a158760405161340c91906167de565b60405180910390a3505050505050565b60008060009054906101000a900473ffffffffffffffffffffffffffffffffffffffff1673ffffffffffffffffffffffffffffffffffffffff1661345e614dec565b73ffffffffffffffffffffffffffffffffffffffff1614905090565b600060066000838152602001908152602001600020805490509050919050565b6134a2615342565b600482815481106134af57fe5b90600052602060002090600602016040518060c00160405290816000820160009054906101000a900473ffffffffffffffffffffffffffffffffffffffff1673ffffffffffffffffffffffffffffffffffffffff1673ffffffffffffffffffffffffffffffffffffffff16815260200160018201548152602001600282015481526020016003820154815260200160048201548152602001600582015481525050905060006002600084815260200190815260200160002060003373ffffffffffffffffffffffffffffffffffffffff1673ffffffffffffffffffffffffffffffffffffffff168152602001908152602001600020905060006135f082600301546135e264e8d4a510006135d48760a0015187600101546140a490919063ffffffff16565b61411490919063ffffffff16565b61415e90919063ffffffff16565b905061360981836002015461404f90919063ffffffff16565b90506000826002018190555061361f3382614df4565b61365164e8d4a510006136438560a0015185600101546140a490919063ffffffff16565b61411490919063ffffffff16565b826003018190555050505050565b6060600660008381526020019081526020016000208054806020026020016040519081016040528092919081815260200182805480156136f457602002820191906000526020600020905b8160009054906101000a900473ffffffffffffffffffffffffffffffffffffffff1673ffffffffffffffffffffffffffffffffffffffff16815260200190600101908083116136aa575b5050505050905060008151905060008090505b818110156137395761372c8484838151811061371f57fe5b6020026020010151613d60565b8080600101915050613707565b50505050565b6000600760009054906101000a900473ffffffffffffffffffffffffffffffffffffffff1673ffffffffffffffffffffffffffffffffffffffff166370a08231306040518263ffffffff1660e01b815260040161379c919061636d565b60206040518083038186803b1580156137b457600080fd5b505afa1580156137c8573d6000803e3d6000fd5b505050506040513d601f19601f820116820180604052506137ec91908101906157cd565b905090565b6137f961341c565b613838576040517f08c379a000000000000000000000000000000000000000000000000000000000815260040161382f90616683565b60405180910390fd5b600073ffffffffffffffffffffffffffffffffffffffff168173ffffffffffffffffffffffffffffffffffffffff1614156138a8576040517f08c379a000000000000000000000000000000000000000000000000000000000815260040161389f90616663565b60405180910390fd5b80600860006101000a81548173ffffffffffffffffffffffffffffffffffffffff021916908373ffffffffffffffffffffffffffffffffffffffff16021790555050565b6002602052816000526040600020602052806000526040600020600091509150508060000160009054906101000a900473ffffffffffffffffffffffffffffffffffffffff16908060010154908060020154908060030154905084565b61395161341c565b613990576040517f08c379a000000000000000000000000000000000000000000000000000000000815260040161398790616683565b60405180910390fd5b613998612abd565b80600a8190555050565b606060066000838152602001908152602001600020805480602002602001604051908101604052809291908181526020018280548015613a3757602002820191906000526020600020905b8160009054906101000a900473ffffffffffffffffffffffffffffffffffffffff1673ffffffffffffffffffffffffffffffffffffffff16815260200190600101908083116139ed575b50505050509050600081519050613a4d83611f54565b613a568361365f565b613a5e61454b565b613a678361349a565b60008090505b81811015613a9f57613a9284848381518110613a8557fe5b6020026020010151610f41565b8080600101915050613a6d565b50505050565b613aad61341c565b613aec576040517f08c379a0000000000000000000000000000000000000000000000000000000008152600401613ae390616683565b60405180910390fd5b613af581614f9b565b50565b613b0061341c565b613b3f576040517f08c379a0000000000000000000000000000000000000000000000000000000008152600401613b3690616683565b60405180910390fd5b600073ffffffffffffffffffffffffffffffffffffffff168473ffffffffffffffffffffffffffffffffffffffff161415613baf576040517f08c379a0000000000000000000000000000000000000000000000000000000008152600401613ba6906166c3565b60405180910390fd5b600082118015613bbf5750828211155b15613bff576040517f08c379a0000000000000000000000000000000000000000000000000000000008152600401613bf6906167a3565b60405180910390fd5b8015613c0e57613c0d612abd565b5b43831015613c1a574392505b60006009544311613c2d57600954613c2f565b435b905083811015613c3d578390505b613c5286600b5461404f90919063ffffffff16565b600b8190555060046040518060c001604052808773ffffffffffffffffffffffffffffffffffffffff16815260200188815260200186815260200185815260200183815260200160008152509080600181540180825580915050906001820390600052602060002090600602016000909192909190915060008201518160000160006101000a81548173ffffffffffffffffffffffffffffffffffffffff021916908373ffffffffffffffffffffffffffffffffffffffff1602179055506020820151816001015560408201518160020155606082015181600301556080820151816004015560a08201518160050155505050505050505050565b6000600e80549050905090565b60095481565b60006005600084815260200190815260200160002060008373ffffffffffffffffffffffffffffffffffffffff1673ffffffffffffffffffffffffffffffffffffffff168152602001908152602001600020905080600101544311613dc5575061404b565b613dcd615342565b60048481548110613dda57fe5b90600052602060002090600602016040518060c00160405290816000820160009054906101000a900473ffffffffffffffffffffffffffffffffffffffff1673ffffffffffffffffffffffffffffffffffffffff1673ffffffffffffffffffffffffffffffffffffffff1681526020016001820154815260200160028201548152602001600382015481526020016004820154815260200160058201548152505090506000816000015173ffffffffffffffffffffffffffffffffffffffff166370a08231306040518263ffffffff1660e01b8152600401613ebc919061636d565b60206040518083038186803b158015613ed457600080fd5b505afa158015613ee8573d6000803e3d6000fd5b505050506040513d601f19601f82011682018060405250613f0c91908101906157cd565b90506000811415613f285743836001018190555050505061404b565b60008260600151118015613f4457508160600151836001015410155b15613f5a5743836001018190555050505061404b565b600083600301541415613f785743836001018190555050505061404b565b6000613f91836060015185600101548660030154614a5f565b90508360040154811115613fa757836004015490505b613fbe81856004015461415e90919063ffffffff16565b8460040181905550614006613ff383613fe564e8d4a51000856140a490919063ffffffff16565b61411490919063ffffffff16565b856002015461404f90919063ffffffff16565b8460020181905550600083606001511180156140255750438360600151105b1561403c5782606001518460010181905550614046565b4384600101819055505b505050505b5050565b60008082840190508381101561409a576040517f08c379a0000000000000000000000000000000000000000000000000000000008152600401614091906165e3565b60405180910390fd5b8091505092915050565b6000808314156140b7576000905061410e565b60008284029050828482816140c857fe5b0414614109576040517f08c379a000000000000000000000000000000000000000000000000000000000815260040161410090616643565b60405180910390fd5b809150505b92915050565b600061415683836040518060400160405280601a81526020017f536166654d6174683a206469766973696f6e206279207a65726f0000000000008152506150c9565b905092915050565b60006141a083836040518060400160405280601e81526020017f536166654d6174683a207375627472616374696f6e206f766572666c6f77000081525061512a565b905092915050565b60008273ffffffffffffffffffffffffffffffffffffffff168260006040519080825280601f01601f1916602001820160405280156141f65781602001600182028038833980820191505090505b50604051614204919061633f565b60006040518083038185875af1925050503d8060008114614241576040519150601f19603f3d011682016040523d82523d6000602084013e614246565b606091505b505090508061428a576040517f08c379a0000000000000000000000000000000000000000000000000000000008152600401614281906166e3565b60405180910390fd5b505050565b60008373ffffffffffffffffffffffffffffffffffffffff166370a08231306040518263ffffffff1660e01b81526004016142ca919061636d565b60206040518083038186803b1580156142e257600080fd5b505afa1580156142f6573d6000803e3d6000fd5b505050506040513d601f19601f8201168201806040525061431a91908101906157cd565b90508082111561435f576040517f08c379a000000000000000000000000000000000000000000000000000000000815260040161435690616763565b60405180910390fd5b8373ffffffffffffffffffffffffffffffffffffffff1663a9059cbb84846040518363ffffffff1660e01b815260040161439a9291906163bf565b602060405180830381600087803b1580156143b457600080fd5b505af11580156143c8573d6000803e3d6000fd5b505050506040513d601f19601f820116820180604052506143ec9190810190615752565b5050505050565b60008043905060008511801561440857508481115b15614411578490505b60008511801561442057508484115b15614429578493505b6000600860009054906101000a900473ffffffffffffffffffffffffffffffffffffffff1673ffffffffffffffffffffffffffffffffffffffff16634daf29e46040518163ffffffff1660e01b815260040160206040518083038186803b15801561449357600080fd5b505afa1580156144a7573d6000803e3d6000fd5b505050506040513d601f19601f820116820180604052506144cb91908101906157cd565b905060008114156144e157600092505050614544565b61453f8161453186614523600a5461451560026145078d8b61415e90919063ffffffff16565b61411490919063ffffffff16565b6140a490919063ffffffff16565b6140a490919063ffffffff16565b61411490919063ffffffff16565b925050505b9392505050565b600860009054906101000a900473ffffffffffffffffffffffffffffffffffffffff1673ffffffffffffffffffffffffffffffffffffffff1663916753c96040518163ffffffff1660e01b8152600401602060405180830381600087803b1580156145b557600080fd5b505af11580156145c9573d6000803e3d6000fd5b505050506040513d601f19601f820116820180604052506145ed91908101906157cd565b50565b60606006600086815260200190815260200160002080548060200260200160405190810160405280929190818152602001828054801561468557602002820191906000526020600020905b8160009054906101000a900473ffffffffffffffffffffffffffffffffffffffff1673ffffffffffffffffffffffffffffffffffffffff168152602001906001019080831161463b575b5050505050905060008151905060008090505b818110156148fc5760008382815181106146ae57fe5b602002602001015190506000600360008a815260200190815260200160002060008973ffffffffffffffffffffffffffffffffffffffff1673ffffffffffffffffffffffffffffffffffffffff16815260200190815260200160002060008373ffffffffffffffffffffffffffffffffffffffff1673ffffffffffffffffffffffffffffffffffffffff16815260200190815260200160002090506147516153cc565b600560008b815260200190815260200160002060008473ffffffffffffffffffffffffffffffffffffffff1673ffffffffffffffffffffffffffffffffffffffff1681526020019081526020016000206040518060c00160405290816000820160009054906101000a900473ffffffffffffffffffffffffffffffffffffffff1673ffffffffffffffffffffffffffffffffffffffff1673ffffffffffffffffffffffffffffffffffffffff168152602001600182015481526020016002820154815260200160038201548152602001600482015481526020016005820154815250509050600061487c836002015461486e64e8d4a5100061486086604001518e6140a490919063ffffffff16565b61411490919063ffffffff16565b61415e90919063ffffffff16565b9050600061489782856001015461404f90919063ffffffff16565b90508084600101819055506148e264e8d4a510006148d485604001516148c68d8f61415e90919063ffffffff16565b6140a490919063ffffffff16565b61411490919063ffffffff16565b846002018190555050505050508080600101915050614698565b50505050505050565b61499f838473ffffffffffffffffffffffffffffffffffffffff1663a9059cbb905060e01b848460405160240161493d9291906163bf565b604051602081830303815290604052907bffffffffffffffffffffffffffffffffffffffffffffffffffffffff19166020820180517bffffffffffffffffffffffffffffffffffffffffffffffffffffffff8381831617835250505050615185565b505050565b60008183106149b357816149b5565b825b905092915050565b614a59848573ffffffffffffffffffffffffffffffffffffffff166323b872dd905060e01b8585856040516024016149f793929190616388565b604051602081830303815290604052907bffffffffffffffffffffffffffffffffffffffffffffffffffffffff19166020820180517bffffffffffffffffffffffffffffffffffffffffffffffffffffffff8381831617835250505050615185565b50505050565b600080439050600085118015614a7457508481115b15614a7d578490505b600085118015614a8c57508484115b15614a95578493505b614acd83614abf6002614ab1888661415e90919063ffffffff16565b61411490919063ffffffff16565b6140a490919063ffffffff16565b9150509392505050565b606060066000868152602001908152602001600020805480602002602001604051908101604052809291908181526020018280548015614b6c57602002820191906000526020600020905b8160009054906101000a900473ffffffffffffffffffffffffffffffffffffffff1673ffffffffffffffffffffffffffffffffffffffff1681526020019060010190808311614b22575b5050505050905060008151905060008090505b81811015614de3576000838281518110614b9557fe5b602002602001015190506000600360008a815260200190815260200160002060008973ffffffffffffffffffffffffffffffffffffffff1673ffffffffffffffffffffffffffffffffffffffff16815260200190815260200160002060008373ffffffffffffffffffffffffffffffffffffffff1673ffffffffffffffffffffffffffffffffffffffff1681526020019081526020016000209050614c386153cc565b600560008b815260200190815260200160002060008473ffffffffffffffffffffffffffffffffffffffff1673ffffffffffffffffffffffffffffffffffffffff1681526020019081526020016000206040518060c00160405290816000820160009054906101000a900473ffffffffffffffffffffffffffffffffffffffff1673ffffffffffffffffffffffffffffffffffffffff1673ffffffffffffffffffffffffffffffffffffffff1681526020016001820154815260200160028201548152602001600382015481526020016004820154815260200160058201548152505090506000614d638360020154614d5564e8d4a51000614d4786604001518e6140a490919063ffffffff16565b61411490919063ffffffff16565b61415e90919063ffffffff16565b90506000614d7e82856001015461404f90919063ffffffff16565b9050808460010181905550614dc964e8d4a51000614dbb8560400151614dad8d8f61404f90919063ffffffff16565b6140a490919063ffffffff16565b61411490919063ffffffff16565b846002018190555050505050508080600101915050614b7f565b50505050505050565b600033905090565b6000600760009054906101000a900473ffffffffffffffffffffffffffffffffffffffff1673ffffffffffffffffffffffffffffffffffffffff166370a08231306040518263ffffffff1660e01b8152600401614e51919061636d565b60206040518083038186803b158015614e6957600080fd5b505afa158015614e7d573d6000803e3d6000fd5b505050506040513d601f19601f82011682018060405250614ea191908101906157cd565b905080821115614ee6576040517f08c379a0000000000000000000000000000000000000000000000000000000008152600401614edd90616763565b60405180910390fd5b600760009054906101000a900473ffffffffffffffffffffffffffffffffffffffff1673ffffffffffffffffffffffffffffffffffffffff1663a9059cbb84846040518363ffffffff1660e01b8152600401614f439291906163bf565b602060405180830381600087803b158015614f5d57600080fd5b505af1158015614f71573d6000803e3d6000fd5b505050506040513d601f19601f82011682018060405250614f959190810190615752565b50505050565b600073ffffffffffffffffffffffffffffffffffffffff168173ffffffffffffffffffffffffffffffffffffffff16141561500b576040517f08c379a0000000000000000000000000000000000000000000000000000000008152600401615002906165c3565b60405180910390fd5b8073ffffffffffffffffffffffffffffffffffffffff166000809054906101000a900473ffffffffffffffffffffffffffffffffffffffff1673ffffffffffffffffffffffffffffffffffffffff167f8be0079c531659141344cd1fd0a4f28419497f9722a3daafe3b4186f6b6457e060405160405180910390a3806000806101000a81548173ffffffffffffffffffffffffffffffffffffffff021916908373ffffffffffffffffffffffffffffffffffffffff16021790555050565b60008083118290615110576040517f08c379a00000000000000000000000000000000000000000000000000000000081526004016151079190616541565b60405180910390fd5b50600083858161511c57fe5b049050809150509392505050565b6000838311158290615172576040517f08c379a00000000000000000000000000000000000000000000000000000000081526004016151699190616541565b60405180910390fd5b5060008385039050809150509392505050565b6151a48273ffffffffffffffffffffffffffffffffffffffff166152f7565b6151e3576040517f08c379a00000000000000000000000000000000000000000000000000000000081526004016151da90616743565b60405180910390fd5b600060608373ffffffffffffffffffffffffffffffffffffffff168360405161520c9190616356565b6000604051808303816000865af19150503d8060008114615249576040519150601f19603f3d011682016040523d82523d6000602084013e61524e565b606091505b509150915081615293576040517f08c379a000000000000000000000000000000000000000000000000000000000815260040161528a90616623565b60405180910390fd5b6000815111156152f157808060200190516152b19190810190615752565b6152f0576040517f08c379a00000000000000000000000000000000000000000000000000000000081526004016152e790616723565b60405180910390fd5b5b50505050565b60008060007fc5d2460186f7233c927e7db2dcc703c0e500b653ca82273b7bfad8045d85a47060001b9050833f915080821415801561533957506000801b8214155b92505050919050565b6040518060c00160405280600073ffffffffffffffffffffffffffffffffffffffff16815260200160008152602001600081526020016000815260200160008152602001600081525090565b6040518060800160405280600073ffffffffffffffffffffffffffffffffffffffff1681526020016000815260200160008152602001600081525090565b6040518060c00160405280600073ffffffffffffffffffffffffffffffffffffffff16815260200160008152602001600081526020016000815260200160008152602001600081525090565b6040518060c0016040528060008152602001600081526020016000815260200160008152602001600073ffffffffffffffffffffffffffffffffffffffff168152602001600081525090565b6040518060a00160405280600590602082028038833980820191505090505090565b6040518060a00160405280600590602082028038833980820191505090505090565b60405180610c800160405280606490602082028038833980820191505090505090565b6040518060600160405280600073ffffffffffffffffffffffffffffffffffffffff16815260200160008152602001600081525090565b6000813590506155118161699a565b92915050565b6000815190506155268161699a565b92915050565b60008135905061553b816169b1565b92915050565b600081519050615550816169b1565b92915050565b60008083601f84011261556857600080fd5b8235905067ffffffffffffffff81111561558157600080fd5b60208301915083600182028301111561559957600080fd5b9250929050565b600060c082840312156155b257600080fd5b6155bc60c06167f9565b905060006155cc84828501615651565b60008301525060206155e084828501615651565b60208301525060406155f484828501615651565b604083015250606061560884828501615651565b606083015250608061561c84828501615517565b60808301525060a061563084828501615651565b60a08301525092915050565b60008135905061564b816169c8565b92915050565b600081519050615660816169c8565b92915050565b60006020828403121561567857600080fd5b600061568684828501615502565b91505092915050565b60008060008060008060008060c0898b0312156156ab57600080fd5b60006156b98b828c01615502565b98505060206156ca8b828c01615502565b97505060406156db8b828c01615502565b96505060606156ec8b828c0161563c565b955050608089013567ffffffffffffffff81111561570957600080fd5b6157158b828c01615556565b945094505060a089013567ffffffffffffffff81111561573457600080fd5b6157408b828c01615556565b92509250509295985092959890939650565b60006020828403121561576457600080fd5b600061577284828501615541565b91505092915050565b600060c0828403121561578d57600080fd5b600061579b848285016155a0565b91505092915050565b6000602082840312156157b657600080fd5b60006157c48482850161563c565b91505092915050565b6000602082840312156157df57600080fd5b60006157ed84828501615651565b91505092915050565b6000806040838503121561580957600080fd5b60006158178582860161563c565b925050602061582885828601615502565b9150509250929050565b60008060006060848603121561584757600080fd5b60006158558682870161563c565b935050602061586686828701615502565b925050604061587786828701615502565b9150509250925092565b60008060006060848603121561589657600080fd5b60006158a48682870161563c565b93505060206158b586828701615502565b92505060406158c68682870161563c565b9150509250925092565b600080600080608085870312156158e657600080fd5b60006158f48782880161563c565b945050602061590587828801615502565b93505060406159168782880161563c565b92505060606159278782880161563c565b91505092959194509250565b600080600080600060a0868803121561594b57600080fd5b60006159598882890161563c565b955050602061596a88828901615502565b945050604061597b8882890161563c565b935050606061598c8882890161563c565b925050608061599d8882890161552c565b9150509295509295909350565b600080604083850312156159bd57600080fd5b60006159cb8582860161563c565b92505060206159dc8582860161563c565b9150509250929050565b6000806000606084860312156159fb57600080fd5b6000615a098682870161563c565b9350506020615a1a8682870161563c565b9250506040615a2b86828701615502565b9150509250925092565b600080600060608486031215615a4a57600080fd5b6000615a588682870161563c565b9350506020615a698682870161563c565b9250506040615a7a8682870161552c565b9150509250925092565b6000615a908383615ab4565b60208301905092915050565b6000615aa88383616321565b60208301905092915050565b615abd816168ea565b82525050565b615acc816168ea565b82525050565b615adb81616844565b615ae581846168ad565b9250615af082616826565b8060005b83811015615b21578151615b088782615a84565b9650615b1383616886565b925050600181019050615af4565b505050505050565b615b328161684f565b615b3c81846168b8565b9250615b4782616830565b8060005b83811015615b78578151615b5f8782615a84565b9650615b6a83616893565b925050600181019050615b4b565b505050505050565b615b898161685a565b615b9381846168c3565b9250615b9e8261683a565b8060005b83811015615bcf578151615bb68782615a9c565b9650615bc1836168a0565b925050600181019050615ba2565b505050505050565b615be0816168fc565b82525050565b6000615bf182616870565b615bfb81856168ce565b9350615c0b818560208601616956565b80840191505092915050565b6000615c2282616865565b615c2c81856168ce565b9350615c3c818560208601616956565b80840191505092915050565b615c5181616932565b82525050565b6000615c628261687b565b615c6c81856168d9565b9350615c7c818560208601616956565b615c8581616989565b840191505092915050565b6000615c9d6022836168d9565b91507f4d6f6f6e537761703a206163636f756e744c697374206f7574206f662072616e60008301527f67650000000000000000000000000000000000000000000000000000000000006020830152604082019050919050565b6000615d036028836168d9565b91507f436f6e666c75784d756c74694661726d3a20726577617264546f6b656e206e6f60008301527f74206578697374730000000000000000000000000000000000000000000000006020830152604082019050919050565b6000615d696019836168d9565b91507f436f6e666c75784d756c74694661726d3a206e6f2077636678000000000000006000830152602082019050919050565b6000615da96026836168d9565b91507f4f776e61626c653a206e6577206f776e657220697320746865207a65726f206160008301527f64647265737300000000000000000000000000000000000000000000000000006020830152604082019050919050565b6000615e0f601b836168d9565b91507f536166654d6174683a206164646974696f6e206f766572666c6f7700000000006000830152602082019050919050565b6000615e4f6024836168d9565b91507f436f6e666c75784d756c74694661726d3a20726577617264546f6b656e20657860008301527f69737473000000000000000000000000000000000000000000000000000000006020830152604082019050919050565b6000615eb56020836168d9565b91507f5361666545524332303a206c6f772d6c6576656c2063616c6c206661696c65646000830152602082019050919050565b6000615ef56021836168d9565b91507f536166654d6174683a206d756c7469706c69636174696f6e206f766572666c6f60008301527f77000000000000000000000000000000000000000000000000000000000000006020830152604082019050919050565b6000615f5b601b836168d9565b91507f436f6e666c75784d4c4661726d3a205a45524f5f4144445245535300000000006000830152602082019050919050565b6000615f9b6020836168d9565b91507f4f776e61626c653a2063616c6c6572206973206e6f7420746865206f776e65726000830152602082019050919050565b6000615fdb6012836168d9565b91507f77697468647261773a206e6f7420676f6f6400000000000000000000000000006000830152602082019050919050565b600061601b601e836168d9565b91507f436f6e666c75784d756c74694661726d3a205a45524f5f4144445245535300006000830152602082019050919050565b600061605b6023836168d9565b91507f5472616e7366657248656c7065723a204554485f5452414e534645525f46414960008301527f4c454400000000000000000000000000000000000000000000000000000000006020830152604082019050919050565b60006160c1600f836168d9565b91507f6d7573742061646420736563656e6500000000000000000000000000000000006000830152602082019050919050565b6000616101602a836168d9565b91507f5361666545524332303a204552433230206f7065726174696f6e20646964206e60008301527f6f742073756363656564000000000000000000000000000000000000000000006020830152604082019050919050565b6000616167601f836168d9565b91507f5361666545524332303a2063616c6c20746f206e6f6e2d636f6e7472616374006000830152602082019050919050565b60006161a76021836168d9565b91507f436f6e666c7578537461723a2042616c616e636520696e73756666696369656e60008301527f74000000000000000000000000000000000000000000000000000000000000006020830152604082019050919050565b600061620d6013836168d9565b91507f7573657220616d6f756e74206973207a65726f000000000000000000000000006000830152602082019050919050565b600061624d6022836168d9565b91507f436f6e666c75784d756c74694661726d3a20656e64626c6f636b20696e76616c60008301527f69640000000000000000000000000000000000000000000000000000000000006020830152604082019050919050565b60c0820160008201516162bc6000850182616321565b5060208201516162cf6020850182616321565b5060408201516162e26040850182616321565b5060608201516162f56060850182616321565b5060808201516163086080850182615ab4565b5060a082015161631b60a0850182616321565b50505050565b61632a81616928565b82525050565b61633981616928565b82525050565b600061634b8284615c17565b915081905092915050565b60006163628284615be6565b915081905092915050565b60006020820190506163826000830184615ac3565b92915050565b600060608201905061639d6000830186615ac3565b6163aa6020830185615ac3565b6163b76040830184616330565b949350505050565b60006040820190506163d46000830185615ac3565b6163e16020830184616330565b9392505050565b60006060820190506163fd6000830186615ac3565b61640a6020830185616330565b6164176040830184616330565b949350505050565b60006080820190506164346000830187615ac3565b6164416020830186616330565b61644e6040830185616330565b61645b6060830184616330565b95945050505050565b600060c0820190506164796000830189615ac3565b6164866020830188616330565b6164936040830187616330565b6164a06060830186616330565b6164ad6080830185616330565b6164ba60a0830184616330565b979650505050505050565b6000610c80820190506164db6000830184615ad2565b92915050565b6000610140820190506164f76000830185615b29565b61650460a0830184615b80565b9392505050565b60006020820190506165206000830184615bd7565b92915050565b600060208201905061653b6000830184615c48565b92915050565b6000602082019050818103600083015261655b8184615c57565b905092915050565b6000602082019050818103600083015261657c81615c90565b9050919050565b6000602082019050818103600083015261659c81615cf6565b9050919050565b600060208201905081810360008301526165bc81615d5c565b9050919050565b600060208201905081810360008301526165dc81615d9c565b9050919050565b600060208201905081810360008301526165fc81615e02565b9050919050565b6000602082019050818103600083015261661c81615e42565b9050919050565b6000602082019050818103600083015261663c81615ea8565b9050919050565b6000602082019050818103600083015261665c81615ee8565b9050919050565b6000602082019050818103600083015261667c81615f4e565b9050919050565b6000602082019050818103600083015261669c81615f8e565b9050919050565b600060208201905081810360008301526166bc81615fce565b9050919050565b600060208201905081810360008301526166dc8161600e565b9050919050565b600060208201905081810360008301526166fc8161604e565b9050919050565b6000602082019050818103600083015261671c816160b4565b9050919050565b6000602082019050818103600083015261673c816160f4565b9050919050565b6000602082019050818103600083015261675c8161615a565b9050919050565b6000602082019050818103600083015261677c8161619a565b9050919050565b6000602082019050818103600083015261679c81616200565b9050919050565b600060208201905081810360008301526167bc81616240565b9050919050565b600060c0820190506167d860008301846162a6565b92915050565b60006020820190506167f36000830184616330565b92915050565b6000604051905081810181811067ffffffffffffffff8211171561681c57600080fd5b8060405250919050565b6000819050919050565b6000819050919050565b6000819050919050565b600060649050919050565b600060059050919050565b600060059050919050565b600081519050919050565b600081519050919050565b600081519050919050565b6000602082019050919050565b6000602082019050919050565b6000602082019050919050565b600081905092915050565b600081905092915050565b600081905092915050565b600081905092915050565b600082825260208201905092915050565b60006168f582616908565b9050919050565b60008115159050919050565b600073ffffffffffffffffffffffffffffffffffffffff82169050919050565b6000819050919050565b600061693d82616944565b9050919050565b600061694f82616908565b9050919050565b60005b83811015616974578082015181840152602081019050616959565b83811115616983576000848401525b50505050565b6000601f19601f8301169050919050565b6169a3816168ea565b81146169ae57600080fd5b50565b6169ba816168fc565b81146169c557600080fd5b50565b6169d181616928565b81146169dc57600080fd5b5056fea365627a7a723158206a99a004f7dfefda9c8ba1559066259a2c10d29a044dbe2b5aed2ce65efb0e9c6c6578706572696d656e74616cf564736f6c63430005100040",
  "source": "pragma solidity =0.5.16;\npragma experimental ABIEncoderV2;\n\nimport \"@openzeppelin/contracts/math/SafeMath.sol\";\nimport \"@openzeppelin/contracts/introspection/IERC1820Registry.sol\";\nimport \"@openzeppelin/contracts/token/ERC777/IERC777Recipient.sol\";\nimport \"@openzeppelin/contracts/utils/Address.sol\";\nimport \"@openzeppelin/contracts/ownership/Ownable.sol\";\nimport \"@openzeppelin/contracts/token/ERC777/IERC777.sol\";\nimport \"@openzeppelin/contracts/token/ERC20/IERC20.sol\";\nimport \"@openzeppelin/contracts/token/ERC20/SafeERC20.sol\";\nimport '../SponsorWhitelistControl.sol';\nimport \"../interfaces/ISavingPool.sol\";\nimport \"../interfaces/ISimpleScene.sol\";\nimport '../libraries/Math.sol';\n\n/**\n * Stake LP / Token multi tokens\n * Moonswap multi dig tokens\n */\ncontract ConfluxMultiFarm is Ownable, ISimpleScene {\n  using SafeMath for uint256;\n  using SafeERC20 for IERC20;\n\n  SponsorWhitelistControl constant public SPONSOR = SponsorWhitelistControl(address(0x0888000000000000000000000000000000000001));\n  IERC1820Registry private _erc1820 = IERC1820Registry(0x88887eD889e776bCBe2f0f9932EcFaBcDfCd1820);\n  // keccak256(\"ERC777TokensRecipient\")\n  bytes32 constant private TOKENS_RECIPIENT_INTERFACE_HASH =\n    0xb281fc8c12954d22544db45de3159a39272895b169a852b314f9cc762e44c53b;\n\n  struct UserStake {\n    address token;\n    uint256 amount;\n    uint256 balance;\n    uint256 rewardDebt;\n  }\n\n  // pid => user\n  mapping (uint256 => mapping (address => UserStake)) public userStakes;\n\n  struct UserRewardToken{\n      address rewardToken;\n      uint256 balance;\n      uint256 rewardDebt;\n  }\n\n  // pid => user => token => UserRewardToken\n  mapping(uint256 => mapping(address => mapping(address => UserRewardToken))) public userRewards;\n\n  struct PoolInfo {\n    address token;\n    uint256 allocPoint;\n    uint256 startBlock;\n    uint256 endBlock;\n    uint256 lastRewardBlock;  //\n    uint256 accTokenPerShare; //\n  }\n\n  PoolInfo[] public poolInfo;\n\n  struct RewardTokenInfo {\n    address rewardToken;\n    uint256 lastRewardBlock;  //\n    uint256 accTokenPerShare; //\n    uint256 tokenSpeed; // product speed per second\n    uint256 totalBalance;\n    uint256 sumBalance;\n  }\n\n  // pid => rewardToken =>\n  mapping(uint256 => mapping(address => RewardTokenInfo)) public poolRewardInfos;\n  mapping(uint256 => address[]) public poolRewardTokens;\n  // Moon\n  address public cMoonToken;\n  address public savingPoolAddr;\n\n  uint256 public startFarmBlock;\n  uint256 public moonTokenSpeed;\n  uint256 public totalAllocPoint = 0;\n  address public WCFX; // WCFX\n\n  mapping (address => bool) private _accountCheck;\n  address[] private _accountList;\n\n  event TokenTransfer(address indexed tokenAddress, address indexed from, address to, uint value);\n  event Deposit(address indexed user, uint256 indexed pid, uint256 amount);\n  event Withdraw(address indexed user, uint256 indexed pid, uint256 amount);\n  event EmergencyWithdraw(address indexed user, uint256 indexed pid, uint256 amount);\n\n  constructor(\n        address _cMoon,\n        address _savingPoolAddr,\n        uint256 _moonTokenSpeed,\n        uint256 _startFarmBlock,\n        address _WCFX\n    ) public {\n        cMoonToken = _cMoon;\n        savingPoolAddr = _savingPoolAddr;\n        moonTokenSpeed = _moonTokenSpeed;\n        startFarmBlock = _startFarmBlock;\n        WCFX = _WCFX;\n\n        _erc1820.setInterfaceImplementer(address(this), TOKENS_RECIPIENT_INTERFACE_HASH, address(this));\n\n        // register all users as sponsees\n        address[] memory users = new address[](1);\n        users[0] = address(0);\n        SPONSOR.addPrivilege(users);\n    }\n\n    function poolLength() external view returns (uint256) {\n        return poolInfo.length;\n    }\n\n    function poolRewardLen(uint256 _pid) public view returns(uint256){\n        return poolRewardTokens[_pid].length;\n    }\n\n    function add(uint256 _allocPoint, address _token, uint256 _startBlock,\n            uint256 _endBlock, bool _withUpdate) public onlyOwner {\n        require(_token != address(0), \"ConfluxMultiFarm: ZERO_ADDRESS\");\n        if(_endBlock > 0 && _endBlock <= _startBlock){\n           revert(\"ConfluxMultiFarm: endblock invalid\");\n        }\n\n        if (_withUpdate) {\n            massUpdatePools();\n        }\n        if(_startBlock < block.number){\n            _startBlock = block.number;\n        }\n        uint256 lastRewardBlock = block.number > startFarmBlock ? block.number : startFarmBlock;\n        if(lastRewardBlock < _startBlock){\n            lastRewardBlock = _startBlock;\n        }\n        totalAllocPoint = totalAllocPoint.add(_allocPoint);\n        poolInfo.push(PoolInfo({\n            token: _token,\n            allocPoint: _allocPoint,\n            startBlock: _startBlock,\n            endBlock: _endBlock,\n            lastRewardBlock: lastRewardBlock,\n            accTokenPerShare: 0\n        }));\n    }\n\n    // add RewardToken pool\n    function addPoolReward(uint256 _pid, address _rewardToken) public onlyOwner {\n        require(_rewardToken != address(0), \"ConfluxMultiFarm: ZERO_ADDRESS\");\n        RewardTokenInfo storage _rewardTokenInfo = poolRewardInfos[_pid][_rewardToken];\n        require(_rewardTokenInfo.rewardToken == address(0), \"ConfluxMultiFarm: rewardToken exists\");\n        _rewardTokenInfo.rewardToken = _rewardToken;\n\n        poolRewardTokens[_pid].push(_rewardToken);\n    }\n\n    // inject invest\n    function appendPoolReward(uint256 _pid,\n            address _rewardToken,\n            uint256 _amount,\n            uint256 _tokenSpeed) public onlyOwner {\n        _updateRewardPool(_pid, _rewardToken);\n        RewardTokenInfo storage _rewardTokenInfo = poolRewardInfos[_pid][_rewardToken];\n        require(_rewardTokenInfo.rewardToken != address(0), \"ConfluxMultiFarm: rewardToken not exists\");\n        IERC20(_rewardToken).safeTransferFrom(address(msg.sender), address(this), _amount);\n        _rewardTokenInfo.totalBalance = _rewardTokenInfo.totalBalance.add(_amount);\n        _rewardTokenInfo.sumBalance = _rewardTokenInfo.sumBalance.add(_amount);\n        _rewardTokenInfo.tokenSpeed = _tokenSpeed;\n        PoolInfo memory _pool = poolInfo[_pid];\n        _rewardTokenInfo.lastRewardBlock = _pool.lastRewardBlock > block.number ? _pool.lastRewardBlock : block.number;\n    }\n\n    function appendPoolRewardCfx(uint256 _pid,\n            address _rewardToken,\n            uint256 _tokenSpeed) public payable onlyOwner{\n        require(_rewardToken == WCFX, \"ConfluxMultiFarm: no wcfx\");\n        uint256 _amount = msg.value;\n        _updateRewardPool(_pid, _rewardToken);\n        RewardTokenInfo storage _rewardTokenInfo = poolRewardInfos[_pid][_rewardToken];\n        require(_rewardTokenInfo.rewardToken != address(0), \"ConfluxMultiFarm: rewardToken not exists\");\n        _rewardTokenInfo.totalBalance = _rewardTokenInfo.totalBalance.add(_amount);\n        _rewardTokenInfo.sumBalance = _rewardTokenInfo.sumBalance.add(_amount);\n        _rewardTokenInfo.tokenSpeed = _tokenSpeed;\n        PoolInfo memory _pool = poolInfo[_pid];\n        _rewardTokenInfo.lastRewardBlock = _pool.lastRewardBlock > block.number ? _pool.lastRewardBlock : block.number;\n    }\n\n    function setRewardTokenSpeed(uint256 _pid,\n                address _rewardToken,\n                uint256 _tokenSpeed) public onlyOwner {\n        _updateRewardPool(_pid, _rewardToken);\n        RewardTokenInfo storage _rewardTokenInfo = poolRewardInfos[_pid][_rewardToken];\n        require(_rewardTokenInfo.rewardToken != address(0), \"ConfluxMultiFarm: rewardToken not exists\");\n        _rewardTokenInfo.tokenSpeed = _tokenSpeed;\n    }\n\n    // update endblock\n    function setPoolEndBlock(uint256 _pid, uint256 _endBlock) public onlyOwner {\n        //\n        require(_endBlock > 0 && _endBlock > block.number, \"ConfluxMultiFarm: endblock invalid\");\n        updatePool(_pid);\n        address[] memory _tokens = poolRewardTokens[_pid];\n        uint256 _range = _tokens.length;\n        for(uint256 i = 0; i < _range; i ++){\n            _updateRewardPool(_pid, _tokens[i]);\n        }\n\n        poolInfo[_pid].endBlock = _endBlock;\n    }\n\n    function set(uint256 _pid, uint256 _allocPoint, bool _withUpdate) public onlyOwner {\n        if (_withUpdate) {\n            massUpdatePools();\n        }\n        totalAllocPoint = totalAllocPoint.sub(poolInfo[_pid].allocPoint).add(_allocPoint);\n        poolInfo[_pid].allocPoint = _allocPoint;\n    }\n\n    function setMoonTokenSpeed(uint256 _moonTokenSpeed) public onlyOwner {\n        massUpdatePools();\n\n        moonTokenSpeed = _moonTokenSpeed;\n    }\n\n    function pendingRewardTokens(uint256 _pid, address _user) external view returns (address[5] memory, uint256[5] memory) {\n        address[] memory _tokens = poolRewardTokens[_pid];\n        address[5] memory _rewardTokens;\n        uint256[5] memory _pendingTokens;\n\n        uint256 _range = _tokens.length;\n        for(uint256 i = 0; i < _range; i ++){\n            _rewardTokens[i] = _tokens[i];\n            _pendingTokens[i] = pendingRewardToken(_pid, _user, _tokens[i]);\n        }\n\n        return (_rewardTokens, _pendingTokens);\n    }\n\n    function pendingRewardToken(uint256 _pid, address _user, address _rewardToken) public view returns(uint256){\n      PoolInfo memory _pool = poolInfo[_pid];\n      UserStake memory _userStake = userStakes[_pid][_user];\n      uint256 tokenSupply = IERC20(_pool.token).balanceOf(address(this));\n      RewardTokenInfo memory _rewardTokenInfo = poolRewardInfos[_pid][_rewardToken];\n      UserRewardToken memory _userRewardToken = userRewards[_pid][_user][_rewardToken];\n      uint256 accTokenPerShare = _rewardTokenInfo.accTokenPerShare;\n      if (block.number > _rewardTokenInfo.lastRewardBlock && tokenSupply != 0) {\n          uint256 _tokenReward = _getRewardToken(_pool.endBlock, _rewardTokenInfo.lastRewardBlock, _rewardTokenInfo.tokenSpeed);\n          if(_tokenReward > _rewardTokenInfo.totalBalance){\n              _tokenReward = _rewardTokenInfo.totalBalance;\n          }\n          accTokenPerShare = accTokenPerShare.add(_tokenReward.mul(1e12).div(tokenSupply));\n      }\n\n      return _userRewardToken.balance.add(\n          _userStake.amount.mul(accTokenPerShare).div(1e12).sub(_userRewardToken.rewardDebt)\n      );\n    }\n\n    function pendingMoonToken(uint256 _pid, address _user) external view returns (uint256) {\n        PoolInfo memory _pool = poolInfo[_pid];\n        UserStake memory _userStake = userStakes[_pid][_user];\n        uint256 accTokenPerShare = _pool.accTokenPerShare;\n        uint256 tokenSupply = IERC20(_pool.token).balanceOf(address(this));\n        if (block.number > _pool.lastRewardBlock && tokenSupply != 0) {\n            uint256 _moonReward = _getPoolReward(_pool.endBlock, _pool.lastRewardBlock, _pool.allocPoint);\n            accTokenPerShare = accTokenPerShare.add(_moonReward.mul(1e12).div(tokenSupply));\n        }\n\n        return _userStake.balance.add(\n              _userStake.amount.mul(accTokenPerShare).div(1e12).sub(_userStake.rewardDebt)\n          );\n    }\n\n    function massUpdatePools() public {\n        uint256 length = poolInfo.length;\n        for (uint256 pid = 0; pid < length; ++pid) {\n            updatePool(pid);\n        }\n    }\n\n    function updateRewardPool(uint256 _pid) public {\n        address[] memory _tokens = poolRewardTokens[_pid];\n        uint256 _range = _tokens.length;\n        for(uint256 i = 0; i < _range; i ++){\n            _updateRewardPool(_pid, _tokens[i]);\n        }\n    }\n\n    function _updateRewardPool(uint256 _pid, address _rewardToken) internal {\n        RewardTokenInfo storage _rewardTokenInfo = poolRewardInfos[_pid][_rewardToken];\n        if(block.number <= _rewardTokenInfo.lastRewardBlock){\n            return;\n        }\n        PoolInfo memory _pool = poolInfo[_pid];\n        uint256 tokenSupply = IERC20(_pool.token).balanceOf(address(this));\n        if (tokenSupply == 0) {\n            _rewardTokenInfo.lastRewardBlock = block.number;\n            return;\n        }\n        if(_pool.endBlock > 0 && _rewardTokenInfo.lastRewardBlock >= _pool.endBlock){\n            _rewardTokenInfo.lastRewardBlock = block.number;\n            return;\n        }\n\n        if(_rewardTokenInfo.tokenSpeed == 0){\n            _rewardTokenInfo.lastRewardBlock = block.number;\n            return;\n        }\n\n        uint256 _tokenReward = _getRewardToken(_pool.endBlock, _rewardTokenInfo.lastRewardBlock, _rewardTokenInfo.tokenSpeed);\n        if(_tokenReward > _rewardTokenInfo.totalBalance){\n            _tokenReward = _rewardTokenInfo.totalBalance;\n        }\n        _rewardTokenInfo.totalBalance = _rewardTokenInfo.totalBalance.sub(_tokenReward);\n        _rewardTokenInfo.accTokenPerShare = _rewardTokenInfo.accTokenPerShare.add(_tokenReward.mul(1e12).div(tokenSupply));\n\n        if(_pool.endBlock > 0 && _pool.endBlock < block.number){\n            _rewardTokenInfo.lastRewardBlock = _pool.endBlock;\n        }else{\n            _rewardTokenInfo.lastRewardBlock = block.number;\n        }\n    }\n\n    function updatePool(uint256 _pid) public {\n        PoolInfo storage _pool = poolInfo[_pid];\n        if (block.number <= _pool.lastRewardBlock) {\n            return;\n        }\n        uint256 tokenSupply = IERC20(_pool.token).balanceOf(address(this));\n        if (tokenSupply == 0) {\n            _pool.lastRewardBlock = block.number;\n            return;\n        }\n\n        if(_pool.endBlock > 0 && _pool.lastRewardBlock >= _pool.endBlock){\n            _pool.lastRewardBlock = block.number;\n            return;\n        }\n\n        if(totalAllocPoint == 0){\n            _pool.lastRewardBlock = block.number;\n            return;\n        }\n\n        if(moonTokenSpeed == 0){\n          _pool.lastRewardBlock = block.number;\n          return;\n        }\n\n        uint256 tokenReward = _getPoolReward(_pool.endBlock, _pool.lastRewardBlock, _pool.allocPoint);\n\n        _pool.accTokenPerShare = _pool.accTokenPerShare.add(tokenReward.mul(1e12).div(tokenSupply));\n        if(_pool.endBlock > 0 && _pool.endBlock < block.number){\n            _pool.lastRewardBlock = _pool.endBlock;\n        }else{\n          _pool.lastRewardBlock = block.number;\n        }\n    }\n\n    //\n    function deposit(uint256 _pid, uint256 _amount, address _user) public {\n        if(_user == address(0)){\n            _user = address(msg.sender);\n        }\n        // check\n        uint256 _sceneId = ISavingPool(savingPoolAddr).sceneMap(address(this));\n        require(_sceneId > 0, \"must add secene\");\n        PoolInfo storage _pool = poolInfo[_pid];\n        UserStake storage _userStake = userStakes[_pid][_user];\n        updatePool(_pid);\n        updateRewardPool(_pid);\n        _fetchSavingPoolFarm();\n        if (_userStake.amount > 0) {\n            uint256 pending = _userStake.amount.mul(_pool.accTokenPerShare).div(1e12).sub(_userStake.rewardDebt);\n            pending = _userStake.balance.add(pending);\n            _userStake.balance = pending;\n        }\n        _digRewardTokenDeposit(_pid, _user, _userStake.amount, _amount);\n        IERC20(_pool.token).safeTransferFrom(address(msg.sender), address(this), _amount);\n        _userStake.token = _pool.token;\n        _userStake.amount = _userStake.amount.add(_amount);\n        _userStake.rewardDebt = _userStake.amount.mul(_pool.accTokenPerShare).div(1e12);\n\n        // data migration\n        if (!_accountCheck[_user]) {\n            _accountCheck[_user] = true;\n            _accountList.push(_user);\n        }\n\n        emit Deposit(_user, _pid, _amount);\n    }\n\n    function withdraw(uint256 _pid, uint256 _amount) public {\n        PoolInfo storage _pool = poolInfo[_pid];\n        UserStake storage _userStake = userStakes[_pid][msg.sender];\n        require(_amount > 0, \"user amount is zero\");\n        require(_userStake.amount >= _amount, \"withdraw: not good\");\n        updatePool(_pid);\n        updateRewardPool(_pid);\n        _fetchSavingPoolFarm();\n        uint256 pending = _userStake.amount.mul(_pool.accTokenPerShare).div(1e12).sub(_userStake.rewardDebt);\n        pending = _userStake.balance.add(pending);\n        _userStake.balance = pending;\n        _digRewardTokenWithdraw(_pid, msg.sender, _userStake.amount, _amount);\n        _userStake.amount = _userStake.amount.sub(_amount);\n        _userStake.rewardDebt = _userStake.amount.mul(_pool.accTokenPerShare).div(1e12);\n        IERC20(_pool.token).safeTransfer(address(msg.sender), _amount);\n        emit Withdraw(msg.sender, _pid, _amount);\n    }\n\n    function emergencyWithdraw(uint256 _pid) public {\n        PoolInfo storage _pool = poolInfo[_pid];\n        UserStake storage _userStake = userStakes[_pid][msg.sender];\n        uint256 _amount = _userStake.amount;\n        require(_amount > 0, \"user amount is zero\");\n        _userStake.amount = 0;\n        _userStake.rewardDebt = 0;\n        _userStake.balance = 0;\n\n        IERC20(_pool.token).safeTransfer(address(msg.sender), _amount);\n        emit EmergencyWithdraw(msg.sender, _pid, _amount);\n    }\n\n    function _digRewardTokenDeposit(uint256 _pid, address _user, uint256 _userStakeAmount, uint256 _amount) internal {\n        address[] memory _tokens = poolRewardTokens[_pid];\n        uint256 _range = _tokens.length;\n        for(uint256 i = 0; i < _range; i ++){\n            address _rewardToken = _tokens[i];\n            UserRewardToken storage _userRewardToken = userRewards[_pid][_user][_rewardToken];\n            RewardTokenInfo memory _rewardTokenInfo = poolRewardInfos[_pid][_rewardToken];\n            uint256 _pending = _userStakeAmount.mul(_rewardTokenInfo.accTokenPerShare).div(1e12).sub(_userRewardToken.rewardDebt);\n            uint256 _balance = _userRewardToken.balance.add(_pending);\n\n            _userRewardToken.balance = _balance;\n            _userRewardToken.rewardDebt = _userStakeAmount.add(_amount).mul(_rewardTokenInfo.accTokenPerShare).div(1e12);\n        }\n    }\n\n    function _digRewardTokenWithdraw(uint256 _pid, address _user, uint256 _userStakeAmount, uint256 _amount) internal {\n        address[] memory _tokens = poolRewardTokens[_pid];\n        uint256 _range = _tokens.length;\n        for(uint256 i = 0; i < _range; i ++){\n            address _rewardToken = _tokens[i];\n            UserRewardToken storage _userRewardToken = userRewards[_pid][_user][_rewardToken];\n            RewardTokenInfo memory _rewardTokenInfo = poolRewardInfos[_pid][_rewardToken];\n            uint256 _pending = _userStakeAmount.mul(_rewardTokenInfo.accTokenPerShare).div(1e12).sub(_userRewardToken.rewardDebt);\n            uint256 _balance = _userRewardToken.balance.add(_pending);\n\n            _userRewardToken.balance = _balance;\n            _userRewardToken.rewardDebt = _userStakeAmount.sub(_amount).mul(_rewardTokenInfo.accTokenPerShare).div(1e12);\n        }\n    }\n\n    function harvestBatch(uint256 _pid) public {\n        address[] memory _tokens = poolRewardTokens[_pid];\n        uint256 _range = _tokens.length;\n        updatePool(_pid);\n        updateRewardPool(_pid);\n        _fetchSavingPoolFarm();\n        harvestMoon(_pid);\n        for(uint256 i = 0; i < _range; i ++){\n            harvest(_pid, _tokens[i]);\n        }\n    }\n\n    function harvestMoon(uint256 _pid) public {\n        PoolInfo memory _pool = poolInfo[_pid];\n        UserStake storage _userStake = userStakes[_pid][msg.sender];\n        uint256 pending = _userStake.amount.mul(_pool.accTokenPerShare).div(1e12).sub(_userStake.rewardDebt);\n        pending = _userStake.balance.add(pending);\n        _userStake.balance = 0;\n        _moonTokenTransfer(msg.sender, pending);\n        _userStake.rewardDebt = _userStake.amount.mul(_pool.accTokenPerShare).div(1e12);\n    }\n\n    function harvest(uint256 _pid, address _rewardToken) public {\n        UserStake memory _userStake = userStakes[_pid][msg.sender];\n        UserRewardToken storage _userRewardToken = userRewards[_pid][msg.sender][_rewardToken];\n        RewardTokenInfo memory _rewardTokenInfo = poolRewardInfos[_pid][_rewardToken];\n        uint256 _pending = _userStake.amount.mul(_rewardTokenInfo.accTokenPerShare).div(1e12).sub(_userRewardToken.rewardDebt);\n        uint256 _balance = _userRewardToken.balance.add(_pending);\n        if(_rewardToken == WCFX){\n          _safeTransferCFX(msg.sender, _balance);\n        }else{\n          _safeTokenTransfer(_rewardToken, msg.sender, _balance);\n        }\n\n        _userRewardToken.balance = 0;\n        _userRewardToken.rewardDebt = _userStake.amount.mul(_rewardTokenInfo.accTokenPerShare).div(1e12);\n    }\n\n    function moonBalance() external view returns(uint256) {\n      return IERC20(cMoonToken).balanceOf(address(this));\n    }\n\n    function scenes(uint256 _sceneId) public view returns(SceneInfo memory) {\n        return ISimpleScene(savingPoolAddr).scenes(_sceneId);\n    }\n\n    function getSceneId() public view returns(uint256) {\n        return ISavingPool(savingPoolAddr).sceneMap(address(this));\n    }\n\n    function _moonTokenTransfer(address _to, uint256 _amount) internal {\n        uint256 tokenBal = IERC20(cMoonToken).balanceOf(address(this));\n        require(_amount <= tokenBal, \"ConfluxStar: Balance insufficient\");\n        IERC20(cMoonToken).transfer(_to, _amount);\n    }\n\n    function _safeTokenTransfer(address _token, address _to, uint256 _amount) internal {\n        uint256 tokenBal = IERC20(_token).balanceOf(address(this));\n        require(_amount <= tokenBal, \"ConfluxStar: Balance insufficient\");\n        IERC20(_token).transfer(_to, _amount);\n    }\n\n    function _safeTransferCFX(address to, uint value) internal {\n        (bool success,) = to.call.value(value)(new bytes(0));\n        require(success, 'TransferHelper: ETH_TRANSFER_FAILED');\n    }\n\n    function _getPoolReward(uint256 _poolEndBlock, uint256 _lastRewardBlock, uint256 _poolAllocPoint) internal view returns(uint256) {\n\n        uint256 _maxEndBlock = block.number;\n        if(_poolEndBlock > 0 && _maxEndBlock > _poolEndBlock){\n          _maxEndBlock = _poolEndBlock;\n        }\n        if(_poolEndBlock > 0 && _lastRewardBlock > _poolEndBlock){\n          _lastRewardBlock = _poolEndBlock;\n        }\n\n        uint256 _totalAllocPoint = ISavingPool(savingPoolAddr).farmTotalAllocPoint();\n        if(_totalAllocPoint == 0){\n            return 0;\n        }\n\n        return _maxEndBlock.sub(_lastRewardBlock).div(2).mul(moonTokenSpeed)\n          .mul(_poolAllocPoint).div(_totalAllocPoint);\n    }\n\n    function _getRewardToken(uint256 _poolEndBlock, uint256 _lastRewardBlock, uint256 _rewardTokenSpeed) internal view returns(uint256) {\n        uint256 _maxEndBlock = block.number;\n        if(_poolEndBlock > 0 && _maxEndBlock > _poolEndBlock){\n          _maxEndBlock = _poolEndBlock;\n        }\n\n        if(_poolEndBlock > 0 && _lastRewardBlock > _poolEndBlock){\n          _lastRewardBlock = _poolEndBlock;\n        }\n\n        return _maxEndBlock.sub(_lastRewardBlock).div(2).mul(_rewardTokenSpeed);\n    }\n\n    function _fetchSavingPoolFarm() internal {\n        ISavingPool(savingPoolAddr).harvestSelf();\n    }\n\n    function setSavingPoolAddr(address _savingPoolAddr) public onlyOwner {\n        require(_savingPoolAddr != address(0), \"ConfluxMLFarm: ZERO_ADDRESS\");\n        savingPoolAddr = _savingPoolAddr;\n    }\n\n    // custodian deposit\n    function tokensReceived(address operator, address from, address to, uint256 amount,\n          bytes calldata userData,\n          bytes calldata operatorData) external view {\n          return;\n    }\n\n    //---------------- Data Migration ----------------------\n    function accountTotal() public view returns (uint256) {\n       return _accountList.length;\n    }\n\n    function accountList(uint256 begin) public view returns (address[100] memory) {\n        require(begin >= 0 && begin < _accountList.length, \"MoonSwap: accountList out of range\");\n        address[100] memory res;\n        uint256 range = Math.min(_accountList.length, begin.add(100));\n        for (uint256 i = begin; i < range; i++) {\n            res[i-begin] = _accountList[i];\n        }\n        return res;\n    }\n}\n",
  "sourcePath": "/Users/junhuazhou/Documents/GitHub/moonswap-core/contracts/farm/ConfluxMultiFarm.sol",
  "compiler": {
    "name": "solc",
    "version": "0.5.16+commit.9c3226ce.Emscripten.clang"
  },
  "schemaVersion": "3.2.0",
  "updatedAt": "2021-04-01T09:42:49.426Z",
  "devdoc": {
    "methods": {
      "isOwner()": {
        "details": "Returns true if the caller is the current owner."
      },
      "owner()": {
        "details": "Returns the address of the current owner."
      },
      "renounceOwnership()": {
        "details": "Leaves the contract without owner. It will not be possible to call `onlyOwner` functions anymore. Can only be called by the current owner.     * NOTE: Renouncing ownership will leave the contract without an owner, thereby removing any functionality that is only available to the owner."
      },
      "transferOwnership(address)": {
        "details": "Transfers ownership of the contract to a new account (`newOwner`). Can only be called by the current owner."
      }
    }
  },
  "userdoc": {
    "methods": {},
    "notice": "Stake LP / Token multi tokens Moonswap multi dig tokens"
  }
}