{
  "contractName": "ConfiSale",
  "abi": [
    {
      "inputs": [
        {
          "internalType": "address",
          "name": "_confi",
          "type": "address"
        },
        {
          "internalType": "address",
          "name": "_cMoonToken",
          "type": "address"
        },
        {
          "internalType": "address",
          "name": "_devAddr",
          "type": "address"
        }
      ],
      "payable": false,
      "stateMutability": "nonpayable",
      "type": "constructor"
    },
    {
      "anonymous": false,
      "inputs": [
        {
          "indexed": true,
          "internalType": "address",
          "name": "previousOwner",
          "type": "address"
        },
        {
          "indexed": true,
          "internalType": "address",
          "name": "newOwner",
          "type": "address"
        }
      ],
      "name": "OwnershipTransferred",
      "type": "event"
    },
    {
      "anonymous": false,
      "inputs": [
        {
          "indexed": true,
          "internalType": "address",
          "name": "from",
          "type": "address"
        },
        {
          "indexed": false,
          "internalType": "bool",
          "name": "originalPause",
          "type": "bool"
        },
        {
          "indexed": false,
          "internalType": "bool",
          "name": "newPause",
          "type": "bool"
        }
      ],
      "name": "SetPaused",
      "type": "event"
    },
    {
      "anonymous": false,
      "inputs": [
        {
          "indexed": true,
          "internalType": "address",
          "name": "from",
          "type": "address"
        },
        {
          "indexed": false,
          "internalType": "address",
          "name": "to",
          "type": "address"
        },
        {
          "indexed": false,
          "internalType": "uint256",
          "name": "tokenId",
          "type": "uint256"
        },
        {
          "indexed": false,
          "internalType": "uint256",
          "name": "value",
          "type": "uint256"
        }
      ],
      "name": "TokenBuy",
      "type": "event"
    },
    {
      "anonymous": false,
      "inputs": [
        {
          "indexed": true,
          "internalType": "address",
          "name": "from",
          "type": "address"
        },
        {
          "indexed": false,
          "internalType": "address",
          "name": "to",
          "type": "address"
        },
        {
          "indexed": false,
          "internalType": "uint256",
          "name": "tokenId",
          "type": "uint256"
        }
      ],
      "name": "TokenStake",
      "type": "event"
    },
    {
      "anonymous": false,
      "inputs": [
        {
          "indexed": true,
          "internalType": "address",
          "name": "tokenAddress",
          "type": "address"
        },
        {
          "indexed": true,
          "internalType": "address",
          "name": "from",
          "type": "address"
        },
        {
          "indexed": false,
          "internalType": "address",
          "name": "to",
          "type": "address"
        },
        {
          "indexed": false,
          "internalType": "uint256",
          "name": "value",
          "type": "uint256"
        }
      ],
      "name": "TokenTransfer",
      "type": "event"
    },
    {
      "anonymous": false,
      "inputs": [
        {
          "indexed": true,
          "internalType": "address",
          "name": "from",
          "type": "address"
        },
        {
          "indexed": false,
          "internalType": "address",
          "name": "to",
          "type": "address"
        },
        {
          "indexed": false,
          "internalType": "uint256",
          "name": "tokenId",
          "type": "uint256"
        }
      ],
      "name": "TokenUnStake",
      "type": "event"
    },
    {
      "anonymous": false,
      "inputs": [
        {
          "indexed": true,
          "internalType": "address",
          "name": "from",
          "type": "address"
        },
        {
          "indexed": false,
          "internalType": "uint256",
          "name": "count",
          "type": "uint256"
        }
      ],
      "name": "uploadNFTEvent",
      "type": "event"
    },
    {
      "constant": true,
      "inputs": [],
      "name": "SPONSOR",
      "outputs": [
        {
          "internalType": "contract SponsorWhitelistControl",
          "name": "",
          "type": "address"
        }
      ],
      "payable": false,
      "stateMutability": "view",
      "type": "function"
    },
    {
      "constant": true,
      "inputs": [],
      "name": "accTokenPerShare",
      "outputs": [
        {
          "internalType": "uint256",
          "name": "",
          "type": "uint256"
        }
      ],
      "payable": false,
      "stateMutability": "view",
      "type": "function"
    },
    {
      "constant": true,
      "inputs": [],
      "name": "apyRatio",
      "outputs": [
        {
          "internalType": "uint256",
          "name": "",
          "type": "uint256"
        }
      ],
      "payable": false,
      "stateMutability": "view",
      "type": "function"
    },
    {
      "constant": true,
      "inputs": [],
      "name": "cMoonToken",
      "outputs": [
        {
          "internalType": "address",
          "name": "",
          "type": "address"
        }
      ],
      "payable": false,
      "stateMutability": "view",
      "type": "function"
    },
    {
      "constant": true,
      "inputs": [],
      "name": "confi",
      "outputs": [
        {
          "internalType": "address",
          "name": "",
          "type": "address"
        }
      ],
      "payable": false,
      "stateMutability": "view",
      "type": "function"
    },
    {
      "constant": true,
      "inputs": [
        {
          "internalType": "uint256",
          "name": "",
          "type": "uint256"
        }
      ],
      "name": "confiCategories",
      "outputs": [
        {
          "internalType": "uint256",
          "name": "",
          "type": "uint256"
        }
      ],
      "payable": false,
      "stateMutability": "view",
      "type": "function"
    },
    {
      "constant": true,
      "inputs": [
        {
          "internalType": "uint256",
          "name": "",
          "type": "uint256"
        }
      ],
      "name": "confiIds",
      "outputs": [
        {
          "internalType": "uint256",
          "name": "",
          "type": "uint256"
        }
      ],
      "payable": false,
      "stateMutability": "view",
      "type": "function"
    },
    {
      "constant": true,
      "inputs": [
        {
          "internalType": "uint256",
          "name": "",
          "type": "uint256"
        }
      ],
      "name": "confiStls",
      "outputs": [
        {
          "internalType": "bool",
          "name": "",
          "type": "bool"
        }
      ],
      "payable": false,
      "stateMutability": "view",
      "type": "function"
    },
    {
      "constant": true,
      "inputs": [],
      "name": "confiSupply",
      "outputs": [
        {
          "internalType": "uint256",
          "name": "",
          "type": "uint256"
        }
      ],
      "payable": false,
      "stateMutability": "view",
      "type": "function"
    },
    {
      "constant": true,
      "inputs": [],
      "name": "devAddr",
      "outputs": [
        {
          "internalType": "address",
          "name": "",
          "type": "address"
        }
      ],
      "payable": false,
      "stateMutability": "view",
      "type": "function"
    },
    {
      "constant": true,
      "inputs": [],
      "name": "devBalance",
      "outputs": [
        {
          "internalType": "uint256",
          "name": "",
          "type": "uint256"
        }
      ],
      "payable": false,
      "stateMutability": "view",
      "type": "function"
    },
    {
      "constant": true,
      "inputs": [],
      "name": "getPause",
      "outputs": [
        {
          "internalType": "bool",
          "name": "",
          "type": "bool"
        }
      ],
      "payable": false,
      "stateMutability": "view",
      "type": "function"
    },
    {
      "constant": true,
      "inputs": [],
      "name": "intervalBlock",
      "outputs": [
        {
          "internalType": "uint256",
          "name": "",
          "type": "uint256"
        }
      ],
      "payable": false,
      "stateMutability": "view",
      "type": "function"
    },
    {
      "constant": true,
      "inputs": [],
      "name": "isOwner",
      "outputs": [
        {
          "internalType": "bool",
          "name": "",
          "type": "bool"
        }
      ],
      "payable": false,
      "stateMutability": "view",
      "type": "function"
    },
    {
      "constant": true,
      "inputs": [],
      "name": "lastRewardBlock",
      "outputs": [
        {
          "internalType": "uint256",
          "name": "",
          "type": "uint256"
        }
      ],
      "payable": false,
      "stateMutability": "view",
      "type": "function"
    },
    {
      "constant": true,
      "inputs": [],
      "name": "multiple",
      "outputs": [
        {
          "internalType": "uint256",
          "name": "",
          "type": "uint256"
        }
      ],
      "payable": false,
      "stateMutability": "view",
      "type": "function"
    },
    {
      "constant": true,
      "inputs": [],
      "name": "multipleCategoryId",
      "outputs": [
        {
          "internalType": "uint256",
          "name": "",
          "type": "uint256"
        }
      ],
      "payable": false,
      "stateMutability": "view",
      "type": "function"
    },
    {
      "constant": true,
      "inputs": [],
      "name": "outEnable",
      "outputs": [
        {
          "internalType": "bool",
          "name": "",
          "type": "bool"
        }
      ],
      "payable": false,
      "stateMutability": "view",
      "type": "function"
    },
    {
      "constant": true,
      "inputs": [],
      "name": "owner",
      "outputs": [
        {
          "internalType": "address",
          "name": "",
          "type": "address"
        }
      ],
      "payable": false,
      "stateMutability": "view",
      "type": "function"
    },
    {
      "constant": true,
      "inputs": [],
      "name": "poolBalance",
      "outputs": [
        {
          "internalType": "uint256",
          "name": "",
          "type": "uint256"
        }
      ],
      "payable": false,
      "stateMutability": "view",
      "type": "function"
    },
    {
      "constant": false,
      "inputs": [],
      "name": "renounceOwnership",
      "outputs": [],
      "payable": false,
      "stateMutability": "nonpayable",
      "type": "function"
    },
    {
      "constant": true,
      "inputs": [],
      "name": "rewardRatio",
      "outputs": [
        {
          "internalType": "uint256",
          "name": "",
          "type": "uint256"
        }
      ],
      "payable": false,
      "stateMutability": "view",
      "type": "function"
    },
    {
      "constant": false,
      "inputs": [
        {
          "internalType": "bool",
          "name": "isPause",
          "type": "bool"
        }
      ],
      "name": "setPause",
      "outputs": [],
      "payable": false,
      "stateMutability": "nonpayable",
      "type": "function"
    },
    {
      "constant": true,
      "inputs": [],
      "name": "stageNo",
      "outputs": [
        {
          "internalType": "uint256",
          "name": "",
          "type": "uint256"
        }
      ],
      "payable": false,
      "stateMutability": "view",
      "type": "function"
    },
    {
      "constant": true,
      "inputs": [
        {
          "internalType": "uint256",
          "name": "",
          "type": "uint256"
        }
      ],
      "name": "stages",
      "outputs": [
        {
          "internalType": "uint256",
          "name": "stageNo",
          "type": "uint256"
        },
        {
          "internalType": "uint256",
          "name": "total",
          "type": "uint256"
        },
        {
          "internalType": "uint256",
          "name": "balance",
          "type": "uint256"
        },
        {
          "internalType": "bool",
          "name": "isOpen",
          "type": "bool"
        },
        {
          "internalType": "uint256",
          "name": "price",
          "type": "uint256"
        }
      ],
      "payable": false,
      "stateMutability": "view",
      "type": "function"
    },
    {
      "constant": true,
      "inputs": [],
      "name": "totalDevAmount",
      "outputs": [
        {
          "internalType": "uint256",
          "name": "",
          "type": "uint256"
        }
      ],
      "payable": false,
      "stateMutability": "view",
      "type": "function"
    },
    {
      "constant": true,
      "inputs": [],
      "name": "totalNumber",
      "outputs": [
        {
          "internalType": "uint256",
          "name": "",
          "type": "uint256"
        }
      ],
      "payable": false,
      "stateMutability": "view",
      "type": "function"
    },
    {
      "constant": true,
      "inputs": [],
      "name": "totalPoolAmount",
      "outputs": [
        {
          "internalType": "uint256",
          "name": "",
          "type": "uint256"
        }
      ],
      "payable": false,
      "stateMutability": "view",
      "type": "function"
    },
    {
      "constant": true,
      "inputs": [],
      "name": "totalWeight",
      "outputs": [
        {
          "internalType": "uint256",
          "name": "",
          "type": "uint256"
        }
      ],
      "payable": false,
      "stateMutability": "view",
      "type": "function"
    },
    {
      "constant": false,
      "inputs": [
        {
          "internalType": "address",
          "name": "newOwner",
          "type": "address"
        }
      ],
      "name": "transferOwnership",
      "outputs": [],
      "payable": false,
      "stateMutability": "nonpayable",
      "type": "function"
    },
    {
      "constant": true,
      "inputs": [
        {
          "internalType": "address",
          "name": "",
          "type": "address"
        }
      ],
      "name": "userInfo",
      "outputs": [
        {
          "internalType": "uint256",
          "name": "weight",
          "type": "uint256"
        },
        {
          "internalType": "uint256",
          "name": "rewardDebt",
          "type": "uint256"
        },
        {
          "internalType": "uint256",
          "name": "balance",
          "type": "uint256"
        },
        {
          "internalType": "uint256",
          "name": "number",
          "type": "uint256"
        }
      ],
      "payable": false,
      "stateMutability": "view",
      "type": "function"
    },
    {
      "constant": true,
      "inputs": [
        {
          "internalType": "address",
          "name": "",
          "type": "address"
        },
        {
          "internalType": "uint256",
          "name": "",
          "type": "uint256"
        },
        {
          "internalType": "uint256",
          "name": "",
          "type": "uint256"
        }
      ],
      "name": "userStakeConfi",
      "outputs": [
        {
          "internalType": "uint256",
          "name": "",
          "type": "uint256"
        }
      ],
      "payable": false,
      "stateMutability": "view",
      "type": "function"
    },
    {
      "constant": true,
      "inputs": [
        {
          "internalType": "address",
          "name": "",
          "type": "address"
        },
        {
          "internalType": "uint256",
          "name": "",
          "type": "uint256"
        }
      ],
      "name": "userStakeCounts",
      "outputs": [
        {
          "internalType": "uint256",
          "name": "",
          "type": "uint256"
        }
      ],
      "payable": false,
      "stateMutability": "view",
      "type": "function"
    },
    {
      "constant": true,
      "inputs": [],
      "name": "confiIdsLength",
      "outputs": [
        {
          "internalType": "uint256",
          "name": "",
          "type": "uint256"
        }
      ],
      "payable": false,
      "stateMutability": "view",
      "type": "function"
    },
    {
      "constant": false,
      "inputs": [
        {
          "internalType": "uint256",
          "name": "_stageNo",
          "type": "uint256"
        }
      ],
      "name": "setStageNo",
      "outputs": [],
      "payable": false,
      "stateMutability": "nonpayable",
      "type": "function"
    },
    {
      "constant": false,
      "inputs": [
        {
          "internalType": "uint256",
          "name": "_stageNo",
          "type": "uint256"
        },
        {
          "internalType": "uint256",
          "name": "_total",
          "type": "uint256"
        },
        {
          "internalType": "bool",
          "name": "_isOpen",
          "type": "bool"
        },
        {
          "internalType": "uint256",
          "name": "_price",
          "type": "uint256"
        }
      ],
      "name": "initStage",
      "outputs": [],
      "payable": false,
      "stateMutability": "nonpayable",
      "type": "function"
    },
    {
      "constant": false,
      "inputs": [
        {
          "internalType": "uint256",
          "name": "_catId",
          "type": "uint256"
        },
        {
          "internalType": "uint256",
          "name": "_multiple",
          "type": "uint256"
        }
      ],
      "name": "setMultiple",
      "outputs": [],
      "payable": false,
      "stateMutability": "nonpayable",
      "type": "function"
    },
    {
      "constant": false,
      "inputs": [
        {
          "internalType": "uint256",
          "name": "_stageNo",
          "type": "uint256"
        },
        {
          "internalType": "uint256",
          "name": "_count",
          "type": "uint256"
        },
        {
          "internalType": "bool",
          "name": "isAdd",
          "type": "bool"
        }
      ],
      "name": "updateTotal",
      "outputs": [],
      "payable": false,
      "stateMutability": "nonpayable",
      "type": "function"
    },
    {
      "constant": false,
      "inputs": [
        {
          "internalType": "uint256",
          "name": "_stageNo",
          "type": "uint256"
        },
        {
          "internalType": "uint256",
          "name": "_price",
          "type": "uint256"
        }
      ],
      "name": "updatePrice",
      "outputs": [],
      "payable": false,
      "stateMutability": "nonpayable",
      "type": "function"
    },
    {
      "constant": false,
      "inputs": [
        {
          "internalType": "uint256",
          "name": "_stageNo",
          "type": "uint256"
        },
        {
          "internalType": "bool",
          "name": "_isOpen",
          "type": "bool"
        }
      ],
      "name": "setIsOpen",
      "outputs": [],
      "payable": false,
      "stateMutability": "nonpayable",
      "type": "function"
    },
    {
      "constant": false,
      "inputs": [
        {
          "internalType": "uint256",
          "name": "_rewardRatio",
          "type": "uint256"
        }
      ],
      "name": "setRewardRatio",
      "outputs": [],
      "payable": false,
      "stateMutability": "nonpayable",
      "type": "function"
    },
    {
      "constant": false,
      "inputs": [
        {
          "internalType": "uint256",
          "name": "_apyRatio",
          "type": "uint256"
        }
      ],
      "name": "setApyRatio",
      "outputs": [],
      "payable": false,
      "stateMutability": "nonpayable",
      "type": "function"
    },
    {
      "constant": false,
      "inputs": [
        {
          "internalType": "uint256",
          "name": "_id",
          "type": "uint256"
        }
      ],
      "name": "unstakeById",
      "outputs": [],
      "payable": false,
      "stateMutability": "nonpayable",
      "type": "function"
    },
    {
      "constant": false,
      "inputs": [
        {
          "internalType": "uint256[]",
          "name": "_ids",
          "type": "uint256[]"
        }
      ],
      "name": "uploadConfiCategory",
      "outputs": [],
      "payable": false,
      "stateMutability": "nonpayable",
      "type": "function"
    },
    {
      "constant": false,
      "inputs": [],
      "name": "harvest",
      "outputs": [],
      "payable": false,
      "stateMutability": "nonpayable",
      "type": "function"
    },
    {
      "constant": false,
      "inputs": [
        {
          "internalType": "uint256",
          "name": "_amount",
          "type": "uint256"
        }
      ],
      "name": "devWithdraw",
      "outputs": [],
      "payable": false,
      "stateMutability": "nonpayable",
      "type": "function"
    },
    {
      "constant": true,
      "inputs": [
        {
          "internalType": "address",
          "name": "_user",
          "type": "address"
        }
      ],
      "name": "pendingToken",
      "outputs": [
        {
          "internalType": "uint256",
          "name": "",
          "type": "uint256"
        }
      ],
      "payable": false,
      "stateMutability": "view",
      "type": "function"
    },
    {
      "constant": false,
      "inputs": [
        {
          "internalType": "address",
          "name": "_to",
          "type": "address"
        },
        {
          "internalType": "uint256",
          "name": "_count",
          "type": "uint256"
        }
      ],
      "name": "retrieve",
      "outputs": [],
      "payable": false,
      "stateMutability": "nonpayable",
      "type": "function"
    },
    {
      "constant": false,
      "inputs": [
        {
          "internalType": "address",
          "name": "_to",
          "type": "address"
        },
        {
          "internalType": "uint256",
          "name": "_tokenId",
          "type": "uint256"
        }
      ],
      "name": "forceRetrieve",
      "outputs": [],
      "payable": false,
      "stateMutability": "nonpayable",
      "type": "function"
    },
    {
      "constant": true,
      "inputs": [
        {
          "internalType": "address",
          "name": "_user",
          "type": "address"
        },
        {
          "internalType": "uint256",
          "name": "_confiSupply",
          "type": "uint256"
        }
      ],
      "name": "_seed",
      "outputs": [
        {
          "internalType": "uint256",
          "name": "",
          "type": "uint256"
        }
      ],
      "payable": false,
      "stateMutability": "view",
      "type": "function"
    },
    {
      "constant": false,
      "inputs": [
        {
          "internalType": "address",
          "name": "_operator",
          "type": "address"
        },
        {
          "internalType": "address",
          "name": "_from",
          "type": "address"
        },
        {
          "internalType": "uint256",
          "name": "_id",
          "type": "uint256"
        },
        {
          "internalType": "uint256",
          "name": "_amount",
          "type": "uint256"
        },
        {
          "internalType": "bytes",
          "name": "_data",
          "type": "bytes"
        }
      ],
      "name": "onERC1155Received",
      "outputs": [
        {
          "internalType": "bytes4",
          "name": "",
          "type": "bytes4"
        }
      ],
      "payable": false,
      "stateMutability": "nonpayable",
      "type": "function"
    },
    {
      "constant": false,
      "inputs": [
        {
          "internalType": "address",
          "name": "_operator",
          "type": "address"
        },
        {
          "internalType": "address",
          "name": "_from",
          "type": "address"
        },
        {
          "internalType": "uint256[]",
          "name": "_ids",
          "type": "uint256[]"
        },
        {
          "internalType": "uint256[]",
          "name": "_amounts",
          "type": "uint256[]"
        },
        {
          "internalType": "bytes",
          "name": "_data",
          "type": "bytes"
        }
      ],
      "name": "onERC1155BatchReceived",
      "outputs": [
        {
          "internalType": "bytes4",
          "name": "",
          "type": "bytes4"
        }
      ],
      "payable": false,
      "stateMutability": "nonpayable",
      "type": "function"
    },
    {
      "constant": false,
      "inputs": [
        {
          "internalType": "address",
          "name": "operator",
          "type": "address"
        },
        {
          "internalType": "address",
          "name": "from",
          "type": "address"
        },
        {
          "internalType": "address",
          "name": "to",
          "type": "address"
        },
        {
          "internalType": "uint256",
          "name": "amount",
          "type": "uint256"
        },
        {
          "internalType": "bytes",
          "name": "userData",
          "type": "bytes"
        },
        {
          "internalType": "bytes",
          "name": "operatorData",
          "type": "bytes"
        }
      ],
      "name": "tokensReceived",
      "outputs": [],
      "payable": false,
      "stateMutability": "nonpayable",
      "type": "function"
    },
    {
      "constant": false,
      "inputs": [
        {
          "internalType": "address",
          "name": "_devAddr",
          "type": "address"
        }
      ],
      "name": "setDevAddr",
      "outputs": [],
      "payable": false,
      "stateMutability": "nonpayable",
      "type": "function"
    },
    {
      "constant": false,
      "inputs": [
        {
          "internalType": "bool",
          "name": "_outEnable",
          "type": "bool"
        }
      ],
      "name": "setOutEnable",
      "outputs": [],
      "payable": false,
      "stateMutability": "nonpayable",
      "type": "function"
    },
    {
      "constant": true,
      "inputs": [],
      "name": "accountTotal",
      "outputs": [
        {
          "internalType": "uint256",
          "name": "",
          "type": "uint256"
        }
      ],
      "payable": false,
      "stateMutability": "view",
      "type": "function"
    },
    {
      "constant": true,
      "inputs": [
        {
          "internalType": "uint256",
          "name": "begin",
          "type": "uint256"
        }
      ],
      "name": "accountList",
      "outputs": [
        {
          "internalType": "address[100]",
          "name": "",
          "type": "address[100]"
        }
      ],
      "payable": false,
      "stateMutability": "view",
      "type": "function"
    }
  ],
  "bytecode": "0x608060405273866aca87ff33a0ae05d2164b3d999a804f583222600260006101000a81548173ffffffffffffffffffffffffffffffffffffffff021916908373ffffffffffffffffffffffffffffffffffffffff1602179055503480156200006657600080fd5b5060405162005ff938038062005ff9833981810160405260608110156200008c57600080fd5b810190808051906020019092919080519060200190929190805190602001909291905050506000620000c36200052b60201b60201c565b9050806000806101000a81548173ffffffffffffffffffffffffffffffffffffffff021916908373ffffffffffffffffffffffffffffffffffffffff1602179055508073ffffffffffffffffffffffffffffffffffffffff16600073ffffffffffffffffffffffffffffffffffffffff167f8be0079c531659141344cd1fd0a4f28419497f9722a3daafe3b4186f6b6457e060405160405180910390a35033600160006101000a81548173ffffffffffffffffffffffffffffffffffffffff021916908373ffffffffffffffffffffffffffffffffffffffff1602179055506000600160146101000a81548160ff02191690831515021790555082600660006101000a81548173ffffffffffffffffffffffffffffffffffffffff021916908373ffffffffffffffffffffffffffffffffffffffff16021790555081600960006101000a81548173ffffffffffffffffffffffffffffffffffffffff021916908373ffffffffffffffffffffffffffffffffffffffff16021790555080601a60006101000a81548173ffffffffffffffffffffffffffffffffffffffff021916908373ffffffffffffffffffffffffffffffffffffffff160217905550601e601b81905550601460088190555060066007819055506002601c8190555060786013819055506000601d60006101000a81548160ff021916908315150217905550600260009054906101000a900473ffffffffffffffffffffffffffffffffffffffff1673ffffffffffffffffffffffffffffffffffffffff166329965a1d307fb281fc8c12954d22544db45de3159a39272895b169a852b314f9cc762e44c53b60001b306040518463ffffffff1660e01b8152600401808473ffffffffffffffffffffffffffffffffffffffff1673ffffffffffffffffffffffffffffffffffffffff1681526020018381526020018273ffffffffffffffffffffffffffffffffffffffff1673ffffffffffffffffffffffffffffffffffffffff1681526020019350505050600060405180830381600087803b158015620003c457600080fd5b505af1158015620003d9573d6000803e3d6000fd5b5050505060606001604051908082528060200260200182016040528015620004105781602001602082028038833980820191505090505b5090506000816000815181106200042357fe5b602002602001019073ffffffffffffffffffffffffffffffffffffffff16908173ffffffffffffffffffffffffffffffffffffffff168152505073088800000000000000000000000000000000000173ffffffffffffffffffffffffffffffffffffffff1663fe15156c826040518263ffffffff1660e01b81526004018080602001828103825283818151815260200191508051906020019060200280838360005b83811015620004e2578082015181840152602081019050620004c5565b5050505090500192505050600060405180830381600087803b1580156200050857600080fd5b505af11580156200051d573d6000803e3d6000fd5b505050505050505062000533565b600033905090565b615ab680620005436000396000f3fe608060405234801561001057600080fd5b50600436106103815760003560e01c80638da5cb5b116101de578063c3ae88b31161010f578063da09c72c116100ad578063f2fde38b1161007c578063f2fde38b14611260578063f5bff318146112a4578063f81a3c45146112c2578063f8c4bbf21461130857610381565b8063da09c72c1461109f578063def13226146110e9578063e2a0e12514611123578063f23a6e611461114157610381565b8063c8ccd9fb116100e9578063c8ccd9fb14610f99578063cd9a1b6314610ffb578063cdccdc9a14611019578063cde10ca01461104757610381565b8063c3ae88b314610eff578063c543c92214610f4d578063c6d20c1614610f7b57610381565b8063a0246d741161017c578063bc197c8111610156578063bc197c8114610cae578063bedb86fb14610e63578063c0daddfd14610e93578063c3a2a66514610eb157610381565b8063a0246d7414610c44578063a943600d14610c62578063a9f8d18114610c9057610381565b80638f662915116101b85780638f66291514610b9c57806396365d4414610bba57806396c82e5714610bd8578063980851e614610bf657610381565b80638da5cb5b14610b125780638f32d59b14610b5c5780638f54be0e14610b7e57610381565b80634f3065ff116102b85780636ebb64a2116102565780637d0ccaad116102305780637d0ccaad14610a0c5780637e29189a14610a5657806382367b2d14610a78578063845ddcb214610ab057610381565b80636ebb64a21461097a578063715018a6146109be5780637494d47b146109c857610381565b8063646033bc11610292578063646033bc146108a257806365e4e7fe146108c057806366e25ab4146108ee57806369e133061461093857610381565b80634f3065ff146108045780635429bf5e146108225780635ae296361461084057610381565b80633164547a116103255780633e3ca9d3116102ff5780633e3ca9d314610750578063437a8ae6146107725780634641257d146107905780634ea98d161461079a57610381565b80633164547a1461067c57806332ca3129146106ac578063374043c41461071857610381565b80631959a002116103615780631959a0021461050a5780631d073a7a1461057757806323c48954146105c1578063243f4ac91461063a57610381565b806223de2914610386578062d9a128146104be578063102b2098146104ec575b600080fd5b6104bc600480360360c081101561039c57600080fd5b81019080803573ffffffffffffffffffffffffffffffffffffffff169060200190929190803573ffffffffffffffffffffffffffffffffffffffff169060200190929190803573ffffffffffffffffffffffffffffffffffffffff169060200190929190803590602001909291908035906020019064010000000081111561042357600080fd5b82018360208201111561043557600080fd5b8035906020019184600183028401116401000000008311171561045757600080fd5b90919293919293908035906020019064010000000081111561047857600080fd5b82018360208201111561048a57600080fd5b803590602001918460018302840111640100000000831117156104ac57600080fd5b9091929391929390505050611326565b005b6104ea600480360360208110156104d457600080fd5b8101908080359060200190929190505050611496565b005b6104f4611563565b6040518082815260200191505060405180910390f35b61054c6004803603602081101561052057600080fd5b81019080803573ffffffffffffffffffffffffffffffffffffffff169060200190929190505050611569565b6040518085815260200184815260200183815260200182815260200194505050505060405180910390f35b61057f611599565b604051808273ffffffffffffffffffffffffffffffffffffffff1673ffffffffffffffffffffffffffffffffffffffff16815260200191505060405180910390f35b610638600480360360208110156105d757600080fd5b81019080803590602001906401000000008111156105f457600080fd5b82018360208201111561060657600080fd5b8035906020019184602083028401116401000000008311171561062857600080fd5b90919293919293905050506115b1565b005b6106666004803603602081101561065057600080fd5b81019080803590602001909291905050506116e7565b6040518082815260200191505060405180910390f35b6106aa6004803603602081101561069257600080fd5b810190808035151590602001909291905050506116ff565b005b610702600480360360608110156106c257600080fd5b81019080803573ffffffffffffffffffffffffffffffffffffffff16906020019092919080359060200190929190803590602001909291905050506117df565b6040518082815260200191505060405180910390f35b61074e6004803603604081101561072e57600080fd5b81019080803590602001909291908035906020019092919050505061181a565b005b610758611965565b604051808215151515815260200191505060405180910390f35b61077a61197c565b6040518082815260200191505060405180910390f35b610798611982565b005b6107c6600480360360208110156107b057600080fd5b8101908080359060200190929190505050611c24565b6040518082606460200280838360005b838110156107f15780820151818401526020810190506107d6565b5050505090500191505060405180910390f35b61080c611d67565b6040518082815260200191505060405180910390f35b61082a611d6d565b6040518082815260200191505060405180910390f35b61088c6004803603604081101561085657600080fd5b81019080803573ffffffffffffffffffffffffffffffffffffffff16906020019092919080359060200190929190505050611d73565b6040518082815260200191505060405180910390f35b6108aa611df7565b6040518082815260200191505060405180910390f35b6108ec600480360360208110156108d657600080fd5b8101908080359060200190929190505050611dfd565b005b6108f66126fa565b604051808273ffffffffffffffffffffffffffffffffffffffff1673ffffffffffffffffffffffffffffffffffffffff16815260200191505060405180910390f35b6109646004803603602081101561094e57600080fd5b8101908080359060200190929190505050612720565b6040518082815260200191505060405180910390f35b6109bc6004803603602081101561099057600080fd5b81019080803573ffffffffffffffffffffffffffffffffffffffff169060200190929190505050612741565b005b6109c6612848565b005b610a0a600480360360608110156109de57600080fd5b8101908080359060200190929190803590602001909291908035151590602001909291905050506129ca565b005b610a14612bac565b604051808273ffffffffffffffffffffffffffffffffffffffff1673ffffffffffffffffffffffffffffffffffffffff16815260200191505060405180910390f35b610a5e612bd2565b604051808215151515815260200191505060405180910390f35b610aae60048036036040811015610a8e57600080fd5b810190808035906020019092919080359060200190929190505050612be5565b005b610adc60048036036020811015610ac657600080fd5b8101908080359060200190929190505050612d47565b60405180868152602001858152602001848152602001831515151581526020018281526020019550505050505060405180910390f35b610b1a612d8a565b604051808273ffffffffffffffffffffffffffffffffffffffff1673ffffffffffffffffffffffffffffffffffffffff16815260200191505060405180910390f35b610b64612db3565b604051808215151515815260200191505060405180910390f35b610b86612e11565b6040518082815260200191505060405180910390f35b610ba4612e17565b6040518082815260200191505060405180910390f35b610bc2612e1d565b6040518082815260200191505060405180910390f35b610be0612e23565b6040518082815260200191505060405180910390f35b610c4260048036036080811015610c0c57600080fd5b81019080803590602001909291908035906020019092919080351515906020019092919080359060200190929190505050612e29565b005b610c4c61300b565b6040518082815260200191505060405180910390f35b610c8e60048036036020811015610c7857600080fd5b8101908080359060200190929190505050613018565b005b610c986130e5565b6040518082815260200191505060405180910390f35b610e0f600480360360a0811015610cc457600080fd5b81019080803573ffffffffffffffffffffffffffffffffffffffff169060200190929190803573ffffffffffffffffffffffffffffffffffffffff16906020019092919080359060200190640100000000811115610d2157600080fd5b820183602082011115610d3357600080fd5b80359060200191846020830284011164010000000083111715610d5557600080fd5b909192939192939080359060200190640100000000811115610d7657600080fd5b820183602082011115610d8857600080fd5b80359060200191846020830284011164010000000083111715610daa57600080fd5b909192939192939080359060200190640100000000811115610dcb57600080fd5b820183602082011115610ddd57600080fd5b80359060200191846001830284011164010000000083111715610dff57600080fd5b90919293919293905050506130eb565b60405180827bffffffffffffffffffffffffffffffffffffffffffffffffffffffff19167bffffffffffffffffffffffffffffffffffffffffffffffffffffffff1916815260200191505060405180910390f35b610e9160048036036020811015610e7957600080fd5b8101908080351515906020019092919050505061332a565b005b610e9b613477565b6040518082815260200191505060405180910390f35b610efd60048036036040811015610ec757600080fd5b81019080803573ffffffffffffffffffffffffffffffffffffffff1690602001909291908035906020019092919050505061347d565b005b610f4b60048036036040811015610f1557600080fd5b81019080803573ffffffffffffffffffffffffffffffffffffffff16906020019092919080359060200190929190505050613604565b005b610f7960048036036020811015610f6357600080fd5b8101908080359060200190929190505050613729565b005b610f836137eb565b6040518082815260200191505060405180910390f35b610fe560048036036040811015610faf57600080fd5b81019080803573ffffffffffffffffffffffffffffffffffffffff169060200190929190803590602001909291905050506137f1565b6040518082815260200191505060405180910390f35b611003613816565b6040518082815260200191505060405180910390f35b6110456004803603602081101561102f57600080fd5b810190808035906020019092919050505061381c565b005b6110896004803603602081101561105d57600080fd5b81019080803573ffffffffffffffffffffffffffffffffffffffff1690602001909291905050506138e9565b6040518082815260200191505060405180910390f35b6110a7613a60565b604051808273ffffffffffffffffffffffffffffffffffffffff1673ffffffffffffffffffffffffffffffffffffffff16815260200191505060405180910390f35b611121600480360360408110156110ff57600080fd5b8101908080359060200190929190803515159060200190929190505050613a86565b005b61112b613bfb565b6040518082815260200191505060405180910390f35b61120c600480360360a081101561115757600080fd5b81019080803573ffffffffffffffffffffffffffffffffffffffff169060200190929190803573ffffffffffffffffffffffffffffffffffffffff1690602001909291908035906020019092919080359060200190929190803590602001906401000000008111156111c857600080fd5b8201836020820111156111da57600080fd5b803590602001918460018302840111640100000000831117156111fc57600080fd5b9091929391929390505050613c01565b60405180827bffffffffffffffffffffffffffffffffffffffffffffffffffffffff19167bffffffffffffffffffffffffffffffffffffffffffffffffffffffff1916815260200191505060405180910390f35b6112a26004803603602081101561127657600080fd5b81019080803573ffffffffffffffffffffffffffffffffffffffff169060200190929190505050613d74565b005b6112ac613f7d565b6040518082815260200191505060405180910390f35b6112ee600480360360208110156112d857600080fd5b8101908080359060200190929190505050613f83565b604051808215151515815260200191505060405180910390f35b611310613fa3565b6040518082815260200191505060405180910390f35b600960009054906101000a900473ffffffffffffffffffffffffffffffffffffffff1673ffffffffffffffffffffffffffffffffffffffff163373ffffffffffffffffffffffffffffffffffffffff16146113e9576040517f08c379a000000000000000000000000000000000000000000000000000000000815260040180806020018281038252601d8152602001807f436f6e666953616c653a206f6e6c79207265636569766520634d6f6f6e00000081525060200191505060405180910390fd5b6113f38786613fb0565b8673ffffffffffffffffffffffffffffffffffffffff163373ffffffffffffffffffffffffffffffffffffffff167fae33cb06d7303f889d953bb09540983050163c1c4c98b330db432a911cfb63fd8888604051808373ffffffffffffffffffffffffffffffffffffffff1673ffffffffffffffffffffffffffffffffffffffff1681526020018281526020019250505060405180910390a35050505050505050565b3373ffffffffffffffffffffffffffffffffffffffff16600160009054906101000a900473ffffffffffffffffffffffffffffffffffffffff1673ffffffffffffffffffffffffffffffffffffffff1614611559576040517f08c379a00000000000000000000000000000000000000000000000000000000081526004018080602001828103825260208152602001807f4f776e61626c653a2063616c6c6572206973206e6f7420746865206f776e657281525060200191505060405180910390fd5b80601c8190555050565b601c5481565b600e6020528060005260406000206000915090508060000154908060010154908060020154908060030154905084565b73088800000000000000000000000000000000000181565b3373ffffffffffffffffffffffffffffffffffffffff16600160009054906101000a900473ffffffffffffffffffffffffffffffffffffffff1673ffffffffffffffffffffffffffffffffffffffff1614611674576040517f08c379a00000000000000000000000000000000000000000000000000000000081526004018080602001828103825260208152602001807f4f776e61626c653a2063616c6c6572206973206e6f7420746865206f776e657281525060200191505060405180910390fd5b600082829050905060008090505b818110156116e15760006116a785858481811061169b57fe5b90506020020135614416565b905080600d60008787868181106116ba57fe5b90506020020135815260200190815260200160002081905550508080600101915050611682565b50505050565b600d6020528060005260406000206000915090505481565b3373ffffffffffffffffffffffffffffffffffffffff16600160009054906101000a900473ffffffffffffffffffffffffffffffffffffffff1673ffffffffffffffffffffffffffffffffffffffff16146117c2576040517f08c379a00000000000000000000000000000000000000000000000000000000081526004018080602001828103825260208152602001807f4f776e61626c653a2063616c6c6572206973206e6f7420746865206f776e657281525060200191505060405180910390fd5b80601d60006101000a81548160ff02191690831515021790555050565b600b602052826000526040600020602052816000526040600020818154811061180457fe5b9060005260206000200160009250925050505481565b3373ffffffffffffffffffffffffffffffffffffffff16600160009054906101000a900473ffffffffffffffffffffffffffffffffffffffff1673ffffffffffffffffffffffffffffffffffffffff16146118dd576040517f08c379a00000000000000000000000000000000000000000000000000000000081526004018080602001828103825260208152602001807f4f776e61626c653a2063616c6c6572206973206e6f7420746865206f776e657281525060200191505060405180910390fd5b60008211611953576040517f08c379a00000000000000000000000000000000000000000000000000000000081526004018080602001828103825260188152602001807f436f6e666953616c653a206361744964206973207a65726f000000000000000081525060200191505060405180910390fd5b81600781905550806008819055505050565b6000600160149054906101000a900460ff16905090565b60085481565b600160149054906101000a900460ff1615611a05576040517f08c379a000000000000000000000000000000000000000000000000000000000815260040180806020018281038252601a8152602001807f506175736561626c653a204d6f6f6e537761702070617573656400000000000081525060200191505060405180910390fd5b6000600e60003373ffffffffffffffffffffffffffffffffffffffff1673ffffffffffffffffffffffffffffffffffffffff16815260200190815260200160002090506000816000015411611ac2576040517f08c379a00000000000000000000000000000000000000000000000000000000081526004018080602001828103825260198152602001807f436f6e666953616c653a20776569676874206973207a65726f0000000000000081525060200191505060405180910390fd5b601d60009054906101000a900460ff16611b44576040517f08c379a000000000000000000000000000000000000000000000000000000000815260040180806020018281038252601e8152602001807f636f6e666953616c653a206f7574456e61626c6520697320636c6f736564000081525060200191505060405180910390fd5b611b4c6144d2565b6000611b948260010154611b8664e8d4a51000611b78601154876000015461464490919063ffffffff16565b6146ca90919063ffffffff16565b61471490919063ffffffff16565b9050611bad81836002015461475e90919063ffffffff16565b9050611bdf64e8d4a51000611bd1601154856000015461464490919063ffffffff16565b6146ca90919063ffffffff16565b826001018190555060008260020181905550611c068160175461471490919063ffffffff16565b6017819055506000811115611c2057611c1f33826147e6565b5b5050565b611c2c6159d3565b60008210158015611c415750601f8054905082105b611c96576040517f08c379a0000000000000000000000000000000000000000000000000000000008152600401808060200182810382526022815260200180615a196022913960400191505060405180910390fd5b611c9e6159d3565b6000611cc2601f80549050611cbd60648761475e90919063ffffffff16565b614a24565b905060008490505b81811015611d5c57601f8181548110611cdf57fe5b9060005260206000200160009054906101000a900473ffffffffffffffffffffffffffffffffffffffff168386830360648110611d1857fe5b602002019073ffffffffffffffffffffffffffffffffffffffff16908173ffffffffffffffffffffffffffffffffffffffff16815250508080600101915050611cca565b508192505050919050565b60055481565b60075481565b60008183434244604051602001808573ffffffffffffffffffffffffffffffffffffffff1673ffffffffffffffffffffffffffffffffffffffff1660601b81526014018481526020018381526020018281526020019450505050506040516020818303038152906040528051906020012060001c81611dee57fe5b06905092915050565b601b5481565b600160149054906101000a900460ff1615611e80576040517f08c379a000000000000000000000000000000000000000000000000000000000815260040180806020018281038252601a8152602001807f506175736561626c653a204d6f6f6e537761702070617573656400000000000081525060200191505060405180910390fd5b6000611e8b82614416565b90506000600a60003373ffffffffffffffffffffffffffffffffffffffff1673ffffffffffffffffffffffffffffffffffffffff168152602001908152602001600020600083815260200190815260200160002054905060008311611f58576040517f08c379a000000000000000000000000000000000000000000000000000000000815260040180806020018281038252601d8152602001807f436f6e666953616c653a20756e7374616b6520696420696e76616c696400000081525060200191505060405180910390fd5b60008111611fce576040517f08c379a00000000000000000000000000000000000000000000000000000000081526004018080602001828103825260138152602001807f436f6e666953616c653a206e6f20636f6e66690000000000000000000000000081525060200191505060405180910390fd5b6000600c60003373ffffffffffffffffffffffffffffffffffffffff1673ffffffffffffffffffffffffffffffffffffffff16815260200190815260200160002060008581526020019081526020016000205411612094576040517f08c379a00000000000000000000000000000000000000000000000000000000081526004018080602001828103825260138152602001807f436f6e666953616c653a206e6f207374616b650000000000000000000000000081525060200191505060405180910390fd5b61209c6144d2565b60006120a783614a3d565b90506000600e60003373ffffffffffffffffffffffffffffffffffffffff1673ffffffffffffffffffffffffffffffffffffffff16815260200190815260200160002090506000612134826001015461212664e8d4a51000612118601154876000015461464490919063ffffffff16565b6146ca90919063ffffffff16565b61471490919063ffffffff16565b905061214d81836002015461475e90919063ffffffff16565b826002018190555061216c83836000015461471490919063ffffffff16565b826000018190555061218c6001836003015461471490919063ffffffff16565b82600301819055506121a983600f5461471490919063ffffffff16565b600f819055506121c5600160105461471490919063ffffffff16565b6010819055506121fb64e8d4a510006121ed601154856000015461464490919063ffffffff16565b6146ca90919063ffffffff16565b82600101819055506122676001600a60003373ffffffffffffffffffffffffffffffffffffffff1673ffffffffffffffffffffffffffffffffffffffff16815260200190815260200160002060008881526020019081526020016000205461471490919063ffffffff16565b600a60003373ffffffffffffffffffffffffffffffffffffffff1673ffffffffffffffffffffffffffffffffffffffff1681526020019081526020016000206000878152602001908152602001600020819055506000600c60003373ffffffffffffffffffffffffffffffffffffffff1673ffffffffffffffffffffffffffffffffffffffff1681526020019081526020016000206000888152602001908152602001600020549050600b60003373ffffffffffffffffffffffffffffffffffffffff1673ffffffffffffffffffffffffffffffffffffffff1681526020019081526020016000206000878152602001908152602001600020600182038154811061236e57fe5b906000526020600020015487146123ed576040517f08c379a000000000000000000000000000000000000000000000000000000000815260040180806020018281038252601a8152602001807f436f6e666953616c653a20696e76616c696420546f6b656e496400000000000081525060200191505060405180910390fd5b8481141561246657600b60003373ffffffffffffffffffffffffffffffffffffffff1673ffffffffffffffffffffffffffffffffffffffff1681526020019081526020016000206000878152602001908152602001600020600186038154811061245357fe5b9060005260206000200160009055612665565b600b60003373ffffffffffffffffffffffffffffffffffffffff1673ffffffffffffffffffffffffffffffffffffffff168152602001908152602001600020600087815260200190815260200160002060018603815481106124c457fe5b9060005260206000200154600b60003373ffffffffffffffffffffffffffffffffffffffff1673ffffffffffffffffffffffffffffffffffffffff1681526020019081526020016000206000888152602001908152602001600020600183038154811061252d57fe5b9060005260206000200181905550600b60003373ffffffffffffffffffffffffffffffffffffffff1673ffffffffffffffffffffffffffffffffffffffff1681526020019081526020016000206000878152602001908152602001600020600186038154811061259957fe5b906000526020600020016000905580600c60003373ffffffffffffffffffffffffffffffffffffffff1673ffffffffffffffffffffffffffffffffffffffff1681526020019081526020016000206000600b60003373ffffffffffffffffffffffffffffffffffffffff1673ffffffffffffffffffffffffffffffffffffffff16815260200190815260200160002060008a8152602001908152602001600020600185038154811061264757fe5b90600052602060002001548152602001908152602001600020819055505b61266f3388614a5d565b3073ffffffffffffffffffffffffffffffffffffffff167f17b6d079b1ac7c70b183891bc84c8819e3eb3d4a393e45d3160889e8fd3b79553389604051808373ffffffffffffffffffffffffffffffffffffffff1673ffffffffffffffffffffffffffffffffffffffff1681526020018281526020019250505060405180910390a250505050505050565b600660009054906101000a900473ffffffffffffffffffffffffffffffffffffffff1681565b6004818154811061272d57fe5b906000526020600020016000915090505481565b3373ffffffffffffffffffffffffffffffffffffffff16600160009054906101000a900473ffffffffffffffffffffffffffffffffffffffff1673ffffffffffffffffffffffffffffffffffffffff1614612804576040517f08c379a00000000000000000000000000000000000000000000000000000000081526004018080602001828103825260208152602001807f4f776e61626c653a2063616c6c6572206973206e6f7420746865206f776e657281525060200191505060405180910390fd5b80601a60006101000a81548173ffffffffffffffffffffffffffffffffffffffff021916908373ffffffffffffffffffffffffffffffffffffffff16021790555050565b3373ffffffffffffffffffffffffffffffffffffffff16600160009054906101000a900473ffffffffffffffffffffffffffffffffffffffff1673ffffffffffffffffffffffffffffffffffffffff161461290b576040517f08c379a00000000000000000000000000000000000000000000000000000000081526004018080602001828103825260208152602001807f4f776e61626c653a2063616c6c6572206973206e6f7420746865206f776e657281525060200191505060405180910390fd5b600073ffffffffffffffffffffffffffffffffffffffff166000809054906101000a900473ffffffffffffffffffffffffffffffffffffffff1673ffffffffffffffffffffffffffffffffffffffff167f8be0079c531659141344cd1fd0a4f28419497f9722a3daafe3b4186f6b6457e060405160405180910390a360008060006101000a81548173ffffffffffffffffffffffffffffffffffffffff021916908373ffffffffffffffffffffffffffffffffffffffff160217905550565b3373ffffffffffffffffffffffffffffffffffffffff16600160009054906101000a900473ffffffffffffffffffffffffffffffffffffffff1673ffffffffffffffffffffffffffffffffffffffff1614612a8d576040517f08c379a00000000000000000000000000000000000000000000000000000000081526004018080602001828103825260208152602001807f4f776e61626c653a2063616c6c6572206973206e6f7420746865206f776e657281525060200191505060405180910390fd5b60006014600085815260200190815260200160002090506000816000015411612b1e576040517f08c379a000000000000000000000000000000000000000000000000000000000815260040180806020018281038252601d8152602001807f436f6e666953616c653a2073746167654e6f206e6f742065786973747300000081525060200191505060405180910390fd5b8115612b6757612b3b83826001015461475e90919063ffffffff16565b8160010181905550612b5a83826002015461475e90919063ffffffff16565b8160020181905550612ba6565b612b7e83826001015461471490919063ffffffff16565b8160010181905550612b9d83826002015461471490919063ffffffff16565b81600201819055505b50505050565b600960009054906101000a900473ffffffffffffffffffffffffffffffffffffffff1681565b601d60009054906101000a900460ff1681565b3373ffffffffffffffffffffffffffffffffffffffff16600160009054906101000a900473ffffffffffffffffffffffffffffffffffffffff1673ffffffffffffffffffffffffffffffffffffffff1614612ca8576040517f08c379a00000000000000000000000000000000000000000000000000000000081526004018080602001828103825260208152602001807f4f776e61626c653a2063616c6c6572206973206e6f7420746865206f776e657281525060200191505060405180910390fd5b60006014600084815260200190815260200160002090506000816000015411612d39576040517f08c379a000000000000000000000000000000000000000000000000000000000815260040180806020018281038252601d8152602001807f436f6e666953616c653a2073746167654e6f206e6f742065786973747300000081525060200191505060405180910390fd5b818160040181905550505050565b60146020528060005260406000206000915090508060000154908060010154908060020154908060030160009054906101000a900460ff16908060040154905085565b60008060009054906101000a900473ffffffffffffffffffffffffffffffffffffffff16905090565b60008060009054906101000a900473ffffffffffffffffffffffffffffffffffffffff1673ffffffffffffffffffffffffffffffffffffffff16612df5614b73565b73ffffffffffffffffffffffffffffffffffffffff1614905090565b60135481565b60115481565b60175481565b600f5481565b3373ffffffffffffffffffffffffffffffffffffffff16600160009054906101000a900473ffffffffffffffffffffffffffffffffffffffff1673ffffffffffffffffffffffffffffffffffffffff1614612eec576040517f08c379a00000000000000000000000000000000000000000000000000000000081526004018080602001828103825260208152602001807f4f776e61626c653a2063616c6c6572206973206e6f7420746865206f776e657281525060200191505060405180910390fd5b60006014600086815260200190815260200160002090506000816000015414612f7d576040517f08c379a00000000000000000000000000000000000000000000000000000000081526004018080602001828103825260198152602001807f436f6e666953616c653a2073746167654e6f206578697374730000000000000081525060200191505060405180910390fd5b6040518060a001604052808681526020018581526020018581526020018415158152602001838152506014600087815260200190815260200160002060008201518160000155602082015181600101556040820151816002015560608201518160030160006101000a81548160ff021916908315150217905550608082015181600401559050505050505050565b6000600480549050905090565b3373ffffffffffffffffffffffffffffffffffffffff16600160009054906101000a900473ffffffffffffffffffffffffffffffffffffffff1673ffffffffffffffffffffffffffffffffffffffff16146130db576040517f08c379a00000000000000000000000000000000000000000000000000000000081526004018080602001828103825260208152602001807f4f776e61626c653a2063616c6c6572206973206e6f7420746865206f776e657281525060200191505060405180910390fd5b80601b8190555050565b60125481565b6000600660009054906101000a900473ffffffffffffffffffffffffffffffffffffffff1673ffffffffffffffffffffffffffffffffffffffff163373ffffffffffffffffffffffffffffffffffffffff16146131b0576040517f08c379a000000000000000000000000000000000000000000000000000000000815260040180806020018281038252601d8152602001807f436f6e666953616c653a206f6e6c79207265636569766520636f6e666900000081525060200191505060405180910390fd5b600160f81b838360008181106131c257fe5b9050013560f81c60f81b7effffffffffffffffffffffffffffffffffffffffffffffffffffffffffffff191614156132865761328188888880806020026020016040519081016040528093929190818152602001838360200280828437600081840152601f19601f82011690508083019250505050505050878780806020026020016040519081016040528093929190818152602001838360200280828437600081840152601f19601f82011690508083019250505050505050614b7b565b613314565b61331388888880806020026020016040519081016040528093929190818152602001838360200280828437600081840152601f19601f82011690508083019250505050505050878780806020026020016040519081016040528093929190818152602001838360200280828437600081840152601f19601f82011690508083019250505050505050614d87565b5b63bc197c8160e01b905098975050505050505050565b3373ffffffffffffffffffffffffffffffffffffffff16600160009054906101000a900473ffffffffffffffffffffffffffffffffffffffff1673ffffffffffffffffffffffffffffffffffffffff16146133ed576040517f08c379a00000000000000000000000000000000000000000000000000000000081526004018080602001828103825260208152602001807f4f776e61626c653a2063616c6c6572206973206e6f7420746865206f776e657281525060200191505060405180910390fd5b3373ffffffffffffffffffffffffffffffffffffffff167ffd80ccbc6bfc2e7fbbede0ca451179e86853be7776523642799c03113409589f600160149054906101000a900460ff16836040518083151515158152602001821515151581526020019250505060405180910390a280600160146101000a81548160ff02191690831515021790555050565b60105481565b3373ffffffffffffffffffffffffffffffffffffffff16600160009054906101000a900473ffffffffffffffffffffffffffffffffffffffff1673ffffffffffffffffffffffffffffffffffffffff1614613540576040517f08c379a00000000000000000000000000000000000000000000000000000000081526004018080602001828103825260208152602001807f4f776e61626c653a2063616c6c6572206973206e6f7420746865206f776e657281525060200191505060405180910390fd5b6005548111156135505760055490505b6000600190505b8181116135ff57600060046001600554038154811061357257fe5b9060005260206000200154905060006003600083815260200190815260200160002060006101000a81548160ff0219169083151502179055506004600160055403815481106135bd57fe5b90600052602060002001600090556135e1600160055461471490919063ffffffff16565b6005819055506135f18482614a5d565b508080600101915050613557565b505050565b3373ffffffffffffffffffffffffffffffffffffffff16600160009054906101000a900473ffffffffffffffffffffffffffffffffffffffff1673ffffffffffffffffffffffffffffffffffffffff16146136c7576040517f08c379a00000000000000000000000000000000000000000000000000000000081526004018080602001828103825260208152602001807f4f776e61626c653a2063616c6c6572206973206e6f7420746865206f776e657281525060200191505060405180910390fd5b600060055411156136ef576136e8600160055461471490919063ffffffff16565b6005819055505b60006003600083815260200190815260200160002060006101000a81548160ff0219169083151502179055506137258282614a5d565b5050565b6019548111156137a1576040517f08c379a000000000000000000000000000000000000000000000000000000000815260040180806020018281038252601f8152602001807f636f6e666953616c653a2062616c616e636520696e73756666696369656e740081525060200191505060405180910390fd5b6137b68160195461471490919063ffffffff16565b6019819055506137e8601a60009054906101000a900473ffffffffffffffffffffffffffffffffffffffff16826147e6565b50565b60185481565b600a602052816000526040600020602052806000526040600020600091509150505481565b60195481565b3373ffffffffffffffffffffffffffffffffffffffff16600160009054906101000a900473ffffffffffffffffffffffffffffffffffffffff1673ffffffffffffffffffffffffffffffffffffffff16146138df576040517f08c379a00000000000000000000000000000000000000000000000000000000081526004018080602001828103825260208152602001807f4f776e61626c653a2063616c6c6572206973206e6f7420746865206f776e657281525060200191505060405180910390fd5b8060158190555050565b600080600e60008473ffffffffffffffffffffffffffffffffffffffff1673ffffffffffffffffffffffffffffffffffffffff1681526020019081526020016000209050600060115490506012544311801561394757506000600f54115b156139f75760006139b36127106139a5601c546139976139866013546139786012544361471490919063ffffffff16565b6146ca90919063ffffffff16565b60175461464490919063ffffffff16565b61464490919063ffffffff16565b6146ca90919063ffffffff16565b90506139f36139e4600f546139d664e8d4a510008561464490919063ffffffff16565b6146ca90919063ffffffff16565b8361475e90919063ffffffff16565b9150505b6000613a3d8360010154613a2f64e8d4a51000613a2186886000015461464490919063ffffffff16565b6146ca90919063ffffffff16565b61471490919063ffffffff16565b9050613a5681846002015461475e90919063ffffffff16565b9350505050919050565b601a60009054906101000a900473ffffffffffffffffffffffffffffffffffffffff1681565b3373ffffffffffffffffffffffffffffffffffffffff16600160009054906101000a900473ffffffffffffffffffffffffffffffffffffffff1673ffffffffffffffffffffffffffffffffffffffff1614613b49576040517f08c379a00000000000000000000000000000000000000000000000000000000081526004018080602001828103825260208152602001807f4f776e61626c653a2063616c6c6572206973206e6f7420746865206f776e657281525060200191505060405180910390fd5b60006014600084815260200190815260200160002090506000816000015411613bda576040517f08c379a000000000000000000000000000000000000000000000000000000000815260040180806020018281038252601d8152602001807f436f6e666953616c653a2073746167654e6f206e6f742065786973747300000081525060200191505060405180910390fd5b818160030160006101000a81548160ff021916908315150217905550505050565b60155481565b6000600660009054906101000a900473ffffffffffffffffffffffffffffffffffffffff1673ffffffffffffffffffffffffffffffffffffffff163373ffffffffffffffffffffffffffffffffffffffff1614613cc6576040517f08c379a000000000000000000000000000000000000000000000000000000000815260040180806020018281038252601d8152602001807f436f6e666953616c653a206f6e6c79207265636569766520636f6e666900000081525060200191505060405180910390fd5b60608581600081518110613cd657fe5b60200260200101818152505060608581600081518110613cf257fe5b602002602001018181525050600160f81b85856000818110613d1057fe5b9050013560f81c60f81b7effffffffffffffffffffffffffffffffffffffffffffffffffffffffffffff19161415613d5257613d4d888383614b7b565b613d5e565b613d5d888383614d87565b5b63f23a6e6160e01b925050509695505050505050565b3373ffffffffffffffffffffffffffffffffffffffff16600160009054906101000a900473ffffffffffffffffffffffffffffffffffffffff1673ffffffffffffffffffffffffffffffffffffffff1614613e37576040517f08c379a00000000000000000000000000000000000000000000000000000000081526004018080602001828103825260208152602001807f4f776e61626c653a2063616c6c6572206973206e6f7420746865206f776e657281525060200191505060405180910390fd5b600073ffffffffffffffffffffffffffffffffffffffff168173ffffffffffffffffffffffffffffffffffffffff161415613ebd576040517f08c379a0000000000000000000000000000000000000000000000000000000008152600401808060200182810382526026815260200180615a3b6026913960400191505060405180910390fd5b8073ffffffffffffffffffffffffffffffffffffffff16600160009054906101000a900473ffffffffffffffffffffffffffffffffffffffff1673ffffffffffffffffffffffffffffffffffffffff167f8be0079c531659141344cd1fd0a4f28419497f9722a3daafe3b4186f6b6457e060405160405180910390a380600160006101000a81548173ffffffffffffffffffffffffffffffffffffffff021916908373ffffffffffffffffffffffffffffffffffffffff16021790555050565b60165481565b60036020528060005260406000206000915054906101000a900460ff1681565b6000601f80549050905090565b600060155411614028576040517f08c379a00000000000000000000000000000000000000000000000000000000081526004018080602001828103825260198152602001807f436f6e666953616c653a206e6f2073746167652073746172740000000000000081525060200191505060405180910390fd5b6000601460006015548152602001908152602001600020905060008160000154116140bb576040517f08c379a000000000000000000000000000000000000000000000000000000000815260040180806020018281038252601d8152602001807f436f6e666953616c653a2073746167654e6f206e6f742065786973747300000081525060200191505060405180910390fd5b81816004015414614134576040517f08c379a00000000000000000000000000000000000000000000000000000000081526004018080602001828103825260208152602001807f436f6e666953616c653a2070617920616d6f756e7420697320696e76616c696481525060200191505060405180910390fd5b8060030160009054906101000a900460ff166141b8576040517f08c379a00000000000000000000000000000000000000000000000000000000081526004018080602001828103825260188152602001807f436f6e666953616c653a207374616765206e6f206f70656e000000000000000081525060200191505060405180910390fd5b6000816002015411614232576040517f08c379a000000000000000000000000000000000000000000000000000000000815260040180806020018281038252601f8152602001807f436f6e666953616c653a2062616c616e6365206973206e6f20656e6f7567680081525060200191505060405180910390fd5b6000600554116142aa576040517f08c379a000000000000000000000000000000000000000000000000000000000815260040180806020018281038252601f8152602001807f436f6e666953616c653a206e667420737570706c79206e6f20656e6f7567680081525060200191505060405180910390fd5b6142b26144d2565b6142ca6001826002015461471490919063ffffffff16565b816002018190555060006142e084600554611d73565b90506000600482815481106142f157fe5b9060005260206000200154905060046001600554038154811061431057fe5b90600052602060002001546004838154811061432857fe5b906000526020600020018190555060046001600554038154811061434857fe5b906000526020600020016000905561436c600160055461471490919063ffffffff16565b60058190555061437b846156e5565b6143858582614a5d565b3073ffffffffffffffffffffffffffffffffffffffff167f662fffd2e2fb751e0e978097e1169c484196033934fe5ebbb20e66baf883fe87868387604051808473ffffffffffffffffffffffffffffffffffffffff1673ffffffffffffffffffffffffffffffffffffffff168152602001838152602001828152602001935050505060405180910390a25050505050565b600080600660009054906101000a900473ffffffffffffffffffffffffffffffffffffffff1673ffffffffffffffffffffffffffffffffffffffff16638ed914cd846040518263ffffffff1660e01b81526004018082815260200191505060206040518083038186803b15801561448c57600080fd5b505afa1580156144a0573d6000803e3d6000fd5b505050506040513d60208110156144b657600080fd5b8101908080519060200190929190505050905080915050919050565b600060175414156144e95743601281905550614642565b600060135414156144f957614642565b43601354111561450857614642565b6012546145206013544361471490919063ffffffff16565b1161452a57614642565b6000600f5414156145415743601281905550614642565b600061456c60135461455e6012544361471490919063ffffffff16565b6146ca90919063ffffffff16565b905060006145ad61271061459f601c546145918660175461464490919063ffffffff16565b61464490919063ffffffff16565b6146ca90919063ffffffff16565b90506145c48160175461471490919063ffffffff16565b60178190555061460a6145f9600f546145eb64e8d4a510008561464490919063ffffffff16565b6146ca90919063ffffffff16565b60115461475e90919063ffffffff16565b6011819055506146396146288360135461464490919063ffffffff16565b60125461475e90919063ffffffff16565b60128190555050505b565b60008083141561465757600090506146c4565b600082840290508284828161466857fe5b04146146bf576040517f08c379a0000000000000000000000000000000000000000000000000000000008152600401808060200182810382526021815260200180615a616021913960400191505060405180910390fd5b809150505b92915050565b600061470c83836040518060400160405280601a81526020017f536166654d6174683a206469766973696f6e206279207a65726f00000000000081525061584d565b905092915050565b600061475683836040518060400160405280601e81526020017f536166654d6174683a207375627472616374696f6e206f766572666c6f770000815250615913565b905092915050565b6000808284019050838110156147dc576040517f08c379a000000000000000000000000000000000000000000000000000000000815260040180806020018281038252601b8152602001807f536166654d6174683a206164646974696f6e206f766572666c6f77000000000081525060200191505060405180910390fd5b8091505092915050565b6000600960009054906101000a900473ffffffffffffffffffffffffffffffffffffffff1673ffffffffffffffffffffffffffffffffffffffff166370a08231306040518263ffffffff1660e01b8152600401808273ffffffffffffffffffffffffffffffffffffffff1673ffffffffffffffffffffffffffffffffffffffff16815260200191505060206040518083038186803b15801561488757600080fd5b505afa15801561489b573d6000803e3d6000fd5b505050506040513d60208110156148b157600080fd5b810190808051906020019092919050505090508082111561493a576040517f08c379a000000000000000000000000000000000000000000000000000000000815260040180806020018281038252601d8152602001807f436f6e666953616c653a20634d6f6f6e20696e73756666696369656e7400000081525060200191505060405180910390fd5b600960009054906101000a900473ffffffffffffffffffffffffffffffffffffffff1673ffffffffffffffffffffffffffffffffffffffff1663a9059cbb84846040518363ffffffff1660e01b8152600401808373ffffffffffffffffffffffffffffffffffffffff1673ffffffffffffffffffffffffffffffffffffffff16815260200182815260200192505050602060405180830381600087803b1580156149e357600080fd5b505af11580156149f7573d6000803e3d6000fd5b505050506040513d6020811015614a0d57600080fd5b810190808051906020019092919050505050505050565b6000818310614a335781614a35565b825b905092915050565b6000600754821415614a53576008549050614a58565b600190505b919050565b600660009054906101000a900473ffffffffffffffffffffffffffffffffffffffff1673ffffffffffffffffffffffffffffffffffffffff1663f242432a30848460016040518563ffffffff1660e01b8152600401808573ffffffffffffffffffffffffffffffffffffffff1673ffffffffffffffffffffffffffffffffffffffff1681526020018473ffffffffffffffffffffffffffffffffffffffff1673ffffffffffffffffffffffffffffffffffffffff1681526020018381526020018281526020018060200182810382526000815260200160200195505050505050600060405180830381600087803b158015614b5757600080fd5b505af1158015614b6b573d6000803e3d6000fd5b505050505050565b600033905090565b8051825114614bf2576040517f08c379a00000000000000000000000000000000000000000000000000000000081526004018080602001828103825260208152602001807f436f6e666953616c653a20494e56414c49445f4152524159535f4c454e47544881525060200191505060405180910390fd5b60008251905060008090505b81811015614d325760036000858381518110614c1657fe5b6020026020010151815260200190815260200160002060009054906101000a900460ff1615614c4457614d25565b6005546004805490501115614c8957838181518110614c5f57fe5b6020026020010151600460055481548110614c7657fe5b9060005260206000200181905550614cc9565b6004848281518110614c9757fe5b602002602001015190806001815401808255809150509060018203906000526020600020016000909192909190915055505b600160036000868481518110614cdb57fe5b6020026020010151815260200190815260200160002060006101000a81548160ff021916908315150217905550614d1e600160055461475e90919063ffffffff16565b6005819055505b8080600101915050614bfe565b508373ffffffffffffffffffffffffffffffffffffffff167f4a157e6951b99ae3f87c08dd5f61cd625394ede477877d924ab02d4fdd40ddca826040518082815260200191505060405180910390a250505050565b8051825114614dfe576040517f08c379a00000000000000000000000000000000000000000000000000000000081526004018080602001828103825260208152602001807f436f6e666953616c653a20494e56414c49445f4152524159535f4c454e47544881525060200191505060405180910390fd5b600060165411614e76576040517f08c379a00000000000000000000000000000000000000000000000000000000081526004018080602001828103825260138152602001807f436f6e666953616c653a206f6e2073746172740000000000000000000000000081525060200191505060405180910390fd5b6000825190506000600e60008673ffffffffffffffffffffffffffffffffffffffff1673ffffffffffffffffffffffffffffffffffffffff1681526020019081526020016000209050614ec76144d2565b600081600001541115614f3f576000614f1c8260010154614f0e64e8d4a51000614f00601154876000015461464490919063ffffffff16565b6146ca90919063ffffffff16565b61471490919063ffffffff16565b9050614f3581836002015461475e90919063ffffffff16565b8260020181905550505b6101f4614f5a8551836003015461475e90919063ffffffff16565b10614fcd576040517f08c379a000000000000000000000000000000000000000000000000000000000815260040180806020018281038252601a8152602001807f436f6e666953616c653a206d6178206973206f766572666c6f7700000000000081525060200191505060405180910390fd5b60008090505b828110156155955760036000868381518110614feb57fe5b6020026020010151815260200190815260200160002060009054906101000a900460ff16615081576040517f08c379a00000000000000000000000000000000000000000000000000000000081526004018080602001828103825260188152602001807f436f6e666953616c653a206e6f2073616c6520636f6e6669000000000000000081525060200191505060405180910390fd5b6000600190506000600d600088858151811061509957fe5b602002602001015181526020019081526020016000205411156150e057600d60008784815181106150c657fe5b602002602001015181526020019081526020016000205490505b60006150eb82614a3d565b9050600a60008973ffffffffffffffffffffffffffffffffffffffff1673ffffffffffffffffffffffffffffffffffffffff168152602001908152602001600020600083815260200190815260200160002054600b60008a73ffffffffffffffffffffffffffffffffffffffff1673ffffffffffffffffffffffffffffffffffffffff168152602001908152602001600020600084815260200190815260200160002080549050111561526a578683815181106151a457fe5b6020026020010151600b60008a73ffffffffffffffffffffffffffffffffffffffff1673ffffffffffffffffffffffffffffffffffffffff1681526020019081526020016000206000848152602001908152602001600020600a60008b73ffffffffffffffffffffffffffffffffffffffff1673ffffffffffffffffffffffffffffffffffffffff1681526020019081526020016000206000858152602001908152602001600020548154811061525757fe5b90600052602060002001819055506152f8565b600b60008973ffffffffffffffffffffffffffffffffffffffff1673ffffffffffffffffffffffffffffffffffffffff16815260200190815260200160002060008381526020019081526020016000208784815181106152c657fe5b602002602001015190806001815401808255809150509060018203906000526020600020016000909192909190915055505b61535c6001600a60008b73ffffffffffffffffffffffffffffffffffffffff1673ffffffffffffffffffffffffffffffffffffffff16815260200190815260200160002060008581526020019081526020016000205461475e90919063ffffffff16565b600c60008a73ffffffffffffffffffffffffffffffffffffffff1673ffffffffffffffffffffffffffffffffffffffff16815260200190815260200160002060008986815181106153a957fe5b60200260200101518152602001908152602001600020819055506154276001600a60008b73ffffffffffffffffffffffffffffffffffffffff1673ffffffffffffffffffffffffffffffffffffffff16815260200190815260200160002060008581526020019081526020016000205461475e90919063ffffffff16565b600a60008a73ffffffffffffffffffffffffffffffffffffffff1673ffffffffffffffffffffffffffffffffffffffff16815260200190815260200160002060008481526020019081526020016000208190555061549281856000015461475e90919063ffffffff16565b84600001819055506154af81600f5461475e90919063ffffffff16565b600f819055506154cd6001856003015461475e90919063ffffffff16565b84600301819055506154eb600160105461475e90919063ffffffff16565b6010819055508773ffffffffffffffffffffffffffffffffffffffff167f33aa0c1c861f8f0c84013ce481b20f5acf9dd13258c4dfe9d02108922c03ef813089868151811061553657fe5b6020026020010151604051808373ffffffffffffffffffffffffffffffffffffffff1673ffffffffffffffffffffffffffffffffffffffff1681526020018281526020019250505060405180910390a250508080600101915050614fd3565b506155c664e8d4a510006155b8601154846000015461464490919063ffffffff16565b6146ca90919063ffffffff16565b8160010181905550601e60008673ffffffffffffffffffffffffffffffffffffffff1673ffffffffffffffffffffffffffffffffffffffff16815260200190815260200160002060009054906101000a900460ff166156de576001601e60008773ffffffffffffffffffffffffffffffffffffffff1673ffffffffffffffffffffffffffffffffffffffff16815260200190815260200160002060006101000a81548160ff021916908315150217905550601f8590806001815401808255809150509060018203906000526020600020016000909192909190916101000a81548173ffffffffffffffffffffffffffffffffffffffff021916908373ffffffffffffffffffffffffffffffffffffffff160217905550505b5050505050565b600073ffffffffffffffffffffffffffffffffffffffff16601a60009054906101000a900473ffffffffffffffffffffffffffffffffffffffff1673ffffffffffffffffffffffffffffffffffffffff16141561578d576040517f08c379a00000000000000000000000000000000000000000000000000000000081526004018080602001828103825260228152602001806159f76022913960400191505060405180910390fd5b60006157b760646157a9601b548561464490919063ffffffff16565b6146ca90919063ffffffff16565b90506157ce8160165461475e90919063ffffffff16565b6016819055506157e98160175461475e90919063ffffffff16565b601781905550615816615805828461471490919063ffffffff16565b60185461475e90919063ffffffff16565b601881905550615843615832828461471490919063ffffffff16565b60195461475e90919063ffffffff16565b6019819055505050565b600080831182906158f9576040517f08c379a00000000000000000000000000000000000000000000000000000000081526004018080602001828103825283818151815260200191508051906020019080838360005b838110156158be5780820151818401526020810190506158a3565b50505050905090810190601f1680156158eb5780820380516001836020036101000a031916815260200191505b509250505060405180910390fd5b50600083858161590557fe5b049050809150509392505050565b60008383111582906159c0576040517f08c379a00000000000000000000000000000000000000000000000000000000081526004018080602001828103825283818151815260200191508051906020019080838360005b8381101561598557808201518184015260208101905061596a565b50505050905090810190601f1680156159b25780820380516001836020036101000a031916815260200191505b509250505060405180910390fd5b5060008385039050809150509392505050565b60405180610c80016040528060649060208202803883398082019150509050509056fe436f6e666953616c653a2064657641646472206973207a65726f20616464726573734d6f6f6e537761703a206163636f756e744c697374206f7574206f662072616e67654f776e61626c653a206e6577206f776e657220697320746865207a65726f2061646472657373536166654d6174683a206d756c7469706c69636174696f6e206f766572666c6f77a265627a7a72315820c1ab552a6e11c2d29ecc0b6e8af3df493a88f251d6b424f23769dbcd8b80f6a464736f6c63430005100032",
  "source": "pragma solidity =0.5.16;\n\nimport \"@openzeppelin/contracts/math/SafeMath.sol\";\nimport \"@openzeppelin/contracts/introspection/IERC1820Registry.sol\";\nimport \"@openzeppelin/contracts/token/ERC777/IERC777Recipient.sol\";\nimport \"@openzeppelin/contracts/utils/Address.sol\";\nimport \"@openzeppelin/contracts/ownership/Ownable.sol\";\nimport \"@openzeppelin/contracts/token/ERC777/IERC777.sol\";\nimport \"@openzeppelin/contracts/token/ERC20/IERC20.sol\";\nimport \"@openzeppelin/contracts/token/ERC20/SafeERC20.sol\";\nimport \"./Pauseable.sol\";\nimport './SponsorWhitelistControl.sol';\nimport './libraries/Math.sol';\nimport './interfaces/IERC1155TokenReceiver.sol';\nimport './interfaces/IConfiNFT.sol';\n\n\ncontract ConfiSale is Ownable, Pauseable, IERC777Recipient, IERC1155TokenReceiver{\n    using SafeMath for uint256;\n    using SafeERC20 for IERC20;\n\n    SponsorWhitelistControl constant public SPONSOR = SponsorWhitelistControl(address(0x0888000000000000000000000000000000000001));\n    IERC1820Registry private _erc1820 = IERC1820Registry(0x866aCA87FF33a0ae05D2164B3D999A804F583222);\n    // keccak256(\"ERC777TokensRecipient\")\n    bytes32 constant private TOKENS_RECIPIENT_INTERFACE_HASH =\n      0xb281fc8c12954d22544db45de3159a39272895b169a852b314f9cc762e44c53b;\n\n    mapping(uint256 => bool) public confiStls; // confi tokenId status list\n    uint256[] public confiIds; // confi tokenId list\n    uint256 public confiSupply;\n    address public confi;\n    uint256 public multipleCategoryId;\n    uint256 public multiple;\n    address public cMoonToken;\n\n    struct UserInfo {\n      uint256 weight; // calc weight\n      uint256 rewardDebt;\n      uint256 balance;\n      uint256 number; //user stake number\n    }\n\n    // userAddr => catId =>\n    mapping(address => mapping(uint256 => uint256)) public userStakeCounts;\n    mapping(address => mapping(uint256 => uint256[])) public userStakeConfi;\n    // from 1 start\n    mapping(address => mapping(uint256 => uint256)) userConfiIndexes;\n    mapping(uint256 => uint256) public confiCategories;\n\n    mapping(address => UserInfo) public userInfo;\n    // calc reward\n    uint256 public totalWeight;\n    uint256 public totalNumber; // total stake number\n    uint256 public accTokenPerShare;\n    uint256 public lastRewardBlock;\n    uint256 public intervalBlock; // reward interval block num\n    // buy stage\n    struct Stage {\n      uint256 stageNo;\n      uint256 total;\n      uint256 balance;\n      bool isOpen;\n      uint256 price;\n    }\n    mapping(uint256 => Stage) public stages;\n\n    uint256 public stageNo;\n    uint256 public totalPoolAmount;\n    uint256 public poolBalance;\n    uint256 public totalDevAmount;\n    uint256 public devBalance;\n    address public devAddr;\n    uint256 public rewardRatio;\n    uint256 public apyRatio; // 0.01%\n    bool public outEnable; // game end open harvest\n\n    mapping (address => bool) private _accountCheck;\n    address[] private _accountList;\n\n    // event\n    event TokenTransfer(address indexed tokenAddress, address indexed from, address to, uint256 value);\n    event uploadNFTEvent(address indexed from, uint256 count);\n    event TokenBuy(address indexed from, address to, uint256 tokenId, uint256 value);\n    event TokenStake(address indexed from, address to, uint256 tokenId);\n    event TokenUnStake(address indexed from, address to, uint256 tokenId);\n\n    constructor(\n          address _confi,\n          address _cMoonToken,\n          address _devAddr\n      ) public {\n          confi = _confi;\n          cMoonToken = _cMoonToken;\n          devAddr = _devAddr;\n\n          rewardRatio = 30; // 30% to pool reward\n          multiple = 20;\n          multipleCategoryId = 6;\n          apyRatio = 2;\n          intervalBlock = 120;\n\n          outEnable = false;\n\n          _erc1820.setInterfaceImplementer(address(this), TOKENS_RECIPIENT_INTERFACE_HASH, address(this));\n\n          // register all users as sponsees\n          address[] memory users = new address[](1);\n          users[0] = address(0);\n          SPONSOR.add_privilege(users);\n    }\n\n    // functions\n    // 0x7a280947\n    function _uploadNFT(address _from, uint256[] memory _ids, uint256[] memory _amounts) internal {\n      require(_ids.length == _amounts.length, \"ConfiSale: INVALID_ARRAYS_LENGTH\");\n      uint256 range = _ids.length;\n\n      for(uint256 i = 0; i < range; i ++){\n        if(confiStls[_ids[i]]){\n          continue;\n        }\n        if(confiIds.length > confiSupply){\n          confiIds[confiSupply] = _ids[i];\n        }else{\n            confiIds.push(_ids[i]);\n        }\n        confiStls[_ids[i]] = true;\n        confiSupply = confiSupply.add(1);\n      }\n\n      emit uploadNFTEvent(_from, range);\n    }\n\n    function confiIdsLength() external view returns(uint256) {\n      return confiIds.length;\n    }\n\n    function setStageNo(uint256 _stageNo) external onlyOwner {\n      stageNo = _stageNo;\n    }\n\n    function initStage(uint256 _stageNo, uint256 _total, bool _isOpen, uint256 _price) external onlyOwner {\n        Stage storage _stage = stages[_stageNo];\n        require(_stage.stageNo == 0, \"ConfiSale: stageNo exists\");\n        stages[_stageNo] = Stage({\n            stageNo: _stageNo,\n            total: _total,\n            balance: _total,\n            isOpen: _isOpen,\n            price: _price\n        });\n    }\n\n    function setMultiple(uint256 _catId, uint256 _multiple) external onlyOwner {\n        require(_catId > 0, \"ConfiSale: catId is zero\");\n        multipleCategoryId = _catId;\n        multiple = _multiple;\n    }\n\n    function updateTotal(uint256 _stageNo, uint256 _count, bool isAdd) external onlyOwner {\n      Stage storage _stage = stages[_stageNo];\n      require(_stage.stageNo > 0, \"ConfiSale: stageNo not exists\");\n      if(isAdd){\n        _stage.total = _stage.total.add(_count);\n        _stage.balance = _stage.balance.add(_count);\n      }else{\n        _stage.total = _stage.total.sub(_count);\n        _stage.balance = _stage.balance.sub(_count);\n      }\n    }\n\n    function updatePrice(uint256 _stageNo, uint256 _price) external onlyOwner {\n      Stage storage _stage = stages[_stageNo];\n      require(_stage.stageNo > 0, \"ConfiSale: stageNo not exists\");\n      _stage.price = _price;\n    }\n\n    function setIsOpen(uint256 _stageNo, bool _isOpen) external onlyOwner {\n      Stage storage _stage = stages[_stageNo];\n      require(_stage.stageNo > 0, \"ConfiSale: stageNo not exists\");\n      _stage.isOpen = _isOpen;\n    }\n\n    function setRewardRatio(uint256 _rewardRatio) external onlyOwner {\n        rewardRatio = _rewardRatio;\n    }\n\n    function setApyRatio(uint256 _apyRatio) external onlyOwner {\n        apyRatio = _apyRatio;\n    }\n\n    // user\n    function _buy(address _from, uint256 _amount) internal {\n      require(stageNo > 0, \"ConfiSale: no stage start\");\n      Stage storage _stage = stages[stageNo];\n      require(_stage.stageNo > 0, \"ConfiSale: stageNo not exists\");\n      require(_stage.price == _amount, \"ConfiSale: pay amount is invalid\");\n      require(_stage.isOpen, \"ConfiSale: stage no open\");\n      require(_stage.balance > 0, \"ConfiSale: balance is no enough\");\n      require(confiSupply > 0, \"ConfiSale: nft supply no enough\");\n\n      _poolLogic();\n      _stage.balance = _stage.balance.sub(1);\n      // random assign tokenId`\n      uint256 _index = _seed(_from, confiSupply);\n      uint256 _tokenId = confiIds[_index];\n      confiIds[_index] = confiIds[confiSupply - 1];\n      delete confiIds[confiSupply - 1];\n      confiSupply = confiSupply.sub(1);\n      _poolAssign(_amount);\n      _safeNFTTransfer(_from, _tokenId);\n\n      emit TokenBuy(address(this), _from, _tokenId, _amount);\n    }\n\n    function unstakeById(uint256 _id) external whenPaused {\n        uint256 _catId = _getCatId(_id);\n        uint256 _stakeCount = userStakeCounts[msg.sender][_catId];\n        require(_id > 0, \"ConfiSale: unstake id invalid\");\n        require(_stakeCount > 0, \"ConfiSale: no confi\");\n        require(userConfiIndexes[msg.sender][_id] > 0, \"ConfiSale: no stake\");\n        _poolLogic();\n        uint256 _weight = _getMultiple(_catId);\n        UserInfo storage user = userInfo[msg.sender];\n        uint256 pending = user.weight.mul(accTokenPerShare).div(1e12).sub(user.rewardDebt);\n        user.balance = user.balance.add(pending);\n\n        // From the back forward\n        user.weight = user.weight.sub(_weight);\n        user.number = user.number.sub(1);\n        totalWeight = totalWeight.sub(_weight);\n        totalNumber = totalNumber.sub(1);\n        user.rewardDebt = user.weight.mul(accTokenPerShare).div(1e12);\n        userStakeCounts[msg.sender][_catId] = userStakeCounts[msg.sender][_catId].sub(1);\n\n        uint256 _posIndex = userConfiIndexes[msg.sender][_id];\n        require(_id == userStakeConfi[msg.sender][_catId][_posIndex - 1], \"ConfiSale: invalid TokenId\");\n        if(_posIndex == _stakeCount){\n          delete userStakeConfi[msg.sender][_catId][_stakeCount - 1];\n        }else{\n          userStakeConfi[msg.sender][_catId][_posIndex - 1] = userStakeConfi[msg.sender][_catId][_stakeCount - 1];\n          delete userStakeConfi[msg.sender][_catId][_stakeCount - 1];\n          userConfiIndexes[msg.sender][userStakeConfi[msg.sender][_catId][_posIndex - 1]] = _posIndex;\n        }\n\n        _safeNFTTransfer(msg.sender, _id);\n\n        emit TokenUnStake(address(this), msg.sender, _id);\n    }\n\n    function uploadConfiCategory(uint256[] calldata _ids) external onlyOwner {\n\n      uint256 range = _ids.length;\n      for(uint256 i = 0; i < range; i ++){\n        uint256 _catId = _getCatId(_ids[i]);\n        confiCategories[_ids[i]] = _catId;\n      }\n    }\n\n    //  stake\n    function _stake(address _from, uint256[] memory _ids, uint256[] memory _amounts) internal {\n        require(_ids.length == _amounts.length, \"ConfiSale: INVALID_ARRAYS_LENGTH\");\n        require(totalPoolAmount > 0, \"ConfiSale: on start\");\n        uint256 range = _ids.length;\n        UserInfo storage user = userInfo[_from];\n        _poolLogic();\n        // harvest\n        if(user.weight > 0){\n          uint256 pending = user.weight.mul(accTokenPerShare).div(1e12).sub(user.rewardDebt);\n          user.balance = user.balance.add(pending);\n        }\n\n        require(user.number.add(_ids.length) < 500, \"ConfiSale: max is overflow\");\n\n        // stake\n        for(uint256 i = 0; i < range; i ++){\n            if(!confiStls[_ids[i]]){\n              revert(\"ConfiSale: no sale confi\");\n            }\n            uint256 _catId = 1;\n            if(confiCategories[_ids[i]] > 0){\n                _catId = confiCategories[_ids[i]];\n            }\n\n            uint256 _weight = _getMultiple(_catId);\n\n            if(userStakeConfi[_from][_catId].length > userStakeCounts[_from][_catId]){\n                userStakeConfi[_from][_catId][userStakeCounts[_from][_catId]] = _ids[i];\n            }else{\n              userStakeConfi[_from][_catId].push(_ids[i]);\n            }\n\n            userConfiIndexes[_from][_ids[i]] = userStakeCounts[_from][_catId].add(1);\n            userStakeCounts[_from][_catId] = userStakeCounts[_from][_catId].add(1);\n            user.weight = user.weight.add(_weight);\n            totalWeight = totalWeight.add(_weight);\n            user.number = user.number.add(1);\n            totalNumber = totalNumber.add(1);\n\n            emit TokenStake(_from, address(this), _ids[i]);\n        }\n        // cacl deposit part\n        user.rewardDebt = user.weight.mul(accTokenPerShare).div(1e12);\n\n        // data migration\n        if (!_accountCheck[_from]) {\n            _accountCheck[_from] = true;\n            _accountList.push(_from);\n        }\n    }\n\n    function _getMultiple(uint256 _catId) internal view returns(uint256) {\n        if(_catId == multipleCategoryId){\n          return multiple;\n        }else{\n          return 1;\n        }\n    }\n\n\n    function _getCatId(uint256 _id) internal view returns(uint256){\n      uint256 _catId = IConfiNFT(confi).categoryOf(_id);\n      return _catId;\n    }\n\n    function harvest() external whenPaused {\n      UserInfo storage user = userInfo[msg.sender];\n      require(user.weight > 0, \"ConfiSale: weight is zero\");\n      require(outEnable, \"confiSale: outEnable is closed\");\n      _poolLogic();\n      uint256 pending = user.weight.mul(accTokenPerShare).div(1e12).sub(user.rewardDebt);\n      pending = user.balance.add(pending);\n      user.rewardDebt = user.weight.mul(accTokenPerShare).div(1e12);\n      user.balance = 0;\n      poolBalance = poolBalance.sub(pending);\n      if(pending > 0){\n        _safeTokenTransfer(msg.sender, pending);\n      }\n    }\n\n    function devWithdraw(uint256 _amount) external {\n      require(_amount <= devBalance, \"confiSale: balance insufficient\");\n      devBalance = devBalance.sub(_amount);\n      _safeTokenTransfer(devAddr, _amount);\n    }\n\n    function pendingToken(address _user) external view returns(uint256) {\n      UserInfo storage user = userInfo[_user];\n      uint256 _accTokenPerShare = accTokenPerShare;\n      if (block.number > lastRewardBlock && totalWeight > 0) {\n          uint256 shareReward = poolBalance\n              .mul(block.number.sub(lastRewardBlock).div(intervalBlock))\n              .mul(apyRatio)\n              .div(10000);\n\n          _accTokenPerShare = _accTokenPerShare.add(shareReward.mul(1e12).div(totalWeight));\n      }\n\n      uint256 pending = user.weight.mul(_accTokenPerShare).div(1e12).sub(user.rewardDebt);\n      return user.balance.add(pending);\n    }\n\n    // limit confi token\n    function retrieve(address _to, uint256 _count) external onlyOwner {\n      if(_count > confiSupply) {\n        _count = confiSupply;\n      }\n\n      for(uint256 i = 1; i <= _count; i ++){\n          uint256 _tokenId = confiIds[confiSupply - 1];\n          confiStls[_tokenId] = false;\n          delete confiIds[confiSupply - 1];\n          confiSupply = confiSupply.sub(1);\n          _safeNFTTransfer(_to, _tokenId);\n      }\n    }\n\n    function forceRetrieve(address _to, uint256 _tokenId) external onlyOwner{\n        if(confiSupply > 0){\n          confiSupply = confiSupply.sub(1);\n        }\n        confiStls[_tokenId] = false;\n        _safeNFTTransfer(_to, _tokenId);\n    }\n\n    function _poolLogic() internal {\n      if(poolBalance == 0){\n        lastRewardBlock = block.number;\n        return;\n      }\n      if(intervalBlock == 0){\n        return;\n      }\n      if(intervalBlock > block.number){\n        return;\n      }\n      if(block.number.sub(intervalBlock) <= lastRewardBlock){\n        return;\n      }\n      if(totalWeight == 0){\n        lastRewardBlock = block.number;\n        return;\n      }\n\n      uint256 _times = block.number.sub(lastRewardBlock).div(intervalBlock);\n      uint256 shareReward = poolBalance\n            .mul(_times)\n            .mul(apyRatio)\n            .div(10000);\n      poolBalance = poolBalance.sub(shareReward);\n      accTokenPerShare = accTokenPerShare.add(shareReward.mul(1e12).div(totalWeight));\n      lastRewardBlock = lastRewardBlock.add(intervalBlock.mul(_times));\n    }\n\n    function _poolAssign(uint256 _amount) internal {\n      require(devAddr != address(0), \"ConfiSale: devAddr is zero address\");\n      uint256 _reward = _amount.mul(rewardRatio).div(100);\n      totalPoolAmount = totalPoolAmount.add(_reward);\n      poolBalance = poolBalance.add(_reward);\n      totalDevAmount = totalDevAmount.add(_amount.sub(_reward));\n      devBalance = devBalance.add(_amount.sub(_reward));\n    }\n\n    function _seed(address _user, uint256 _confiSupply) public view returns (uint256) {\n        return uint256(\n            uint256(keccak256(abi.encodePacked(_user, block.number, block.timestamp, block.difficulty))) % _confiSupply\n        );\n    }\n\n    function _safeNFTTransfer(address _to, uint256 _id) internal {\n        IConfiNFT(confi).safeTransferFrom(address(this), _to, _id, 1, '');\n    }\n\n    function _safeTokenTransfer(address _to, uint256 _amount) internal {\n        uint256 tokenBal = IERC20(cMoonToken).balanceOf(address(this));\n        require(_amount <= tokenBal, \"ConfiSale: cMoon insufficient\");\n        IERC20(cMoonToken).transfer(_to, _amount);\n    }\n\n    function onERC1155Received(\n          address _operator,\n          address _from,\n          uint256 _id,\n          uint256 _amount,\n          bytes calldata _data) external returns(bytes4){\n\n          require(msg.sender == confi, \"ConfiSale: only receive confi\");\n          uint256[] memory _ids;\n          _ids[0] = _id;\n          uint256[] memory _amounts;\n          _amounts[0] = _amount;\n          if(_data[0] == 0x01) {\n            //\n            _uploadNFT(_from, _ids, _amounts);\n          }else{\n            _stake(_from, _ids, _amounts);\n          }\n\n          return 0xf23a6e61;\n    }\n\n    function onERC1155BatchReceived(\n          address _operator,\n          address _from,\n          uint256[] calldata _ids,\n          uint256[] calldata _amounts,\n          bytes calldata _data) external returns(bytes4){\n\n          require(msg.sender == confi, \"ConfiSale: only receive confi\");\n          if(_data[0] == 0x01) {\n            // uploadNFT\n            _uploadNFT(_from, _ids, _amounts);\n          }else{\n            // stake\n            _stake(_from, _ids, _amounts);\n          }\n\n          return 0xbc197c81;\n    }\n\n    // erc777 receiveToken\n    function tokensReceived(address operator, address from, address to, uint amount,\n          bytes calldata userData,\n          bytes calldata operatorData) external {\n\n          require(msg.sender == cMoonToken, \"ConfiSale: only receive cMoon\");\n          _buy(from, amount);\n          emit TokenTransfer(msg.sender, from, to, amount);\n    }\n\n    function setDevAddr(address _devAddr) external onlyOwner {\n        devAddr = _devAddr;\n    }\n\n    function setOutEnable(bool _outEnable) external onlyOwner {\n       outEnable = _outEnable;\n    }\n\n    //---------------- Data Migration ----------------------\n    function accountTotal() public view returns (uint256) {\n       return _accountList.length;\n    }\n\n    function accountList(uint256 begin) public view returns (address[100] memory) {\n        require(begin >= 0 && begin < _accountList.length, \"MoonSwap: accountList out of range\");\n        address[100] memory res;\n        uint256 range = Math.min(_accountList.length, begin.add(100));\n        for (uint256 i = begin; i < range; i++) {\n            res[i-begin] = _accountList[i];\n        }\n        return res;\n    }\n}\n",
  "sourcePath": "/Users/junhuazhou/Documents/GitHub/moonswap-amm/contracts/ConfiSale.sol",
  "compiler": {
    "name": "solc",
    "version": "0.5.16+commit.9c3226ce.Emscripten.clang"
  },
  "schemaVersion": "3.2.0",
  "updatedAt": "2020-10-16T07:28:46.018Z",
  "devdoc": {
    "methods": {
      "isOwner()": {
        "details": "Returns true if the caller is the current owner."
      },
      "owner()": {
        "details": "Returns the address of the current owner."
      },
      "renounceOwnership()": {
        "details": "Leaves the contract without owner. It will not be possible to call `onlyOwner` functions anymore. Can only be called by the current owner.     * NOTE: Renouncing ownership will leave the contract without an owner, thereby removing any functionality that is only available to the owner."
      }
    }
  },
  "userdoc": {
    "methods": {}
  }
}