{
  "contractName": "ConfiSale",
  "abi": [
    {
      "inputs": [
        {
          "internalType": "address",
          "name": "_confi",
          "type": "address"
        },
        {
          "internalType": "address",
          "name": "_cMoonToken",
          "type": "address"
        },
        {
          "internalType": "address",
          "name": "_devAddr",
          "type": "address"
        }
      ],
      "payable": false,
      "stateMutability": "nonpayable",
      "type": "constructor"
    },
    {
      "anonymous": false,
      "inputs": [
        {
          "indexed": true,
          "internalType": "address",
          "name": "previousOwner",
          "type": "address"
        },
        {
          "indexed": true,
          "internalType": "address",
          "name": "newOwner",
          "type": "address"
        }
      ],
      "name": "OwnershipTransferred",
      "type": "event"
    },
    {
      "anonymous": false,
      "inputs": [
        {
          "indexed": true,
          "internalType": "address",
          "name": "from",
          "type": "address"
        },
        {
          "indexed": false,
          "internalType": "bool",
          "name": "originalPause",
          "type": "bool"
        },
        {
          "indexed": false,
          "internalType": "bool",
          "name": "newPause",
          "type": "bool"
        }
      ],
      "name": "SetPaused",
      "type": "event"
    },
    {
      "anonymous": false,
      "inputs": [
        {
          "indexed": true,
          "internalType": "address",
          "name": "from",
          "type": "address"
        },
        {
          "indexed": false,
          "internalType": "address",
          "name": "to",
          "type": "address"
        },
        {
          "indexed": false,
          "internalType": "uint256",
          "name": "tokenId",
          "type": "uint256"
        },
        {
          "indexed": false,
          "internalType": "uint256",
          "name": "value",
          "type": "uint256"
        }
      ],
      "name": "TokenBuy",
      "type": "event"
    },
    {
      "anonymous": false,
      "inputs": [
        {
          "indexed": true,
          "internalType": "address",
          "name": "from",
          "type": "address"
        },
        {
          "indexed": false,
          "internalType": "address",
          "name": "to",
          "type": "address"
        },
        {
          "indexed": false,
          "internalType": "uint256",
          "name": "tokenId",
          "type": "uint256"
        }
      ],
      "name": "TokenStake",
      "type": "event"
    },
    {
      "anonymous": false,
      "inputs": [
        {
          "indexed": true,
          "internalType": "address",
          "name": "tokenAddress",
          "type": "address"
        },
        {
          "indexed": true,
          "internalType": "address",
          "name": "from",
          "type": "address"
        },
        {
          "indexed": false,
          "internalType": "address",
          "name": "to",
          "type": "address"
        },
        {
          "indexed": false,
          "internalType": "uint256",
          "name": "value",
          "type": "uint256"
        }
      ],
      "name": "TokenTransfer",
      "type": "event"
    },
    {
      "anonymous": false,
      "inputs": [
        {
          "indexed": true,
          "internalType": "address",
          "name": "from",
          "type": "address"
        },
        {
          "indexed": false,
          "internalType": "address",
          "name": "to",
          "type": "address"
        },
        {
          "indexed": false,
          "internalType": "uint256",
          "name": "tokenId",
          "type": "uint256"
        }
      ],
      "name": "TokenUnStake",
      "type": "event"
    },
    {
      "anonymous": false,
      "inputs": [
        {
          "indexed": true,
          "internalType": "address",
          "name": "from",
          "type": "address"
        },
        {
          "indexed": false,
          "internalType": "uint256",
          "name": "count",
          "type": "uint256"
        }
      ],
      "name": "uploadNFTEvent",
      "type": "event"
    },
    {
      "constant": true,
      "inputs": [],
      "name": "SPONSOR",
      "outputs": [
        {
          "internalType": "contract SponsorWhitelistControl",
          "name": "",
          "type": "address"
        }
      ],
      "payable": false,
      "stateMutability": "view",
      "type": "function"
    },
    {
      "constant": true,
      "inputs": [],
      "name": "accTokenPerShare",
      "outputs": [
        {
          "internalType": "uint256",
          "name": "",
          "type": "uint256"
        }
      ],
      "payable": false,
      "stateMutability": "view",
      "type": "function"
    },
    {
      "constant": true,
      "inputs": [],
      "name": "apyRatio",
      "outputs": [
        {
          "internalType": "uint256",
          "name": "",
          "type": "uint256"
        }
      ],
      "payable": false,
      "stateMutability": "view",
      "type": "function"
    },
    {
      "constant": true,
      "inputs": [],
      "name": "cMoonToken",
      "outputs": [
        {
          "internalType": "address",
          "name": "",
          "type": "address"
        }
      ],
      "payable": false,
      "stateMutability": "view",
      "type": "function"
    },
    {
      "constant": true,
      "inputs": [],
      "name": "confi",
      "outputs": [
        {
          "internalType": "address",
          "name": "",
          "type": "address"
        }
      ],
      "payable": false,
      "stateMutability": "view",
      "type": "function"
    },
    {
      "constant": true,
      "inputs": [
        {
          "internalType": "uint256",
          "name": "",
          "type": "uint256"
        }
      ],
      "name": "confiCategories",
      "outputs": [
        {
          "internalType": "uint256",
          "name": "",
          "type": "uint256"
        }
      ],
      "payable": false,
      "stateMutability": "view",
      "type": "function"
    },
    {
      "constant": true,
      "inputs": [
        {
          "internalType": "uint256",
          "name": "",
          "type": "uint256"
        }
      ],
      "name": "confiIds",
      "outputs": [
        {
          "internalType": "uint256",
          "name": "",
          "type": "uint256"
        }
      ],
      "payable": false,
      "stateMutability": "view",
      "type": "function"
    },
    {
      "constant": true,
      "inputs": [
        {
          "internalType": "uint256",
          "name": "",
          "type": "uint256"
        }
      ],
      "name": "confiStls",
      "outputs": [
        {
          "internalType": "bool",
          "name": "",
          "type": "bool"
        }
      ],
      "payable": false,
      "stateMutability": "view",
      "type": "function"
    },
    {
      "constant": true,
      "inputs": [],
      "name": "confiSupply",
      "outputs": [
        {
          "internalType": "uint256",
          "name": "",
          "type": "uint256"
        }
      ],
      "payable": false,
      "stateMutability": "view",
      "type": "function"
    },
    {
      "constant": true,
      "inputs": [],
      "name": "devAddr",
      "outputs": [
        {
          "internalType": "address",
          "name": "",
          "type": "address"
        }
      ],
      "payable": false,
      "stateMutability": "view",
      "type": "function"
    },
    {
      "constant": true,
      "inputs": [],
      "name": "devBalance",
      "outputs": [
        {
          "internalType": "uint256",
          "name": "",
          "type": "uint256"
        }
      ],
      "payable": false,
      "stateMutability": "view",
      "type": "function"
    },
    {
      "constant": true,
      "inputs": [],
      "name": "getPause",
      "outputs": [
        {
          "internalType": "bool",
          "name": "",
          "type": "bool"
        }
      ],
      "payable": false,
      "stateMutability": "view",
      "type": "function"
    },
    {
      "constant": true,
      "inputs": [],
      "name": "intervalBlock",
      "outputs": [
        {
          "internalType": "uint256",
          "name": "",
          "type": "uint256"
        }
      ],
      "payable": false,
      "stateMutability": "view",
      "type": "function"
    },
    {
      "constant": true,
      "inputs": [],
      "name": "isOwner",
      "outputs": [
        {
          "internalType": "bool",
          "name": "",
          "type": "bool"
        }
      ],
      "payable": false,
      "stateMutability": "view",
      "type": "function"
    },
    {
      "constant": true,
      "inputs": [],
      "name": "lastRewardBlock",
      "outputs": [
        {
          "internalType": "uint256",
          "name": "",
          "type": "uint256"
        }
      ],
      "payable": false,
      "stateMutability": "view",
      "type": "function"
    },
    {
      "constant": true,
      "inputs": [],
      "name": "multiple",
      "outputs": [
        {
          "internalType": "uint256",
          "name": "",
          "type": "uint256"
        }
      ],
      "payable": false,
      "stateMutability": "view",
      "type": "function"
    },
    {
      "constant": true,
      "inputs": [],
      "name": "multipleCategoryId",
      "outputs": [
        {
          "internalType": "uint256",
          "name": "",
          "type": "uint256"
        }
      ],
      "payable": false,
      "stateMutability": "view",
      "type": "function"
    },
    {
      "constant": true,
      "inputs": [],
      "name": "outEnable",
      "outputs": [
        {
          "internalType": "bool",
          "name": "",
          "type": "bool"
        }
      ],
      "payable": false,
      "stateMutability": "view",
      "type": "function"
    },
    {
      "constant": true,
      "inputs": [],
      "name": "owner",
      "outputs": [
        {
          "internalType": "address",
          "name": "",
          "type": "address"
        }
      ],
      "payable": false,
      "stateMutability": "view",
      "type": "function"
    },
    {
      "constant": true,
      "inputs": [],
      "name": "poolBalance",
      "outputs": [
        {
          "internalType": "uint256",
          "name": "",
          "type": "uint256"
        }
      ],
      "payable": false,
      "stateMutability": "view",
      "type": "function"
    },
    {
      "constant": false,
      "inputs": [],
      "name": "renounceOwnership",
      "outputs": [],
      "payable": false,
      "stateMutability": "nonpayable",
      "type": "function"
    },
    {
      "constant": true,
      "inputs": [],
      "name": "rewardRatio",
      "outputs": [
        {
          "internalType": "uint256",
          "name": "",
          "type": "uint256"
        }
      ],
      "payable": false,
      "stateMutability": "view",
      "type": "function"
    },
    {
      "constant": false,
      "inputs": [
        {
          "internalType": "bool",
          "name": "isPause",
          "type": "bool"
        }
      ],
      "name": "setPause",
      "outputs": [],
      "payable": false,
      "stateMutability": "nonpayable",
      "type": "function"
    },
    {
      "constant": true,
      "inputs": [],
      "name": "stageNo",
      "outputs": [
        {
          "internalType": "uint256",
          "name": "",
          "type": "uint256"
        }
      ],
      "payable": false,
      "stateMutability": "view",
      "type": "function"
    },
    {
      "constant": true,
      "inputs": [
        {
          "internalType": "uint256",
          "name": "",
          "type": "uint256"
        }
      ],
      "name": "stages",
      "outputs": [
        {
          "internalType": "uint256",
          "name": "stageNo",
          "type": "uint256"
        },
        {
          "internalType": "uint256",
          "name": "total",
          "type": "uint256"
        },
        {
          "internalType": "uint256",
          "name": "balance",
          "type": "uint256"
        },
        {
          "internalType": "bool",
          "name": "isOpen",
          "type": "bool"
        },
        {
          "internalType": "uint256",
          "name": "price",
          "type": "uint256"
        }
      ],
      "payable": false,
      "stateMutability": "view",
      "type": "function"
    },
    {
      "constant": true,
      "inputs": [],
      "name": "totalDevAmount",
      "outputs": [
        {
          "internalType": "uint256",
          "name": "",
          "type": "uint256"
        }
      ],
      "payable": false,
      "stateMutability": "view",
      "type": "function"
    },
    {
      "constant": true,
      "inputs": [],
      "name": "totalNumber",
      "outputs": [
        {
          "internalType": "uint256",
          "name": "",
          "type": "uint256"
        }
      ],
      "payable": false,
      "stateMutability": "view",
      "type": "function"
    },
    {
      "constant": true,
      "inputs": [],
      "name": "totalPoolAmount",
      "outputs": [
        {
          "internalType": "uint256",
          "name": "",
          "type": "uint256"
        }
      ],
      "payable": false,
      "stateMutability": "view",
      "type": "function"
    },
    {
      "constant": true,
      "inputs": [],
      "name": "totalWeight",
      "outputs": [
        {
          "internalType": "uint256",
          "name": "",
          "type": "uint256"
        }
      ],
      "payable": false,
      "stateMutability": "view",
      "type": "function"
    },
    {
      "constant": false,
      "inputs": [
        {
          "internalType": "address",
          "name": "newOwner",
          "type": "address"
        }
      ],
      "name": "transferOwnership",
      "outputs": [],
      "payable": false,
      "stateMutability": "nonpayable",
      "type": "function"
    },
    {
      "constant": true,
      "inputs": [
        {
          "internalType": "address",
          "name": "",
          "type": "address"
        }
      ],
      "name": "userInfo",
      "outputs": [
        {
          "internalType": "uint256",
          "name": "weight",
          "type": "uint256"
        },
        {
          "internalType": "uint256",
          "name": "rewardDebt",
          "type": "uint256"
        },
        {
          "internalType": "uint256",
          "name": "balance",
          "type": "uint256"
        },
        {
          "internalType": "uint256",
          "name": "number",
          "type": "uint256"
        }
      ],
      "payable": false,
      "stateMutability": "view",
      "type": "function"
    },
    {
      "constant": true,
      "inputs": [
        {
          "internalType": "address",
          "name": "",
          "type": "address"
        },
        {
          "internalType": "uint256",
          "name": "",
          "type": "uint256"
        },
        {
          "internalType": "uint256",
          "name": "",
          "type": "uint256"
        }
      ],
      "name": "userStakeConfi",
      "outputs": [
        {
          "internalType": "uint256",
          "name": "",
          "type": "uint256"
        }
      ],
      "payable": false,
      "stateMutability": "view",
      "type": "function"
    },
    {
      "constant": true,
      "inputs": [
        {
          "internalType": "address",
          "name": "",
          "type": "address"
        },
        {
          "internalType": "uint256",
          "name": "",
          "type": "uint256"
        }
      ],
      "name": "userStakeCounts",
      "outputs": [
        {
          "internalType": "uint256",
          "name": "",
          "type": "uint256"
        }
      ],
      "payable": false,
      "stateMutability": "view",
      "type": "function"
    },
    {
      "constant": true,
      "inputs": [],
      "name": "confiIdsLength",
      "outputs": [
        {
          "internalType": "uint256",
          "name": "",
          "type": "uint256"
        }
      ],
      "payable": false,
      "stateMutability": "view",
      "type": "function"
    },
    {
      "constant": false,
      "inputs": [
        {
          "internalType": "uint256",
          "name": "_stageNo",
          "type": "uint256"
        }
      ],
      "name": "setStageNo",
      "outputs": [],
      "payable": false,
      "stateMutability": "nonpayable",
      "type": "function"
    },
    {
      "constant": false,
      "inputs": [
        {
          "internalType": "uint256",
          "name": "_stageNo",
          "type": "uint256"
        },
        {
          "internalType": "uint256",
          "name": "_total",
          "type": "uint256"
        },
        {
          "internalType": "bool",
          "name": "_isOpen",
          "type": "bool"
        },
        {
          "internalType": "uint256",
          "name": "_price",
          "type": "uint256"
        }
      ],
      "name": "initStage",
      "outputs": [],
      "payable": false,
      "stateMutability": "nonpayable",
      "type": "function"
    },
    {
      "constant": false,
      "inputs": [
        {
          "internalType": "uint256",
          "name": "_catId",
          "type": "uint256"
        },
        {
          "internalType": "uint256",
          "name": "_multiple",
          "type": "uint256"
        }
      ],
      "name": "setMultiple",
      "outputs": [],
      "payable": false,
      "stateMutability": "nonpayable",
      "type": "function"
    },
    {
      "constant": false,
      "inputs": [
        {
          "internalType": "uint256",
          "name": "_stageNo",
          "type": "uint256"
        },
        {
          "internalType": "uint256",
          "name": "_count",
          "type": "uint256"
        },
        {
          "internalType": "bool",
          "name": "isAdd",
          "type": "bool"
        }
      ],
      "name": "updateTotal",
      "outputs": [],
      "payable": false,
      "stateMutability": "nonpayable",
      "type": "function"
    },
    {
      "constant": false,
      "inputs": [
        {
          "internalType": "uint256",
          "name": "_stageNo",
          "type": "uint256"
        },
        {
          "internalType": "uint256",
          "name": "_price",
          "type": "uint256"
        }
      ],
      "name": "updatePrice",
      "outputs": [],
      "payable": false,
      "stateMutability": "nonpayable",
      "type": "function"
    },
    {
      "constant": false,
      "inputs": [
        {
          "internalType": "uint256",
          "name": "_stageNo",
          "type": "uint256"
        },
        {
          "internalType": "bool",
          "name": "_isOpen",
          "type": "bool"
        }
      ],
      "name": "setIsOpen",
      "outputs": [],
      "payable": false,
      "stateMutability": "nonpayable",
      "type": "function"
    },
    {
      "constant": false,
      "inputs": [
        {
          "internalType": "uint256",
          "name": "_rewardRatio",
          "type": "uint256"
        }
      ],
      "name": "setRewardRatio",
      "outputs": [],
      "payable": false,
      "stateMutability": "nonpayable",
      "type": "function"
    },
    {
      "constant": false,
      "inputs": [
        {
          "internalType": "uint256",
          "name": "_apyRatio",
          "type": "uint256"
        }
      ],
      "name": "setApyRatio",
      "outputs": [],
      "payable": false,
      "stateMutability": "nonpayable",
      "type": "function"
    },
    {
      "constant": false,
      "inputs": [
        {
          "internalType": "uint256",
          "name": "_catId",
          "type": "uint256"
        },
        {
          "internalType": "uint256",
          "name": "_count",
          "type": "uint256"
        }
      ],
      "name": "unstake",
      "outputs": [],
      "payable": false,
      "stateMutability": "nonpayable",
      "type": "function"
    },
    {
      "constant": false,
      "inputs": [
        {
          "internalType": "uint256",
          "name": "_id",
          "type": "uint256"
        }
      ],
      "name": "unstakeById",
      "outputs": [],
      "payable": false,
      "stateMutability": "nonpayable",
      "type": "function"
    },
    {
      "constant": false,
      "inputs": [
        {
          "internalType": "uint256[]",
          "name": "_ids",
          "type": "uint256[]"
        }
      ],
      "name": "uploadConfiCategory",
      "outputs": [],
      "payable": false,
      "stateMutability": "nonpayable",
      "type": "function"
    },
    {
      "constant": false,
      "inputs": [],
      "name": "harvest",
      "outputs": [],
      "payable": false,
      "stateMutability": "nonpayable",
      "type": "function"
    },
    {
      "constant": false,
      "inputs": [
        {
          "internalType": "uint256",
          "name": "_amount",
          "type": "uint256"
        }
      ],
      "name": "devWithdraw",
      "outputs": [],
      "payable": false,
      "stateMutability": "nonpayable",
      "type": "function"
    },
    {
      "constant": true,
      "inputs": [
        {
          "internalType": "address",
          "name": "_user",
          "type": "address"
        }
      ],
      "name": "pendingToken",
      "outputs": [
        {
          "internalType": "uint256",
          "name": "",
          "type": "uint256"
        }
      ],
      "payable": false,
      "stateMutability": "view",
      "type": "function"
    },
    {
      "constant": false,
      "inputs": [
        {
          "internalType": "address",
          "name": "_to",
          "type": "address"
        },
        {
          "internalType": "uint256",
          "name": "_count",
          "type": "uint256"
        }
      ],
      "name": "retrieve",
      "outputs": [],
      "payable": false,
      "stateMutability": "nonpayable",
      "type": "function"
    },
    {
      "constant": false,
      "inputs": [
        {
          "internalType": "address",
          "name": "_to",
          "type": "address"
        },
        {
          "internalType": "uint256",
          "name": "_tokenId",
          "type": "uint256"
        }
      ],
      "name": "forceRetrieve",
      "outputs": [],
      "payable": false,
      "stateMutability": "nonpayable",
      "type": "function"
    },
    {
      "constant": true,
      "inputs": [
        {
          "internalType": "address",
          "name": "_user",
          "type": "address"
        },
        {
          "internalType": "uint256",
          "name": "_confiSupply",
          "type": "uint256"
        }
      ],
      "name": "_seed",
      "outputs": [
        {
          "internalType": "uint256",
          "name": "",
          "type": "uint256"
        }
      ],
      "payable": false,
      "stateMutability": "view",
      "type": "function"
    },
    {
      "constant": false,
      "inputs": [
        {
          "internalType": "address",
          "name": "_operator",
          "type": "address"
        },
        {
          "internalType": "address",
          "name": "_from",
          "type": "address"
        },
        {
          "internalType": "uint256",
          "name": "_id",
          "type": "uint256"
        },
        {
          "internalType": "uint256",
          "name": "_amount",
          "type": "uint256"
        },
        {
          "internalType": "bytes",
          "name": "_data",
          "type": "bytes"
        }
      ],
      "name": "onERC1155Received",
      "outputs": [
        {
          "internalType": "bytes4",
          "name": "",
          "type": "bytes4"
        }
      ],
      "payable": false,
      "stateMutability": "nonpayable",
      "type": "function"
    },
    {
      "constant": false,
      "inputs": [
        {
          "internalType": "address",
          "name": "_operator",
          "type": "address"
        },
        {
          "internalType": "address",
          "name": "_from",
          "type": "address"
        },
        {
          "internalType": "uint256[]",
          "name": "_ids",
          "type": "uint256[]"
        },
        {
          "internalType": "uint256[]",
          "name": "_amounts",
          "type": "uint256[]"
        },
        {
          "internalType": "bytes",
          "name": "_data",
          "type": "bytes"
        }
      ],
      "name": "onERC1155BatchReceived",
      "outputs": [
        {
          "internalType": "bytes4",
          "name": "",
          "type": "bytes4"
        }
      ],
      "payable": false,
      "stateMutability": "nonpayable",
      "type": "function"
    },
    {
      "constant": false,
      "inputs": [
        {
          "internalType": "address",
          "name": "operator",
          "type": "address"
        },
        {
          "internalType": "address",
          "name": "from",
          "type": "address"
        },
        {
          "internalType": "address",
          "name": "to",
          "type": "address"
        },
        {
          "internalType": "uint256",
          "name": "amount",
          "type": "uint256"
        },
        {
          "internalType": "bytes",
          "name": "userData",
          "type": "bytes"
        },
        {
          "internalType": "bytes",
          "name": "operatorData",
          "type": "bytes"
        }
      ],
      "name": "tokensReceived",
      "outputs": [],
      "payable": false,
      "stateMutability": "nonpayable",
      "type": "function"
    },
    {
      "constant": false,
      "inputs": [
        {
          "internalType": "address",
          "name": "_devAddr",
          "type": "address"
        }
      ],
      "name": "setDevAddr",
      "outputs": [],
      "payable": false,
      "stateMutability": "nonpayable",
      "type": "function"
    },
    {
      "constant": false,
      "inputs": [
        {
          "internalType": "bool",
          "name": "_outEnable",
          "type": "bool"
        }
      ],
      "name": "setOutEnable",
      "outputs": [],
      "payable": false,
      "stateMutability": "nonpayable",
      "type": "function"
    }
  ],
  "bytecode": "0x608060405273866aca87ff33a0ae05d2164b3d999a804f583222600260006101000a81548173ffffffffffffffffffffffffffffffffffffffff021916908373ffffffffffffffffffffffffffffffffffffffff1602179055503480156200006657600080fd5b5060405162005cd638038062005cd6833981810160405260608110156200008c57600080fd5b810190808051906020019092919080519060200190929190805190602001909291905050506000620000c36200052b60201b60201c565b9050806000806101000a81548173ffffffffffffffffffffffffffffffffffffffff021916908373ffffffffffffffffffffffffffffffffffffffff1602179055508073ffffffffffffffffffffffffffffffffffffffff16600073ffffffffffffffffffffffffffffffffffffffff167f8be0079c531659141344cd1fd0a4f28419497f9722a3daafe3b4186f6b6457e060405160405180910390a35033600160006101000a81548173ffffffffffffffffffffffffffffffffffffffff021916908373ffffffffffffffffffffffffffffffffffffffff1602179055506000600160146101000a81548160ff02191690831515021790555082600660006101000a81548173ffffffffffffffffffffffffffffffffffffffff021916908373ffffffffffffffffffffffffffffffffffffffff16021790555081600960006101000a81548173ffffffffffffffffffffffffffffffffffffffff021916908373ffffffffffffffffffffffffffffffffffffffff16021790555080601960006101000a81548173ffffffffffffffffffffffffffffffffffffffff021916908373ffffffffffffffffffffffffffffffffffffffff160217905550601e601a81905550601460088190555060066007819055506002601b8190555060786012819055506000601c60006101000a81548160ff021916908315150217905550600260009054906101000a900473ffffffffffffffffffffffffffffffffffffffff1673ffffffffffffffffffffffffffffffffffffffff166329965a1d307fb281fc8c12954d22544db45de3159a39272895b169a852b314f9cc762e44c53b60001b306040518463ffffffff1660e01b8152600401808473ffffffffffffffffffffffffffffffffffffffff1673ffffffffffffffffffffffffffffffffffffffff1681526020018381526020018273ffffffffffffffffffffffffffffffffffffffff1673ffffffffffffffffffffffffffffffffffffffff1681526020019350505050600060405180830381600087803b158015620003c457600080fd5b505af1158015620003d9573d6000803e3d6000fd5b5050505060606001604051908082528060200260200182016040528015620004105781602001602082028038833980820191505090505b5090506000816000815181106200042357fe5b602002602001019073ffffffffffffffffffffffffffffffffffffffff16908173ffffffffffffffffffffffffffffffffffffffff168152505073088800000000000000000000000000000000000173ffffffffffffffffffffffffffffffffffffffff1663fe15156c826040518263ffffffff1660e01b81526004018080602001828103825283818151815260200191508051906020019060200280838360005b83811015620004e2578082015181840152602081019050620004c5565b5050505090500192505050600060405180830381600087803b1580156200050857600080fd5b505af11580156200051d573d6000803e3d6000fd5b505050505050505062000533565b600033905090565b61579380620005436000396000f3fe608060405234801561001057600080fd5b50600436106103765760003560e01c80638f32d59b116101d3578063c3ae88b311610104578063da09c72c116100a2578063f23a6e611161007c578063f23a6e6114611104578063f2fde38b14611223578063f5bff31814611267578063f81a3c451461128557610376565b8063da09c72c14611062578063def13226146110ac578063e2a0e125146110e657610376565b8063c8ccd9fb116100de578063c8ccd9fb14610f5c578063cd9a1b6314610fbe578063cdccdc9a14610fdc578063cde10ca01461100a57610376565b8063c3ae88b314610ec2578063c543c92214610f10578063c6d20c1614610f3e57610376565b8063a0246d7411610171578063bc197c811161014b578063bc197c8114610c71578063bedb86fb14610e26578063c0daddfd14610e56578063c3a2a66514610e7457610376565b8063a0246d7414610c07578063a943600d14610c25578063a9f8d18114610c5357610376565b806396365d44116101ad57806396365d4414610b4557806396c82e5714610b63578063980851e614610b815780639e2c8a5b14610bcf57610376565b80638f32d59b14610ae75780638f54be0e14610b095780638f66291514610b2757610376565b80635429bf5e116102ad578063715018a61161024b5780637e29189a116102255780637e29189a146109e157806382367b2d14610a03578063845ddcb214610a3b5780638da5cb5b14610a9d57610376565b8063715018a6146109495780637494d47b146109535780637d0ccaad1461099757610376565b806365e4e7fe1161028757806365e4e7fe1461084b57806366e25ab41461087957806369e13306146108c35780636ebb64a21461090557610376565b80635429bf5e146107ad5780635ae29636146107cb578063646033bc1461082d57610376565b80633164547a1161031a5780633e3ca9d3116102f45780633e3ca9d314610745578063437a8ae6146107675780634641257d146107855780634f3065ff1461078f57610376565b80633164547a1461067157806332ca3129146106a1578063374043c41461070d57610376565b80631959a002116103565780631959a002146104ff5780631d073a7a1461056c57806323c48954146105b6578063243f4ac91461062f57610376565b806223de291461037b578062d9a128146104b3578063102b2098146104e1575b600080fd5b6104b1600480360360c081101561039157600080fd5b81019080803573ffffffffffffffffffffffffffffffffffffffff169060200190929190803573ffffffffffffffffffffffffffffffffffffffff169060200190929190803573ffffffffffffffffffffffffffffffffffffffff169060200190929190803590602001909291908035906020019064010000000081111561041857600080fd5b82018360208201111561042a57600080fd5b8035906020019184600183028401116401000000008311171561044c57600080fd5b90919293919293908035906020019064010000000081111561046d57600080fd5b82018360208201111561047f57600080fd5b803590602001918460018302840111640100000000831117156104a157600080fd5b90919293919293905050506112cb565b005b6104df600480360360208110156104c957600080fd5b810190808035906020019092919050505061143b565b005b6104e9611508565b6040518082815260200191505060405180910390f35b6105416004803603602081101561051557600080fd5b81019080803573ffffffffffffffffffffffffffffffffffffffff16906020019092919050505061150e565b6040518085815260200184815260200183815260200182815260200194505050505060405180910390f35b61057461153e565b604051808273ffffffffffffffffffffffffffffffffffffffff1673ffffffffffffffffffffffffffffffffffffffff16815260200191505060405180910390f35b61062d600480360360208110156105cc57600080fd5b81019080803590602001906401000000008111156105e957600080fd5b8201836020820111156105fb57600080fd5b8035906020019184602083028401116401000000008311171561061d57600080fd5b9091929391929390505050611556565b005b61065b6004803603602081101561064557600080fd5b81019080803590602001909291905050506115c9565b6040518082815260200191505060405180910390f35b61069f6004803603602081101561068757600080fd5b810190808035151590602001909291905050506115e1565b005b6106f7600480360360608110156106b757600080fd5b81019080803573ffffffffffffffffffffffffffffffffffffffff16906020019092919080359060200190929190803590602001909291905050506116c1565b6040518082815260200191505060405180910390f35b6107436004803603604081101561072357600080fd5b8101908080359060200190929190803590602001909291905050506116fc565b005b61074d611847565b604051808215151515815260200191505060405180910390f35b61076f61185e565b6040518082815260200191505060405180910390f35b61078d611864565b005b610797611a83565b6040518082815260200191505060405180910390f35b6107b5611a89565b6040518082815260200191505060405180910390f35b610817600480360360408110156107e157600080fd5b81019080803573ffffffffffffffffffffffffffffffffffffffff16906020019092919080359060200190929190505050611a8f565b6040518082815260200191505060405180910390f35b610835611b13565b6040518082815260200191505060405180910390f35b6108776004803603602081101561086157600080fd5b8101908080359060200190929190505050611b19565b005b6108816120f7565b604051808273ffffffffffffffffffffffffffffffffffffffff1673ffffffffffffffffffffffffffffffffffffffff16815260200191505060405180910390f35b6108ef600480360360208110156108d957600080fd5b810190808035906020019092919050505061211d565b6040518082815260200191505060405180910390f35b6109476004803603602081101561091b57600080fd5b81019080803573ffffffffffffffffffffffffffffffffffffffff16906020019092919050505061213e565b005b610951612245565b005b6109956004803603606081101561096957600080fd5b8101908080359060200190929190803590602001909291908035151590602001909291905050506123c7565b005b61099f6125a9565b604051808273ffffffffffffffffffffffffffffffffffffffff1673ffffffffffffffffffffffffffffffffffffffff16815260200191505060405180910390f35b6109e96125cf565b604051808215151515815260200191505060405180910390f35b610a3960048036036040811015610a1957600080fd5b8101908080359060200190929190803590602001909291905050506125e2565b005b610a6760048036036020811015610a5157600080fd5b8101908080359060200190929190505050612744565b60405180868152602001858152602001848152602001831515151581526020018281526020019550505050505060405180910390f35b610aa5612787565b604051808273ffffffffffffffffffffffffffffffffffffffff1673ffffffffffffffffffffffffffffffffffffffff16815260200191505060405180910390f35b610aef6127b0565b604051808215151515815260200191505060405180910390f35b610b1161280e565b6040518082815260200191505060405180910390f35b610b2f612814565b6040518082815260200191505060405180910390f35b610b4d61281a565b6040518082815260200191505060405180910390f35b610b6b612820565b6040518082815260200191505060405180910390f35b610bcd60048036036080811015610b9757600080fd5b81019080803590602001909291908035906020019092919080351515906020019092919080359060200190929190505050612826565b005b610c0560048036036040811015610be557600080fd5b810190808035906020019092919080359060200190929190505050612a08565b005b610c0f612f2e565b6040518082815260200191505060405180910390f35b610c5160048036036020811015610c3b57600080fd5b8101908080359060200190929190505050612f3b565b005b610c5b613008565b6040518082815260200191505060405180910390f35b610dd2600480360360a0811015610c8757600080fd5b81019080803573ffffffffffffffffffffffffffffffffffffffff169060200190929190803573ffffffffffffffffffffffffffffffffffffffff16906020019092919080359060200190640100000000811115610ce457600080fd5b820183602082011115610cf657600080fd5b80359060200191846020830284011164010000000083111715610d1857600080fd5b909192939192939080359060200190640100000000811115610d3957600080fd5b820183602082011115610d4b57600080fd5b80359060200191846020830284011164010000000083111715610d6d57600080fd5b909192939192939080359060200190640100000000811115610d8e57600080fd5b820183602082011115610da057600080fd5b80359060200191846001830284011164010000000083111715610dc257600080fd5b909192939192939050505061300e565b60405180827bffffffffffffffffffffffffffffffffffffffffffffffffffffffff19167bffffffffffffffffffffffffffffffffffffffffffffffffffffffff1916815260200191505060405180910390f35b610e5460048036036020811015610e3c57600080fd5b8101908080351515906020019092919050505061324d565b005b610e5e61339a565b6040518082815260200191505060405180910390f35b610ec060048036036040811015610e8a57600080fd5b81019080803573ffffffffffffffffffffffffffffffffffffffff169060200190929190803590602001909291905050506133a0565b005b610f0e60048036036040811015610ed857600080fd5b81019080803573ffffffffffffffffffffffffffffffffffffffff16906020019092919080359060200190929190505050613527565b005b610f3c60048036036020811015610f2657600080fd5b810190808035906020019092919050505061364c565b005b610f4661370e565b6040518082815260200191505060405180910390f35b610fa860048036036040811015610f7257600080fd5b81019080803573ffffffffffffffffffffffffffffffffffffffff16906020019092919080359060200190929190505050613714565b6040518082815260200191505060405180910390f35b610fc6613739565b6040518082815260200191505060405180910390f35b61100860048036036020811015610ff257600080fd5b810190808035906020019092919050505061373f565b005b61104c6004803603602081101561102057600080fd5b81019080803573ffffffffffffffffffffffffffffffffffffffff16906020019092919050505061380c565b6040518082815260200191505060405180910390f35b61106a613983565b604051808273ffffffffffffffffffffffffffffffffffffffff1673ffffffffffffffffffffffffffffffffffffffff16815260200191505060405180910390f35b6110e4600480360360408110156110c257600080fd5b81019080803590602001909291908035151590602001909291905050506139a9565b005b6110ee613b1e565b6040518082815260200191505060405180910390f35b6111cf600480360360a081101561111a57600080fd5b81019080803573ffffffffffffffffffffffffffffffffffffffff169060200190929190803573ffffffffffffffffffffffffffffffffffffffff16906020019092919080359060200190929190803590602001909291908035906020019064010000000081111561118b57600080fd5b82018360208201111561119d57600080fd5b803590602001918460018302840111640100000000831117156111bf57600080fd5b9091929391929390505050613b24565b60405180827bffffffffffffffffffffffffffffffffffffffffffffffffffffffff19167bffffffffffffffffffffffffffffffffffffffffffffffffffffffff1916815260200191505060405180910390f35b6112656004803603602081101561123957600080fd5b81019080803573ffffffffffffffffffffffffffffffffffffffff169060200190929190505050613c97565b005b61126f613ea0565b6040518082815260200191505060405180910390f35b6112b16004803603602081101561129b57600080fd5b8101908080359060200190929190505050613ea6565b604051808215151515815260200191505060405180910390f35b600960009054906101000a900473ffffffffffffffffffffffffffffffffffffffff1673ffffffffffffffffffffffffffffffffffffffff163373ffffffffffffffffffffffffffffffffffffffff161461138e576040517f08c379a000000000000000000000000000000000000000000000000000000000815260040180806020018281038252601d8152602001807f436f6e666953616c653a206f6e6c79207265636569766520634d6f6f6e00000081525060200191505060405180910390fd5b6113988786613ec6565b8673ffffffffffffffffffffffffffffffffffffffff163373ffffffffffffffffffffffffffffffffffffffff167fae33cb06d7303f889d953bb09540983050163c1c4c98b330db432a911cfb63fd8888604051808373ffffffffffffffffffffffffffffffffffffffff1673ffffffffffffffffffffffffffffffffffffffff1681526020018281526020019250505060405180910390a35050505050505050565b3373ffffffffffffffffffffffffffffffffffffffff16600160009054906101000a900473ffffffffffffffffffffffffffffffffffffffff1673ffffffffffffffffffffffffffffffffffffffff16146114fe576040517f08c379a00000000000000000000000000000000000000000000000000000000081526004018080602001828103825260208152602001807f4f776e61626c653a2063616c6c6572206973206e6f7420746865206f776e657281525060200191505060405180910390fd5b80601b8190555050565b601b5481565b600d6020528060005260406000206000915090508060000154908060010154908060020154908060030154905084565b73088800000000000000000000000000000000000181565b600082829050905060008090505b818110156115c357600061158985858481811061157d57fe5b9050602002013561432c565b905080600c600087878681811061159c57fe5b90506020020135815260200190815260200160002081905550508080600101915050611564565b50505050565b600c6020528060005260406000206000915090505481565b3373ffffffffffffffffffffffffffffffffffffffff16600160009054906101000a900473ffffffffffffffffffffffffffffffffffffffff1673ffffffffffffffffffffffffffffffffffffffff16146116a4576040517f08c379a00000000000000000000000000000000000000000000000000000000081526004018080602001828103825260208152602001807f4f776e61626c653a2063616c6c6572206973206e6f7420746865206f776e657281525060200191505060405180910390fd5b80601c60006101000a81548160ff02191690831515021790555050565b600b60205282600052604060002060205281600052604060002081815481106116e657fe5b9060005260206000200160009250925050505481565b3373ffffffffffffffffffffffffffffffffffffffff16600160009054906101000a900473ffffffffffffffffffffffffffffffffffffffff1673ffffffffffffffffffffffffffffffffffffffff16146117bf576040517f08c379a00000000000000000000000000000000000000000000000000000000081526004018080602001828103825260208152602001807f4f776e61626c653a2063616c6c6572206973206e6f7420746865206f776e657281525060200191505060405180910390fd5b60008211611835576040517f08c379a00000000000000000000000000000000000000000000000000000000081526004018080602001828103825260188152602001807f436f6e666953616c653a206361744964206973207a65726f000000000000000081525060200191505060405180910390fd5b81600781905550806008819055505050565b6000600160149054906101000a900460ff16905090565b60085481565b6000600d60003373ffffffffffffffffffffffffffffffffffffffff1673ffffffffffffffffffffffffffffffffffffffff16815260200190815260200160002090506000816000015411611921576040517f08c379a00000000000000000000000000000000000000000000000000000000081526004018080602001828103825260198152602001807f436f6e666953616c653a20776569676874206973207a65726f0000000000000081525060200191505060405180910390fd5b601c60009054906101000a900460ff166119a3576040517f08c379a000000000000000000000000000000000000000000000000000000000815260040180806020018281038252601e8152602001807f636f6e666953616c653a206f7574456e61626c6520697320636c6f736564000081525060200191505060405180910390fd5b6119ab6143e8565b60006119f382600101546119e564e8d4a510006119d7601054876000015461455a90919063ffffffff16565b6145e090919063ffffffff16565b61462a90919063ffffffff16565b9050611a0c81836002015461467490919063ffffffff16565b9050611a3e64e8d4a51000611a30601054856000015461455a90919063ffffffff16565b6145e090919063ffffffff16565b826001018190555060008260020181905550611a658160165461462a90919063ffffffff16565b6016819055506000811115611a7f57611a7e33826146fc565b5b5050565b60055481565b60075481565b60008183434244604051602001808573ffffffffffffffffffffffffffffffffffffffff1673ffffffffffffffffffffffffffffffffffffffff1660601b81526014018481526020018381526020018281526020019450505050506040516020818303038152906040528051906020012060001c81611b0a57fe5b06905092915050565b601a5481565b6000611b248261432c565b90506000600a60003373ffffffffffffffffffffffffffffffffffffffff1673ffffffffffffffffffffffffffffffffffffffff168152602001908152602001600020600083815260200190815260200160002054905060008111611bf1576040517f08c379a00000000000000000000000000000000000000000000000000000000081526004018080602001828103825260138152602001807f436f6e666953616c653a206e6f20636f6e66690000000000000000000000000081525060200191505060405180910390fd5b611bf96143e8565b6000611c048361493a565b90506000600d60003373ffffffffffffffffffffffffffffffffffffffff1673ffffffffffffffffffffffffffffffffffffffff16815260200190815260200160002090506000611c918260010154611c8364e8d4a51000611c75601054876000015461455a90919063ffffffff16565b6145e090919063ffffffff16565b61462a90919063ffffffff16565b9050611caa81836002015461467490919063ffffffff16565b8260020181905550611cc983836000015461462a90919063ffffffff16565b8260000181905550611ce96001836003015461462a90919063ffffffff16565b8260030181905550611d0683600e5461462a90919063ffffffff16565b600e81905550611d226001600f5461462a90919063ffffffff16565b600f81905550611d5864e8d4a51000611d4a601054856000015461455a90919063ffffffff16565b6145e090919063ffffffff16565b8260010181905550611dc46001600a60003373ffffffffffffffffffffffffffffffffffffffff1673ffffffffffffffffffffffffffffffffffffffff16815260200190815260200160002060008881526020019081526020016000205461462a90919063ffffffff16565b600a60003373ffffffffffffffffffffffffffffffffffffffff1673ffffffffffffffffffffffffffffffffffffffff168152602001908152602001600020600087815260200190815260200160002081905550600080905060008090505b85811015611ff8576000600b60003373ffffffffffffffffffffffffffffffffffffffff1673ffffffffffffffffffffffffffffffffffffffff16815260200190815260200160002060008981526020019081526020016000208281548110611e8857fe5b9060005260206000200154905088811415611fea57600b60003373ffffffffffffffffffffffffffffffffffffffff1673ffffffffffffffffffffffffffffffffffffffff16815260200190815260200160002060008981526020019081526020016000206001880381548110611efb57fe5b9060005260206000200154600b60003373ffffffffffffffffffffffffffffffffffffffff1673ffffffffffffffffffffffffffffffffffffffff16815260200190815260200160002060008a81526020019081526020016000208381548110611f6157fe5b9060005260206000200181905550600b60003373ffffffffffffffffffffffffffffffffffffffff1673ffffffffffffffffffffffffffffffffffffffff16815260200190815260200160002060008981526020019081526020016000206001880381548110611fcd57fe5b906000526020600020016000905560019250611fe9338a61495a565b5b508080600101915050611e23565b508061206c576040517f08c379a00000000000000000000000000000000000000000000000000000000081526004018080602001828103825260168152602001807f436f6e666953616c653a6e6f206d61746368205f69640000000000000000000081525060200191505060405180910390fd5b3073ffffffffffffffffffffffffffffffffffffffff167f17b6d079b1ac7c70b183891bc84c8819e3eb3d4a393e45d3160889e8fd3b79553389604051808373ffffffffffffffffffffffffffffffffffffffff1673ffffffffffffffffffffffffffffffffffffffff1681526020018281526020019250505060405180910390a250505050505050565b600660009054906101000a900473ffffffffffffffffffffffffffffffffffffffff1681565b6004818154811061212a57fe5b906000526020600020016000915090505481565b3373ffffffffffffffffffffffffffffffffffffffff16600160009054906101000a900473ffffffffffffffffffffffffffffffffffffffff1673ffffffffffffffffffffffffffffffffffffffff1614612201576040517f08c379a00000000000000000000000000000000000000000000000000000000081526004018080602001828103825260208152602001807f4f776e61626c653a2063616c6c6572206973206e6f7420746865206f776e657281525060200191505060405180910390fd5b80601960006101000a81548173ffffffffffffffffffffffffffffffffffffffff021916908373ffffffffffffffffffffffffffffffffffffffff16021790555050565b3373ffffffffffffffffffffffffffffffffffffffff16600160009054906101000a900473ffffffffffffffffffffffffffffffffffffffff1673ffffffffffffffffffffffffffffffffffffffff1614612308576040517f08c379a00000000000000000000000000000000000000000000000000000000081526004018080602001828103825260208152602001807f4f776e61626c653a2063616c6c6572206973206e6f7420746865206f776e657281525060200191505060405180910390fd5b600073ffffffffffffffffffffffffffffffffffffffff166000809054906101000a900473ffffffffffffffffffffffffffffffffffffffff1673ffffffffffffffffffffffffffffffffffffffff167f8be0079c531659141344cd1fd0a4f28419497f9722a3daafe3b4186f6b6457e060405160405180910390a360008060006101000a81548173ffffffffffffffffffffffffffffffffffffffff021916908373ffffffffffffffffffffffffffffffffffffffff160217905550565b3373ffffffffffffffffffffffffffffffffffffffff16600160009054906101000a900473ffffffffffffffffffffffffffffffffffffffff1673ffffffffffffffffffffffffffffffffffffffff161461248a576040517f08c379a00000000000000000000000000000000000000000000000000000000081526004018080602001828103825260208152602001807f4f776e61626c653a2063616c6c6572206973206e6f7420746865206f776e657281525060200191505060405180910390fd5b6000601360008581526020019081526020016000209050600081600001541161251b576040517f08c379a000000000000000000000000000000000000000000000000000000000815260040180806020018281038252601d8152602001807f436f6e666953616c653a2073746167654e6f206e6f742065786973747300000081525060200191505060405180910390fd5b81156125645761253883826001015461467490919063ffffffff16565b816001018190555061255783826002015461467490919063ffffffff16565b81600201819055506125a3565b61257b83826001015461462a90919063ffffffff16565b816001018190555061259a83826002015461462a90919063ffffffff16565b81600201819055505b50505050565b600960009054906101000a900473ffffffffffffffffffffffffffffffffffffffff1681565b601c60009054906101000a900460ff1681565b3373ffffffffffffffffffffffffffffffffffffffff16600160009054906101000a900473ffffffffffffffffffffffffffffffffffffffff1673ffffffffffffffffffffffffffffffffffffffff16146126a5576040517f08c379a00000000000000000000000000000000000000000000000000000000081526004018080602001828103825260208152602001807f4f776e61626c653a2063616c6c6572206973206e6f7420746865206f776e657281525060200191505060405180910390fd5b60006013600084815260200190815260200160002090506000816000015411612736576040517f08c379a000000000000000000000000000000000000000000000000000000000815260040180806020018281038252601d8152602001807f436f6e666953616c653a2073746167654e6f206e6f742065786973747300000081525060200191505060405180910390fd5b818160040181905550505050565b60136020528060005260406000206000915090508060000154908060010154908060020154908060030160009054906101000a900460ff16908060040154905085565b60008060009054906101000a900473ffffffffffffffffffffffffffffffffffffffff16905090565b60008060009054906101000a900473ffffffffffffffffffffffffffffffffffffffff1673ffffffffffffffffffffffffffffffffffffffff166127f2614a70565b73ffffffffffffffffffffffffffffffffffffffff1614905090565b60125481565b60105481565b60165481565b600e5481565b3373ffffffffffffffffffffffffffffffffffffffff16600160009054906101000a900473ffffffffffffffffffffffffffffffffffffffff1673ffffffffffffffffffffffffffffffffffffffff16146128e9576040517f08c379a00000000000000000000000000000000000000000000000000000000081526004018080602001828103825260208152602001807f4f776e61626c653a2063616c6c6572206973206e6f7420746865206f776e657281525060200191505060405180910390fd5b6000601360008681526020019081526020016000209050600081600001541461297a576040517f08c379a00000000000000000000000000000000000000000000000000000000081526004018080602001828103825260198152602001807f436f6e666953616c653a2073746167654e6f206578697374730000000000000081525060200191505060405180910390fd5b6040518060a001604052808681526020018581526020018581526020018415158152602001838152506013600087815260200190815260200160002060008201518160000155602082015181600101556040820151816002015560608201518160030160006101000a81548160ff021916908315150217905550608082015181600401559050505050505050565b6000600a60003373ffffffffffffffffffffffffffffffffffffffff1673ffffffffffffffffffffffffffffffffffffffff16815260200190815260200160002060008481526020019081526020016000205411612ace576040517f08c379a00000000000000000000000000000000000000000000000000000000081526004018080602001828103825260138152602001807f436f6e666953616c653a206e6f20636f6e66690000000000000000000000000081525060200191505060405180910390fd5b6000811415612b2b57600a60003373ffffffffffffffffffffffffffffffffffffffff1673ffffffffffffffffffffffffffffffffffffffff16815260200190815260200160002060008381526020019081526020016000205490505b612b336143e8565b6000612b3e8361493a565b90506000600d60003373ffffffffffffffffffffffffffffffffffffffff1673ffffffffffffffffffffffffffffffffffffffff16815260200190815260200160002090506000612bcb8260010154612bbd64e8d4a51000612baf601054876000015461455a90919063ffffffff16565b6145e090919063ffffffff16565b61462a90919063ffffffff16565b9050612be481836002015461467490919063ffffffff16565b82600201819055506000600a60003373ffffffffffffffffffffffffffffffffffffffff1673ffffffffffffffffffffffffffffffffffffffff1681526020019081526020016000206000878152602001908152602001600020549050612ca485600a60003373ffffffffffffffffffffffffffffffffffffffff1673ffffffffffffffffffffffffffffffffffffffff16815260200190815260200160002060008981526020019081526020016000205461462a90919063ffffffff16565b600a60003373ffffffffffffffffffffffffffffffffffffffff1673ffffffffffffffffffffffffffffffffffffffff1681526020019081526020016000206000888152602001908152602001600020819055506000600190505b858111612eed576000600b60003373ffffffffffffffffffffffffffffffffffffffff1673ffffffffffffffffffffffffffffffffffffffff168152602001908152602001600020600089815260200190815260200160002082840381548110612d6557fe5b90600052602060002001549050600b60003373ffffffffffffffffffffffffffffffffffffffff1673ffffffffffffffffffffffffffffffffffffffff168152602001908152602001600020600089815260200190815260200160002082840381548110612dcf57fe5b9060005260206000200160009055612df486866000015461462a90919063ffffffff16565b8560000181905550612e146001866003015461462a90919063ffffffff16565b8560030181905550612e3186600e5461462a90919063ffffffff16565b600e81905550612e4d6001600f5461462a90919063ffffffff16565b600f81905550612e5d338261495a565b3073ffffffffffffffffffffffffffffffffffffffff167f17b6d079b1ac7c70b183891bc84c8819e3eb3d4a393e45d3160889e8fd3b79553383604051808373ffffffffffffffffffffffffffffffffffffffff1673ffffffffffffffffffffffffffffffffffffffff1681526020018281526020019250505060405180910390a2508080600101915050612cff565b50612f1e64e8d4a51000612f10601054866000015461455a90919063ffffffff16565b6145e090919063ffffffff16565b8360010181905550505050505050565b6000600480549050905090565b3373ffffffffffffffffffffffffffffffffffffffff16600160009054906101000a900473ffffffffffffffffffffffffffffffffffffffff1673ffffffffffffffffffffffffffffffffffffffff1614612ffe576040517f08c379a00000000000000000000000000000000000000000000000000000000081526004018080602001828103825260208152602001807f4f776e61626c653a2063616c6c6572206973206e6f7420746865206f776e657281525060200191505060405180910390fd5b80601a8190555050565b60115481565b6000600660009054906101000a900473ffffffffffffffffffffffffffffffffffffffff1673ffffffffffffffffffffffffffffffffffffffff163373ffffffffffffffffffffffffffffffffffffffff16146130d3576040517f08c379a000000000000000000000000000000000000000000000000000000000815260040180806020018281038252601d8152602001807f436f6e666953616c653a206f6e6c79207265636569766520636f6e666900000081525060200191505060405180910390fd5b600160f81b838360008181106130e557fe5b9050013560f81c60f81b7effffffffffffffffffffffffffffffffffffffffffffffffffffffffffffff191614156131a9576131a488888880806020026020016040519081016040528093929190818152602001838360200280828437600081840152601f19601f82011690508083019250505050505050878780806020026020016040519081016040528093929190818152602001838360200280828437600081840152601f19601f82011690508083019250505050505050614a78565b613237565b61323688888880806020026020016040519081016040528093929190818152602001838360200280828437600081840152601f19601f82011690508083019250505050505050878780806020026020016040519081016040528093929190818152602001838360200280828437600081840152601f19601f82011690508083019250505050505050614c84565b5b63bc197c8160e01b905098975050505050505050565b3373ffffffffffffffffffffffffffffffffffffffff16600160009054906101000a900473ffffffffffffffffffffffffffffffffffffffff1673ffffffffffffffffffffffffffffffffffffffff1614613310576040517f08c379a00000000000000000000000000000000000000000000000000000000081526004018080602001828103825260208152602001807f4f776e61626c653a2063616c6c6572206973206e6f7420746865206f776e657281525060200191505060405180910390fd5b3373ffffffffffffffffffffffffffffffffffffffff167ffd80ccbc6bfc2e7fbbede0ca451179e86853be7776523642799c03113409589f600160149054906101000a900460ff16836040518083151515158152602001821515151581526020019250505060405180910390a280600160146101000a81548160ff02191690831515021790555050565b600f5481565b3373ffffffffffffffffffffffffffffffffffffffff16600160009054906101000a900473ffffffffffffffffffffffffffffffffffffffff1673ffffffffffffffffffffffffffffffffffffffff1614613463576040517f08c379a00000000000000000000000000000000000000000000000000000000081526004018080602001828103825260208152602001807f4f776e61626c653a2063616c6c6572206973206e6f7420746865206f776e657281525060200191505060405180910390fd5b6005548111156134735760055490505b6000600190505b81811161352257600060046001600554038154811061349557fe5b9060005260206000200154905060006003600083815260200190815260200160002060006101000a81548160ff0219169083151502179055506004600160055403815481106134e057fe5b9060005260206000200160009055613504600160055461462a90919063ffffffff16565b600581905550613514848261495a565b50808060010191505061347a565b505050565b3373ffffffffffffffffffffffffffffffffffffffff16600160009054906101000a900473ffffffffffffffffffffffffffffffffffffffff1673ffffffffffffffffffffffffffffffffffffffff16146135ea576040517f08c379a00000000000000000000000000000000000000000000000000000000081526004018080602001828103825260208152602001807f4f776e61626c653a2063616c6c6572206973206e6f7420746865206f776e657281525060200191505060405180910390fd5b600060055411156136125761360b600160055461462a90919063ffffffff16565b6005819055505b60006003600083815260200190815260200160002060006101000a81548160ff021916908315150217905550613648828261495a565b5050565b6018548111156136c4576040517f08c379a000000000000000000000000000000000000000000000000000000000815260040180806020018281038252601f8152602001807f636f6e666953616c653a2062616c616e636520696e73756666696369656e740081525060200191505060405180910390fd5b6136d98160185461462a90919063ffffffff16565b60188190555061370b601960009054906101000a900473ffffffffffffffffffffffffffffffffffffffff16826146fc565b50565b60175481565b600a602052816000526040600020602052806000526040600020600091509150505481565b60185481565b3373ffffffffffffffffffffffffffffffffffffffff16600160009054906101000a900473ffffffffffffffffffffffffffffffffffffffff1673ffffffffffffffffffffffffffffffffffffffff1614613802576040517f08c379a00000000000000000000000000000000000000000000000000000000081526004018080602001828103825260208152602001807f4f776e61626c653a2063616c6c6572206973206e6f7420746865206f776e657281525060200191505060405180910390fd5b8060148190555050565b600080600d60008473ffffffffffffffffffffffffffffffffffffffff1673ffffffffffffffffffffffffffffffffffffffff1681526020019081526020016000209050600060105490506011544311801561386a57506000600e54115b1561391a5760006138d66127106138c8601b546138ba6138a960125461389b6011544361462a90919063ffffffff16565b6145e090919063ffffffff16565b60165461455a90919063ffffffff16565b61455a90919063ffffffff16565b6145e090919063ffffffff16565b9050613916613907600e546138f964e8d4a510008561455a90919063ffffffff16565b6145e090919063ffffffff16565b8361467490919063ffffffff16565b9150505b6000613960836001015461395264e8d4a5100061394486886000015461455a90919063ffffffff16565b6145e090919063ffffffff16565b61462a90919063ffffffff16565b905061397981846002015461467490919063ffffffff16565b9350505050919050565b601960009054906101000a900473ffffffffffffffffffffffffffffffffffffffff1681565b3373ffffffffffffffffffffffffffffffffffffffff16600160009054906101000a900473ffffffffffffffffffffffffffffffffffffffff1673ffffffffffffffffffffffffffffffffffffffff1614613a6c576040517f08c379a00000000000000000000000000000000000000000000000000000000081526004018080602001828103825260208152602001807f4f776e61626c653a2063616c6c6572206973206e6f7420746865206f776e657281525060200191505060405180910390fd5b60006013600084815260200190815260200160002090506000816000015411613afd576040517f08c379a000000000000000000000000000000000000000000000000000000000815260040180806020018281038252601d8152602001807f436f6e666953616c653a2073746167654e6f206e6f742065786973747300000081525060200191505060405180910390fd5b818160030160006101000a81548160ff021916908315150217905550505050565b60145481565b6000600660009054906101000a900473ffffffffffffffffffffffffffffffffffffffff1673ffffffffffffffffffffffffffffffffffffffff163373ffffffffffffffffffffffffffffffffffffffff1614613be9576040517f08c379a000000000000000000000000000000000000000000000000000000000815260040180806020018281038252601d8152602001807f436f6e666953616c653a206f6e6c79207265636569766520636f6e666900000081525060200191505060405180910390fd5b60608581600081518110613bf957fe5b60200260200101818152505060608581600081518110613c1557fe5b602002602001018181525050600160f81b85856000818110613c3357fe5b9050013560f81c60f81b7effffffffffffffffffffffffffffffffffffffffffffffffffffffffffffff19161415613c7557613c70888383614a78565b613c81565b613c80888383614c84565b5b63f23a6e6160e01b925050509695505050505050565b3373ffffffffffffffffffffffffffffffffffffffff16600160009054906101000a900473ffffffffffffffffffffffffffffffffffffffff1673ffffffffffffffffffffffffffffffffffffffff1614613d5a576040517f08c379a00000000000000000000000000000000000000000000000000000000081526004018080602001828103825260208152602001807f4f776e61626c653a2063616c6c6572206973206e6f7420746865206f776e657281525060200191505060405180910390fd5b600073ffffffffffffffffffffffffffffffffffffffff168173ffffffffffffffffffffffffffffffffffffffff161415613de0576040517f08c379a00000000000000000000000000000000000000000000000000000000081526004018080602001828103825260268152602001806157186026913960400191505060405180910390fd5b8073ffffffffffffffffffffffffffffffffffffffff16600160009054906101000a900473ffffffffffffffffffffffffffffffffffffffff1673ffffffffffffffffffffffffffffffffffffffff167f8be0079c531659141344cd1fd0a4f28419497f9722a3daafe3b4186f6b6457e060405160405180910390a380600160006101000a81548173ffffffffffffffffffffffffffffffffffffffff021916908373ffffffffffffffffffffffffffffffffffffffff16021790555050565b60155481565b60036020528060005260406000206000915054906101000a900460ff1681565b600060145411613f3e576040517f08c379a00000000000000000000000000000000000000000000000000000000081526004018080602001828103825260198152602001807f436f6e666953616c653a206e6f2073746167652073746172740000000000000081525060200191505060405180910390fd5b600060136000601454815260200190815260200160002090506000816000015411613fd1576040517f08c379a000000000000000000000000000000000000000000000000000000000815260040180806020018281038252601d8152602001807f436f6e666953616c653a2073746167654e6f206e6f742065786973747300000081525060200191505060405180910390fd5b8181600401541461404a576040517f08c379a00000000000000000000000000000000000000000000000000000000081526004018080602001828103825260208152602001807f436f6e666953616c653a2070617920616d6f756e7420697320696e76616c696481525060200191505060405180910390fd5b8060030160009054906101000a900460ff166140ce576040517f08c379a00000000000000000000000000000000000000000000000000000000081526004018080602001828103825260188152602001807f436f6e666953616c653a207374616765206e6f206f70656e000000000000000081525060200191505060405180910390fd5b6000816002015411614148576040517f08c379a000000000000000000000000000000000000000000000000000000000815260040180806020018281038252601f8152602001807f436f6e666953616c653a2062616c616e6365206973206e6f20656e6f7567680081525060200191505060405180910390fd5b6000600554116141c0576040517f08c379a000000000000000000000000000000000000000000000000000000000815260040180806020018281038252601f8152602001807f436f6e666953616c653a206e667420737570706c79206e6f20656e6f7567680081525060200191505060405180910390fd5b6141c86143e8565b6141e06001826002015461462a90919063ffffffff16565b816002018190555060006141f684600554611a8f565b905060006004828154811061420757fe5b9060005260206000200154905060046001600554038154811061422657fe5b90600052602060002001546004838154811061423e57fe5b906000526020600020018190555060046001600554038154811061425e57fe5b9060005260206000200160009055614282600160055461462a90919063ffffffff16565b60058190555061429184615407565b61429b858261495a565b3073ffffffffffffffffffffffffffffffffffffffff167f662fffd2e2fb751e0e978097e1169c484196033934fe5ebbb20e66baf883fe87868387604051808473ffffffffffffffffffffffffffffffffffffffff1673ffffffffffffffffffffffffffffffffffffffff168152602001838152602001828152602001935050505060405180910390a25050505050565b600080600660009054906101000a900473ffffffffffffffffffffffffffffffffffffffff1673ffffffffffffffffffffffffffffffffffffffff16638ed914cd846040518263ffffffff1660e01b81526004018082815260200191505060206040518083038186803b1580156143a257600080fd5b505afa1580156143b6573d6000803e3d6000fd5b505050506040513d60208110156143cc57600080fd5b8101908080519060200190929190505050905080915050919050565b600060165414156143ff5743601181905550614558565b6000601254141561440f57614558565b43601254111561441e57614558565b6011546144366012544361462a90919063ffffffff16565b1161444057614558565b6000600e5414156144575743601181905550614558565b60006144826012546144746011544361462a90919063ffffffff16565b6145e090919063ffffffff16565b905060006144c36127106144b5601b546144a78660165461455a90919063ffffffff16565b61455a90919063ffffffff16565b6145e090919063ffffffff16565b90506144da8160165461462a90919063ffffffff16565b60168190555061452061450f600e5461450164e8d4a510008561455a90919063ffffffff16565b6145e090919063ffffffff16565b60105461467490919063ffffffff16565b60108190555061454f61453e8360125461455a90919063ffffffff16565b60115461467490919063ffffffff16565b60118190555050505b565b60008083141561456d57600090506145da565b600082840290508284828161457e57fe5b04146145d5576040517f08c379a000000000000000000000000000000000000000000000000000000000815260040180806020018281038252602181526020018061573e6021913960400191505060405180910390fd5b809150505b92915050565b600061462283836040518060400160405280601a81526020017f536166654d6174683a206469766973696f6e206279207a65726f00000000000081525061556f565b905092915050565b600061466c83836040518060400160405280601e81526020017f536166654d6174683a207375627472616374696f6e206f766572666c6f770000815250615635565b905092915050565b6000808284019050838110156146f2576040517f08c379a000000000000000000000000000000000000000000000000000000000815260040180806020018281038252601b8152602001807f536166654d6174683a206164646974696f6e206f766572666c6f77000000000081525060200191505060405180910390fd5b8091505092915050565b6000600960009054906101000a900473ffffffffffffffffffffffffffffffffffffffff1673ffffffffffffffffffffffffffffffffffffffff166370a08231306040518263ffffffff1660e01b8152600401808273ffffffffffffffffffffffffffffffffffffffff1673ffffffffffffffffffffffffffffffffffffffff16815260200191505060206040518083038186803b15801561479d57600080fd5b505afa1580156147b1573d6000803e3d6000fd5b505050506040513d60208110156147c757600080fd5b8101908080519060200190929190505050905080821115614850576040517f08c379a000000000000000000000000000000000000000000000000000000000815260040180806020018281038252601d8152602001807f436f6e666953616c653a20634d6f6f6e20696e73756666696369656e7400000081525060200191505060405180910390fd5b600960009054906101000a900473ffffffffffffffffffffffffffffffffffffffff1673ffffffffffffffffffffffffffffffffffffffff1663a9059cbb84846040518363ffffffff1660e01b8152600401808373ffffffffffffffffffffffffffffffffffffffff1673ffffffffffffffffffffffffffffffffffffffff16815260200182815260200192505050602060405180830381600087803b1580156148f957600080fd5b505af115801561490d573d6000803e3d6000fd5b505050506040513d602081101561492357600080fd5b810190808051906020019092919050505050505050565b6000600754821415614950576008549050614955565b600190505b919050565b600660009054906101000a900473ffffffffffffffffffffffffffffffffffffffff1673ffffffffffffffffffffffffffffffffffffffff1663f242432a30848460016040518563ffffffff1660e01b8152600401808573ffffffffffffffffffffffffffffffffffffffff1673ffffffffffffffffffffffffffffffffffffffff1681526020018473ffffffffffffffffffffffffffffffffffffffff1673ffffffffffffffffffffffffffffffffffffffff1681526020018381526020018281526020018060200182810382526000815260200160200195505050505050600060405180830381600087803b158015614a5457600080fd5b505af1158015614a68573d6000803e3d6000fd5b505050505050565b600033905090565b8051825114614aef576040517f08c379a00000000000000000000000000000000000000000000000000000000081526004018080602001828103825260208152602001807f436f6e666953616c653a20494e56414c49445f4152524159535f4c454e47544881525060200191505060405180910390fd5b60008251905060008090505b81811015614c2f5760036000858381518110614b1357fe5b6020026020010151815260200190815260200160002060009054906101000a900460ff1615614b4157614c22565b6005546004805490501115614b8657838181518110614b5c57fe5b6020026020010151600460055481548110614b7357fe5b9060005260206000200181905550614bc6565b6004848281518110614b9457fe5b602002602001015190806001815401808255809150509060018203906000526020600020016000909192909190915055505b600160036000868481518110614bd857fe5b6020026020010151815260200190815260200160002060006101000a81548160ff021916908315150217905550614c1b600160055461467490919063ffffffff16565b6005819055505b8080600101915050614afb565b508373ffffffffffffffffffffffffffffffffffffffff167f4a157e6951b99ae3f87c08dd5f61cd625394ede477877d924ab02d4fdd40ddca826040518082815260200191505060405180910390a250505050565b8051825114614cfb576040517f08c379a00000000000000000000000000000000000000000000000000000000081526004018080602001828103825260208152602001807f436f6e666953616c653a20494e56414c49445f4152524159535f4c454e47544881525060200191505060405180910390fd5b600060155411614d73576040517f08c379a00000000000000000000000000000000000000000000000000000000081526004018080602001828103825260138152602001807f436f6e666953616c653a206f6e2073746172740000000000000000000000000081525060200191505060405180910390fd5b6000825190506000600d60008673ffffffffffffffffffffffffffffffffffffffff1673ffffffffffffffffffffffffffffffffffffffff1681526020019081526020016000209050614dc46143e8565b600081600001541115614e3c576000614e198260010154614e0b64e8d4a51000614dfd601054876000015461455a90919063ffffffff16565b6145e090919063ffffffff16565b61462a90919063ffffffff16565b9050614e3281836002015461467490919063ffffffff16565b8260020181905550505b6101f4614e578551836003015461467490919063ffffffff16565b10614eca576040517f08c379a000000000000000000000000000000000000000000000000000000000815260040180806020018281038252601a8152602001807f436f6e666953616c653a206d6178206973206f766572666c6f7700000000000081525060200191505060405180910390fd5b60008090505b828110156153c75760036000868381518110614ee857fe5b6020026020010151815260200190815260200160002060009054906101000a900460ff16614f7e576040517f08c379a00000000000000000000000000000000000000000000000000000000081526004018080602001828103825260188152602001807f436f6e666953616c653a206e6f2073616c6520636f6e6669000000000000000081525060200191505060405180910390fd5b6000600190506000600c6000888581518110614f9657fe5b60200260200101518152602001908152602001600020541115614fdd57600c6000878481518110614fc357fe5b602002602001015181526020019081526020016000205490505b6000614fe88261493a565b9050600a60008973ffffffffffffffffffffffffffffffffffffffff1673ffffffffffffffffffffffffffffffffffffffff168152602001908152602001600020600083815260200190815260200160002054600b60008a73ffffffffffffffffffffffffffffffffffffffff1673ffffffffffffffffffffffffffffffffffffffff1681526020019081526020016000206000848152602001908152602001600020805490501115615167578683815181106150a157fe5b6020026020010151600b60008a73ffffffffffffffffffffffffffffffffffffffff1673ffffffffffffffffffffffffffffffffffffffff1681526020019081526020016000206000848152602001908152602001600020600a60008b73ffffffffffffffffffffffffffffffffffffffff1673ffffffffffffffffffffffffffffffffffffffff1681526020019081526020016000206000858152602001908152602001600020548154811061515457fe5b90600052602060002001819055506151f5565b600b60008973ffffffffffffffffffffffffffffffffffffffff1673ffffffffffffffffffffffffffffffffffffffff16815260200190815260200160002060008381526020019081526020016000208784815181106151c357fe5b602002602001015190806001815401808255809150509060018203906000526020600020016000909192909190915055505b6152596001600a60008b73ffffffffffffffffffffffffffffffffffffffff1673ffffffffffffffffffffffffffffffffffffffff16815260200190815260200160002060008581526020019081526020016000205461467490919063ffffffff16565b600a60008a73ffffffffffffffffffffffffffffffffffffffff1673ffffffffffffffffffffffffffffffffffffffff1681526020019081526020016000206000848152602001908152602001600020819055506152c481856000015461467490919063ffffffff16565b84600001819055506152e181600e5461467490919063ffffffff16565b600e819055506152ff6001856003015461467490919063ffffffff16565b846003018190555061531d6001600f5461467490919063ffffffff16565b600f819055508773ffffffffffffffffffffffffffffffffffffffff167f33aa0c1c861f8f0c84013ce481b20f5acf9dd13258c4dfe9d02108922c03ef813089868151811061536857fe5b6020026020010151604051808373ffffffffffffffffffffffffffffffffffffffff1673ffffffffffffffffffffffffffffffffffffffff1681526020018281526020019250505060405180910390a250508080600101915050614ed0565b506153f864e8d4a510006153ea601054846000015461455a90919063ffffffff16565b6145e090919063ffffffff16565b81600101819055505050505050565b600073ffffffffffffffffffffffffffffffffffffffff16601960009054906101000a900473ffffffffffffffffffffffffffffffffffffffff1673ffffffffffffffffffffffffffffffffffffffff1614156154af576040517f08c379a00000000000000000000000000000000000000000000000000000000081526004018080602001828103825260228152602001806156f66022913960400191505060405180910390fd5b60006154d960646154cb601a548561455a90919063ffffffff16565b6145e090919063ffffffff16565b90506154f08160155461467490919063ffffffff16565b60158190555061550b8160165461467490919063ffffffff16565b601681905550615538615527828461462a90919063ffffffff16565b60175461467490919063ffffffff16565b601781905550615565615554828461462a90919063ffffffff16565b60185461467490919063ffffffff16565b6018819055505050565b6000808311829061561b576040517f08c379a00000000000000000000000000000000000000000000000000000000081526004018080602001828103825283818151815260200191508051906020019080838360005b838110156155e05780820151818401526020810190506155c5565b50505050905090810190601f16801561560d5780820380516001836020036101000a031916815260200191505b509250505060405180910390fd5b50600083858161562757fe5b049050809150509392505050565b60008383111582906156e2576040517f08c379a00000000000000000000000000000000000000000000000000000000081526004018080602001828103825283818151815260200191508051906020019080838360005b838110156156a757808201518184015260208101905061568c565b50505050905090810190601f1680156156d45780820380516001836020036101000a031916815260200191505b509250505060405180910390fd5b506000838503905080915050939250505056fe436f6e666953616c653a2064657641646472206973207a65726f20616464726573734f776e61626c653a206e6577206f776e657220697320746865207a65726f2061646472657373536166654d6174683a206d756c7469706c69636174696f6e206f766572666c6f77a265627a7a7231582002c7f9051f79eb4f7040e0d0821aad4ec9aa5a0c9fad0c730c913c47ff2a44c864736f6c63430005100032",
  "source": "pragma solidity =0.5.16;\n\nimport \"@openzeppelin/contracts/math/SafeMath.sol\";\nimport \"@openzeppelin/contracts/introspection/IERC1820Registry.sol\";\nimport \"@openzeppelin/contracts/token/ERC777/IERC777Recipient.sol\";\nimport \"@openzeppelin/contracts/utils/Address.sol\";\nimport \"@openzeppelin/contracts/ownership/Ownable.sol\";\nimport \"@openzeppelin/contracts/token/ERC777/IERC777.sol\";\nimport \"@openzeppelin/contracts/token/ERC20/IERC20.sol\";\nimport \"@openzeppelin/contracts/token/ERC20/SafeERC20.sol\";\nimport \"./Pauseable.sol\";\nimport './SponsorWhitelistControl.sol';\nimport './libraries/Math.sol';\nimport './interfaces/IERC1155TokenReceiver.sol';\nimport './interfaces/IConfiNFT.sol';\n\n\ncontract ConfiSale is Ownable, Pauseable, IERC777Recipient, IERC1155TokenReceiver{\n    using SafeMath for uint256;\n    using SafeERC20 for IERC20;\n\n    SponsorWhitelistControl constant public SPONSOR = SponsorWhitelistControl(address(0x0888000000000000000000000000000000000001));\n    IERC1820Registry private _erc1820 = IERC1820Registry(0x866aCA87FF33a0ae05D2164B3D999A804F583222);\n    // keccak256(\"ERC777TokensRecipient\")\n    bytes32 constant private TOKENS_RECIPIENT_INTERFACE_HASH =\n      0xb281fc8c12954d22544db45de3159a39272895b169a852b314f9cc762e44c53b;\n\n    mapping(uint256 => bool) public confiStls; // confi tokenId status list\n    uint256[] public confiIds; // confi tokenId list\n    uint256 public confiSupply;\n    address public confi;\n    uint256 public multipleCategoryId;\n    uint256 public multiple;\n    address public cMoonToken;\n\n    struct UserInfo {\n      uint256 weight; // calc weight\n      uint256 rewardDebt;\n      uint256 balance;\n      uint256 number; //user stake number\n    }\n\n    // userAddr => catId =>\n    mapping(address => mapping(uint256 => uint256)) public userStakeCounts;\n    mapping(address => mapping(uint256 => uint256[])) public userStakeConfi;\n    mapping(uint256 => uint256) public confiCategories;\n\n    mapping(address => UserInfo) public userInfo;\n    // calc reward\n    uint256 public totalWeight;\n    uint256 public totalNumber; // total stake number\n    uint256 public accTokenPerShare;\n    uint256 public lastRewardBlock;\n    uint256 public intervalBlock; // reward interval block num\n    // buy stage\n    struct Stage {\n      uint256 stageNo;\n      uint256 total;\n      uint256 balance;\n      bool isOpen;\n      uint256 price;\n    }\n    mapping(uint256 => Stage) public stages;\n\n    uint256 public stageNo;\n    uint256 public totalPoolAmount;\n    uint256 public poolBalance;\n    uint256 public totalDevAmount;\n    uint256 public devBalance;\n    address public devAddr;\n    uint256 public rewardRatio;\n    uint256 public apyRatio; // 0.01%\n    bool public outEnable; // game end open harvest\n\n    // event\n    event TokenTransfer(address indexed tokenAddress, address indexed from, address to, uint256 value);\n    event uploadNFTEvent(address indexed from, uint256 count);\n    event TokenBuy(address indexed from, address to, uint256 tokenId, uint256 value);\n    event TokenStake(address indexed from, address to, uint256 tokenId);\n    event TokenUnStake(address indexed from, address to, uint256 tokenId);\n\n    constructor(\n          address _confi,\n          address _cMoonToken,\n          address _devAddr\n      ) public {\n          confi = _confi;\n          cMoonToken = _cMoonToken;\n          devAddr = _devAddr;\n\n          rewardRatio = 30; // 30% to pool reward\n          multiple = 20;\n          multipleCategoryId = 6;\n          apyRatio = 2;\n          intervalBlock = 120;\n\n          outEnable = false;\n\n          _erc1820.setInterfaceImplementer(address(this), TOKENS_RECIPIENT_INTERFACE_HASH, address(this));\n\n          // register all users as sponsees\n          address[] memory users = new address[](1);\n          users[0] = address(0);\n          SPONSOR.add_privilege(users);\n    }\n\n    // functions\n    // 0x7a280947\n    function _uploadNFT(address _from, uint256[] memory _ids, uint256[] memory _amounts) internal {\n      require(_ids.length == _amounts.length, \"ConfiSale: INVALID_ARRAYS_LENGTH\");\n      uint256 range = _ids.length;\n\n      for(uint256 i = 0; i < range; i ++){\n        if(confiStls[_ids[i]]){\n          continue;\n        }\n        if(confiIds.length > confiSupply){\n          confiIds[confiSupply] = _ids[i];\n        }else{\n            confiIds.push(_ids[i]);\n        }\n        confiStls[_ids[i]] = true;\n        confiSupply = confiSupply.add(1);\n      }\n\n      emit uploadNFTEvent(_from, range);\n    }\n\n    function confiIdsLength() external view returns(uint256) {\n      return confiIds.length;\n    }\n\n    function setStageNo(uint256 _stageNo) external onlyOwner {\n      stageNo = _stageNo;\n    }\n\n    function initStage(uint256 _stageNo, uint256 _total, bool _isOpen, uint256 _price) external onlyOwner {\n        Stage storage _stage = stages[_stageNo];\n        require(_stage.stageNo == 0, \"ConfiSale: stageNo exists\");\n        stages[_stageNo] = Stage({\n            stageNo: _stageNo,\n            total: _total,\n            balance: _total,\n            isOpen: _isOpen,\n            price: _price\n        });\n    }\n\n    function setMultiple(uint256 _catId, uint256 _multiple) external onlyOwner {\n        require(_catId > 0, \"ConfiSale: catId is zero\");\n        multipleCategoryId = _catId;\n        multiple = _multiple;\n    }\n\n    function updateTotal(uint256 _stageNo, uint256 _count, bool isAdd) external onlyOwner {\n      Stage storage _stage = stages[_stageNo];\n      require(_stage.stageNo > 0, \"ConfiSale: stageNo not exists\");\n      if(isAdd){\n        _stage.total = _stage.total.add(_count);\n        _stage.balance = _stage.balance.add(_count);\n      }else{\n        _stage.total = _stage.total.sub(_count);\n        _stage.balance = _stage.balance.sub(_count);\n      }\n    }\n\n    function updatePrice(uint256 _stageNo, uint256 _price) external onlyOwner {\n      Stage storage _stage = stages[_stageNo];\n      require(_stage.stageNo > 0, \"ConfiSale: stageNo not exists\");\n      _stage.price = _price;\n    }\n\n    function setIsOpen(uint256 _stageNo, bool _isOpen) external onlyOwner {\n      Stage storage _stage = stages[_stageNo];\n      require(_stage.stageNo > 0, \"ConfiSale: stageNo not exists\");\n      _stage.isOpen = _isOpen;\n    }\n\n    function setRewardRatio(uint256 _rewardRatio) external onlyOwner {\n        rewardRatio = _rewardRatio;\n    }\n\n    function setApyRatio(uint256 _apyRatio) external onlyOwner {\n        apyRatio = _apyRatio;\n    }\n\n    // user\n    function _buy(address _from, uint256 _amount) internal {\n      require(stageNo > 0, \"ConfiSale: no stage start\");\n      Stage storage _stage = stages[stageNo];\n      require(_stage.stageNo > 0, \"ConfiSale: stageNo not exists\");\n      require(_stage.price == _amount, \"ConfiSale: pay amount is invalid\");\n      require(_stage.isOpen, \"ConfiSale: stage no open\");\n      require(_stage.balance > 0, \"ConfiSale: balance is no enough\");\n      require(confiSupply > 0, \"ConfiSale: nft supply no enough\");\n\n      _poolLogic();\n      _stage.balance = _stage.balance.sub(1);\n      // random assign tokenId`\n      uint256 _index = _seed(_from, confiSupply);\n      uint256 _tokenId = confiIds[_index];\n      confiIds[_index] = confiIds[confiSupply - 1];\n      delete confiIds[confiSupply - 1];\n      confiSupply = confiSupply.sub(1);\n      _poolAssign(_amount);\n      _safeNFTTransfer(_from, _tokenId);\n\n      emit TokenBuy(address(this), _from, _tokenId, _amount);\n    }\n\n    function unstake(uint256 _catId, uint256 _count) external {\n        require(userStakeCounts[msg.sender][_catId] > 0, \"ConfiSale: no confi\");\n        if(_count == 0){\n          _count = userStakeCounts[msg.sender][_catId];\n        }\n        _poolLogic();\n        uint256 _weight = _getMultiple(_catId);\n        UserInfo storage user = userInfo[msg.sender];\n        uint256 pending = user.weight.mul(accTokenPerShare).div(1e12).sub(user.rewardDebt);\n        user.balance = user.balance.add(pending);\n\n        // From the back forward\n        uint256 _stakeCount = userStakeCounts[msg.sender][_catId];\n        userStakeCounts[msg.sender][_catId] = userStakeCounts[msg.sender][_catId].sub(_count);\n        for(uint256 i = 1; i <= _count; i ++){\n           uint256 _id = userStakeConfi[msg.sender][_catId][_stakeCount - i];\n           delete userStakeConfi[msg.sender][_catId][_stakeCount - i];\n           user.weight = user.weight.sub(_weight);\n           user.number = user.number.sub(1);\n           totalWeight = totalWeight.sub(_weight);\n           totalNumber = totalNumber.sub(1);\n\n           _safeNFTTransfer(msg.sender, _id);\n\n           emit TokenUnStake(address(this), msg.sender, _id);\n        }\n\n        user.rewardDebt = user.weight.mul(accTokenPerShare).div(1e12);\n\n    }\n\n    function unstakeById(uint256 _id) external {\n        uint256 _catId = _getCatId(_id);\n        uint256 _stakeCount = userStakeCounts[msg.sender][_catId];\n        require(_stakeCount > 0, \"ConfiSale: no confi\");\n        _poolLogic();\n        uint256 _weight = _getMultiple(_catId);\n        UserInfo storage user = userInfo[msg.sender];\n        uint256 pending = user.weight.mul(accTokenPerShare).div(1e12).sub(user.rewardDebt);\n        user.balance = user.balance.add(pending);\n\n        // From the back forward\n        user.weight = user.weight.sub(_weight);\n        user.number = user.number.sub(1);\n        totalWeight = totalWeight.sub(_weight);\n        totalNumber = totalNumber.sub(1);\n        user.rewardDebt = user.weight.mul(accTokenPerShare).div(1e12);\n        userStakeCounts[msg.sender][_catId] = userStakeCounts[msg.sender][_catId].sub(1);\n\n        bool isMatch = false;\n        for(uint256 i = 0; i < _stakeCount; i ++){\n           uint256 _tokenId = userStakeConfi[msg.sender][_catId][i];\n           if(_tokenId == _id){\n             userStakeConfi[msg.sender][_catId][i] = userStakeConfi[msg.sender][_catId][_stakeCount - 1];\n             delete userStakeConfi[msg.sender][_catId][_stakeCount - 1];\n             isMatch = true;\n             _safeNFTTransfer(msg.sender, _id);\n           }\n        }\n\n        require(isMatch, \"ConfiSale:no match _id\");\n\n        emit TokenUnStake(address(this), msg.sender, _id);\n    }\n\n    function uploadConfiCategory(uint256[] calldata _ids) external {\n\n      uint256 range = _ids.length;\n      for(uint256 i = 0; i < range; i ++){\n        uint256 _catId = _getCatId(_ids[i]);\n        confiCategories[_ids[i]] = _catId;\n      }\n    }\n\n    //  stake\n    function _stake(address _from, uint256[] memory _ids, uint256[] memory _amounts) internal {\n        require(_ids.length == _amounts.length, \"ConfiSale: INVALID_ARRAYS_LENGTH\");\n        require(totalPoolAmount > 0, \"ConfiSale: on start\");\n        uint256 range = _ids.length;\n        UserInfo storage user = userInfo[_from];\n        _poolLogic();\n        // harvest\n        if(user.weight > 0){\n          uint256 pending = user.weight.mul(accTokenPerShare).div(1e12).sub(user.rewardDebt);\n          user.balance = user.balance.add(pending);\n        }\n\n        require(user.number.add(_ids.length) < 500, \"ConfiSale: max is overflow\");\n\n        // stake\n        for(uint256 i = 0; i < range; i ++){\n            if(!confiStls[_ids[i]]){\n              revert(\"ConfiSale: no sale confi\");\n            }\n            uint256 _catId = 1;\n            if(confiCategories[_ids[i]] > 0){\n                _catId = confiCategories[_ids[i]];\n            }\n\n            uint256 _weight = _getMultiple(_catId);\n\n            if(userStakeConfi[_from][_catId].length > userStakeCounts[_from][_catId]){\n                userStakeConfi[_from][_catId][userStakeCounts[_from][_catId]] = _ids[i];\n            }else{\n              userStakeConfi[_from][_catId].push(_ids[i]);\n            }\n\n            userStakeCounts[_from][_catId] = userStakeCounts[_from][_catId].add(1);\n            user.weight = user.weight.add(_weight);\n            totalWeight = totalWeight.add(_weight);\n            user.number = user.number.add(1);\n            totalNumber = totalNumber.add(1);\n\n            emit TokenStake(_from, address(this), _ids[i]);\n        }\n        // cacl deposit part\n        user.rewardDebt = user.weight.mul(accTokenPerShare).div(1e12);\n    }\n\n    function _getMultiple(uint256 _catId) internal view returns(uint256) {\n        if(_catId == multipleCategoryId){\n          return multiple;\n        }else{\n          return 1;\n        }\n    }\n\n\n    function _getCatId(uint256 _id) internal view returns(uint256){\n      uint256 _catId = IConfiNFT(confi).categoryOf(_id);\n      return _catId;\n    }\n\n    function harvest() external {\n      UserInfo storage user = userInfo[msg.sender];\n      require(user.weight > 0, \"ConfiSale: weight is zero\");\n      require(outEnable, \"confiSale: outEnable is closed\");\n      _poolLogic();\n      uint256 pending = user.weight.mul(accTokenPerShare).div(1e12).sub(user.rewardDebt);\n      pending = user.balance.add(pending);\n      user.rewardDebt = user.weight.mul(accTokenPerShare).div(1e12);\n      user.balance = 0;\n      poolBalance = poolBalance.sub(pending);\n      if(pending > 0){\n        _safeTokenTransfer(msg.sender, pending);\n      }\n    }\n\n    function devWithdraw(uint256 _amount) external {\n      require(_amount <= devBalance, \"confiSale: balance insufficient\");\n      devBalance = devBalance.sub(_amount);\n      _safeTokenTransfer(devAddr, _amount);\n    }\n\n    function pendingToken(address _user) external view returns(uint256) {\n      UserInfo storage user = userInfo[_user];\n      uint256 _accTokenPerShare = accTokenPerShare;\n      if (block.number > lastRewardBlock && totalWeight > 0) {\n          uint256 shareReward = poolBalance\n              .mul(block.number.sub(lastRewardBlock).div(intervalBlock))\n              .mul(apyRatio)\n              .div(10000);\n\n          _accTokenPerShare = _accTokenPerShare.add(shareReward.mul(1e12).div(totalWeight));\n      }\n\n      uint256 pending = user.weight.mul(_accTokenPerShare).div(1e12).sub(user.rewardDebt);\n      return user.balance.add(pending);\n    }\n\n    // limit confi token\n    function retrieve(address _to, uint256 _count) external onlyOwner {\n      if(_count > confiSupply) {\n        _count = confiSupply;\n      }\n\n      for(uint256 i = 1; i <= _count; i ++){\n          uint256 _tokenId = confiIds[confiSupply - 1];\n          confiStls[_tokenId] = false;\n          delete confiIds[confiSupply - 1];\n          confiSupply = confiSupply.sub(1);\n          _safeNFTTransfer(_to, _tokenId);\n      }\n    }\n\n    function forceRetrieve(address _to, uint256 _tokenId) external onlyOwner{\n        if(confiSupply > 0){\n          confiSupply = confiSupply.sub(1);\n        }\n        confiStls[_tokenId] = false;\n        _safeNFTTransfer(_to, _tokenId);\n    }\n\n    function _poolLogic() internal {\n      if(poolBalance == 0){\n        lastRewardBlock = block.number;\n        return;\n      }\n      if(intervalBlock == 0){\n        return;\n      }\n      if(intervalBlock > block.number){\n        return;\n      }\n      if(block.number.sub(intervalBlock) <= lastRewardBlock){\n        return;\n      }\n      if(totalWeight == 0){\n        lastRewardBlock = block.number;\n        return;\n      }\n\n      uint256 _times = block.number.sub(lastRewardBlock).div(intervalBlock);\n      uint256 shareReward = poolBalance\n            .mul(_times)\n            .mul(apyRatio)\n            .div(10000);\n      poolBalance = poolBalance.sub(shareReward);\n      accTokenPerShare = accTokenPerShare.add(shareReward.mul(1e12).div(totalWeight));\n      lastRewardBlock = lastRewardBlock.add(intervalBlock.mul(_times));\n    }\n\n    function _poolAssign(uint256 _amount) internal {\n      require(devAddr != address(0), \"ConfiSale: devAddr is zero address\");\n      uint256 _reward = _amount.mul(rewardRatio).div(100);\n      totalPoolAmount = totalPoolAmount.add(_reward);\n      poolBalance = poolBalance.add(_reward);\n      totalDevAmount = totalDevAmount.add(_amount.sub(_reward));\n      devBalance = devBalance.add(_amount.sub(_reward));\n    }\n\n    function _seed(address _user, uint256 _confiSupply) public view returns (uint256) {\n        return uint256(\n            uint256(keccak256(abi.encodePacked(_user, block.number, block.timestamp, block.difficulty))) % _confiSupply\n        );\n    }\n\n    function _safeNFTTransfer(address _to, uint256 _id) internal {\n        IConfiNFT(confi).safeTransferFrom(address(this), _to, _id, 1, '');\n    }\n\n    function _safeTokenTransfer(address _to, uint256 _amount) internal {\n        uint256 tokenBal = IERC20(cMoonToken).balanceOf(address(this));\n        require(_amount <= tokenBal, \"ConfiSale: cMoon insufficient\");\n        IERC20(cMoonToken).transfer(_to, _amount);\n    }\n\n    function onERC1155Received(\n          address _operator,\n          address _from,\n          uint256 _id,\n          uint256 _amount,\n          bytes calldata _data) external returns(bytes4){\n\n          require(msg.sender == confi, \"ConfiSale: only receive confi\");\n          uint256[] memory _ids;\n          _ids[0] = _id;\n          uint256[] memory _amounts;\n          _amounts[0] = _amount;\n          if(_data[0] == 0x01) {\n            //\n            _uploadNFT(_from, _ids, _amounts);\n          }else{\n            _stake(_from, _ids, _amounts);\n          }\n\n          return 0xf23a6e61;\n    }\n\n    function onERC1155BatchReceived(\n          address _operator,\n          address _from,\n          uint256[] calldata _ids,\n          uint256[] calldata _amounts,\n          bytes calldata _data) external returns(bytes4){\n\n          require(msg.sender == confi, \"ConfiSale: only receive confi\");\n          if(_data[0] == 0x01) {\n            // uploadNFT\n            _uploadNFT(_from, _ids, _amounts);\n          }else{\n            // stake\n            _stake(_from, _ids, _amounts);\n          }\n\n          return 0xbc197c81;\n    }\n\n    // erc777 receiveToken\n    function tokensReceived(address operator, address from, address to, uint amount,\n          bytes calldata userData,\n          bytes calldata operatorData) external {\n\n          require(msg.sender == cMoonToken, \"ConfiSale: only receive cMoon\");\n          _buy(from, amount);\n          emit TokenTransfer(msg.sender, from, to, amount);\n    }\n\n    function setDevAddr(address _devAddr) external onlyOwner {\n        devAddr = _devAddr;\n    }\n\n    function setOutEnable(bool _outEnable) external onlyOwner {\n       outEnable = _outEnable;\n    }\n}\n",
  "sourcePath": "/Users/junhuazhou/Documents/GitHub/moonswap-amm/contracts/ConfiSale.sol",
  "compiler": {
    "name": "solc",
    "version": "0.5.16+commit.9c3226ce.Emscripten.clang"
  },
  "schemaVersion": "3.2.0",
  "updatedAt": "2020-10-16T04:12:52.597Z",
  "devdoc": {
    "methods": {
      "isOwner()": {
        "details": "Returns true if the caller is the current owner."
      },
      "owner()": {
        "details": "Returns the address of the current owner."
      },
      "renounceOwnership()": {
        "details": "Leaves the contract without owner. It will not be possible to call `onlyOwner` functions anymore. Can only be called by the current owner.     * NOTE: Renouncing ownership will leave the contract without an owner, thereby removing any functionality that is only available to the owner."
      }
    }
  },
  "userdoc": {
    "methods": {}
  }
}