{
  "contractName": "ExampleOracleSimple",
  "abi": [
    {
      "inputs": [
        {
          "internalType": "address",
          "name": "factory",
          "type": "address"
        },
        {
          "internalType": "address",
          "name": "tokenA",
          "type": "address"
        },
        {
          "internalType": "address",
          "name": "tokenB",
          "type": "address"
        }
      ],
      "payable": false,
      "stateMutability": "nonpayable",
      "type": "constructor"
    },
    {
      "constant": true,
      "inputs": [],
      "name": "PERIOD",
      "outputs": [
        {
          "internalType": "uint256",
          "name": "",
          "type": "uint256"
        }
      ],
      "payable": false,
      "stateMutability": "view",
      "type": "function"
    },
    {
      "constant": true,
      "inputs": [],
      "name": "blockTimestampLast",
      "outputs": [
        {
          "internalType": "uint32",
          "name": "",
          "type": "uint32"
        }
      ],
      "payable": false,
      "stateMutability": "view",
      "type": "function"
    },
    {
      "constant": true,
      "inputs": [],
      "name": "price0Average",
      "outputs": [
        {
          "internalType": "uint224",
          "name": "_x",
          "type": "uint224"
        }
      ],
      "payable": false,
      "stateMutability": "view",
      "type": "function"
    },
    {
      "constant": true,
      "inputs": [],
      "name": "price0CumulativeLast",
      "outputs": [
        {
          "internalType": "uint256",
          "name": "",
          "type": "uint256"
        }
      ],
      "payable": false,
      "stateMutability": "view",
      "type": "function"
    },
    {
      "constant": true,
      "inputs": [],
      "name": "price1Average",
      "outputs": [
        {
          "internalType": "uint224",
          "name": "_x",
          "type": "uint224"
        }
      ],
      "payable": false,
      "stateMutability": "view",
      "type": "function"
    },
    {
      "constant": true,
      "inputs": [],
      "name": "price1CumulativeLast",
      "outputs": [
        {
          "internalType": "uint256",
          "name": "",
          "type": "uint256"
        }
      ],
      "payable": false,
      "stateMutability": "view",
      "type": "function"
    },
    {
      "constant": true,
      "inputs": [],
      "name": "token0",
      "outputs": [
        {
          "internalType": "address",
          "name": "",
          "type": "address"
        }
      ],
      "payable": false,
      "stateMutability": "view",
      "type": "function"
    },
    {
      "constant": true,
      "inputs": [],
      "name": "token1",
      "outputs": [
        {
          "internalType": "address",
          "name": "",
          "type": "address"
        }
      ],
      "payable": false,
      "stateMutability": "view",
      "type": "function"
    },
    {
      "constant": false,
      "inputs": [],
      "name": "update",
      "outputs": [],
      "payable": false,
      "stateMutability": "nonpayable",
      "type": "function"
    },
    {
      "constant": true,
      "inputs": [
        {
          "internalType": "address",
          "name": "token",
          "type": "address"
        },
        {
          "internalType": "uint256",
          "name": "amountIn",
          "type": "uint256"
        }
      ],
      "name": "consult",
      "outputs": [
        {
          "internalType": "uint256",
          "name": "amountOut",
          "type": "uint256"
        }
      ],
      "payable": false,
      "stateMutability": "view",
      "type": "function"
    }
  ],
  "bytecode": "0x60806040523480156200001157600080fd5b5060405162001b1338038062001b13833981810160405260608110156200003757600080fd5b81019080805190602001909291908051906020019092919080519060200190929190505050600062000076848484620004cd60201b62000cf41760201c565b9050806000806101000a81548173ffffffffffffffffffffffffffffffffffffffff021916908373ffffffffffffffffffffffffffffffffffffffff1602179055508073ffffffffffffffffffffffffffffffffffffffff16630dfe16816040518163ffffffff1660e01b815260040160206040518083038186803b158015620000ff57600080fd5b505afa15801562000114573d6000803e3d6000fd5b505050506040513d60208110156200012b57600080fd5b8101908080519060200190929190505050600160006101000a81548173ffffffffffffffffffffffffffffffffffffffff021916908373ffffffffffffffffffffffffffffffffffffffff1602179055508073ffffffffffffffffffffffffffffffffffffffff1663d21220a76040518163ffffffff1660e01b815260040160206040518083038186803b158015620001c357600080fd5b505afa158015620001d8573d6000803e3d6000fd5b505050506040513d6020811015620001ef57600080fd5b8101908080519060200190929190505050600260006101000a81548173ffffffffffffffffffffffffffffffffffffffff021916908373ffffffffffffffffffffffffffffffffffffffff1602179055508073ffffffffffffffffffffffffffffffffffffffff16635909c0d56040518163ffffffff1660e01b815260040160206040518083038186803b1580156200028757600080fd5b505afa1580156200029c573d6000803e3d6000fd5b505050506040513d6020811015620002b357600080fd5b81019080805190602001909291905050506003819055508073ffffffffffffffffffffffffffffffffffffffff16635a3d54936040518163ffffffff1660e01b815260040160206040518083038186803b1580156200031157600080fd5b505afa15801562000326573d6000803e3d6000fd5b505050506040513d60208110156200033d57600080fd5b81019080805190602001909291905050506004819055506000808273ffffffffffffffffffffffffffffffffffffffff16630902f1ac6040518163ffffffff1660e01b815260040160606040518083038186803b1580156200039e57600080fd5b505afa158015620003b3573d6000803e3d6000fd5b505050506040513d6060811015620003ca57600080fd5b81019080805190602001909291908051906020019092919080519060200190929190505050600560008291906101000a81548163ffffffff021916908363ffffffff1602179055508193508294505050506000826dffffffffffffffffffffffffffff16141580156200044e57506000816dffffffffffffffffffffffffffff1614155b620004c1576040517f08c379a00000000000000000000000000000000000000000000000000000000081526004018080602001828103825260208152602001807f4578616d706c654f7261636c6553696d706c653a204e4f5f524553455256455381525060200191505060405180910390fd5b5050505050506200090d565b6000806000620004e485856200064360201b60201c565b91509150858282604051602001808373ffffffffffffffffffffffffffffffffffffffff1673ffffffffffffffffffffffffffffffffffffffff1660601b81526014018273ffffffffffffffffffffffffffffffffffffffff1673ffffffffffffffffffffffffffffffffffffffff1660601b8152601401925050506040516020818303038152906040528051906020012060405160200180807fff000000000000000000000000000000000000000000000000000000000000008152506001018373ffffffffffffffffffffffffffffffffffffffff1673ffffffffffffffffffffffffffffffffffffffff1660601b8152601401828152602001807fb2be9653367392fe0f133bf57885e8b7fc771a09a8c067d595700165250f0f8a815250602001925050506040516020818303038152906040528051906020012060001c92506200063883620007bf60201b60201c565b925050509392505050565b6000808273ffffffffffffffffffffffffffffffffffffffff168473ffffffffffffffffffffffffffffffffffffffff161415620006cd576040517f08c379a000000000000000000000000000000000000000000000000000000000815260040180806020018281038252602581526020018062001aee6025913960400191505060405180910390fd5b8273ffffffffffffffffffffffffffffffffffffffff168473ffffffffffffffffffffffffffffffffffffffff1610620007095782846200070c565b83835b8092508193505050600073ffffffffffffffffffffffffffffffffffffffff168273ffffffffffffffffffffffffffffffffffffffff161415620007b8576040517f08c379a000000000000000000000000000000000000000000000000000000000815260040180806020018281038252601e8152602001807f556e697377617056324c6962726172793a205a45524f5f41444452455353000081525060200191505060405180910390fd5b9250929050565b60006060620007d483620008a760201b60201c565b9050600f60f81b81600081518110620007e957fe5b602001015160f81c60f81b16816000815181106200080357fe5b60200101907effffffffffffffffffffffffffffffffffffffffffffffffffffffffffffff1916908160001a905350608060f81b816000815181106200084557fe5b602001015160f81c60f81b17816000815181106200085f57fe5b60200101907effffffffffffffffffffffffffffffffffffffffffffffffffffffffffffff1916908160001a9053506200089f81620008ff60201b60201c565b915050919050565b606081604051602001808273ffffffffffffffffffffffffffffffffffffffff1673ffffffffffffffffffffffffffffffffffffffff1660601b81526014019150506040516020818303038152906040529050919050565b600060148201519050919050565b6111d1806200091d6000396000f3fe608060405234801561001057600080fd5b506004361061009e5760003560e01c8063a2e6204511610066578063a2e62045146101e5578063a6bb4539146101ef578063b4d1d79514610249578063c5700a0214610267578063d21220a7146102915761009e565b80630dfe1681146100a35780633ddac953146100ed5780635909c0d51461014f5780635a3d54931461016d5780635e6aaf2c1461018b575b600080fd5b6100ab6102db565b604051808273ffffffffffffffffffffffffffffffffffffffff1673ffffffffffffffffffffffffffffffffffffffff16815260200191505060405180910390f35b6101396004803603604081101561010357600080fd5b81019080803573ffffffffffffffffffffffffffffffffffffffff16906020019092919080359060200190929190505050610301565b6040518082815260200191505060405180910390f35b610157610561565b6040518082815260200191505060405180910390f35b610175610567565b6040518082815260200191505060405180910390f35b61019361056d565b60405180827bffffffffffffffffffffffffffffffffffffffffffffffffffffffff167bffffffffffffffffffffffffffffffffffffffffffffffffffffffff16815260200191505060405180910390f35b6101ed6105a1565b005b6101f76107be565b60405180827bffffffffffffffffffffffffffffffffffffffffffffffffffffffff167bffffffffffffffffffffffffffffffffffffffffffffffffffffffff16815260200191505060405180910390f35b6102516107f2565b6040518082815260200191505060405180910390f35b61026f6107f9565b604051808263ffffffff1663ffffffff16815260200191505060405180910390f35b61029961080f565b604051808273ffffffffffffffffffffffffffffffffffffffff1673ffffffffffffffffffffffffffffffffffffffff16815260200191505060405180910390f35b600160009054906101000a900473ffffffffffffffffffffffffffffffffffffffff1681565b6000600160009054906101000a900473ffffffffffffffffffffffffffffffffffffffff1673ffffffffffffffffffffffffffffffffffffffff168373ffffffffffffffffffffffffffffffffffffffff161415610409576103ee6103e98360066040518060200160405290816000820160009054906101000a90047bffffffffffffffffffffffffffffffffffffffffffffffffffffffff167bffffffffffffffffffffffffffffffffffffffffffffffffffffffff167bffffffffffffffffffffffffffffffffffffffffffffffffffffffff168152505061083590919063ffffffff16565b61090b565b71ffffffffffffffffffffffffffffffffffff16905061055b565b600260009054906101000a900473ffffffffffffffffffffffffffffffffffffffff1673ffffffffffffffffffffffffffffffffffffffff168373ffffffffffffffffffffffffffffffffffffffff16146104af576040517f08c379a00000000000000000000000000000000000000000000000000000000081526004018080602001828103825260228152602001806111316022913960400191505060405180910390fd5b61054461053f8360076040518060200160405290816000820160009054906101000a90047bffffffffffffffffffffffffffffffffffffffffffffffffffffffff167bffffffffffffffffffffffffffffffffffffffffffffffffffffffff167bffffffffffffffffffffffffffffffffffffffffffffffffffffffff168152505061083590919063ffffffff16565b61090b565b71ffffffffffffffffffffffffffffffffffff1690505b92915050565b60035481565b60045481565b60078060000160009054906101000a90047bffffffffffffffffffffffffffffffffffffffffffffffffffffffff16905081565b60008060006105d06000809054906101000a900473ffffffffffffffffffffffffffffffffffffffff16610920565b9250925092506000600560009054906101000a900463ffffffff1682039050620151808163ffffffff161015610651576040517f08c379a00000000000000000000000000000000000000000000000000000000081526004018080602001828103825260278152602001806111536027913960400191505060405180910390fd5b60405180602001604052808263ffffffff1660035487038161066f57fe5b047bffffffffffffffffffffffffffffffffffffffffffffffffffffffff16815250600660008201518160000160006101000a8154817bffffffffffffffffffffffffffffffffffffffffffffffffffffffff02191690837bffffffffffffffffffffffffffffffffffffffffffffffffffffffff16021790555090505060405180602001604052808263ffffffff1660045486038161070b57fe5b047bffffffffffffffffffffffffffffffffffffffffffffffffffffffff16815250600760008201518160000160006101000a8154817bffffffffffffffffffffffffffffffffffffffffffffffffffffffff02191690837bffffffffffffffffffffffffffffffffffffffffffffffffffffffff160217905550905050836003819055508260048190555081600560006101000a81548163ffffffff021916908363ffffffff16021790555050505050565b60068060000160009054906101000a90047bffffffffffffffffffffffffffffffffffffffffffffffffffffffff16905081565b6201518081565b600560009054906101000a900463ffffffff1681565b600260009054906101000a900473ffffffffffffffffffffffffffffffffffffffff1681565b61083d610cb0565b60008083148061089e575083600001517bffffffffffffffffffffffffffffffffffffffffffffffffffffffff16838486600001517bffffffffffffffffffffffffffffffffffffffffffffffffffffffff16029250828161089b57fe5b04145b6108f3576040517f08c379a000000000000000000000000000000000000000000000000000000000815260040180806020018281038252602381526020018061117a6023913960400191505060405180910390fd5b60405180602001604052808281525091505092915050565b6000607060ff168260000151901c9050919050565b600080600061092d610b6b565b90508373ffffffffffffffffffffffffffffffffffffffff16635909c0d56040518163ffffffff1660e01b815260040160206040518083038186803b15801561097557600080fd5b505afa158015610989573d6000803e3d6000fd5b505050506040513d602081101561099f57600080fd5b810190808051906020019092919050505092508373ffffffffffffffffffffffffffffffffffffffff16635a3d54936040518163ffffffff1660e01b815260040160206040518083038186803b1580156109f857600080fd5b505afa158015610a0c573d6000803e3d6000fd5b505050506040513d6020811015610a2257600080fd5b8101908080519060200190929190505050915060008060008673ffffffffffffffffffffffffffffffffffffffff16630902f1ac6040518163ffffffff1660e01b815260040160606040518083038186803b158015610a8057600080fd5b505afa158015610a94573d6000803e3d6000fd5b505050506040513d6060811015610aaa57600080fd5b810190808051906020019092919080519060200190929190805190602001909291905050509250925092508363ffffffff168163ffffffff1614610b6157600081850390508063ffffffff16610b008486610b81565b600001517bffffffffffffffffffffffffffffffffffffffffffffffffffffffff1602870196508063ffffffff16610b388585610b81565b600001517bffffffffffffffffffffffffffffffffffffffffffffffffffffffff160286019550505b5050509193909250565b60006401000000004281610b7b57fe5b06905090565b610b89610cc3565b6000826dffffffffffffffffffffffffffff1611610c0f576040517f08c379a00000000000000000000000000000000000000000000000000000000081526004018080602001828103825260178152602001807f4669786564506f696e743a204449565f42595f5a45524f00000000000000000081525060200191505060405180910390fd5b6040518060200160405280836dffffffffffffffffffffffffffff16607060ff16866dffffffffffffffffffffffffffff167bffffffffffffffffffffffffffffffffffffffffffffffffffffffff16901b7bffffffffffffffffffffffffffffffffffffffffffffffffffffffff1681610c8657fe5b047bffffffffffffffffffffffffffffffffffffffffffffffffffffffff16815250905092915050565b6040518060200160405280600081525090565b604051806020016040528060007bffffffffffffffffffffffffffffffffffffffffffffffffffffffff1681525090565b6000806000610d038585610e5a565b91509150858282604051602001808373ffffffffffffffffffffffffffffffffffffffff1673ffffffffffffffffffffffffffffffffffffffff1660601b81526014018273ffffffffffffffffffffffffffffffffffffffff1673ffffffffffffffffffffffffffffffffffffffff1660601b8152601401925050506040516020818303038152906040528051906020012060405160200180807fff000000000000000000000000000000000000000000000000000000000000008152506001018373ffffffffffffffffffffffffffffffffffffffff1673ffffffffffffffffffffffffffffffffffffffff1660601b8152601401828152602001807fb2be9653367392fe0f133bf57885e8b7fc771a09a8c067d595700165250f0f8a815250602001925050506040516020818303038152906040528051906020012060001c9250610e4f83610fd1565b925050509392505050565b6000808273ffffffffffffffffffffffffffffffffffffffff168473ffffffffffffffffffffffffffffffffffffffff161415610ee2576040517f08c379a000000000000000000000000000000000000000000000000000000000815260040180806020018281038252602581526020018061110c6025913960400191505060405180910390fd5b8273ffffffffffffffffffffffffffffffffffffffff168473ffffffffffffffffffffffffffffffffffffffff1610610f1c578284610f1f565b83835b8092508193505050600073ffffffffffffffffffffffffffffffffffffffff168273ffffffffffffffffffffffffffffffffffffffff161415610fca576040517f08c379a000000000000000000000000000000000000000000000000000000000815260040180806020018281038252601e8152602001807f556e697377617056324c6962726172793a205a45524f5f41444452455353000081525060200191505060405180910390fd5b9250929050565b60006060610fde836110a5565b9050600f60f81b81600081518110610ff257fe5b602001015160f81c60f81b168160008151811061100b57fe5b60200101907effffffffffffffffffffffffffffffffffffffffffffffffffffffffffffff1916908160001a905350608060f81b8160008151811061104c57fe5b602001015160f81c60f81b178160008151811061106557fe5b60200101907effffffffffffffffffffffffffffffffffffffffffffffffffffffffffffff1916908160001a90535061109d816110fd565b915050919050565b606081604051602001808273ffffffffffffffffffffffffffffffffffffffff1673ffffffffffffffffffffffffffffffffffffffff1660601b81526014019150506040516020818303038152906040529050919050565b60006014820151905091905056fe556e697377617056324c6962726172793a204944454e544943414c5f4144445245535345534578616d706c654f7261636c6553696d706c653a20494e56414c49445f544f4b454e4578616d706c654f7261636c6553696d706c653a20504552494f445f4e4f545f454c41505345444669786564506f696e743a204d554c5449504c49434154494f4e5f4f564552464c4f57a265627a7a72315820b25f4ae12ccfc3f232c402e0cdf88566e85b79d4e57ee2b1ee5a03438c9f533264736f6c63430005100032556e697377617056324c6962726172793a204944454e544943414c5f414444524553534553",
  "source": "pragma solidity =0.5.16;\n\nimport '../interfaces/IUniswapV2Factory.sol';\nimport '../interfaces/IUniswapV2Pair.sol';\nimport '../libraries/FixedPoint.sol';\n\nimport '../libraries/UniswapV2OracleLibrary.sol';\nimport '../libraries/UniswapV2Library.sol';\n\n// fixed window oracle that recomputes the average price for the entire period once every period\n// note that the price average is only guaranteed to be over at least 1 period, but may be over a longer period\ncontract ExampleOracleSimple {\n    using FixedPoint for *;\n\n    uint public constant PERIOD = 24 hours;\n\n    IUniswapV2Pair pair;\n    address public token0;\n    address public token1;\n\n    uint    public price0CumulativeLast;\n    uint    public price1CumulativeLast;\n    uint32  public blockTimestampLast;\n    FixedPoint.uq112x112 public price0Average;\n    FixedPoint.uq112x112 public price1Average;\n\n    constructor(address factory, address tokenA, address tokenB) public {\n        IUniswapV2Pair _pair = IUniswapV2Pair(UniswapV2Library.pairFor(factory, tokenA, tokenB));\n        pair = _pair;\n        token0 = _pair.token0();\n        token1 = _pair.token1();\n        price0CumulativeLast = _pair.price0CumulativeLast(); // fetch the current accumulated price value (1 / 0)\n        price1CumulativeLast = _pair.price1CumulativeLast(); // fetch the current accumulated price value (0 / 1)\n        uint112 reserve0;\n        uint112 reserve1;\n        (reserve0, reserve1, blockTimestampLast) = _pair.getReserves();\n        require(reserve0 != 0 && reserve1 != 0, 'ExampleOracleSimple: NO_RESERVES'); // ensure that there's liquidity in the pair\n    }\n\n    function update() external {\n        (uint price0Cumulative, uint price1Cumulative, uint32 blockTimestamp) =\n            UniswapV2OracleLibrary.currentCumulativePrices(address(pair));\n        uint32 timeElapsed = blockTimestamp - blockTimestampLast; // overflow is desired\n\n        // ensure that at least one full period has passed since the last update\n        require(timeElapsed >= PERIOD, 'ExampleOracleSimple: PERIOD_NOT_ELAPSED');\n\n        // overflow is desired, casting never truncates\n        // cumulative price is in (uq112x112 price * seconds) units so we simply wrap it after division by time elapsed\n        price0Average = FixedPoint.uq112x112(uint224((price0Cumulative - price0CumulativeLast) / timeElapsed));\n        price1Average = FixedPoint.uq112x112(uint224((price1Cumulative - price1CumulativeLast) / timeElapsed));\n\n        price0CumulativeLast = price0Cumulative;\n        price1CumulativeLast = price1Cumulative;\n        blockTimestampLast = blockTimestamp;\n    }\n\n    // note this will always return 0 before update has been called successfully for the first time.\n    function consult(address token, uint amountIn) external view returns (uint amountOut) {\n        if (token == token0) {\n            amountOut = price0Average.mul(amountIn).decode144();\n        } else {\n            require(token == token1, 'ExampleOracleSimple: INVALID_TOKEN');\n            amountOut = price1Average.mul(amountIn).decode144();\n        }\n    }\n}\n",
  "sourcePath": "/Users/junhuazhou/Documents/GitHub/moonswap-amm/contracts/examples/ExampleOracleSimple.sol",
  "compiler": {
    "name": "solc",
    "version": "0.5.16+commit.9c3226ce.Emscripten.clang"
  },
  "schemaVersion": "3.2.0",
  "updatedAt": "2020-09-20T08:58:41.232Z",
  "devdoc": {
    "methods": {}
  },
  "userdoc": {
    "methods": {}
  }
}