{
  "contractName": "MigratorPair",
  "abi": [
    {
      "inputs": [],
      "payable": false,
      "stateMutability": "nonpayable",
      "type": "constructor"
    },
    {
      "anonymous": false,
      "inputs": [
        {
          "indexed": true,
          "internalType": "address",
          "name": "swapPair",
          "type": "address"
        },
        {
          "indexed": true,
          "internalType": "address",
          "name": "from",
          "type": "address"
        },
        {
          "indexed": false,
          "internalType": "uint256",
          "name": "balance0",
          "type": "uint256"
        },
        {
          "indexed": false,
          "internalType": "uint256",
          "name": "balance1",
          "type": "uint256"
        }
      ],
      "name": "AddLiquidityEvent",
      "type": "event"
    },
    {
      "anonymous": false,
      "inputs": [
        {
          "indexed": true,
          "internalType": "address",
          "name": "swapPair",
          "type": "address"
        },
        {
          "indexed": true,
          "internalType": "address",
          "name": "from",
          "type": "address"
        },
        {
          "indexed": false,
          "internalType": "uint256",
          "name": "value",
          "type": "uint256"
        }
      ],
      "name": "ExchangeLpToken",
      "type": "event"
    },
    {
      "anonymous": false,
      "inputs": [
        {
          "indexed": true,
          "internalType": "address",
          "name": "tokenAddress",
          "type": "address"
        },
        {
          "indexed": true,
          "internalType": "address",
          "name": "from",
          "type": "address"
        },
        {
          "indexed": false,
          "internalType": "address",
          "name": "to",
          "type": "address"
        },
        {
          "indexed": false,
          "internalType": "uint256",
          "name": "value",
          "type": "uint256"
        }
      ],
      "name": "TokenTransfer",
      "type": "event"
    },
    {
      "constant": true,
      "inputs": [],
      "name": "SPONSOR",
      "outputs": [
        {
          "internalType": "contract SponsorWhitelistControl",
          "name": "",
          "type": "address"
        }
      ],
      "payable": false,
      "stateMutability": "view",
      "type": "function"
    },
    {
      "constant": true,
      "inputs": [],
      "name": "factory",
      "outputs": [
        {
          "internalType": "address",
          "name": "",
          "type": "address"
        }
      ],
      "payable": false,
      "stateMutability": "view",
      "type": "function"
    },
    {
      "constant": true,
      "inputs": [],
      "name": "token0",
      "outputs": [
        {
          "internalType": "address",
          "name": "",
          "type": "address"
        }
      ],
      "payable": false,
      "stateMutability": "view",
      "type": "function"
    },
    {
      "constant": true,
      "inputs": [],
      "name": "token1",
      "outputs": [
        {
          "internalType": "address",
          "name": "",
          "type": "address"
        }
      ],
      "payable": false,
      "stateMutability": "view",
      "type": "function"
    },
    {
      "constant": false,
      "inputs": [
        {
          "internalType": "address",
          "name": "_token0",
          "type": "address"
        },
        {
          "internalType": "address",
          "name": "_token1",
          "type": "address"
        }
      ],
      "name": "initialize",
      "outputs": [],
      "payable": false,
      "stateMutability": "nonpayable",
      "type": "function"
    },
    {
      "constant": false,
      "inputs": [],
      "name": "exchangeLp",
      "outputs": [],
      "payable": false,
      "stateMutability": "nonpayable",
      "type": "function"
    },
    {
      "constant": false,
      "inputs": [],
      "name": "addLiquidity",
      "outputs": [],
      "payable": false,
      "stateMutability": "nonpayable",
      "type": "function"
    },
    {
      "constant": false,
      "inputs": [],
      "name": "getTotalShareAmount",
      "outputs": [
        {
          "internalType": "uint256",
          "name": "",
          "type": "uint256"
        }
      ],
      "payable": false,
      "stateMutability": "nonpayable",
      "type": "function"
    },
    {
      "constant": false,
      "inputs": [
        {
          "internalType": "uint256",
          "name": "_shareAmount",
          "type": "uint256"
        }
      ],
      "name": "setTotalShareAmount",
      "outputs": [],
      "payable": false,
      "stateMutability": "nonpayable",
      "type": "function"
    },
    {
      "constant": false,
      "inputs": [
        {
          "internalType": "address[]",
          "name": "_users",
          "type": "address[]"
        },
        {
          "internalType": "uint256[]",
          "name": "_shareAmounts",
          "type": "uint256[]"
        }
      ],
      "name": "uploadUserShares",
      "outputs": [],
      "payable": false,
      "stateMutability": "nonpayable",
      "type": "function"
    },
    {
      "constant": true,
      "inputs": [
        {
          "internalType": "address",
          "name": "to",
          "type": "address"
        }
      ],
      "name": "getShareAmount",
      "outputs": [
        {
          "internalType": "uint256",
          "name": "",
          "type": "uint256"
        }
      ],
      "payable": false,
      "stateMutability": "view",
      "type": "function"
    },
    {
      "constant": false,
      "inputs": [
        {
          "internalType": "address",
          "name": "operator",
          "type": "address"
        },
        {
          "internalType": "address",
          "name": "from",
          "type": "address"
        },
        {
          "internalType": "address",
          "name": "to",
          "type": "address"
        },
        {
          "internalType": "uint256",
          "name": "amount",
          "type": "uint256"
        },
        {
          "internalType": "bytes",
          "name": "userData",
          "type": "bytes"
        },
        {
          "internalType": "bytes",
          "name": "operatorData",
          "type": "bytes"
        }
      ],
      "name": "tokensReceived",
      "outputs": [],
      "payable": false,
      "stateMutability": "nonpayable",
      "type": "function"
    }
  ],
  "bytecode": "0x608060405273866aca87ff33a0ae05d2164b3d999a804f583222600660006101000a81548173ffffffffffffffffffffffffffffffffffffffff021916908373ffffffffffffffffffffffffffffffffffffffff1602179055503480156200006657600080fd5b50336000806101000a81548173ffffffffffffffffffffffffffffffffffffffff021916908373ffffffffffffffffffffffffffffffffffffffff160217905550600660009054906101000a900473ffffffffffffffffffffffffffffffffffffffff1673ffffffffffffffffffffffffffffffffffffffff166329965a1d307fb281fc8c12954d22544db45de3159a39272895b169a852b314f9cc762e44c53b60001b306040518463ffffffff1660e01b8152600401808473ffffffffffffffffffffffffffffffffffffffff1673ffffffffffffffffffffffffffffffffffffffff1681526020018381526020018273ffffffffffffffffffffffffffffffffffffffff1673ffffffffffffffffffffffffffffffffffffffff1681526020019350505050600060405180830381600087803b158015620001a857600080fd5b505af1158015620001bd573d6000803e3d6000fd5b5050505060606001604051908082528060200260200182016040528015620001f45781602001602082028038833980820191505090505b5090506000816000815181106200020757fe5b602002602001019073ffffffffffffffffffffffffffffffffffffffff16908173ffffffffffffffffffffffffffffffffffffffff168152505073088800000000000000000000000000000000000173ffffffffffffffffffffffffffffffffffffffff1663fe15156c826040518263ffffffff1660e01b81526004018080602001828103825283818151815260200191508051906020019060200280838360005b83811015620002c6578082015181840152602081019050620002a9565b5050505090500192505050600060405180830381600087803b158015620002ec57600080fd5b505af115801562000301573d6000803e3d6000fd5b505050505061248a80620003166000396000f3fe608060405234801561001057600080fd5b50600436106100b35760003560e01c8063c45a015511610071578063c45a015514610310578063d06590e11461035a578063d21220a714610428578063da5b20a414610472578063e35fafe4146104a0578063e8078d94146104f8576100b3565b806223de29146100b85780630dfe1681146101f05780631d073a7a1461023a578063485cc95514610284578063936fcb37146102e8578063b1a40f9514610306575b600080fd5b6101ee600480360360c08110156100ce57600080fd5b81019080803573ffffffffffffffffffffffffffffffffffffffff169060200190929190803573ffffffffffffffffffffffffffffffffffffffff169060200190929190803573ffffffffffffffffffffffffffffffffffffffff169060200190929190803590602001909291908035906020019064010000000081111561015557600080fd5b82018360208201111561016757600080fd5b8035906020019184600183028401116401000000008311171561018957600080fd5b9091929391929390803590602001906401000000008111156101aa57600080fd5b8201836020820111156101bc57600080fd5b803590602001918460018302840111640100000000831117156101de57600080fd5b9091929391929390505050610502565b005b6101f86106c2565b604051808273ffffffffffffffffffffffffffffffffffffffff1673ffffffffffffffffffffffffffffffffffffffff16815260200191505060405180910390f35b6102426106e8565b604051808273ffffffffffffffffffffffffffffffffffffffff1673ffffffffffffffffffffffffffffffffffffffff16815260200191505060405180910390f35b6102e66004803603604081101561029a57600080fd5b81019080803573ffffffffffffffffffffffffffffffffffffffff169060200190929190803573ffffffffffffffffffffffffffffffffffffffff169060200190929190505050610700565b005b6102f0610848565b6040518082815260200191505060405180910390f35b61030e610852565b005b610318610b22565b604051808273ffffffffffffffffffffffffffffffffffffffff1673ffffffffffffffffffffffffffffffffffffffff16815260200191505060405180910390f35b6104266004803603604081101561037057600080fd5b810190808035906020019064010000000081111561038d57600080fd5b82018360208201111561039f57600080fd5b803590602001918460208302840111640100000000831117156103c157600080fd5b9091929391929390803590602001906401000000008111156103e257600080fd5b8201836020820111156103f457600080fd5b8035906020019184602083028401116401000000008311171561041657600080fd5b9091929391929390505050610b47565b005b610430610dbc565b604051808273ffffffffffffffffffffffffffffffffffffffff1673ffffffffffffffffffffffffffffffffffffffff16815260200191505060405180910390f35b61049e6004803603602081101561048857600080fd5b8101908080359060200190929190505050610de2565b005b6104e2600480360360208110156104b657600080fd5b81019080803573ffffffffffffffffffffffffffffffffffffffff169060200190929190505050610faa565b6040518082815260200191505060405180910390f35b610500610ff3565b005b60008060009054906101000a900473ffffffffffffffffffffffffffffffffffffffff1673ffffffffffffffffffffffffffffffffffffffff166343633297306040518263ffffffff1660e01b8152600401808273ffffffffffffffffffffffffffffffffffffffff1673ffffffffffffffffffffffffffffffffffffffff16815260200191505060206040518083038186803b1580156105a257600080fd5b505afa1580156105b6573d6000803e3d6000fd5b505050506040513d60208110156105cc57600080fd5b810190808051906020019092919050505090503373ffffffffffffffffffffffffffffffffffffffff168173ffffffffffffffffffffffffffffffffffffffff16141561061e5761061d8887611991565b5b8773ffffffffffffffffffffffffffffffffffffffff163373ffffffffffffffffffffffffffffffffffffffff167fae33cb06d7303f889d953bb09540983050163c1c4c98b330db432a911cfb63fd8989604051808373ffffffffffffffffffffffffffffffffffffffff1673ffffffffffffffffffffffffffffffffffffffff1681526020018281526020019250505060405180910390a3505050505050505050565b600160009054906101000a900473ffffffffffffffffffffffffffffffffffffffff1681565b73088800000000000000000000000000000000000181565b6000809054906101000a900473ffffffffffffffffffffffffffffffffffffffff1673ffffffffffffffffffffffffffffffffffffffff163373ffffffffffffffffffffffffffffffffffffffff16146107c2576040517f08c379a00000000000000000000000000000000000000000000000000000000081526004018080602001828103825260138152602001807f4d6f6f6e537761703a20464f5242494444454e0000000000000000000000000081525060200191505060405180910390fd5b81600160006101000a81548173ffffffffffffffffffffffffffffffffffffffff021916908373ffffffffffffffffffffffffffffffffffffffff16021790555080600260006101000a81548173ffffffffffffffffffffffffffffffffffffffff021916908373ffffffffffffffffffffffffffffffffffffffff1602179055505050565b6000600354905090565b60008060009054906101000a900473ffffffffffffffffffffffffffffffffffffffff1673ffffffffffffffffffffffffffffffffffffffff166343633297306040518263ffffffff1660e01b8152600401808273ffffffffffffffffffffffffffffffffffffffff1673ffffffffffffffffffffffffffffffffffffffff16815260200191505060206040518083038186803b1580156108f257600080fd5b505afa158015610906573d6000803e3d6000fd5b505050506040513d602081101561091c57600080fd5b81019080805190602001909291905050509050600073ffffffffffffffffffffffffffffffffffffffff168173ffffffffffffffffffffffffffffffffffffffff1614156109b5576040517f08c379a00000000000000000000000000000000000000000000000000000000081526004018080602001828103825260268152602001806124306026913960400191505060405180910390fd5b60008173ffffffffffffffffffffffffffffffffffffffff166370a08231336040518263ffffffff1660e01b8152600401808273ffffffffffffffffffffffffffffffffffffffff1673ffffffffffffffffffffffffffffffffffffffff16815260200191505060206040518083038186803b158015610a3457600080fd5b505afa158015610a48573d6000803e3d6000fd5b505050506040513d6020811015610a5e57600080fd5b8101908080519060200190929190505050905060008111610ae7576040517f08c379a00000000000000000000000000000000000000000000000000000000081526004018080602001828103825260148152602001807f4d6f6f6e537761703a206e6f2062616c616e636500000000000000000000000081525060200191505060405180910390fd5b610b143330838573ffffffffffffffffffffffffffffffffffffffff16611f3a909392919063ffffffff16565b610b1e3382611991565b5050565b6000809054906101000a900473ffffffffffffffffffffffffffffffffffffffff1681565b60008060009054906101000a900473ffffffffffffffffffffffffffffffffffffffff1673ffffffffffffffffffffffffffffffffffffffff1663f3f18c376040518163ffffffff1660e01b815260040160206040518083038186803b158015610bb057600080fd5b505afa158015610bc4573d6000803e3d6000fd5b505050506040513d6020811015610bda57600080fd5b810190808051906020019092919050505090508073ffffffffffffffffffffffffffffffffffffffff163373ffffffffffffffffffffffffffffffffffffffff1614610c8e576040517f08c379a00000000000000000000000000000000000000000000000000000000081526004018080602001828103825260138152602001807f4d6f6f6e537761703a20464f5242494444454e0000000000000000000000000081525060200191505060405180910390fd5b6000858590509050838390508114610d0e576040517f08c379a00000000000000000000000000000000000000000000000000000000081526004018080602001828103825260128152602001807f6c656e677468206973206e6f206d61746368000000000000000000000000000081525060200191505060405180910390fd5b60008090505b81811015610db3576000878783818110610d2a57fe5b9050602002013573ffffffffffffffffffffffffffffffffffffffff1690506000868684818110610d5757fe5b90506020020135905080600460008473ffffffffffffffffffffffffffffffffffffffff1673ffffffffffffffffffffffffffffffffffffffff1681526020019081526020016000208190555050508080600101915050610d14565b50505050505050565b600260009054906101000a900473ffffffffffffffffffffffffffffffffffffffff1681565b60008111610e58576040517f08c379a000000000000000000000000000000000000000000000000000000000815260040180806020018281038252601d8152602001807f4d6f6f6e537761703a207368617265416d6f756e74206973207a65726f00000081525060200191505060405180910390fd5b60008060009054906101000a900473ffffffffffffffffffffffffffffffffffffffff1673ffffffffffffffffffffffffffffffffffffffff1663f3f18c376040518163ffffffff1660e01b815260040160206040518083038186803b158015610ec157600080fd5b505afa158015610ed5573d6000803e3d6000fd5b505050506040513d6020811015610eeb57600080fd5b810190808051906020019092919050505090508073ffffffffffffffffffffffffffffffffffffffff163373ffffffffffffffffffffffffffffffffffffffff1614610f9f576040517f08c379a00000000000000000000000000000000000000000000000000000000081526004018080602001828103825260138152602001807f4d6f6f6e537761703a20464f5242494444454e0000000000000000000000000081525060200191505060405180910390fd5b816003819055505050565b6000600460008373ffffffffffffffffffffffffffffffffffffffff1673ffffffffffffffffffffffffffffffffffffffff168152602001908152602001600020549050919050565b60008060009054906101000a900473ffffffffffffffffffffffffffffffffffffffff1673ffffffffffffffffffffffffffffffffffffffff1663f3f18c376040518163ffffffff1660e01b815260040160206040518083038186803b15801561105c57600080fd5b505afa158015611070573d6000803e3d6000fd5b505050506040513d602081101561108657600080fd5b810190808051906020019092919050505090508073ffffffffffffffffffffffffffffffffffffffff163373ffffffffffffffffffffffffffffffffffffffff161461113a576040517f08c379a00000000000000000000000000000000000000000000000000000000081526004018080602001828103825260138152602001807f4d6f6f6e537761703a20464f5242494444454e0000000000000000000000000081525060200191505060405180910390fd5b60008060009054906101000a900473ffffffffffffffffffffffffffffffffffffffff1673ffffffffffffffffffffffffffffffffffffffff16637944f9446040518163ffffffff1660e01b815260040160206040518083038186803b1580156111a357600080fd5b505afa1580156111b7573d6000803e3d6000fd5b505050506040513d60208110156111cd57600080fd5b81019080805190602001909291905050509050600073ffffffffffffffffffffffffffffffffffffffff168173ffffffffffffffffffffffffffffffffffffffff161415611283576040517f08c379a00000000000000000000000000000000000000000000000000000000081526004018080602001828103825260198152602001807f4d6f6f6e537761703a206e6f207377617020666163746f72790000000000000081525060200191505060405180910390fd5b60008173ffffffffffffffffffffffffffffffffffffffff1663e6a43905600160009054906101000a900473ffffffffffffffffffffffffffffffffffffffff16600260009054906101000a900473ffffffffffffffffffffffffffffffffffffffff166040518363ffffffff1660e01b8152600401808373ffffffffffffffffffffffffffffffffffffffff1673ffffffffffffffffffffffffffffffffffffffff1681526020018273ffffffffffffffffffffffffffffffffffffffff1673ffffffffffffffffffffffffffffffffffffffff1681526020019250505060206040518083038186803b15801561137a57600080fd5b505afa15801561138e573d6000803e3d6000fd5b505050506040513d60208110156113a457600080fd5b81019080805190602001909291905050509050600073ffffffffffffffffffffffffffffffffffffffff168173ffffffffffffffffffffffffffffffffffffffff16141561145a576040517f08c379a00000000000000000000000000000000000000000000000000000000081526004018080602001828103825260168152602001807f4d6f6f6e537761703a206e6f207377617020706169720000000000000000000081525060200191505060405180910390fd5b6000600160009054906101000a900473ffffffffffffffffffffffffffffffffffffffff1673ffffffffffffffffffffffffffffffffffffffff166370a08231306040518263ffffffff1660e01b8152600401808273ffffffffffffffffffffffffffffffffffffffff1673ffffffffffffffffffffffffffffffffffffffff16815260200191505060206040518083038186803b1580156114fb57600080fd5b505afa15801561150f573d6000803e3d6000fd5b505050506040513d602081101561152557600080fd5b810190808051906020019092919050505090506000600260009054906101000a900473ffffffffffffffffffffffffffffffffffffffff1673ffffffffffffffffffffffffffffffffffffffff166370a08231306040518263ffffffff1660e01b8152600401808273ffffffffffffffffffffffffffffffffffffffff1673ffffffffffffffffffffffffffffffffffffffff16815260200191505060206040518083038186803b1580156115d957600080fd5b505afa1580156115ed573d6000803e3d6000fd5b505050506040513d602081101561160357600080fd5b810190808051906020019092919050505090506000821180156116265750600081115b611698576040517f08c379a000000000000000000000000000000000000000000000000000000000815260040180806020018281038252601a8152602001807f4d6f6f6e537761703a2062616c616e6365206973207a65726f2100000000000081525060200191505060405180910390fd5b600160009054906101000a900473ffffffffffffffffffffffffffffffffffffffff1673ffffffffffffffffffffffffffffffffffffffff1663a9059cbb84846040518363ffffffff1660e01b8152600401808373ffffffffffffffffffffffffffffffffffffffff1673ffffffffffffffffffffffffffffffffffffffff16815260200182815260200192505050602060405180830381600087803b15801561174157600080fd5b505af1158015611755573d6000803e3d6000fd5b505050506040513d602081101561176b57600080fd5b810190808051906020019092919050505050600260009054906101000a900473ffffffffffffffffffffffffffffffffffffffff1673ffffffffffffffffffffffffffffffffffffffff1663a9059cbb84836040518363ffffffff1660e01b8152600401808373ffffffffffffffffffffffffffffffffffffffff1673ffffffffffffffffffffffffffffffffffffffff16815260200182815260200192505050602060405180830381600087803b15801561182657600080fd5b505af115801561183a573d6000803e3d6000fd5b505050506040513d602081101561185057600080fd5b8101908080519060200190929190505050508273ffffffffffffffffffffffffffffffffffffffff16636a627842306040518263ffffffff1660e01b8152600401808273ffffffffffffffffffffffffffffffffffffffff1673ffffffffffffffffffffffffffffffffffffffff168152602001915050602060405180830381600087803b1580156118e157600080fd5b505af11580156118f5573d6000803e3d6000fd5b505050506040513d602081101561190b57600080fd5b8101908080519060200190929190505050503373ffffffffffffffffffffffffffffffffffffffff168373ffffffffffffffffffffffffffffffffffffffff167f806d322e198663d57172ed554b706c52488aac1d03a9780493c050f69f17d5118484604051808381526020018281526020019250505060405180910390a35050505050565b60008060009054906101000a900473ffffffffffffffffffffffffffffffffffffffff1673ffffffffffffffffffffffffffffffffffffffff16637944f9446040518163ffffffff1660e01b815260040160206040518083038186803b1580156119fa57600080fd5b505afa158015611a0e573d6000803e3d6000fd5b505050506040513d6020811015611a2457600080fd5b8101908080519060200190929190505050905060008173ffffffffffffffffffffffffffffffffffffffff1663e6a43905600160009054906101000a900473ffffffffffffffffffffffffffffffffffffffff16600260009054906101000a900473ffffffffffffffffffffffffffffffffffffffff166040518363ffffffff1660e01b8152600401808373ffffffffffffffffffffffffffffffffffffffff1673ffffffffffffffffffffffffffffffffffffffff1681526020018273ffffffffffffffffffffffffffffffffffffffff1673ffffffffffffffffffffffffffffffffffffffff1681526020019250505060206040518083038186803b158015611b2e57600080fd5b505afa158015611b42573d6000803e3d6000fd5b505050506040513d6020811015611b5857600080fd5b81019080805190602001909291905050509050600073ffffffffffffffffffffffffffffffffffffffff168173ffffffffffffffffffffffffffffffffffffffff161415611c0e576040517f08c379a00000000000000000000000000000000000000000000000000000000081526004018080602001828103825260168152602001807f4d6f6f6e537761703a206e6f207377617020706169720000000000000000000081525060200191505060405180910390fd5b60008060009054906101000a900473ffffffffffffffffffffffffffffffffffffffff1673ffffffffffffffffffffffffffffffffffffffff1663adeec294306040518263ffffffff1660e01b8152600401808273ffffffffffffffffffffffffffffffffffffffff1673ffffffffffffffffffffffffffffffffffffffff16815260200191505060206040518083038186803b158015611cae57600080fd5b505afa158015611cc2573d6000803e3d6000fd5b505050506040513d6020811015611cd857600080fd5b8101908080519060200190929190505050905060008111611d61576040517f08c379a000000000000000000000000000000000000000000000000000000000815260040180806020018281038252601c8152602001807f4d6f6f6e737761703a206d756c7469706c696572206973207a65726f0000000081525060200191505060405180910390fd5b611d74818561204090919063ffffffff16565b93508173ffffffffffffffffffffffffffffffffffffffff1663a9059cbb86866040518363ffffffff1660e01b8152600401808373ffffffffffffffffffffffffffffffffffffffff1673ffffffffffffffffffffffffffffffffffffffff16815260200182815260200192505050602060405180830381600087803b158015611dfd57600080fd5b505af1158015611e11573d6000803e3d6000fd5b505050506040513d6020811015611e2757600080fd5b810190808051906020019092919050505050611e8b84600560008873ffffffffffffffffffffffffffffffffffffffff1673ffffffffffffffffffffffffffffffffffffffff168152602001908152602001600020546120c690919063ffffffff16565b600560008773ffffffffffffffffffffffffffffffffffffffff1673ffffffffffffffffffffffffffffffffffffffff168152602001908152602001600020819055508473ffffffffffffffffffffffffffffffffffffffff168273ffffffffffffffffffffffffffffffffffffffff167fd967963a951ec5926cfdefb253f04559d9d22a1490bbc36c4acbcacfd6a2571a866040518082815260200191505060405180910390a35050505050565b61203a848573ffffffffffffffffffffffffffffffffffffffff166323b872dd905060e01b858585604051602401808473ffffffffffffffffffffffffffffffffffffffff1673ffffffffffffffffffffffffffffffffffffffff1681526020018373ffffffffffffffffffffffffffffffffffffffff1673ffffffffffffffffffffffffffffffffffffffff1681526020018281526020019350505050604051602081830303815290604052907bffffffffffffffffffffffffffffffffffffffffffffffffffffffff19166020820180517bffffffffffffffffffffffffffffffffffffffffffffffffffffffff838183161783525050505061214e565b50505050565b60008083141561205357600090506120c0565b600082840290508284828161206457fe5b04146120bb576040517f08c379a00000000000000000000000000000000000000000000000000000000081526004018080602001828103825260218152602001806123e56021913960400191505060405180910390fd5b809150505b92915050565b600080828401905083811015612144576040517f08c379a000000000000000000000000000000000000000000000000000000000815260040180806020018281038252601b8152602001807f536166654d6174683a206164646974696f6e206f766572666c6f77000000000081525060200191505060405180910390fd5b8091505092915050565b61216d8273ffffffffffffffffffffffffffffffffffffffff16612399565b6121df576040517f08c379a000000000000000000000000000000000000000000000000000000000815260040180806020018281038252601f8152602001807f5361666545524332303a2063616c6c20746f206e6f6e2d636f6e74726163740081525060200191505060405180910390fd5b600060608373ffffffffffffffffffffffffffffffffffffffff16836040518082805190602001908083835b6020831061222e578051825260208201915060208101905060208303925061220b565b6001836020036101000a0380198251168184511680821785525050505050509050019150506000604051808303816000865af19150503d8060008114612290576040519150601f19603f3d011682016040523d82523d6000602084013e612295565b606091505b50915091508161230d576040517f08c379a00000000000000000000000000000000000000000000000000000000081526004018080602001828103825260208152602001807f5361666545524332303a206c6f772d6c6576656c2063616c6c206661696c656481525060200191505060405180910390fd5b6000815111156123935780806020019051602081101561232c57600080fd5b8101908080519060200190929190505050612392576040517f08c379a000000000000000000000000000000000000000000000000000000000815260040180806020018281038252602a815260200180612406602a913960400191505060405180910390fd5b5b50505050565b60008060007fc5d2460186f7233c927e7db2dcc703c0e500b653ca82273b7bfad8045d85a47060001b9050833f91508082141580156123db57506000801b8214155b9250505091905056fe536166654d6174683a206d756c7469706c69636174696f6e206f766572666c6f775361666545524332303a204552433230206f7065726174696f6e20646964206e6f7420737563636565644d6f6f6e737761703a20634d6f6f6e4c70546f6b656e206973205a45524f5f41444452455353a265627a7a72315820390b040d61517163d8e18403047a65b014f2fa83baf3876b49265e6f880a068e64736f6c63430005100032",
  "source": "pragma solidity ^0.5.16;\n\nimport './SponsorWhitelistControl.sol';\nimport \"@openzeppelin/contracts/math/SafeMath.sol\";\nimport \"@openzeppelin/contracts/introspection/IERC1820Registry.sol\";\nimport \"@openzeppelin/contracts/token/ERC777/IERC777Recipient.sol\";\nimport \"@openzeppelin/contracts/utils/Address.sol\";\nimport \"@openzeppelin/contracts/ownership/Ownable.sol\";\nimport \"@openzeppelin/contracts/token/ERC777/IERC777.sol\";\nimport \"@openzeppelin/contracts/token/ERC20/IERC20.sol\";\nimport \"@openzeppelin/contracts/token/ERC20/SafeERC20.sol\";\n\ninterface IMigratorFactory {\n    function operatorAddr() external view returns (address);\n    function swapFactory() external view returns (address);\n    function cMoonLpToken(address pair) external view returns (address);\n    function getInflationPair(address pair) external view returns (uint);\n    function getPause() external view returns (bool);\n}\n\ninterface IUniswapV2Factory{\n    function getPair(address tokenA, address tokenB) external view returns (address pair);\n}\n\ninterface IUniswapV2Pair {\n  function mint(address to) external returns (uint liquidity);\n  function transfer(address to, uint value) external returns (bool);\n}\n\ncontract MigratorPair is IERC777Recipient {\n  using SafeMath  for uint;\n  using Address for address;\n  using SafeERC20 for IERC20;\n\n  address public factory;\n  address public token0;\n  address public token1;\n\n  // operator upload user shareAmount for airdrop FC\n  uint totalShareAmount;\n  mapping(address => uint) userShareAmount;\n  mapping(address => uint) userExchangeAmount;\n\n  IERC1820Registry private _erc1820 = IERC1820Registry(0x866aCA87FF33a0ae05D2164B3D999A804F583222);\n  // keccak256(\"ERC777TokensRecipient\")\n  bytes32 constant private TOKENS_RECIPIENT_INTERFACE_HASH =\n    0xb281fc8c12954d22544db45de3159a39272895b169a852b314f9cc762e44c53b;\n\n  SponsorWhitelistControl constant public SPONSOR = SponsorWhitelistControl(address(0x0888000000000000000000000000000000000001));\n  event TokenTransfer(address indexed tokenAddress, address indexed from, address to, uint value);\n  event ExchangeLpToken(address indexed swapPair, address indexed from, uint value);\n  event AddLiquidityEvent(address indexed swapPair, address indexed from, uint balance0, uint balance1);\n\n  constructor()\n      public\n  {\n      factory = msg.sender;\n      _erc1820.setInterfaceImplementer(address(this), TOKENS_RECIPIENT_INTERFACE_HASH, address(this));\n\n      // register all users as sponsees\n      address[] memory users = new address[](1);\n      users[0] = address(0);\n      SPONSOR.add_privilege(users);\n  }\n\n  modifier whenPaused() {\n     require(!IMigratorFactory(factory).getPause(), \"Pauseable: MoonSwap paused\");\n      _;\n  }\n\n  // called once by the factory at time of deployment\n  function initialize(address _token0, address _token1) external {\n      require(msg.sender == factory, 'MoonSwap: FORBIDDEN'); // sufficient check\n      token0 = _token0;\n      token1 = _token1;\n  }\n\n  // user cMoonLpToken Exchange\n  function exchangeLp() external {\n      address cMoonLpToken = IMigratorFactory(factory).cMoonLpToken(address(this));\n      require(cMoonLpToken != address(0), \"Moonswap: cMoonLpToken is ZERO_ADDRESS\");\n      uint amount = IERC20(cMoonLpToken).balanceOf(msg.sender);\n      require(amount > 0, \"MoonSwap: no balance\");\n      IERC20(cMoonLpToken).safeTransferFrom(msg.sender, address(this), amount);\n\n      _exchangeLp(msg.sender, amount);\n  }\n\n  function _exchangeLp(address from, uint amount) internal {\n      address swapFactory = IMigratorFactory(factory).swapFactory();\n      address swapPair = IUniswapV2Factory(swapFactory).getPair(token0, token1);\n      require(swapPair != address(0), \"MoonSwap: no swap pair\");\n      uint _multiplier = IMigratorFactory(factory).getInflationPair(address(this));\n      require(_multiplier > 0, \"Moonswap: multiplier is zero\");\n      amount = amount.mul(_multiplier); // diff decimals Inflation Amount\n\n      IUniswapV2Pair(swapPair).transfer(from, amount);\n      userExchangeAmount[from] = userExchangeAmount[from].add(amount);\n      emit ExchangeLpToken(swapPair, from, amount);\n  }\n\n  // Add liquidity by Operator\n  function addLiquidity() external {\n      address operatorAddr = IMigratorFactory(factory).operatorAddr();\n      require(msg.sender == operatorAddr, \"MoonSwap: FORBIDDEN\");\n      address swapFactory = IMigratorFactory(factory).swapFactory();\n      // when finish addLiquidity close the method\n      require(swapFactory != address(0), \"MoonSwap: no swap factory\");\n\n      address swapPair = IUniswapV2Factory(swapFactory).getPair(token0, token1);\n      require(swapPair != address(0), \"MoonSwap: no swap pair\");\n\n      uint balance0 = IERC20(token0).balanceOf(address(this));\n      uint balance1 = IERC20(token1).balanceOf(address(this));\n      require(balance0 > 0 && balance1 > 0, \"MoonSwap: balance is zero!\");\n\n      IERC20(token0).transfer(swapPair, balance0);\n      IERC20(token1).transfer(swapPair, balance1);\n\n      IUniswapV2Pair(swapPair).mint(address(this));\n\n      emit AddLiquidityEvent(swapPair, msg.sender, balance0, balance1);\n  }\n\n  // upload user ethereum stake data Time dimension\n  function getTotalShareAmount() external returns(uint){\n      return totalShareAmount;\n  }\n\n  function setTotalShareAmount(uint _shareAmount) external {\n    require(_shareAmount > 0, \"MoonSwap: shareAmount is zero\");\n    address operatorAddr = IMigratorFactory(factory).operatorAddr();\n    require(msg.sender == operatorAddr, \"MoonSwap: FORBIDDEN\");\n    totalShareAmount = _shareAmount;\n  }\n\n  function uploadUserShares(address[] calldata _users, uint[] calldata _shareAmounts) external {\n    address operatorAddr = IMigratorFactory(factory).operatorAddr();\n    require(msg.sender == operatorAddr, \"MoonSwap: FORBIDDEN\");\n    uint range = _users.length;\n    require(range == _shareAmounts.length, \"length is no match\");\n\n    for (uint i = 0; i < range; i++) {\n      address _user = _users[i];\n      uint _shareAmount = _shareAmounts[i];\n      userShareAmount[_user] = _shareAmount;\n    }\n  }\n\n  // interface\n  function getShareAmount(address to) external view returns (uint) {\n    return userShareAmount[to];\n  }\n\n  // custodian deposit\n  function tokensReceived(address operator, address from, address to, uint amount,\n        bytes calldata userData,\n        bytes calldata operatorData) external {\n\n        address cMoonLpToken = IMigratorFactory(factory).cMoonLpToken(address(this));\n        if(cMoonLpToken == msg.sender) {\n           // Exchange Moonswap Liquidity\n           _exchangeLp(from, amount);\n        }\n\n        emit TokenTransfer(msg.sender, from, to, amount);\n  }\n}\n",
  "sourcePath": "/Users/junhuazhou/Documents/GitHub/moonswap-amm/contracts/MigratorPair.sol",
  "compiler": {
    "name": "solc",
    "version": "0.5.16+commit.9c3226ce.Emscripten.clang"
  },
  "schemaVersion": "3.2.0",
  "updatedAt": "2020-09-18T13:44:29.343Z",
  "devdoc": {
    "methods": {}
  },
  "userdoc": {
    "methods": {}
  }
}