{
  "contractName": "MigratorPair",
  "abi": [
    {
      "inputs": [],
      "payable": false,
      "stateMutability": "nonpayable",
      "type": "constructor"
    },
    {
      "anonymous": false,
      "inputs": [
        {
          "indexed": true,
          "internalType": "address",
          "name": "swapPair",
          "type": "address"
        },
        {
          "indexed": true,
          "internalType": "address",
          "name": "from",
          "type": "address"
        },
        {
          "indexed": false,
          "internalType": "uint256",
          "name": "balance0",
          "type": "uint256"
        },
        {
          "indexed": false,
          "internalType": "uint256",
          "name": "balance1",
          "type": "uint256"
        }
      ],
      "name": "AddLiquidityEvent",
      "type": "event"
    },
    {
      "anonymous": false,
      "inputs": [
        {
          "indexed": true,
          "internalType": "address",
          "name": "swapPair",
          "type": "address"
        },
        {
          "indexed": true,
          "internalType": "address",
          "name": "from",
          "type": "address"
        },
        {
          "indexed": false,
          "internalType": "uint256",
          "name": "value",
          "type": "uint256"
        }
      ],
      "name": "ExchangeLpToken",
      "type": "event"
    },
    {
      "anonymous": false,
      "inputs": [
        {
          "indexed": true,
          "internalType": "address",
          "name": "tokenAddress",
          "type": "address"
        },
        {
          "indexed": true,
          "internalType": "address",
          "name": "from",
          "type": "address"
        },
        {
          "indexed": false,
          "internalType": "address",
          "name": "to",
          "type": "address"
        },
        {
          "indexed": false,
          "internalType": "uint256",
          "name": "value",
          "type": "uint256"
        }
      ],
      "name": "TokenTransfer",
      "type": "event"
    },
    {
      "constant": true,
      "inputs": [],
      "name": "SPONSOR",
      "outputs": [
        {
          "internalType": "contract SponsorWhitelistControl",
          "name": "",
          "type": "address"
        }
      ],
      "payable": false,
      "stateMutability": "view",
      "type": "function"
    },
    {
      "constant": true,
      "inputs": [],
      "name": "factory",
      "outputs": [
        {
          "internalType": "address",
          "name": "",
          "type": "address"
        }
      ],
      "payable": false,
      "stateMutability": "view",
      "type": "function"
    },
    {
      "constant": true,
      "inputs": [],
      "name": "token0",
      "outputs": [
        {
          "internalType": "address",
          "name": "",
          "type": "address"
        }
      ],
      "payable": false,
      "stateMutability": "view",
      "type": "function"
    },
    {
      "constant": true,
      "inputs": [],
      "name": "token1",
      "outputs": [
        {
          "internalType": "address",
          "name": "",
          "type": "address"
        }
      ],
      "payable": false,
      "stateMutability": "view",
      "type": "function"
    },
    {
      "constant": false,
      "inputs": [
        {
          "internalType": "address",
          "name": "_token0",
          "type": "address"
        },
        {
          "internalType": "address",
          "name": "_token1",
          "type": "address"
        }
      ],
      "name": "initialize",
      "outputs": [],
      "payable": false,
      "stateMutability": "nonpayable",
      "type": "function"
    },
    {
      "constant": false,
      "inputs": [],
      "name": "exchangeLp",
      "outputs": [],
      "payable": false,
      "stateMutability": "nonpayable",
      "type": "function"
    },
    {
      "constant": false,
      "inputs": [],
      "name": "addLiquidity",
      "outputs": [],
      "payable": false,
      "stateMutability": "nonpayable",
      "type": "function"
    },
    {
      "constant": false,
      "inputs": [
        {
          "internalType": "uint256",
          "name": "_shareAmount",
          "type": "uint256"
        }
      ],
      "name": "setTotalShareAmount",
      "outputs": [],
      "payable": false,
      "stateMutability": "nonpayable",
      "type": "function"
    },
    {
      "constant": false,
      "inputs": [
        {
          "internalType": "address[]",
          "name": "_users",
          "type": "address[]"
        },
        {
          "internalType": "uint256[]",
          "name": "_shareAmounts",
          "type": "uint256[]"
        }
      ],
      "name": "uploadUserShares",
      "outputs": [],
      "payable": false,
      "stateMutability": "nonpayable",
      "type": "function"
    },
    {
      "constant": true,
      "inputs": [],
      "name": "getTotalShareAmount",
      "outputs": [
        {
          "internalType": "uint256",
          "name": "",
          "type": "uint256"
        }
      ],
      "payable": false,
      "stateMutability": "view",
      "type": "function"
    },
    {
      "constant": true,
      "inputs": [
        {
          "internalType": "address",
          "name": "to",
          "type": "address"
        }
      ],
      "name": "getShareAmount",
      "outputs": [
        {
          "internalType": "uint256",
          "name": "",
          "type": "uint256"
        }
      ],
      "payable": false,
      "stateMutability": "view",
      "type": "function"
    },
    {
      "constant": true,
      "inputs": [],
      "name": "getTotalLpAmount",
      "outputs": [
        {
          "internalType": "uint256",
          "name": "",
          "type": "uint256"
        }
      ],
      "payable": false,
      "stateMutability": "view",
      "type": "function"
    },
    {
      "constant": true,
      "inputs": [
        {
          "internalType": "address",
          "name": "to",
          "type": "address"
        }
      ],
      "name": "getUserLpAmount",
      "outputs": [
        {
          "internalType": "uint256",
          "name": "",
          "type": "uint256"
        }
      ],
      "payable": false,
      "stateMutability": "view",
      "type": "function"
    },
    {
      "constant": false,
      "inputs": [
        {
          "internalType": "address",
          "name": "operator",
          "type": "address"
        },
        {
          "internalType": "address",
          "name": "from",
          "type": "address"
        },
        {
          "internalType": "address",
          "name": "to",
          "type": "address"
        },
        {
          "internalType": "uint256",
          "name": "amount",
          "type": "uint256"
        },
        {
          "internalType": "bytes",
          "name": "userData",
          "type": "bytes"
        },
        {
          "internalType": "bytes",
          "name": "operatorData",
          "type": "bytes"
        }
      ],
      "name": "tokensReceived",
      "outputs": [],
      "payable": false,
      "stateMutability": "nonpayable",
      "type": "function"
    },
    {
      "constant": true,
      "inputs": [],
      "name": "accountTotal",
      "outputs": [
        {
          "internalType": "uint256",
          "name": "",
          "type": "uint256"
        }
      ],
      "payable": false,
      "stateMutability": "view",
      "type": "function"
    },
    {
      "constant": true,
      "inputs": [
        {
          "internalType": "uint256",
          "name": "begin",
          "type": "uint256"
        }
      ],
      "name": "accountList",
      "outputs": [
        {
          "internalType": "address[100]",
          "name": "",
          "type": "address[100]"
        }
      ],
      "payable": false,
      "stateMutability": "view",
      "type": "function"
    }
  ],
  "bytecode": "0x608060405273866aca87ff33a0ae05d2164b3d999a804f583222600960006101000a81548173ffffffffffffffffffffffffffffffffffffffff021916908373ffffffffffffffffffffffffffffffffffffffff1602179055503480156200006657600080fd5b50336000806101000a81548173ffffffffffffffffffffffffffffffffffffffff021916908373ffffffffffffffffffffffffffffffffffffffff160217905550600960009054906101000a900473ffffffffffffffffffffffffffffffffffffffff1673ffffffffffffffffffffffffffffffffffffffff166329965a1d307fb281fc8c12954d22544db45de3159a39272895b169a852b314f9cc762e44c53b60001b306040518463ffffffff1660e01b8152600401808473ffffffffffffffffffffffffffffffffffffffff1673ffffffffffffffffffffffffffffffffffffffff1681526020018381526020018273ffffffffffffffffffffffffffffffffffffffff1673ffffffffffffffffffffffffffffffffffffffff1681526020019350505050600060405180830381600087803b158015620001a857600080fd5b505af1158015620001bd573d6000803e3d6000fd5b5050505060606001604051908082528060200260200182016040528015620001f45781602001602082028038833980820191505090505b5090506000816000815181106200020757fe5b602002602001019073ffffffffffffffffffffffffffffffffffffffff16908173ffffffffffffffffffffffffffffffffffffffff168152505073088800000000000000000000000000000000000173ffffffffffffffffffffffffffffffffffffffff166310128d3e826040518263ffffffff1660e01b81526004018080602001828103825283818151815260200191508051906020019060200280838360005b83811015620002c6578082015181840152602081019050620002a9565b5050505090500192505050600060405180830381600087803b158015620002ec57600080fd5b505af115801562000301573d6000803e3d6000fd5b5050505050612ded80620003166000396000f3fe608060405234801561001057600080fd5b50600436106100ff5760003560e01c8063b1a40f9511610097578063da5b20a411610066578063da5b20a41461059e578063e35fafe4146105cc578063e8078d9414610624578063f8c4bbf21461062e576100ff565b8063b1a40f9514610432578063c45a01551461043c578063d06590e114610486578063d21220a714610554576100ff565b80634593d311116100d35780634593d31114610328578063485cc955146103465780634ea98d16146103aa578063936fcb3714610414576100ff565b806223de29146101045780630a87684f1461023c5780630dfe1681146102945780631d073a7a146102de575b600080fd5b61023a600480360360c081101561011a57600080fd5b81019080803573ffffffffffffffffffffffffffffffffffffffff169060200190929190803573ffffffffffffffffffffffffffffffffffffffff169060200190929190803573ffffffffffffffffffffffffffffffffffffffff16906020019092919080359060200190929190803590602001906401000000008111156101a157600080fd5b8201836020820111156101b357600080fd5b803590602001918460018302840111640100000000831117156101d557600080fd5b9091929391929390803590602001906401000000008111156101f657600080fd5b82018360208201111561020857600080fd5b8035906020019184600183028401116401000000008311171561022a57600080fd5b909192939192939050505061064c565b005b61027e6004803603602081101561025257600080fd5b81019080803573ffffffffffffffffffffffffffffffffffffffff16906020019092919050505061080c565b6040518082815260200191505060405180910390f35b61029c610855565b604051808273ffffffffffffffffffffffffffffffffffffffff1673ffffffffffffffffffffffffffffffffffffffff16815260200191505060405180910390f35b6102e661087b565b604051808273ffffffffffffffffffffffffffffffffffffffff1673ffffffffffffffffffffffffffffffffffffffff16815260200191505060405180910390f35b610330610893565b6040518082815260200191505060405180910390f35b6103a86004803603604081101561035c57600080fd5b81019080803573ffffffffffffffffffffffffffffffffffffffff169060200190929190803573ffffffffffffffffffffffffffffffffffffffff16906020019092919050505061089d565b005b6103d6600480360360208110156103c057600080fd5b81019080803590602001909291905050506109e5565b6040518082606460200280838360005b838110156104015780820151818401526020810190506103e6565b5050505090500191505060405180910390f35b61041c610b28565b6040518082815260200191505060405180910390f35b61043a610b32565b005b610444610e02565b604051808273ffffffffffffffffffffffffffffffffffffffff1673ffffffffffffffffffffffffffffffffffffffff16815260200191505060405180910390f35b6105526004803603604081101561049c57600080fd5b81019080803590602001906401000000008111156104b957600080fd5b8201836020820111156104cb57600080fd5b803590602001918460208302840111640100000000831117156104ed57600080fd5b90919293919293908035906020019064010000000081111561050e57600080fd5b82018360208201111561052057600080fd5b8035906020019184602083028401116401000000008311171561054257600080fd5b9091929391929390505050610e27565b005b61055c61109c565b604051808273ffffffffffffffffffffffffffffffffffffffff1673ffffffffffffffffffffffffffffffffffffffff16815260200191505060405180910390f35b6105ca600480360360208110156105b457600080fd5b81019080803590602001909291905050506110c2565b005b61060e600480360360208110156105e257600080fd5b81019080803573ffffffffffffffffffffffffffffffffffffffff16906020019092919050505061128a565b6040518082815260200191505060405180910390f35b61062c6112d3565b005b610636611c7c565b6040518082815260200191505060405180910390f35b60008060009054906101000a900473ffffffffffffffffffffffffffffffffffffffff1673ffffffffffffffffffffffffffffffffffffffff166343633297306040518263ffffffff1660e01b8152600401808273ffffffffffffffffffffffffffffffffffffffff1673ffffffffffffffffffffffffffffffffffffffff16815260200191505060206040518083038186803b1580156106ec57600080fd5b505afa158015610700573d6000803e3d6000fd5b505050506040513d602081101561071657600080fd5b810190808051906020019092919050505090503373ffffffffffffffffffffffffffffffffffffffff168173ffffffffffffffffffffffffffffffffffffffff161415610768576107678887611c89565b5b8773ffffffffffffffffffffffffffffffffffffffff163373ffffffffffffffffffffffffffffffffffffffff167fae33cb06d7303f889d953bb09540983050163c1c4c98b330db432a911cfb63fd8989604051808373ffffffffffffffffffffffffffffffffffffffff1673ffffffffffffffffffffffffffffffffffffffff1681526020018281526020019250505060405180910390a3505050505050505050565b6000600860008373ffffffffffffffffffffffffffffffffffffffff1673ffffffffffffffffffffffffffffffffffffffff168152602001908152602001600020549050919050565b600160009054906101000a900473ffffffffffffffffffffffffffffffffffffffff1681565b73088800000000000000000000000000000000000181565b6000600754905090565b6000809054906101000a900473ffffffffffffffffffffffffffffffffffffffff1673ffffffffffffffffffffffffffffffffffffffff163373ffffffffffffffffffffffffffffffffffffffff161461095f576040517f08c379a00000000000000000000000000000000000000000000000000000000081526004018080602001828103825260138152602001807f4d6f6f6e537761703a20464f5242494444454e0000000000000000000000000081525060200191505060405180910390fd5b81600160006101000a81548173ffffffffffffffffffffffffffffffffffffffff021916908373ffffffffffffffffffffffffffffffffffffffff16021790555080600260006101000a81548173ffffffffffffffffffffffffffffffffffffffff021916908373ffffffffffffffffffffffffffffffffffffffff1602179055505050565b6109ed612cfe565b60008210158015610a02575060048054905082105b610a57576040517f08c379a0000000000000000000000000000000000000000000000000000000008152600401808060200182810382526026815260200180612d936026913960400191505060405180910390fd5b610a5f612cfe565b6000610a83600480549050610a7e60648761273190919063ffffffff16565b6127b9565b905060008490505b81811015610b1d5760048181548110610aa057fe5b9060005260206000200160009054906101000a900473ffffffffffffffffffffffffffffffffffffffff168386830360648110610ad957fe5b602002019073ffffffffffffffffffffffffffffffffffffffff16908173ffffffffffffffffffffffffffffffffffffffff16815250508080600101915050610a8b565b508192505050919050565b6000600554905090565b60008060009054906101000a900473ffffffffffffffffffffffffffffffffffffffff1673ffffffffffffffffffffffffffffffffffffffff166343633297306040518263ffffffff1660e01b8152600401808273ffffffffffffffffffffffffffffffffffffffff1673ffffffffffffffffffffffffffffffffffffffff16815260200191505060206040518083038186803b158015610bd257600080fd5b505afa158015610be6573d6000803e3d6000fd5b505050506040513d6020811015610bfc57600080fd5b81019080805190602001909291905050509050600073ffffffffffffffffffffffffffffffffffffffff168173ffffffffffffffffffffffffffffffffffffffff161415610c95576040517f08c379a0000000000000000000000000000000000000000000000000000000008152600401808060200182810382526026815260200180612d6d6026913960400191505060405180910390fd5b60008173ffffffffffffffffffffffffffffffffffffffff166370a08231336040518263ffffffff1660e01b8152600401808273ffffffffffffffffffffffffffffffffffffffff1673ffffffffffffffffffffffffffffffffffffffff16815260200191505060206040518083038186803b158015610d1457600080fd5b505afa158015610d28573d6000803e3d6000fd5b505050506040513d6020811015610d3e57600080fd5b8101908080519060200190929190505050905060008111610dc7576040517f08c379a00000000000000000000000000000000000000000000000000000000081526004018080602001828103825260148152602001807f4d6f6f6e537761703a206e6f2062616c616e636500000000000000000000000081525060200191505060405180910390fd5b610df43330838573ffffffffffffffffffffffffffffffffffffffff166127d2909392919063ffffffff16565b610dfe3382611c89565b5050565b6000809054906101000a900473ffffffffffffffffffffffffffffffffffffffff1681565b60008060009054906101000a900473ffffffffffffffffffffffffffffffffffffffff1673ffffffffffffffffffffffffffffffffffffffff1663f3f18c376040518163ffffffff1660e01b815260040160206040518083038186803b158015610e9057600080fd5b505afa158015610ea4573d6000803e3d6000fd5b505050506040513d6020811015610eba57600080fd5b810190808051906020019092919050505090508073ffffffffffffffffffffffffffffffffffffffff163373ffffffffffffffffffffffffffffffffffffffff1614610f6e576040517f08c379a00000000000000000000000000000000000000000000000000000000081526004018080602001828103825260138152602001807f4d6f6f6e537761703a20464f5242494444454e0000000000000000000000000081525060200191505060405180910390fd5b6000858590509050838390508114610fee576040517f08c379a00000000000000000000000000000000000000000000000000000000081526004018080602001828103825260128152602001807f6c656e677468206973206e6f206d61746368000000000000000000000000000081525060200191505060405180910390fd5b60008090505b8181101561109357600087878381811061100a57fe5b9050602002013573ffffffffffffffffffffffffffffffffffffffff169050600086868481811061103757fe5b90506020020135905080600660008473ffffffffffffffffffffffffffffffffffffffff1673ffffffffffffffffffffffffffffffffffffffff1681526020019081526020016000208190555050508080600101915050610ff4565b50505050505050565b600260009054906101000a900473ffffffffffffffffffffffffffffffffffffffff1681565b60008111611138576040517f08c379a000000000000000000000000000000000000000000000000000000000815260040180806020018281038252601d8152602001807f4d6f6f6e537761703a207368617265416d6f756e74206973207a65726f00000081525060200191505060405180910390fd5b60008060009054906101000a900473ffffffffffffffffffffffffffffffffffffffff1673ffffffffffffffffffffffffffffffffffffffff1663f3f18c376040518163ffffffff1660e01b815260040160206040518083038186803b1580156111a157600080fd5b505afa1580156111b5573d6000803e3d6000fd5b505050506040513d60208110156111cb57600080fd5b810190808051906020019092919050505090508073ffffffffffffffffffffffffffffffffffffffff163373ffffffffffffffffffffffffffffffffffffffff161461127f576040517f08c379a00000000000000000000000000000000000000000000000000000000081526004018080602001828103825260138152602001807f4d6f6f6e537761703a20464f5242494444454e0000000000000000000000000081525060200191505060405180910390fd5b816005819055505050565b6000600660008373ffffffffffffffffffffffffffffffffffffffff1673ffffffffffffffffffffffffffffffffffffffff168152602001908152602001600020549050919050565b60008060009054906101000a900473ffffffffffffffffffffffffffffffffffffffff1673ffffffffffffffffffffffffffffffffffffffff1663f3f18c376040518163ffffffff1660e01b815260040160206040518083038186803b15801561133c57600080fd5b505afa158015611350573d6000803e3d6000fd5b505050506040513d602081101561136657600080fd5b810190808051906020019092919050505090508073ffffffffffffffffffffffffffffffffffffffff163373ffffffffffffffffffffffffffffffffffffffff161461141a576040517f08c379a00000000000000000000000000000000000000000000000000000000081526004018080602001828103825260138152602001807f4d6f6f6e537761703a20464f5242494444454e0000000000000000000000000081525060200191505060405180910390fd5b60008060009054906101000a900473ffffffffffffffffffffffffffffffffffffffff1673ffffffffffffffffffffffffffffffffffffffff16637944f9446040518163ffffffff1660e01b815260040160206040518083038186803b15801561148357600080fd5b505afa158015611497573d6000803e3d6000fd5b505050506040513d60208110156114ad57600080fd5b81019080805190602001909291905050509050600073ffffffffffffffffffffffffffffffffffffffff168173ffffffffffffffffffffffffffffffffffffffff161415611563576040517f08c379a00000000000000000000000000000000000000000000000000000000081526004018080602001828103825260198152602001807f4d6f6f6e537761703a206e6f207377617020666163746f72790000000000000081525060200191505060405180910390fd5b60008173ffffffffffffffffffffffffffffffffffffffff1663e6a43905600160009054906101000a900473ffffffffffffffffffffffffffffffffffffffff16600260009054906101000a900473ffffffffffffffffffffffffffffffffffffffff166040518363ffffffff1660e01b8152600401808373ffffffffffffffffffffffffffffffffffffffff1673ffffffffffffffffffffffffffffffffffffffff1681526020018273ffffffffffffffffffffffffffffffffffffffff1673ffffffffffffffffffffffffffffffffffffffff1681526020019250505060206040518083038186803b15801561165a57600080fd5b505afa15801561166e573d6000803e3d6000fd5b505050506040513d602081101561168457600080fd5b81019080805190602001909291905050509050600073ffffffffffffffffffffffffffffffffffffffff168173ffffffffffffffffffffffffffffffffffffffff16141561173a576040517f08c379a00000000000000000000000000000000000000000000000000000000081526004018080602001828103825260168152602001807f4d6f6f6e537761703a206e6f207377617020706169720000000000000000000081525060200191505060405180910390fd5b6000600160009054906101000a900473ffffffffffffffffffffffffffffffffffffffff1673ffffffffffffffffffffffffffffffffffffffff166370a08231306040518263ffffffff1660e01b8152600401808273ffffffffffffffffffffffffffffffffffffffff1673ffffffffffffffffffffffffffffffffffffffff16815260200191505060206040518083038186803b1580156117db57600080fd5b505afa1580156117ef573d6000803e3d6000fd5b505050506040513d602081101561180557600080fd5b810190808051906020019092919050505090506000600260009054906101000a900473ffffffffffffffffffffffffffffffffffffffff1673ffffffffffffffffffffffffffffffffffffffff166370a08231306040518263ffffffff1660e01b8152600401808273ffffffffffffffffffffffffffffffffffffffff1673ffffffffffffffffffffffffffffffffffffffff16815260200191505060206040518083038186803b1580156118b957600080fd5b505afa1580156118cd573d6000803e3d6000fd5b505050506040513d60208110156118e357600080fd5b810190808051906020019092919050505090506000821180156119065750600081115b611978576040517f08c379a000000000000000000000000000000000000000000000000000000000815260040180806020018281038252601a8152602001807f4d6f6f6e537761703a2062616c616e6365206973207a65726f2100000000000081525060200191505060405180910390fd5b600160009054906101000a900473ffffffffffffffffffffffffffffffffffffffff1673ffffffffffffffffffffffffffffffffffffffff1663a9059cbb84846040518363ffffffff1660e01b8152600401808373ffffffffffffffffffffffffffffffffffffffff1673ffffffffffffffffffffffffffffffffffffffff16815260200182815260200192505050602060405180830381600087803b158015611a2157600080fd5b505af1158015611a35573d6000803e3d6000fd5b505050506040513d6020811015611a4b57600080fd5b810190808051906020019092919050505050600260009054906101000a900473ffffffffffffffffffffffffffffffffffffffff1673ffffffffffffffffffffffffffffffffffffffff1663a9059cbb84836040518363ffffffff1660e01b8152600401808373ffffffffffffffffffffffffffffffffffffffff1673ffffffffffffffffffffffffffffffffffffffff16815260200182815260200192505050602060405180830381600087803b158015611b0657600080fd5b505af1158015611b1a573d6000803e3d6000fd5b505050506040513d6020811015611b3057600080fd5b81019080805190602001909291905050505060008373ffffffffffffffffffffffffffffffffffffffff16636a627842306040518263ffffffff1660e01b8152600401808273ffffffffffffffffffffffffffffffffffffffff1673ffffffffffffffffffffffffffffffffffffffff168152602001915050602060405180830381600087803b158015611bc357600080fd5b505af1158015611bd7573d6000803e3d6000fd5b505050506040513d6020811015611bed57600080fd5b81019080805190602001909291905050509050806007819055503373ffffffffffffffffffffffffffffffffffffffff168473ffffffffffffffffffffffffffffffffffffffff167f806d322e198663d57172ed554b706c52488aac1d03a9780493c050f69f17d5118585604051808381526020018281526020019250505060405180910390a3505050505050565b6000600480549050905090565b60008060009054906101000a900473ffffffffffffffffffffffffffffffffffffffff1673ffffffffffffffffffffffffffffffffffffffff16637944f9446040518163ffffffff1660e01b815260040160206040518083038186803b158015611cf257600080fd5b505afa158015611d06573d6000803e3d6000fd5b505050506040513d6020811015611d1c57600080fd5b8101908080519060200190929190505050905060008060009054906101000a900473ffffffffffffffffffffffffffffffffffffffff1673ffffffffffffffffffffffffffffffffffffffff166307a6acd96040518163ffffffff1660e01b815260040160206040518083038186803b158015611d9857600080fd5b505afa158015611dac573d6000803e3d6000fd5b505050506040513d6020811015611dc257600080fd5b8101908080519060200190929190505050905060008273ffffffffffffffffffffffffffffffffffffffff1663e6a43905600160009054906101000a900473ffffffffffffffffffffffffffffffffffffffff16600260009054906101000a900473ffffffffffffffffffffffffffffffffffffffff166040518363ffffffff1660e01b8152600401808373ffffffffffffffffffffffffffffffffffffffff1673ffffffffffffffffffffffffffffffffffffffff1681526020018273ffffffffffffffffffffffffffffffffffffffff1673ffffffffffffffffffffffffffffffffffffffff1681526020019250505060206040518083038186803b158015611ecc57600080fd5b505afa158015611ee0573d6000803e3d6000fd5b505050506040513d6020811015611ef657600080fd5b81019080805190602001909291905050509050600073ffffffffffffffffffffffffffffffffffffffff168173ffffffffffffffffffffffffffffffffffffffff161415611fac576040517f08c379a00000000000000000000000000000000000000000000000000000000081526004018080602001828103825260168152602001807f4d6f6f6e537761703a206e6f207377617020706169720000000000000000000081525060200191505060405180910390fd5b60008060009054906101000a900473ffffffffffffffffffffffffffffffffffffffff1673ffffffffffffffffffffffffffffffffffffffff1663adeec294306040518263ffffffff1660e01b8152600401808273ffffffffffffffffffffffffffffffffffffffff1673ffffffffffffffffffffffffffffffffffffffff16815260200191505060206040518083038186803b15801561204c57600080fd5b505afa158015612060573d6000803e3d6000fd5b505050506040513d602081101561207657600080fd5b81019080805190602001909291905050509050600081116120ff576040517f08c379a000000000000000000000000000000000000000000000000000000000815260040180806020018281038252601c8152602001807f4d6f6f6e737761703a206d756c7469706c696572206973207a65726f0000000081525060200191505060405180910390fd5b61211281866128d890919063ffffffff16565b9450600073ffffffffffffffffffffffffffffffffffffffff168373ffffffffffffffffffffffffffffffffffffffff161461245b5760008373ffffffffffffffffffffffffffffffffffffffff1663d3d346ed846040518263ffffffff1660e01b8152600401808273ffffffffffffffffffffffffffffffffffffffff1673ffffffffffffffffffffffffffffffffffffffff168152602001915050602060405180830381600087803b1580156121c957600080fd5b505af11580156121dd573d6000803e3d6000fd5b505050506040513d60208110156121f357600080fd5b810190808051906020019092919050505090506000811115612391578273ffffffffffffffffffffffffffffffffffffffff1663095ea7b385886040518363ffffffff1660e01b8152600401808373ffffffffffffffffffffffffffffffffffffffff1673ffffffffffffffffffffffffffffffffffffffff16815260200182815260200192505050602060405180830381600087803b15801561229657600080fd5b505af11580156122aa573d6000803e3d6000fd5b505050506040513d60208110156122c057600080fd5b8101908080519060200190929190505050508373ffffffffffffffffffffffffffffffffffffffff16638dbdbe6d61230260018461295e90919063ffffffff16565b888a6040518463ffffffff1660e01b8152600401808481526020018381526020018273ffffffffffffffffffffffffffffffffffffffff1673ffffffffffffffffffffffffffffffffffffffff1681526020019350505050600060405180830381600087803b15801561237457600080fd5b505af1158015612388573d6000803e3d6000fd5b50505050612455565b8273ffffffffffffffffffffffffffffffffffffffff1663a9059cbb88886040518363ffffffff1660e01b8152600401808373ffffffffffffffffffffffffffffffffffffffff1673ffffffffffffffffffffffffffffffffffffffff16815260200182815260200192505050602060405180830381600087803b15801561241857600080fd5b505af115801561242c573d6000803e3d6000fd5b505050506040513d602081101561244257600080fd5b8101908080519060200190929190505050505b5061251f565b8173ffffffffffffffffffffffffffffffffffffffff1663a9059cbb87876040518363ffffffff1660e01b8152600401808373ffffffffffffffffffffffffffffffffffffffff1673ffffffffffffffffffffffffffffffffffffffff16815260200182815260200192505050602060405180830381600087803b1580156124e257600080fd5b505af11580156124f6573d6000803e3d6000fd5b505050506040513d602081101561250c57600080fd5b8101908080519060200190929190505050505b61257185600860008973ffffffffffffffffffffffffffffffffffffffff1673ffffffffffffffffffffffffffffffffffffffff1681526020019081526020016000205461273190919063ffffffff16565b600860008873ffffffffffffffffffffffffffffffffffffffff1673ffffffffffffffffffffffffffffffffffffffff16815260200190815260200160002081905550600360008773ffffffffffffffffffffffffffffffffffffffff1673ffffffffffffffffffffffffffffffffffffffff16815260200190815260200160002060009054906101000a900460ff166126c4576001600360008873ffffffffffffffffffffffffffffffffffffffff1673ffffffffffffffffffffffffffffffffffffffff16815260200190815260200160002060006101000a81548160ff02191690831515021790555060048690806001815401808255809150509060018203906000526020600020016000909192909190916101000a81548173ffffffffffffffffffffffffffffffffffffffff021916908373ffffffffffffffffffffffffffffffffffffffff160217905550505b8573ffffffffffffffffffffffffffffffffffffffff168273ffffffffffffffffffffffffffffffffffffffff167fd967963a951ec5926cfdefb253f04559d9d22a1490bbc36c4acbcacfd6a2571a876040518082815260200191505060405180910390a3505050505050565b6000808284019050838110156127af576040517f08c379a000000000000000000000000000000000000000000000000000000000815260040180806020018281038252601b8152602001807f536166654d6174683a206164646974696f6e206f766572666c6f77000000000081525060200191505060405180910390fd5b8091505092915050565b60008183106127c857816127ca565b825b905092915050565b6128d2848573ffffffffffffffffffffffffffffffffffffffff166323b872dd905060e01b858585604051602401808473ffffffffffffffffffffffffffffffffffffffff1673ffffffffffffffffffffffffffffffffffffffff1681526020018373ffffffffffffffffffffffffffffffffffffffff1673ffffffffffffffffffffffffffffffffffffffff1681526020018281526020019350505050604051602081830303815290604052907bffffffffffffffffffffffffffffffffffffffffffffffffffffffff19166020820180517bffffffffffffffffffffffffffffffffffffffffffffffffffffffff83818316178352505050506129a8565b50505050565b6000808314156128eb5760009050612958565b60008284029050828482816128fc57fe5b0414612953576040517f08c379a0000000000000000000000000000000000000000000000000000000008152600401808060200182810382526021815260200180612d226021913960400191505060405180910390fd5b809150505b92915050565b60006129a083836040518060400160405280601e81526020017f536166654d6174683a207375627472616374696f6e206f766572666c6f770000815250612bf3565b905092915050565b6129c78273ffffffffffffffffffffffffffffffffffffffff16612cb3565b612a39576040517f08c379a000000000000000000000000000000000000000000000000000000000815260040180806020018281038252601f8152602001807f5361666545524332303a2063616c6c20746f206e6f6e2d636f6e74726163740081525060200191505060405180910390fd5b600060608373ffffffffffffffffffffffffffffffffffffffff16836040518082805190602001908083835b60208310612a885780518252602082019150602081019050602083039250612a65565b6001836020036101000a0380198251168184511680821785525050505050509050019150506000604051808303816000865af19150503d8060008114612aea576040519150601f19603f3d011682016040523d82523d6000602084013e612aef565b606091505b509150915081612b67576040517f08c379a00000000000000000000000000000000000000000000000000000000081526004018080602001828103825260208152602001807f5361666545524332303a206c6f772d6c6576656c2063616c6c206661696c656481525060200191505060405180910390fd5b600081511115612bed57808060200190516020811015612b8657600080fd5b8101908080519060200190929190505050612bec576040517f08c379a000000000000000000000000000000000000000000000000000000000815260040180806020018281038252602a815260200180612d43602a913960400191505060405180910390fd5b5b50505050565b6000838311158290612ca0576040517f08c379a00000000000000000000000000000000000000000000000000000000081526004018080602001828103825283818151815260200191508051906020019080838360005b83811015612c65578082015181840152602081019050612c4a565b50505050905090810190601f168015612c925780820380516001836020036101000a031916815260200191505b509250505060405180910390fd5b5060008385039050809150509392505050565b60008060007fc5d2460186f7233c927e7db2dcc703c0e500b653ca82273b7bfad8045d85a47060001b9050833f9150808214158015612cf557506000801b8214155b92505050919050565b60405180610c80016040528060649060208202803883398082019150509050509056fe536166654d6174683a206d756c7469706c69636174696f6e206f766572666c6f775361666545524332303a204552433230206f7065726174696f6e20646964206e6f7420737563636565644d6f6f6e737761703a20634d6f6f6e4c70546f6b656e206973205a45524f5f414444524553534d69677261746f72506169723a206163636f756e744c697374206f7574206f662072616e6765a265627a7a723158208049b8ad83f59afbdace69680c49917ac0d08ff76d54e0a3689f793b9bc5b35064736f6c63430005100032",
  "source": "pragma solidity ^0.5.16;\n\nimport './SponsorWhitelistControl.sol';\nimport './libraries/Math.sol';\nimport \"@openzeppelin/contracts/math/SafeMath.sol\";\nimport \"@openzeppelin/contracts/introspection/IERC1820Registry.sol\";\nimport \"@openzeppelin/contracts/token/ERC777/IERC777Recipient.sol\";\nimport \"@openzeppelin/contracts/utils/Address.sol\";\nimport \"@openzeppelin/contracts/ownership/Ownable.sol\";\nimport \"@openzeppelin/contracts/token/ERC777/IERC777.sol\";\nimport \"@openzeppelin/contracts/token/ERC20/IERC20.sol\";\nimport \"@openzeppelin/contracts/token/ERC20/SafeERC20.sol\";\n\ninterface IMigratorFactory {\n    function operatorAddr() external view returns (address);\n    function swapFactory() external view returns (address);\n    function cMoonLpToken(address pair) external view returns (address);\n    function getInflationPair(address pair) external view returns (uint);\n    function getPause() external view returns (bool);\n    function confluxStar() external view returns (address);\n}\n\ninterface IUniswapV2Factory{\n    function getPair(address tokenA, address tokenB) external view returns (address pair);\n}\n\ninterface IUniswapV2Pair {\n  function mint(address to) external returns (uint);\n  function transfer(address to, uint value) external returns (bool);\n  function approve(address spender, uint value) external returns (bool);\n}\n\ninterface IConfluxStar {\n  function deposit(uint256 _pid, uint256 _amount, address to) external;\n  function poolIndexs(address lpToken) external returns(uint256);\n}\n\ncontract MigratorPair is IERC777Recipient {\n  using SafeMath  for uint;\n  using Address for address;\n  using SafeERC20 for IERC20;\n\n  address public factory;\n  address public token0;\n  address public token1;\n\n  mapping (address => bool) private _accountCheck;\n  address[] private _accountList;\n\n  // operator upload user shareAmount for airdrop FC\n  uint totalShareAmount;\n  mapping(address => uint) userShareAmount;\n  uint totalLpAmount;\n  mapping(address => uint) userLpAmount;\n\n  IERC1820Registry private _erc1820 = IERC1820Registry(0x866aCA87FF33a0ae05D2164B3D999A804F583222);\n  // keccak256(\"ERC777TokensRecipient\")\n  bytes32 constant private TOKENS_RECIPIENT_INTERFACE_HASH =\n    0xb281fc8c12954d22544db45de3159a39272895b169a852b314f9cc762e44c53b;\n\n  SponsorWhitelistControl constant public SPONSOR = SponsorWhitelistControl(address(0x0888000000000000000000000000000000000001));\n  event TokenTransfer(address indexed tokenAddress, address indexed from, address to, uint value);\n  event ExchangeLpToken(address indexed swapPair, address indexed from, uint value);\n  event AddLiquidityEvent(address indexed swapPair, address indexed from, uint balance0, uint balance1);\n\n  constructor()\n      public\n  {\n      factory = msg.sender;\n      _erc1820.setInterfaceImplementer(address(this), TOKENS_RECIPIENT_INTERFACE_HASH, address(this));\n\n      // register all users as sponsees\n      address[] memory users = new address[](1);\n      users[0] = address(0);\n      SPONSOR.addPrivilege(users);\n  }\n\n  modifier whenPaused() {\n     require(!IMigratorFactory(factory).getPause(), \"Pauseable: MoonSwap paused\");\n      _;\n  }\n\n  // called once by the factory at time of deployment\n  function initialize(address _token0, address _token1) external {\n      require(msg.sender == factory, 'MoonSwap: FORBIDDEN'); // sufficient check\n      token0 = _token0;\n      token1 = _token1;\n  }\n\n  // user cMoonLpToken Exchange\n  function exchangeLp() external {\n      address cMoonLpToken = IMigratorFactory(factory).cMoonLpToken(address(this));\n      require(cMoonLpToken != address(0), \"Moonswap: cMoonLpToken is ZERO_ADDRESS\");\n      uint amount = IERC20(cMoonLpToken).balanceOf(msg.sender);\n      require(amount > 0, \"MoonSwap: no balance\");\n      IERC20(cMoonLpToken).safeTransferFrom(msg.sender, address(this), amount);\n\n      _exchangeLp(msg.sender, amount);\n  }\n\n  function _exchangeLp(address from, uint amount) internal {\n      address swapFactory = IMigratorFactory(factory).swapFactory();\n      address confluxStar = IMigratorFactory(factory).confluxStar();\n      address swapPair = IUniswapV2Factory(swapFactory).getPair(token0, token1);\n      require(swapPair != address(0), \"MoonSwap: no swap pair\");\n      uint _multiplier = IMigratorFactory(factory).getInflationPair(address(this));\n      require(_multiplier > 0, \"Moonswap: multiplier is zero\");\n      amount = amount.mul(_multiplier); // diff decimals Inflation Amount\n\n      if(confluxStar != address(0)){\n\n        uint256 _pIndex = IConfluxStar(confluxStar).poolIndexs(swapPair);\n        if(_pIndex > 0){\n            IUniswapV2Pair(swapPair).approve(confluxStar, amount);\n            IConfluxStar(confluxStar).deposit(_pIndex.sub(1), amount, from);\n        }else{\n            IUniswapV2Pair(swapPair).transfer(from, amount);\n        }\n\n      }else{\n        IUniswapV2Pair(swapPair).transfer(from, amount);\n      }\n      userLpAmount[from] = userLpAmount[from].add(amount);\n\n      // data migration\n      if (!_accountCheck[from]) {\n          _accountCheck[from] = true;\n          _accountList.push(from);\n      }\n\n      emit ExchangeLpToken(swapPair, from, amount);\n  }\n\n  // Add liquidity by Operator\n  function addLiquidity() external {\n      address operatorAddr = IMigratorFactory(factory).operatorAddr();\n      require(msg.sender == operatorAddr, \"MoonSwap: FORBIDDEN\");\n      address swapFactory = IMigratorFactory(factory).swapFactory();\n      // when finish addLiquidity close the method\n      require(swapFactory != address(0), \"MoonSwap: no swap factory\");\n\n      address swapPair = IUniswapV2Factory(swapFactory).getPair(token0, token1);\n      require(swapPair != address(0), \"MoonSwap: no swap pair\");\n\n      uint balance0 = IERC20(token0).balanceOf(address(this));\n      uint balance1 = IERC20(token1).balanceOf(address(this));\n      require(balance0 > 0 && balance1 > 0, \"MoonSwap: balance is zero!\");\n\n      IERC20(token0).transfer(swapPair, balance0);\n      IERC20(token1).transfer(swapPair, balance1);\n\n      uint liquidity = IUniswapV2Pair(swapPair).mint(address(this));\n\n      totalLpAmount = liquidity;\n\n      emit AddLiquidityEvent(swapPair, msg.sender, balance0, balance1);\n  }\n\n  function setTotalShareAmount(uint _shareAmount) external {\n    require(_shareAmount > 0, \"MoonSwap: shareAmount is zero\");\n    address operatorAddr = IMigratorFactory(factory).operatorAddr();\n    require(msg.sender == operatorAddr, \"MoonSwap: FORBIDDEN\");\n    totalShareAmount = _shareAmount;\n  }\n\n  function uploadUserShares(address[] calldata _users, uint[] calldata _shareAmounts) external {\n    address operatorAddr = IMigratorFactory(factory).operatorAddr();\n    require(msg.sender == operatorAddr, \"MoonSwap: FORBIDDEN\");\n    uint range = _users.length;\n    require(range == _shareAmounts.length, \"length is no match\");\n\n    for (uint i = 0; i < range; i++) {\n      address _user = _users[i];\n      uint _shareAmount = _shareAmounts[i];\n      userShareAmount[_user] = _shareAmount;\n    }\n  }\n\n  // upload user ethereum stake data Time dimension\n  function getTotalShareAmount() external view returns(uint){\n      return totalShareAmount;\n  }\n\n  // interface\n  function getShareAmount(address to) external view returns (uint) {\n    return userShareAmount[to];\n  }\n\n  function getTotalLpAmount() external view returns(uint){\n      return totalLpAmount;\n  }\n\n  function getUserLpAmount(address to) external view returns(uint) {\n    return userLpAmount[to];\n  }\n\n  // custodian deposit\n  function tokensReceived(address operator, address from, address to, uint amount,\n        bytes calldata userData,\n        bytes calldata operatorData) external {\n\n        address cMoonLpToken = IMigratorFactory(factory).cMoonLpToken(address(this));\n        if(cMoonLpToken == msg.sender) {\n           // Exchange Moonswap Liquidity\n           _exchangeLp(from, amount);\n        }\n\n        emit TokenTransfer(msg.sender, from, to, amount);\n  }\n\n  //---------------- Data Migration ----------------------\n    function accountTotal() public view returns (uint256) {\n        return _accountList.length;\n    }\n\n    function accountList(uint256 begin) public view returns (address[100] memory) {\n        require(begin >= 0 && begin < _accountList.length, \"MigratorPair: accountList out of range\");\n        address[100] memory res;\n        uint256 range = Math.min(_accountList.length, begin.add(100));\n        for (uint256 i = begin; i < range; i++) {\n            res[i-begin] = _accountList[i];\n        }\n        return res;\n    }\n}\n",
  "sourcePath": "/Users/junhuazhou/Documents/GitHub/moonswap-core/contracts/MigratorPair.sol",
  "compiler": {
    "name": "solc",
    "version": "0.5.16+commit.9c3226ce.Emscripten.clang"
  },
  "schemaVersion": "3.2.0",
  "updatedAt": "2021-04-01T09:42:49.113Z",
  "devdoc": {
    "methods": {}
  },
  "userdoc": {
    "methods": {}
  }
}