{
  "contractName": "MoonVoterProxy",
  "abi": [
    {
      "inputs": [],
      "payable": false,
      "stateMutability": "nonpayable",
      "type": "constructor"
    },
    {
      "constant": true,
      "inputs": [],
      "name": "master",
      "outputs": [
        {
          "internalType": "contract ConfluxStar",
          "name": "",
          "type": "address"
        }
      ],
      "payable": false,
      "stateMutability": "view",
      "type": "function"
    },
    {
      "constant": true,
      "inputs": [],
      "name": "pool",
      "outputs": [
        {
          "internalType": "uint256",
          "name": "",
          "type": "uint256"
        }
      ],
      "payable": false,
      "stateMutability": "view",
      "type": "function"
    },
    {
      "constant": true,
      "inputs": [],
      "name": "votes",
      "outputs": [
        {
          "internalType": "contract IERC20",
          "name": "",
          "type": "address"
        }
      ],
      "payable": false,
      "stateMutability": "view",
      "type": "function"
    },
    {
      "constant": true,
      "inputs": [],
      "name": "decimals",
      "outputs": [
        {
          "internalType": "uint8",
          "name": "",
          "type": "uint8"
        }
      ],
      "payable": false,
      "stateMutability": "pure",
      "type": "function"
    },
    {
      "constant": true,
      "inputs": [],
      "name": "name",
      "outputs": [
        {
          "internalType": "string",
          "name": "",
          "type": "string"
        }
      ],
      "payable": false,
      "stateMutability": "pure",
      "type": "function"
    },
    {
      "constant": true,
      "inputs": [],
      "name": "symbol",
      "outputs": [
        {
          "internalType": "string",
          "name": "",
          "type": "string"
        }
      ],
      "payable": false,
      "stateMutability": "pure",
      "type": "function"
    },
    {
      "constant": true,
      "inputs": [],
      "name": "totalSupply",
      "outputs": [
        {
          "internalType": "uint256",
          "name": "",
          "type": "uint256"
        }
      ],
      "payable": false,
      "stateMutability": "view",
      "type": "function"
    },
    {
      "constant": true,
      "inputs": [
        {
          "internalType": "address",
          "name": "_voter",
          "type": "address"
        }
      ],
      "name": "balanceOf",
      "outputs": [
        {
          "internalType": "uint256",
          "name": "",
          "type": "uint256"
        }
      ],
      "payable": false,
      "stateMutability": "view",
      "type": "function"
    }
  ],
  "bytecode": "0x608060405234801561001057600080fd5b50610555806100206000396000f3fe608060405234801561001057600080fd5b50600436106100885760003560e01c806370a082311161005b57806370a082311461017057806395d89b41146101c8578063e168c3ec1461024b578063ee97f7f31461029557610088565b806306fdde031461008d57806316f0115b1461011057806318160ddd1461012e578063313ce5671461014c575b600080fd5b6100956102df565b6040518080602001828103825283818151815260200191508051906020019080838360005b838110156100d55780820151818401526020810190506100ba565b50505050905090810190601f1680156101025780820380516001836020036101000a031916815260200191505b509250505060405180910390f35b61011861031c565b6040518082815260200191505060405180910390f35b610136610321565b6040518082815260200191505060405180910390f35b6101546103bd565b604051808260ff1660ff16815260200191505060405180910390f35b6101b26004803603602081101561018657600080fd5b81019080803573ffffffffffffffffffffffffffffffffffffffff1690602001909291905050506103c6565b6040518082815260200191505060405180910390f35b6101d06104b3565b6040518080602001828103825283818151815260200191508051906020019080838360005b838110156102105780820151818401526020810190506101f5565b50505050905090810190601f16801561023d5780820380516001836020036101000a031916815260200191505b509250505060405180910390f35b6102536104f0565b604051808273ffffffffffffffffffffffffffffffffffffffff1673ffffffffffffffffffffffffffffffffffffffff16815260200191505060405180910390f35b61029d610508565b604051808273ffffffffffffffffffffffffffffffffffffffff1673ffffffffffffffffffffffffffffffffffffffff16815260200191505060405180910390f35b60606040518060400160405280600781526020017f4d4f4f4e45564400000000000000000000000000000000000000000000000000815250905090565b600081565b60007386c90add0b8fbe7e4e110aa0b0f4e9582f89849673ffffffffffffffffffffffffffffffffffffffff166318160ddd6040518163ffffffff1660e01b815260040160206040518083038186803b15801561037d57600080fd5b505afa158015610391573d6000803e3d6000fd5b505050506040513d60208110156103a757600080fd5b8101908080519060200190929190505050905090565b60006012905090565b600080738d6ab59f0f3e3ddb5931b079e1081ed4a638abb473ffffffffffffffffffffffffffffffffffffffff166393f1a40b6000856040518363ffffffff1660e01b8152600401808381526020018273ffffffffffffffffffffffffffffffffffffffff1673ffffffffffffffffffffffffffffffffffffffff16815260200192505050604080518083038186803b15801561046257600080fd5b505afa158015610476573d6000803e3d6000fd5b505050506040513d604081101561048c57600080fd5b81019080805190602001909291908051906020019092919050505050905080915050919050565b60606040518060400160405280600481526020017f4d4f4f4e00000000000000000000000000000000000000000000000000000000815250905090565b7386c90add0b8fbe7e4e110aa0b0f4e9582f89849681565b738d6ab59f0f3e3ddb5931b079e1081ed4a638abb48156fea265627a7a723158202474b50204e22e63409d5a090823a1096d1bb824e79b96a77cd520aa5b50493d64736f6c63430005100032",
  "source": "pragma solidity >=0.5.16;\n\ninterface IERC20 {\n    function totalSupply() external view returns (uint256);\n    function balanceOf(address account) external view returns (uint256);\n    function transfer(address recipient, uint256 amount) external returns (bool);\n    function allowance(address owner, address spender) external view returns (uint256);\n    function approve(address spender, uint256 amount) external returns (bool);\n    function transferFrom(address sender, address recipient, uint256 amount) external returns (bool);\n    event Transfer(address indexed from, address indexed to, uint256 value);\n    event Approval(address indexed owner, address indexed spender, uint256 value);\n}\n\ninterface ConfluxStar {\n    function userInfo(uint, address) external view returns (uint, uint);\n}\n\ncontract MoonVoterProxy {\n\n    IERC20 public constant votes = IERC20(0x86C90add0b8fBE7e4E110aA0B0F4E9582F898496);\n    ConfluxStar public constant master = ConfluxStar(0x8D6ab59F0F3E3dDb5931B079E1081Ed4A638ABB4);\n    uint public constant pool = uint(0);\n\n    function decimals() external pure returns (uint8) {\n        return uint8(18);\n    }\n\n    function name() external pure returns (string memory) {\n        return \"MOONEVD\";\n    }\n\n    function symbol() external pure returns (string memory) {\n        return \"MOON\";\n    }\n\n    function totalSupply() external view returns (uint) {\n        return votes.totalSupply();\n    }\n\n    function balanceOf(address _voter) external view returns (uint) {\n        (uint _votes,) = master.userInfo(pool, _voter);\n        return _votes;\n    }\n\n    constructor() public {}\n}\n",
  "sourcePath": "/Users/junhuazhou/Documents/GitHub/moonswap-amm/contracts/MoonVoterProxy.sol",
  "compiler": {
    "name": "solc",
    "version": "0.5.16+commit.9c3226ce.Emscripten.clang"
  },
  "schemaVersion": "3.2.0",
  "updatedAt": "2020-10-13T11:49:10.537Z",
  "devdoc": {
    "methods": {}
  },
  "userdoc": {
    "methods": {}
  }
}