{
  "contractName": "SavingPool",
  "abi": [
    {
      "inputs": [
        {
          "internalType": "address",
          "name": "_fansToken",
          "type": "address"
        },
        {
          "internalType": "address",
          "name": "_confluxStar",
          "type": "address"
        },
        {
          "internalType": "address",
          "name": "_cMoonToken",
          "type": "address"
        },
        {
          "internalType": "uint256",
          "name": "_startBlock",
          "type": "uint256"
        }
      ],
      "payable": false,
      "stateMutability": "nonpayable",
      "type": "constructor"
    },
    {
      "anonymous": false,
      "inputs": [
        {
          "indexed": true,
          "internalType": "address",
          "name": "previousOwner",
          "type": "address"
        },
        {
          "indexed": true,
          "internalType": "address",
          "name": "newOwner",
          "type": "address"
        }
      ],
      "name": "OwnershipTransferred",
      "type": "event"
    },
    {
      "constant": true,
      "inputs": [],
      "name": "SPONSOR",
      "outputs": [
        {
          "internalType": "contract SponsorWhitelistControl",
          "name": "",
          "type": "address"
        }
      ],
      "payable": false,
      "stateMutability": "view",
      "type": "function"
    },
    {
      "constant": true,
      "inputs": [],
      "name": "cMoonToken",
      "outputs": [
        {
          "internalType": "address",
          "name": "",
          "type": "address"
        }
      ],
      "payable": false,
      "stateMutability": "view",
      "type": "function"
    },
    {
      "constant": true,
      "inputs": [],
      "name": "confluxStar",
      "outputs": [
        {
          "internalType": "address",
          "name": "",
          "type": "address"
        }
      ],
      "payable": false,
      "stateMutability": "view",
      "type": "function"
    },
    {
      "constant": true,
      "inputs": [],
      "name": "fansToken",
      "outputs": [
        {
          "internalType": "address",
          "name": "",
          "type": "address"
        }
      ],
      "payable": false,
      "stateMutability": "view",
      "type": "function"
    },
    {
      "constant": true,
      "inputs": [],
      "name": "isOwner",
      "outputs": [
        {
          "internalType": "bool",
          "name": "",
          "type": "bool"
        }
      ],
      "payable": false,
      "stateMutability": "view",
      "type": "function"
    },
    {
      "constant": true,
      "inputs": [],
      "name": "owner",
      "outputs": [
        {
          "internalType": "address",
          "name": "",
          "type": "address"
        }
      ],
      "payable": false,
      "stateMutability": "view",
      "type": "function"
    },
    {
      "constant": false,
      "inputs": [],
      "name": "renounceOwnership",
      "outputs": [],
      "payable": false,
      "stateMutability": "nonpayable",
      "type": "function"
    },
    {
      "constant": true,
      "inputs": [
        {
          "internalType": "uint256",
          "name": "",
          "type": "uint256"
        }
      ],
      "name": "sceneIds",
      "outputs": [
        {
          "internalType": "uint256",
          "name": "",
          "type": "uint256"
        }
      ],
      "payable": false,
      "stateMutability": "view",
      "type": "function"
    },
    {
      "constant": true,
      "inputs": [
        {
          "internalType": "address",
          "name": "",
          "type": "address"
        }
      ],
      "name": "sceneMap",
      "outputs": [
        {
          "internalType": "uint256",
          "name": "",
          "type": "uint256"
        }
      ],
      "payable": false,
      "stateMutability": "view",
      "type": "function"
    },
    {
      "constant": true,
      "inputs": [
        {
          "internalType": "uint256",
          "name": "",
          "type": "uint256"
        }
      ],
      "name": "scenes",
      "outputs": [
        {
          "internalType": "uint256",
          "name": "sceneId",
          "type": "uint256"
        },
        {
          "internalType": "uint256",
          "name": "allocPoint",
          "type": "uint256"
        },
        {
          "internalType": "uint256",
          "name": "lastRewardBlock",
          "type": "uint256"
        },
        {
          "internalType": "uint256",
          "name": "accTokenPerShare",
          "type": "uint256"
        },
        {
          "internalType": "address",
          "name": "sceneAddress",
          "type": "address"
        },
        {
          "internalType": "uint256",
          "name": "rewardDebt",
          "type": "uint256"
        }
      ],
      "payable": false,
      "stateMutability": "view",
      "type": "function"
    },
    {
      "constant": true,
      "inputs": [],
      "name": "stakePid",
      "outputs": [
        {
          "internalType": "uint256",
          "name": "",
          "type": "uint256"
        }
      ],
      "payable": false,
      "stateMutability": "view",
      "type": "function"
    },
    {
      "constant": true,
      "inputs": [],
      "name": "startBlock",
      "outputs": [
        {
          "internalType": "uint256",
          "name": "",
          "type": "uint256"
        }
      ],
      "payable": false,
      "stateMutability": "view",
      "type": "function"
    },
    {
      "constant": true,
      "inputs": [],
      "name": "totalAllocPoint",
      "outputs": [
        {
          "internalType": "uint256",
          "name": "",
          "type": "uint256"
        }
      ],
      "payable": false,
      "stateMutability": "view",
      "type": "function"
    },
    {
      "constant": false,
      "inputs": [
        {
          "internalType": "address",
          "name": "newOwner",
          "type": "address"
        }
      ],
      "name": "transferOwnership",
      "outputs": [],
      "payable": false,
      "stateMutability": "nonpayable",
      "type": "function"
    },
    {
      "constant": false,
      "inputs": [
        {
          "internalType": "uint256",
          "name": "_pid",
          "type": "uint256"
        },
        {
          "internalType": "uint256",
          "name": "_amount",
          "type": "uint256"
        }
      ],
      "name": "stake",
      "outputs": [],
      "payable": false,
      "stateMutability": "nonpayable",
      "type": "function"
    },
    {
      "constant": false,
      "inputs": [
        {
          "internalType": "uint256",
          "name": "_amount",
          "type": "uint256"
        }
      ],
      "name": "mintToken",
      "outputs": [],
      "payable": false,
      "stateMutability": "nonpayable",
      "type": "function"
    },
    {
      "constant": true,
      "inputs": [],
      "name": "farmAllocPoint",
      "outputs": [
        {
          "internalType": "uint256",
          "name": "",
          "type": "uint256"
        }
      ],
      "payable": false,
      "stateMutability": "view",
      "type": "function"
    },
    {
      "constant": true,
      "inputs": [
        {
          "internalType": "uint256",
          "name": "_pid",
          "type": "uint256"
        }
      ],
      "name": "poolInfo",
      "outputs": [
        {
          "components": [
            {
              "internalType": "address",
              "name": "token",
              "type": "address"
            },
            {
              "internalType": "uint256",
              "name": "allocPoint",
              "type": "uint256"
            },
            {
              "internalType": "uint256",
              "name": "lastRewardBlock",
              "type": "uint256"
            },
            {
              "internalType": "uint256",
              "name": "accTokenPerShare",
              "type": "uint256"
            }
          ],
          "internalType": "struct ISimpleConflux.PoolInfo",
          "name": "",
          "type": "tuple"
        }
      ],
      "payable": false,
      "stateMutability": "view",
      "type": "function"
    },
    {
      "constant": false,
      "inputs": [],
      "name": "harvest",
      "outputs": [],
      "payable": false,
      "stateMutability": "nonpayable",
      "type": "function"
    },
    {
      "constant": false,
      "inputs": [
        {
          "internalType": "address",
          "name": "_addr",
          "type": "address"
        }
      ],
      "name": "setConfluxStar",
      "outputs": [],
      "payable": false,
      "stateMutability": "nonpayable",
      "type": "function"
    },
    {
      "constant": false,
      "inputs": [
        {
          "internalType": "uint256",
          "name": "_sceneId",
          "type": "uint256"
        },
        {
          "internalType": "uint256",
          "name": "_allocPoint",
          "type": "uint256"
        },
        {
          "internalType": "address",
          "name": "_sceneAddress",
          "type": "address"
        }
      ],
      "name": "addScene",
      "outputs": [],
      "payable": false,
      "stateMutability": "nonpayable",
      "type": "function"
    },
    {
      "constant": false,
      "inputs": [
        {
          "internalType": "uint256",
          "name": "_sceneId",
          "type": "uint256"
        },
        {
          "internalType": "uint256",
          "name": "_allocPoint",
          "type": "uint256"
        }
      ],
      "name": "updateSceneAllocPoint",
      "outputs": [],
      "payable": false,
      "stateMutability": "nonpayable",
      "type": "function"
    },
    {
      "constant": false,
      "inputs": [
        {
          "internalType": "uint256",
          "name": "_sceneId",
          "type": "uint256"
        },
        {
          "internalType": "address",
          "name": "_sceneAddress",
          "type": "address"
        }
      ],
      "name": "updateSceneAddress",
      "outputs": [],
      "payable": false,
      "stateMutability": "nonpayable",
      "type": "function"
    },
    {
      "constant": false,
      "inputs": [
        {
          "internalType": "uint256",
          "name": "_sceneId",
          "type": "uint256"
        }
      ],
      "name": "harvestScene",
      "outputs": [
        {
          "internalType": "uint256",
          "name": "",
          "type": "uint256"
        }
      ],
      "payable": false,
      "stateMutability": "nonpayable",
      "type": "function"
    },
    {
      "constant": false,
      "inputs": [],
      "name": "harvestSelf",
      "outputs": [
        {
          "internalType": "uint256",
          "name": "",
          "type": "uint256"
        }
      ],
      "payable": false,
      "stateMutability": "nonpayable",
      "type": "function"
    },
    {
      "constant": false,
      "inputs": [],
      "name": "massUpdateScenes",
      "outputs": [],
      "payable": false,
      "stateMutability": "nonpayable",
      "type": "function"
    },
    {
      "constant": true,
      "inputs": [],
      "name": "sceneLen",
      "outputs": [
        {
          "internalType": "uint256",
          "name": "",
          "type": "uint256"
        }
      ],
      "payable": false,
      "stateMutability": "view",
      "type": "function"
    },
    {
      "constant": false,
      "inputs": [
        {
          "internalType": "uint256",
          "name": "_sceneId",
          "type": "uint256"
        }
      ],
      "name": "updateScene",
      "outputs": [],
      "payable": false,
      "stateMutability": "nonpayable",
      "type": "function"
    },
    {
      "constant": true,
      "inputs": [],
      "name": "farmTotalAllocPoint",
      "outputs": [
        {
          "internalType": "uint256",
          "name": "",
          "type": "uint256"
        }
      ],
      "payable": false,
      "stateMutability": "view",
      "type": "function"
    },
    {
      "constant": false,
      "inputs": [
        {
          "internalType": "address",
          "name": "token",
          "type": "address"
        },
        {
          "internalType": "address",
          "name": "to",
          "type": "address"
        },
        {
          "internalType": "uint256",
          "name": "_amount",
          "type": "uint256"
        }
      ],
      "name": "emergencyWithdraw",
      "outputs": [],
      "payable": false,
      "stateMutability": "nonpayable",
      "type": "function"
    },
    {
      "constant": true,
      "inputs": [
        {
          "internalType": "address",
          "name": "operator",
          "type": "address"
        },
        {
          "internalType": "address",
          "name": "from",
          "type": "address"
        },
        {
          "internalType": "address",
          "name": "to",
          "type": "address"
        },
        {
          "internalType": "uint256",
          "name": "amount",
          "type": "uint256"
        },
        {
          "internalType": "bytes",
          "name": "userData",
          "type": "bytes"
        },
        {
          "internalType": "bytes",
          "name": "operatorData",
          "type": "bytes"
        }
      ],
      "name": "tokensReceived",
      "outputs": [],
      "payable": false,
      "stateMutability": "view",
      "type": "function"
    }
  ],
  "bytecode": "0x60806040527388887ed889e776bcbe2f0f9932ecfabcdfcd1820600160006101000a81548173ffffffffffffffffffffffffffffffffffffffff021916908373ffffffffffffffffffffffffffffffffffffffff1602179055506000600a553480156200006b57600080fd5b506040516200390538038062003905833981810160405262000091919081019062000407565b6000620000a3620003d160201b60201c565b9050806000806101000a81548173ffffffffffffffffffffffffffffffffffffffff021916908373ffffffffffffffffffffffffffffffffffffffff1602179055508073ffffffffffffffffffffffffffffffffffffffff16600073ffffffffffffffffffffffffffffffffffffffff167f8be0079c531659141344cd1fd0a4f28419497f9722a3daafe3b4186f6b6457e060405160405180910390a35083600260006101000a81548173ffffffffffffffffffffffffffffffffffffffff021916908373ffffffffffffffffffffffffffffffffffffffff16021790555082600360006101000a81548173ffffffffffffffffffffffffffffffffffffffff021916908373ffffffffffffffffffffffffffffffffffffffff16021790555081600460006101000a81548173ffffffffffffffffffffffffffffffffffffffff021916908373ffffffffffffffffffffffffffffffffffffffff16021790555080600681905550600160009054906101000a900473ffffffffffffffffffffffffffffffffffffffff1673ffffffffffffffffffffffffffffffffffffffff166329965a1d307fb281fc8c12954d22544db45de3159a39272895b169a852b314f9cc762e44c53b60001b306040518463ffffffff1660e01b81526004016200028f939291906200052a565b600060405180830381600087803b158015620002aa57600080fd5b505af1158015620002bf573d6000803e3d6000fd5b5050505060606001604051908082528060200260200182016040528015620002f65781602001602082028038833980820191505090505b5090506000816000815181106200030957fe5b602002602001019073ffffffffffffffffffffffffffffffffffffffff16908173ffffffffffffffffffffffffffffffffffffffff168152505073088800000000000000000000000000000000000173ffffffffffffffffffffffffffffffffffffffff166310128d3e826040518263ffffffff1660e01b815260040162000392919062000567565b600060405180830381600087803b158015620003ad57600080fd5b505af1158015620003c2573d6000803e3d6000fd5b50505050505050505062000640565b600033905090565b600081519050620003ea816200060c565b92915050565b600081519050620004018162000626565b92915050565b600080600080608085870312156200041e57600080fd5b60006200042e87828801620003d9565b94505060206200044187828801620003d9565b93505060406200045487828801620003d9565b92505060606200046787828801620003f0565b91505092959194509250565b60006200048183836200048d565b60208301905092915050565b6200049881620005c4565b82525050565b620004a981620005c4565b82525050565b6000620004bc826200059b565b620004c88185620005b3565b9350620004d5836200058b565b8060005b838110156200050c578151620004f0888262000473565b9750620004fd83620005a6565b925050600181019050620004d9565b5085935050505092915050565b6200052481620005d8565b82525050565b60006060820190506200054160008301866200049e565b62000550602083018562000519565b6200055f60408301846200049e565b949350505050565b60006020820190508181036000830152620005838184620004af565b905092915050565b6000819050602082019050919050565b600081519050919050565b6000602082019050919050565b600082825260208201905092915050565b6000620005d182620005e2565b9050919050565b6000819050919050565b600073ffffffffffffffffffffffffffffffffffffffff82169050919050565b6000819050919050565b6200061781620005c4565b81146200062357600080fd5b50565b620006318162000602565b81146200063d57600080fd5b50565b6132b580620006506000396000f3fe608060405234801561001057600080fd5b50600436106101e45760003560e01c80637b0472f01161010f578063c2e25064116100a2578063ea206b3e11610071578063ea206b3e14610512578063f2fde38b14610530578063f8a943de1461054c578063fe74e87a1461057c576101e4565b8063c2e25064146104a2578063c634d032146104be578063cb0af82d146104da578063e63ea408146104f6576101e4565b8063916753c9116100de578063916753c91461042c57806392428e2f1461044a578063b1442c881461047a578063bf24567914610484576101e4565b80637b0472f0146103b65780637d0ccaad146103d25780638da5cb5b146103f05780638f32d59b1461040e576101e4565b80632d87b22d116101875780634daf29e4116101565780634daf29e41461034257806350e52bd2146103605780635d86a8f21461037c578063715018a6146103ac576101e4565b80632d87b22d146102c957806332c57cec146102e55780634641257d1461031a57806348cd4cb114610324576101e4565b80631526fe27116101c35780631526fe271461023f57806317caf6f11461026f5780631d073a7a1461028d5780631ec7122d146102ab576101e4565b806223de29146101e957806307a6acd9146102055780631315005014610223575b600080fd5b61020360048036036101fe9190810190612468565b61059a565b005b61020d6105a4565b60405161021a9190612d22565b60405180910390f35b61023d6004803603610238919081019061265a565b6105ca565b005b610259600480360361025491908101906125cc565b610702565b6040516102669190613007565b60405180910390f35b6102776107bc565b6040516102849190613022565b60405180910390f35b6102956107c2565b6040516102a29190612daa565b60405180910390f35b6102b36107da565b6040516102c09190613022565b60405180910390f35b6102e360048036036102de9190810190612696565b6107e7565b005b6102ff60048036036102fa91908101906125cc565b610aa2565b604051610311969594939291906130ab565b60405180910390f35b610322610afe565b005b61032c610b94565b6040516103399190613022565b60405180910390f35b61034a610b9a565b6040516103579190613022565b60405180910390f35b61037a600480360361037591908101906125cc565b610c41565b005b6103966004803603610391919081019061243f565b610cf7565b6040516103a39190613022565b60405180910390f35b6103b4610d0f565b005b6103d060048036036103cb919081019061265a565b610e15565b005b6103da610ff6565b6040516103e79190612d22565b60405180910390f35b6103f861101c565b6040516104059190612d22565b60405180910390f35b610416611045565b6040516104239190612d8f565b60405180910390f35b6104346110a3565b6040516104419190613022565b60405180910390f35b610464600480360361045f91908101906125cc565b61113a565b6040516104719190613022565b60405180910390f35b61048261128a565b005b61048c6112d1565b6040516104999190613022565b60405180910390f35b6104bc60048036036104b7919081019061261e565b6112f3565b005b6104d860048036036104d391908101906125cc565b61149c565b005b6104f460048036036104ef919081019061243f565b611575565b005b610510600480360361050b919081019061252b565b6116ca565b005b61051a6117b1565b6040516105279190613022565b60405180910390f35b61054a6004803603610545919081019061243f565b6117b7565b005b610566600480360361056191908101906125cc565b61180a565b6040516105739190613022565b60405180910390f35b61058461182b565b6040516105919190612d22565b60405180910390f35b5050505050505050565b600360009054906101000a900473ffffffffffffffffffffffffffffffffffffffff1681565b6105d2611045565b610611576040517f08c379a000000000000000000000000000000000000000000000000000000000815260040161060890612f27565b60405180910390fd5b61061961128a565b60006007600084815260200190815260200160002090506000816000015411610677576040517f08c379a000000000000000000000000000000000000000000000000000000000815260040161066e90612f47565b60405180910390fd5b6106a2826106948360010154600a5461185190919063ffffffff16565b61189b90919063ffffffff16565b600a81905550600a546106b36112d1565b10156106f4576040517f08c379a00000000000000000000000000000000000000000000000000000000081526004016106eb90612de7565b60405180910390fd5b818160010181905550505050565b61070a6122da565b600360009054906101000a900473ffffffffffffffffffffffffffffffffffffffff1673ffffffffffffffffffffffffffffffffffffffff16631526fe27836040518263ffffffff1660e01b81526004016107659190613022565b60806040518083038186803b15801561077d57600080fd5b505afa158015610791573d6000803e3d6000fd5b505050506040513d601f19601f820116820180604052506107b591908101906125a3565b9050919050565b600a5481565b73088800000000000000000000000000000000000181565b6000600880549050905090565b6107ef611045565b61082e576040517f08c379a000000000000000000000000000000000000000000000000000000000815260040161082590612f27565b60405180910390fd5b600073ffffffffffffffffffffffffffffffffffffffff168173ffffffffffffffffffffffffffffffffffffffff16141561089e576040517f08c379a000000000000000000000000000000000000000000000000000000000815260040161089590612ee7565b60405180910390fd5b6000600554116108e3576040517f08c379a00000000000000000000000000000000000000000000000000000000081526004016108da90612f67565b60405180910390fd5b6108eb61128a565b6000600760008581526020019081526020016000209050600084118015610916575060008160000154145b610955576040517f08c379a000000000000000000000000000000000000000000000000000000000815260040161094c90612e47565b60405180910390fd5b838160000181905550828160010181905550818160040160006101000a81548173ffffffffffffffffffffffffffffffffffffffff021916908373ffffffffffffffffffffffffffffffffffffffff16021790555060065443116109bb576006546109bd565b435b81600201819055506109da83600a5461189b90919063ffffffff16565b600a81905550600a546109eb6112d1565b1015610a2c576040517f08c379a0000000000000000000000000000000000000000000000000000000008152600401610a2390612de7565b60405180910390fd5b600884908060018154018082558091505090600182039060005260206000200160009091929091909150555083600960008473ffffffffffffffffffffffffffffffffffffffff1673ffffffffffffffffffffffffffffffffffffffff1681526020019081526020016000208190555050505050565b60076020528060005260406000206000915090508060000154908060010154908060020154908060030154908060040160009054906101000a900473ffffffffffffffffffffffffffffffffffffffff16908060050154905086565b600360009054906101000a900473ffffffffffffffffffffffffffffffffffffffff1673ffffffffffffffffffffffffffffffffffffffff16638dbdbe6d6005546000306040518463ffffffff1660e01b8152600401610b609392919061303d565b600060405180830381600087803b158015610b7a57600080fd5b505af1158015610b8e573d6000803e3d6000fd5b50505050565b60065481565b6000600360009054906101000a900473ffffffffffffffffffffffffffffffffffffffff1673ffffffffffffffffffffffffffffffffffffffff166317caf6f16040518163ffffffff1660e01b815260040160206040518083038186803b158015610c0457600080fd5b505afa158015610c18573d6000803e3d6000fd5b505050506040513d601f19601f82011682018060405250610c3c91908101906125f5565b905090565b600060076000838152602001908152602001600020905080600201544311610c695750610cf4565b6000600a541415610c835743816002018190555050610cf4565b6000600190506000610c9d836002015484600101546118f0565b9050610cdf610ccc83610cbe64e8d4a5100085611ab490919063ffffffff16565b611b2490919063ffffffff16565b846003015461189b90919063ffffffff16565b83600301819055504383600201819055505050505b50565b60096020528060005260406000206000915090505481565b610d17611045565b610d56576040517f08c379a0000000000000000000000000000000000000000000000000000000008152600401610d4d90612f27565b60405180910390fd5b600073ffffffffffffffffffffffffffffffffffffffff166000809054906101000a900473ffffffffffffffffffffffffffffffffffffffff1673ffffffffffffffffffffffffffffffffffffffff167f8be0079c531659141344cd1fd0a4f28419497f9722a3daafe3b4186f6b6457e060405160405180910390a360008060006101000a81548173ffffffffffffffffffffffffffffffffffffffff021916908373ffffffffffffffffffffffffffffffffffffffff160217905550565b610e1d611045565b610e5c576040517f08c379a0000000000000000000000000000000000000000000000000000000008152600401610e5390612f27565b60405180910390fd5b600260009054906101000a900473ffffffffffffffffffffffffffffffffffffffff1673ffffffffffffffffffffffffffffffffffffffff166340c10f1930836040518363ffffffff1660e01b8152600401610eb9929190612d66565b600060405180830381600087803b158015610ed357600080fd5b505af1158015610ee7573d6000803e3d6000fd5b50505050610f5a600360009054906101000a900473ffffffffffffffffffffffffffffffffffffffff1682600260009054906101000a900473ffffffffffffffffffffffffffffffffffffffff1673ffffffffffffffffffffffffffffffffffffffff16611b6e9092919063ffffffff16565b600360009054906101000a900473ffffffffffffffffffffffffffffffffffffffff1673ffffffffffffffffffffffffffffffffffffffff16638dbdbe6d8383306040518463ffffffff1660e01b8152600401610fb993929190613074565b600060405180830381600087803b158015610fd357600080fd5b505af1158015610fe7573d6000803e3d6000fd5b50505050816005819055505050565b600460009054906101000a900473ffffffffffffffffffffffffffffffffffffffff1681565b60008060009054906101000a900473ffffffffffffffffffffffffffffffffffffffff16905090565b60008060009054906101000a900473ffffffffffffffffffffffffffffffffffffffff1673ffffffffffffffffffffffffffffffffffffffff16611087611ce5565b73ffffffffffffffffffffffffffffffffffffffff1614905090565b600080600960003373ffffffffffffffffffffffffffffffffffffffff1673ffffffffffffffffffffffffffffffffffffffff1681526020019081526020016000205490506000811161112b576040517f08c379a000000000000000000000000000000000000000000000000000000000815260040161112290612e67565b60405180910390fd5b6111348161113a565b91505090565b6000611144610afe565b61114d82610c41565b6000600760008481526020019081526020016000209050600073ffffffffffffffffffffffffffffffffffffffff168160040160009054906101000a900473ffffffffffffffffffffffffffffffffffffffff1673ffffffffffffffffffffffffffffffffffffffff1614156111f8576040517f08c379a00000000000000000000000000000000000000000000000000000000081526004016111ef90612ee7565b60405180910390fd5b600061122c826005015461121e64e8d4a510008560030154611b2490919063ffffffff16565b61185190919063ffffffff16565b905061125c8260040160009054906101000a900473ffffffffffffffffffffffffffffffffffffffff1682611ced565b61127864e8d4a510008360030154611b2490919063ffffffff16565b82600501819055508092505050919050565b6000600880549050905060008090505b818110156112cd576112c2600882815481106112b257fe5b9060005260206000200154610c41565b80600101905061129a565b5050565b60006112db6122da565b6112e6600554610702565b9050806020015191505090565b6112fb611045565b61133a576040517f08c379a000000000000000000000000000000000000000000000000000000000815260040161133190612f27565b60405180910390fd5b600073ffffffffffffffffffffffffffffffffffffffff168173ffffffffffffffffffffffffffffffffffffffff1614156113aa576040517f08c379a00000000000000000000000000000000000000000000000000000000081526004016113a190612ee7565b60405180910390fd5b6113b261128a565b60006007600084815260200190815260200160002090506000816000015411611410576040517f08c379a000000000000000000000000000000000000000000000000000000000815260040161140790612f47565b60405180910390fd5b818160040160006101000a81548173ffffffffffffffffffffffffffffffffffffffff021916908373ffffffffffffffffffffffffffffffffffffffff16021790555082600960008473ffffffffffffffffffffffffffffffffffffffff1673ffffffffffffffffffffffffffffffffffffffff16815260200190815260200160002081905550505050565b6114a4611045565b6114e3576040517f08c379a00000000000000000000000000000000000000000000000000000000081526004016114da90612f27565b60405180910390fd5b600260009054906101000a900473ffffffffffffffffffffffffffffffffffffffff1673ffffffffffffffffffffffffffffffffffffffff166340c10f1930836040518363ffffffff1660e01b8152600401611540929190612d66565b600060405180830381600087803b15801561155a57600080fd5b505af115801561156e573d6000803e3d6000fd5b5050505050565b61157d611045565b6115bc576040517f08c379a00000000000000000000000000000000000000000000000000000000081526004016115b390612f27565b60405180910390fd5b8073ffffffffffffffffffffffffffffffffffffffff16600360009054906101000a900473ffffffffffffffffffffffffffffffffffffffff1673ffffffffffffffffffffffffffffffffffffffff16141580156116475750600073ffffffffffffffffffffffffffffffffffffffff168173ffffffffffffffffffffffffffffffffffffffff1614155b611686576040517f08c379a000000000000000000000000000000000000000000000000000000000815260040161167d90612ec7565b60405180910390fd5b80600360006101000a81548173ffffffffffffffffffffffffffffffffffffffff021916908373ffffffffffffffffffffffffffffffffffffffff16021790555050565b6116d2611045565b611711576040517f08c379a000000000000000000000000000000000000000000000000000000000815260040161170890612f27565b60405180910390fd5b600073ffffffffffffffffffffffffffffffffffffffff168273ffffffffffffffffffffffffffffffffffffffff161415611781576040517f08c379a000000000000000000000000000000000000000000000000000000000815260040161177890612ea7565b60405180910390fd5b6117ac82828573ffffffffffffffffffffffffffffffffffffffff16611e949092919063ffffffff16565b505050565b60055481565b6117bf611045565b6117fe576040517f08c379a00000000000000000000000000000000000000000000000000000000081526004016117f590612f27565b60405180910390fd5b61180781611f33565b50565b6008818154811061181757fe5b906000526020600020016000915090505481565b600260009054906101000a900473ffffffffffffffffffffffffffffffffffffffff1681565b600061189383836040518060400160405280601e81526020017f536166654d6174683a207375627472616374696f6e206f766572666c6f770000815250612061565b905092915050565b6000808284019050838110156118e6576040517f08c379a00000000000000000000000000000000000000000000000000000000081526004016118dd90612e27565b60405180910390fd5b8091505092915050565b600080600360009054906101000a900473ffffffffffffffffffffffffffffffffffffffff1673ffffffffffffffffffffffffffffffffffffffff16635fa7b83f6040518163ffffffff1660e01b815260040160206040518083038186803b15801561195b57600080fd5b505afa15801561196f573d6000803e3d6000fd5b505050506040513d601f19601f8201168201806040525061199391908101906125f5565b90506000600360009054906101000a900473ffffffffffffffffffffffffffffffffffffffff1673ffffffffffffffffffffffffffffffffffffffff166317caf6f16040518163ffffffff1660e01b815260040160206040518083038186803b1580156119ff57600080fd5b505afa158015611a13573d6000803e3d6000fd5b505050506040513d601f19601f82011682018060405250611a3791908101906125f5565b90506000811415611a4d57600092505050611aae565b611aa981611a9b86611a8d86611a7f6002611a718d4361185190919063ffffffff16565b611b2490919063ffffffff16565b611ab490919063ffffffff16565b611ab490919063ffffffff16565b611b2490919063ffffffff16565b925050505b92915050565b600080831415611ac75760009050611b1e565b6000828402905082848281611ad857fe5b0414611b19576040517f08c379a0000000000000000000000000000000000000000000000000000000008152600401611b1090612f07565b60405180910390fd5b809150505b92915050565b6000611b6683836040518060400160405280601a81526020017f536166654d6174683a206469766973696f6e206279207a65726f0000000000008152506120bc565b905092915050565b6000811480611c07575060008373ffffffffffffffffffffffffffffffffffffffff1663dd62ed3e30856040518363ffffffff1660e01b8152600401611bb5929190612d3d565b60206040518083038186803b158015611bcd57600080fd5b505afa158015611be1573d6000803e3d6000fd5b505050506040513d601f19601f82011682018060405250611c0591908101906125f5565b145b611c46576040517f08c379a0000000000000000000000000000000000000000000000000000000008152600401611c3d90612fa7565b60405180910390fd5b611ce0838473ffffffffffffffffffffffffffffffffffffffff1663095ea7b3905060e01b8484604051602401611c7e929190612d66565b604051602081830303815290604052907bffffffffffffffffffffffffffffffffffffffffffffffffffffffff19166020820180517bffffffffffffffffffffffffffffffffffffffffffffffffffffffff838183161783525050505061211d565b505050565b600033905090565b6000600460009054906101000a900473ffffffffffffffffffffffffffffffffffffffff1673ffffffffffffffffffffffffffffffffffffffff166370a08231306040518263ffffffff1660e01b8152600401611d4a9190612d22565b60206040518083038186803b158015611d6257600080fd5b505afa158015611d76573d6000803e3d6000fd5b505050506040513d601f19601f82011682018060405250611d9a91908101906125f5565b905080821115611ddf576040517f08c379a0000000000000000000000000000000000000000000000000000000008152600401611dd690612fe7565b60405180910390fd5b600460009054906101000a900473ffffffffffffffffffffffffffffffffffffffff1673ffffffffffffffffffffffffffffffffffffffff1663a9059cbb84846040518363ffffffff1660e01b8152600401611e3c929190612d66565b602060405180830381600087803b158015611e5657600080fd5b505af1158015611e6a573d6000803e3d6000fd5b505050506040513d601f19601f82011682018060405250611e8e919081019061257a565b50505050565b611f2e838473ffffffffffffffffffffffffffffffffffffffff1663a9059cbb905060e01b8484604051602401611ecc929190612d66565b604051602081830303815290604052907bffffffffffffffffffffffffffffffffffffffffffffffffffffffff19166020820180517bffffffffffffffffffffffffffffffffffffffffffffffffffffffff838183161783525050505061211d565b505050565b600073ffffffffffffffffffffffffffffffffffffffff168173ffffffffffffffffffffffffffffffffffffffff161415611fa3576040517f08c379a0000000000000000000000000000000000000000000000000000000008152600401611f9a90612e07565b60405180910390fd5b8073ffffffffffffffffffffffffffffffffffffffff166000809054906101000a900473ffffffffffffffffffffffffffffffffffffffff1673ffffffffffffffffffffffffffffffffffffffff167f8be0079c531659141344cd1fd0a4f28419497f9722a3daafe3b4186f6b6457e060405160405180910390a3806000806101000a81548173ffffffffffffffffffffffffffffffffffffffff021916908373ffffffffffffffffffffffffffffffffffffffff16021790555050565b60008383111582906120a9576040517f08c379a00000000000000000000000000000000000000000000000000000000081526004016120a09190612dc5565b60405180910390fd5b5060008385039050809150509392505050565b60008083118290612103576040517f08c379a00000000000000000000000000000000000000000000000000000000081526004016120fa9190612dc5565b60405180910390fd5b50600083858161210f57fe5b049050809150509392505050565b61213c8273ffffffffffffffffffffffffffffffffffffffff1661228f565b61217b576040517f08c379a000000000000000000000000000000000000000000000000000000000815260040161217290612fc7565b60405180910390fd5b600060608373ffffffffffffffffffffffffffffffffffffffff16836040516121a49190612d0b565b6000604051808303816000865af19150503d80600081146121e1576040519150601f19603f3d011682016040523d82523d6000602084013e6121e6565b606091505b50915091508161222b576040517f08c379a000000000000000000000000000000000000000000000000000000000815260040161222290612e87565b60405180910390fd5b6000815111156122895780806020019051612249919081019061257a565b612288576040517f08c379a000000000000000000000000000000000000000000000000000000000815260040161227f90612f87565b60405180910390fd5b5b50505050565b60008060007fc5d2460186f7233c927e7db2dcc703c0e500b653ca82273b7bfad8045d85a47060001b9050833f91508082141580156122d157506000801b8214155b92505050919050565b6040518060800160405280600073ffffffffffffffffffffffffffffffffffffffff1681526020016000815260200160008152602001600081525090565b6000813590506123278161322d565b92915050565b60008151905061233c8161322d565b92915050565b60008151905061235181613244565b92915050565b60008083601f84011261236957600080fd5b8235905067ffffffffffffffff81111561238257600080fd5b60208301915083600182028301111561239a57600080fd5b9250929050565b6000608082840312156123b357600080fd5b6123bd608061310c565b905060006123cd8482850161232d565b60008301525060206123e18482850161242a565b60208301525060406123f58482850161242a565b60408301525060606124098482850161242a565b60608301525092915050565b6000813590506124248161325b565b92915050565b6000815190506124398161325b565b92915050565b60006020828403121561245157600080fd5b600061245f84828501612318565b91505092915050565b60008060008060008060008060c0898b03121561248457600080fd5b60006124928b828c01612318565b98505060206124a38b828c01612318565b97505060406124b48b828c01612318565b96505060606124c58b828c01612415565b955050608089013567ffffffffffffffff8111156124e257600080fd5b6124ee8b828c01612357565b945094505060a089013567ffffffffffffffff81111561250d57600080fd5b6125198b828c01612357565b92509250509295985092959890939650565b60008060006060848603121561254057600080fd5b600061254e86828701612318565b935050602061255f86828701612318565b925050604061257086828701612415565b9150509250925092565b60006020828403121561258c57600080fd5b600061259a84828501612342565b91505092915050565b6000608082840312156125b557600080fd5b60006125c3848285016123a1565b91505092915050565b6000602082840312156125de57600080fd5b60006125ec84828501612415565b91505092915050565b60006020828403121561260757600080fd5b60006126158482850161242a565b91505092915050565b6000806040838503121561263157600080fd5b600061263f85828601612415565b925050602061265085828601612318565b9150509250929050565b6000806040838503121561266d57600080fd5b600061267b85828601612415565b925050602061268c85828601612415565b9150509250929050565b6000806000606084860312156126ab57600080fd5b60006126b986828701612415565b93505060206126ca86828701612415565b92505060406126db86828701612318565b9150509250925092565b6126ee8161316b565b82525050565b6126fd8161316b565b82525050565b61270c8161317d565b82525050565b600061271d82613139565b612727818561314f565b93506127378185602086016131e9565b80840191505092915050565b61274c816131b3565b82525050565b61275b816131d7565b82525050565b600061276c82613144565b612776818561315a565b93506127868185602086016131e9565b61278f8161321c565b840191505092915050565b60006127a760208361315a565b91507f536176696e67506f6f6c3a20616c6c6f63506f696e74206f766572204661726d6000830152602082019050919050565b60006127e760268361315a565b91507f4f776e61626c653a206e6577206f776e657220697320746865207a65726f206160008301527f64647265737300000000000000000000000000000000000000000000000000006020830152604082019050919050565b600061284d601b8361315a565b91507f536166654d6174683a206164646974696f6e206f766572666c6f7700000000006000830152602082019050919050565b600061288d601a8361315a565b91507f536176696e67506f6f6c3a207363656e654964206578697374730000000000006000830152602082019050919050565b60006128cd601b8361315a565b91507f536176696e67506f6f6c3a20696e76616c6964207363656e65496400000000006000830152602082019050919050565b600061290d60208361315a565b91507f5361666545524332303a206c6f772d6c6576656c2063616c6c206661696c65646000830152602082019050919050565b600061294d601e8361315a565b91507f536176696e67506f6f6c3a20746f2061646472657373206973207a65726f00006000830152602082019050919050565b600061298d60188361315a565b91507f536176696e67506f6f6c3a206164647220696e76616c696400000000000000006000830152602082019050919050565b60006129cd60188361315a565b91507f536176696e67506f6f6c3a207a65726f206164647265737300000000000000006000830152602082019050919050565b6000612a0d60218361315a565b91507f536166654d6174683a206d756c7469706c69636174696f6e206f766572666c6f60008301527f77000000000000000000000000000000000000000000000000000000000000006020830152604082019050919050565b6000612a7360208361315a565b91507f4f776e61626c653a2063616c6c6572206973206e6f7420746865206f776e65726000830152602082019050919050565b6000612ab3601d8361315a565b91507f536176696e67506f6f6c3a207363656e654964206e6f206578697374730000006000830152602082019050919050565b6000612af3601f8361315a565b91507f536176696e67506f6f6c3a206e6f206661726d20706f6f6c20637265617465006000830152602082019050919050565b6000612b33602a8361315a565b91507f5361666545524332303a204552433230206f7065726174696f6e20646964206e60008301527f6f742073756363656564000000000000000000000000000000000000000000006020830152604082019050919050565b6000612b9960368361315a565b91507f5361666545524332303a20617070726f76652066726f6d206e6f6e2d7a65726f60008301527f20746f206e6f6e2d7a65726f20616c6c6f77616e6365000000000000000000006020830152604082019050919050565b6000612bff601f8361315a565b91507f5361666545524332303a2063616c6c20746f206e6f6e2d636f6e7472616374006000830152602082019050919050565b6000612c3f60218361315a565b91507f436f6e666c7578537461723a2042616c616e636520696e73756666696369656e60008301527f74000000000000000000000000000000000000000000000000000000000000006020830152604082019050919050565b608082016000820151612cae60008501826126e5565b506020820151612cc16020850182612ced565b506040820151612cd46040850182612ced565b506060820151612ce76060850182612ced565b50505050565b612cf6816131a9565b82525050565b612d05816131a9565b82525050565b6000612d178284612712565b915081905092915050565b6000602082019050612d3760008301846126f4565b92915050565b6000604082019050612d5260008301856126f4565b612d5f60208301846126f4565b9392505050565b6000604082019050612d7b60008301856126f4565b612d886020830184612cfc565b9392505050565b6000602082019050612da46000830184612703565b92915050565b6000602082019050612dbf6000830184612743565b92915050565b60006020820190508181036000830152612ddf8184612761565b905092915050565b60006020820190508181036000830152612e008161279a565b9050919050565b60006020820190508181036000830152612e20816127da565b9050919050565b60006020820190508181036000830152612e4081612840565b9050919050565b60006020820190508181036000830152612e6081612880565b9050919050565b60006020820190508181036000830152612e80816128c0565b9050919050565b60006020820190508181036000830152612ea081612900565b9050919050565b60006020820190508181036000830152612ec081612940565b9050919050565b60006020820190508181036000830152612ee081612980565b9050919050565b60006020820190508181036000830152612f00816129c0565b9050919050565b60006020820190508181036000830152612f2081612a00565b9050919050565b60006020820190508181036000830152612f4081612a66565b9050919050565b60006020820190508181036000830152612f6081612aa6565b9050919050565b60006020820190508181036000830152612f8081612ae6565b9050919050565b60006020820190508181036000830152612fa081612b26565b9050919050565b60006020820190508181036000830152612fc081612b8c565b9050919050565b60006020820190508181036000830152612fe081612bf2565b9050919050565b6000602082019050818103600083015261300081612c32565b9050919050565b600060808201905061301c6000830184612c98565b92915050565b60006020820190506130376000830184612cfc565b92915050565b60006060820190506130526000830186612cfc565b61305f6020830185612752565b61306c60408301846126f4565b949350505050565b60006060820190506130896000830186612cfc565b6130966020830185612cfc565b6130a360408301846126f4565b949350505050565b600060c0820190506130c06000830189612cfc565b6130cd6020830188612cfc565b6130da6040830187612cfc565b6130e76060830186612cfc565b6130f460808301856126f4565b61310160a0830184612cfc565b979650505050505050565b6000604051905081810181811067ffffffffffffffff8211171561312f57600080fd5b8060405250919050565b600081519050919050565b600081519050919050565b600081905092915050565b600082825260208201905092915050565b600061317682613189565b9050919050565b60008115159050919050565b600073ffffffffffffffffffffffffffffffffffffffff82169050919050565b6000819050919050565b60006131be826131c5565b9050919050565b60006131d082613189565b9050919050565b60006131e2826131a9565b9050919050565b60005b838110156132075780820151818401526020810190506131ec565b83811115613216576000848401525b50505050565b6000601f19601f8301169050919050565b6132368161316b565b811461324157600080fd5b50565b61324d8161317d565b811461325857600080fd5b50565b613264816131a9565b811461326f57600080fd5b5056fea365627a7a72315820307ce18a42df76c93fa38d5a34e893b8684df4e903d4ac9c257cc42c8d50165a6c6578706572696d656e74616cf564736f6c63430005100040",
  "source": "pragma solidity ^0.5.11;\npragma experimental ABIEncoderV2;\n\nimport \"@openzeppelin/contracts/token/ERC20/IERC20.sol\";\nimport \"@openzeppelin/contracts/token/ERC20/ERC20.sol\";\nimport \"@openzeppelin/contracts/token/ERC20/ERC20Detailed.sol\";\nimport \"@openzeppelin/contracts/math/SafeMath.sol\";\nimport \"@openzeppelin/contracts/ownership/Ownable.sol\";\nimport \"@openzeppelin/contracts/introspection/IERC1820Registry.sol\";\nimport \"@openzeppelin/contracts/token/ERC777/IERC777Recipient.sol\";\nimport \"@openzeppelin/contracts/token/ERC20/SafeERC20.sol\";\nimport \"../SponsorWhitelistControl.sol\";\nimport \"../interfaces/IFansToken.sol\";\nimport \"../interfaces/IConfluxStar.sol\";\nimport \"../interfaces/ISimpleConflux.sol\";\n\n/**\n *  SavingPool migration pool\n *  support keplerdouble minttrade mint etc\n */\ncontract SavingPool is Ownable, ISimpleConflux{\n    using SafeMath for uint256;\n    using SafeERC20 for IERC20;\n\n    IERC1820Registry private _erc1820 = IERC1820Registry(0x88887eD889e776bCBe2f0f9932EcFaBcDfCd1820);\n    // keccak256(\"ERC777TokensRecipient\")\n    bytes32 constant private TOKENS_RECIPIENT_INTERFACE_HASH =\n      0xb281fc8c12954d22544db45de3159a39272895b169a852b314f9cc762e44c53b;\n\n    SponsorWhitelistControl constant public SPONSOR = SponsorWhitelistControl(address(0x0888000000000000000000000000000000000001));\n\n    address public fansToken;\n    address public confluxStar;\n    address public cMoonToken;\n    uint256 public stakePid;\n    uint256 public startBlock;\n\n    struct SceneInfo {\n      uint256 sceneId; // scene id no repeat\n      uint256 allocPoint;       //\n      uint256 lastRewardBlock;  //\n      uint256 accTokenPerShare; //\n      address sceneAddress;\n      uint256 rewardDebt;\n    }\n\n    mapping(uint256 => SceneInfo) public scenes;\n    uint256[] public sceneIds;\n    mapping(address => uint256) public sceneMap;\n\n    uint256 public totalAllocPoint = 0;\n\n    constructor(address _fansToken,\n                address _confluxStar,\n                address _cMoonToken,\n                uint256 _startBlock) public {\n        fansToken = _fansToken;\n        confluxStar = _confluxStar;\n        cMoonToken = _cMoonToken;\n        startBlock = _startBlock;\n\n        _erc1820.setInterfaceImplementer(address(this), TOKENS_RECIPIENT_INTERFACE_HASH, address(this));\n\n        // register all users as sponsees\n        address[] memory users = new address[](1);\n        users[0] = address(0);\n        SPONSOR.addPrivilege(users);\n    }\n\n    function stake(uint256 _pid, uint256 _amount) external onlyOwner {\n        IFansToken(fansToken).mint(address(this), _amount);\n        IERC20(fansToken).safeApprove(confluxStar, _amount);\n        IConfluxStar(confluxStar).deposit(_pid, _amount, address(this));\n        stakePid = _pid;\n    }\n\n    function mintToken(uint256 _amount) external onlyOwner {\n        IFansToken(fansToken).mint(address(this), _amount);\n    }\n\n    function farmAllocPoint() public view returns(uint256){\n      PoolInfo memory _poolInfo = poolInfo(stakePid);\n\n      return _poolInfo.allocPoint;\n    }\n\n    function poolInfo(uint256 _pid) public view returns(PoolInfo memory) {\n        return ISimpleConflux(confluxStar).poolInfo(_pid);\n    }\n\n    function harvest() public {\n        IConfluxStar(confluxStar).deposit(stakePid, 0, address(this));\n    }\n\n    function setConfluxStar(address _addr) external onlyOwner {\n        require(confluxStar != _addr && _addr != address(0), \"SavingPool: addr invalid\");\n        confluxStar = _addr;\n    }\n\n    function addScene(uint256 _sceneId, uint256 _allocPoint, address _sceneAddress) external onlyOwner{\n        require(_sceneAddress != address(0), \"SavingPool: zero address\");\n        require(stakePid > 0, \"SavingPool: no farm pool create\");\n        massUpdateScenes();\n        SceneInfo storage _scene = scenes[_sceneId];\n        require(_sceneId > 0 && _scene.sceneId == 0, \"SavingPool: sceneId exists\");\n        _scene.sceneId = _sceneId;\n        _scene.allocPoint = _allocPoint;\n        _scene.sceneAddress = _sceneAddress;\n        _scene.lastRewardBlock = block.number > startBlock ? block.number : startBlock;\n        totalAllocPoint = totalAllocPoint.add(_allocPoint);\n        // Farm\n        require(farmAllocPoint() >= totalAllocPoint, \"SavingPool: allocPoint over Farm\");\n\n        sceneIds.push(_sceneId);\n\n        sceneMap[_sceneAddress] = _sceneId;\n    }\n\n    function updateSceneAllocPoint(uint256 _sceneId, uint256 _allocPoint) external onlyOwner {\n        massUpdateScenes();\n        SceneInfo storage _scene = scenes[_sceneId];\n        require(_scene.sceneId > 0, \"SavingPool: sceneId no exists\");\n        totalAllocPoint = totalAllocPoint.sub(_scene.allocPoint).add(_allocPoint);\n        require(farmAllocPoint() >= totalAllocPoint, \"SavingPool: allocPoint over Farm\");\n        _scene.allocPoint = _allocPoint;\n    }\n\n    function updateSceneAddress(uint256 _sceneId, address _sceneAddress) external onlyOwner {\n        require(_sceneAddress != address(0), \"SavingPool: zero address\");\n        massUpdateScenes();\n        SceneInfo storage _scene = scenes[_sceneId];\n        require(_scene.sceneId > 0, \"SavingPool: sceneId no exists\");\n        _scene.sceneAddress = _sceneAddress;\n\n        sceneMap[_sceneAddress] = _sceneId;\n    }\n\n    function harvestScene(uint256 _sceneId) public returns(uint256){\n      harvest();\n      // from farm to scene\n      updateScene(_sceneId);\n      SceneInfo storage _scene = scenes[_sceneId];\n      require(_scene.sceneAddress != address(0), \"SavingPool: zero address\");\n      uint256 pending = _scene.accTokenPerShare.div(1e12).sub(_scene.rewardDebt);\n      _safeTokenTransfer(_scene.sceneAddress, pending);\n      _scene.rewardDebt = _scene.accTokenPerShare.div(1e12);\n\n      return pending;\n    }\n\n    function harvestSelf() public returns(uint256){\n      uint256 _sceneId = sceneMap[msg.sender];\n      require(_sceneId > 0, \"SavingPool: invalid sceneId\");\n\n      return harvestScene(_sceneId);\n    }\n\n    function massUpdateScenes() public {\n      uint256 _range = sceneIds.length;\n      for(uint256 i = 0; i < _range; ++i){\n          updateScene(sceneIds[i]);\n      }\n    }\n\n    function sceneLen() public view returns(uint256) {\n        return sceneIds.length;\n    }\n\n    function updateScene(uint256 _sceneId) public {\n        SceneInfo storage _scene = scenes[_sceneId];\n        if(block.number <= _scene.lastRewardBlock){\n            return;\n        }\n        if(totalAllocPoint == 0){\n            _scene.lastRewardBlock = block.number;\n            return;\n        }\n\n        uint256 lpSupply = 1;\n        uint256 tokenReward = _getSceneReward(_scene.lastRewardBlock, _scene.allocPoint);\n\n        _scene.accTokenPerShare = _scene.accTokenPerShare.add(tokenReward.mul(1e12).div(lpSupply));\n        _scene.lastRewardBlock = block.number;\n    }\n\n    function farmTotalAllocPoint() public view returns(uint256){\n        return IConfluxStar(confluxStar).totalAllocPoint();\n    }\n\n    // emergency Failure LP\n    function emergencyWithdraw(address token, address to, uint256 _amount) external onlyOwner {\n        require(to != address(0), \"SavingPool: to address is zero\");\n        IERC20(token).safeTransfer(to, _amount);\n    }\n\n    function _getSceneReward(uint256 _lastRewardBlock, uint256 _sceneAllocPoint) internal view returns(uint256) {\n        uint256 _tokenPerSecond = IConfluxStar(confluxStar).tokenPerSecond();\n        uint256 _totalAllocPoint = IConfluxStar(confluxStar).totalAllocPoint();\n        if(_totalAllocPoint == 0){\n            return 0;\n        }\n\n        return block.number.sub(_lastRewardBlock).div(2).mul(_tokenPerSecond)\n          .mul(_sceneAllocPoint).div(_totalAllocPoint);\n    }\n\n    function _safeTokenTransfer(address _to, uint256 _amount) internal {\n        uint256 tokenBal = IERC20(cMoonToken).balanceOf(address(this));\n        require(_amount <= tokenBal, \"ConfluxStar: Balance insufficient\");\n        IERC20(cMoonToken).transfer(_to, _amount);\n    }\n\n    // erc777 receiveToken\n    function tokensReceived(address operator, address from, address to, uint amount,\n          bytes calldata userData,\n          bytes calldata operatorData) external view {\n          return;\n    }\n}\n",
  "sourcePath": "/Users/junhuazhou/Documents/GitHub/moonswap-core/contracts/farm/SavingPool.sol",
  "compiler": {
    "name": "solc",
    "version": "0.5.16+commit.9c3226ce.Emscripten.clang"
  },
  "schemaVersion": "3.2.0",
  "updatedAt": "2021-04-01T09:42:49.471Z",
  "devdoc": {
    "methods": {
      "isOwner()": {
        "details": "Returns true if the caller is the current owner."
      },
      "owner()": {
        "details": "Returns the address of the current owner."
      },
      "renounceOwnership()": {
        "details": "Leaves the contract without owner. It will not be possible to call `onlyOwner` functions anymore. Can only be called by the current owner.     * NOTE: Renouncing ownership will leave the contract without an owner, thereby removing any functionality that is only available to the owner."
      },
      "transferOwnership(address)": {
        "details": "Transfers ownership of the contract to a new account (`newOwner`). Can only be called by the current owner."
      }
    }
  },
  "userdoc": {
    "methods": {},
    "notice": "SavingPool migration pool support keplerdouble minttrade mint etc"
  }
}