{
  "contractName": "WrapperFactory",
  "abi": [
    {
      "inputs": [],
      "payable": false,
      "stateMutability": "nonpayable",
      "type": "constructor"
    },
    {
      "anonymous": false,
      "inputs": [
        {
          "indexed": true,
          "internalType": "address",
          "name": "_cToken",
          "type": "address"
        },
        {
          "indexed": false,
          "internalType": "address",
          "name": "_mToken",
          "type": "address"
        }
      ],
      "name": "CreatedMToken",
      "type": "event"
    },
    {
      "anonymous": false,
      "inputs": [
        {
          "indexed": true,
          "internalType": "address",
          "name": "previousOwner",
          "type": "address"
        },
        {
          "indexed": true,
          "internalType": "address",
          "name": "newOwner",
          "type": "address"
        }
      ],
      "name": "OwnershipTransferred",
      "type": "event"
    },
    {
      "anonymous": false,
      "inputs": [
        {
          "indexed": true,
          "internalType": "address",
          "name": "from",
          "type": "address"
        },
        {
          "indexed": false,
          "internalType": "bool",
          "name": "originalPause",
          "type": "bool"
        },
        {
          "indexed": false,
          "internalType": "bool",
          "name": "newPause",
          "type": "bool"
        }
      ],
      "name": "SetPaused",
      "type": "event"
    },
    {
      "constant": true,
      "inputs": [],
      "name": "SPONSOR",
      "outputs": [
        {
          "internalType": "contract SponsorWhitelistControl",
          "name": "",
          "type": "address"
        }
      ],
      "payable": false,
      "stateMutability": "view",
      "type": "function"
    },
    {
      "constant": true,
      "inputs": [
        {
          "internalType": "uint256",
          "name": "",
          "type": "uint256"
        }
      ],
      "name": "cTokens",
      "outputs": [
        {
          "internalType": "address",
          "name": "",
          "type": "address"
        }
      ],
      "payable": false,
      "stateMutability": "view",
      "type": "function"
    },
    {
      "constant": true,
      "inputs": [],
      "name": "getPause",
      "outputs": [
        {
          "internalType": "bool",
          "name": "",
          "type": "bool"
        }
      ],
      "payable": false,
      "stateMutability": "view",
      "type": "function"
    },
    {
      "constant": true,
      "inputs": [],
      "name": "operator",
      "outputs": [
        {
          "internalType": "address",
          "name": "",
          "type": "address"
        }
      ],
      "payable": false,
      "stateMutability": "view",
      "type": "function"
    },
    {
      "constant": false,
      "inputs": [
        {
          "internalType": "bool",
          "name": "isPause",
          "type": "bool"
        }
      ],
      "name": "setPause",
      "outputs": [],
      "payable": false,
      "stateMutability": "nonpayable",
      "type": "function"
    },
    {
      "constant": true,
      "inputs": [
        {
          "internalType": "address",
          "name": "",
          "type": "address"
        }
      ],
      "name": "tokens",
      "outputs": [
        {
          "internalType": "address",
          "name": "",
          "type": "address"
        }
      ],
      "payable": false,
      "stateMutability": "view",
      "type": "function"
    },
    {
      "constant": false,
      "inputs": [
        {
          "internalType": "address",
          "name": "newOwner",
          "type": "address"
        }
      ],
      "name": "transferOwnership",
      "outputs": [],
      "payable": false,
      "stateMutability": "nonpayable",
      "type": "function"
    },
    {
      "constant": false,
      "inputs": [
        {
          "internalType": "address",
          "name": "_cToken",
          "type": "address"
        }
      ],
      "name": "createToken",
      "outputs": [
        {
          "internalType": "address",
          "name": "_mToken",
          "type": "address"
        }
      ],
      "payable": false,
      "stateMutability": "nonpayable",
      "type": "function"
    },
    {
      "constant": false,
      "inputs": [
        {
          "internalType": "address",
          "name": "_cToken",
          "type": "address"
        },
        {
          "internalType": "address",
          "name": "_mToken",
          "type": "address"
        }
      ],
      "name": "addToken",
      "outputs": [],
      "payable": false,
      "stateMutability": "nonpayable",
      "type": "function"
    },
    {
      "constant": true,
      "inputs": [],
      "name": "tokenLength",
      "outputs": [
        {
          "internalType": "uint256",
          "name": "",
          "type": "uint256"
        }
      ],
      "payable": false,
      "stateMutability": "view",
      "type": "function"
    },
    {
      "constant": false,
      "inputs": [
        {
          "internalType": "address",
          "name": "_operator",
          "type": "address"
        }
      ],
      "name": "setOperator",
      "outputs": [],
      "payable": false,
      "stateMutability": "nonpayable",
      "type": "function"
    }
  ],
  "bytecode": "0x608060405234801561001057600080fd5b50336000806101000a81548173ffffffffffffffffffffffffffffffffffffffff021916908373ffffffffffffffffffffffffffffffffffffffff16021790555060008060146101000a81548160ff02191690831515021790555033600160006101000a81548173ffffffffffffffffffffffffffffffffffffffff021916908373ffffffffffffffffffffffffffffffffffffffff160217905550606060016040519080825280602002602001820160405280156100de5781602001602082028038833980820191505090505b5090506000816000815181106100f057fe5b602002602001019073ffffffffffffffffffffffffffffffffffffffff16908173ffffffffffffffffffffffffffffffffffffffff168152505073088800000000000000000000000000000000000173ffffffffffffffffffffffffffffffffffffffff1663fe15156c826040518263ffffffff1660e01b81526004018080602001828103825283818151815260200191508051906020019060200280838360005b838110156101ad578082015181840152602081019050610192565b5050505090500192505050600060405180830381600087803b1580156101d257600080fd5b505af11580156101e6573d6000803e3d6000fd5b505050505061427b806101fa6000396000f3fe608060405234801561001057600080fd5b50600436106100a95760003560e01c8063bedb86fb11610071578063bedb86fb1461020c578063c21ab7f91461023c578063c2d141be146102c0578063de66341e1461032e578063e48603391461034c578063f2fde38b146103d0576100a9565b80631d073a7a146100ae5780633e3ca9d3146100f85780635476bd721461011a578063570ca7351461017e578063b3ab15fb146101c8575b600080fd5b6100b6610414565b604051808273ffffffffffffffffffffffffffffffffffffffff1673ffffffffffffffffffffffffffffffffffffffff16815260200191505060405180910390f35b61010061042c565b604051808215151515815260200191505060405180910390f35b61017c6004803603604081101561013057600080fd5b81019080803573ffffffffffffffffffffffffffffffffffffffff169060200190929190803573ffffffffffffffffffffffffffffffffffffffff169060200190929190505050610442565b005b610186610663565b604051808273ffffffffffffffffffffffffffffffffffffffff1673ffffffffffffffffffffffffffffffffffffffff16815260200191505060405180910390f35b61020a600480360360208110156101de57600080fd5b81019080803573ffffffffffffffffffffffffffffffffffffffff169060200190929190505050610689565b005b61023a6004803603602081101561022257600080fd5b81019080803515159060200190929190505050610790565b005b61027e6004803603602081101561025257600080fd5b81019080803573ffffffffffffffffffffffffffffffffffffffff1690602001909291905050506108dc565b604051808273ffffffffffffffffffffffffffffffffffffffff1673ffffffffffffffffffffffffffffffffffffffff16815260200191505060405180910390f35b6102ec600480360360208110156102d657600080fd5b8101908080359060200190929190505050610d63565b604051808273ffffffffffffffffffffffffffffffffffffffff1673ffffffffffffffffffffffffffffffffffffffff16815260200191505060405180910390f35b610336610d9f565b6040518082815260200191505060405180910390f35b61038e6004803603602081101561036257600080fd5b81019080803573ffffffffffffffffffffffffffffffffffffffff169060200190929190505050610dac565b604051808273ffffffffffffffffffffffffffffffffffffffff1673ffffffffffffffffffffffffffffffffffffffff16815260200191505060405180910390f35b610412600480360360208110156103e657600080fd5b81019080803573ffffffffffffffffffffffffffffffffffffffff169060200190929190505050610ddf565b005b73088800000000000000000000000000000000000181565b60008060149054906101000a900460ff16905090565b600160009054906101000a900473ffffffffffffffffffffffffffffffffffffffff1673ffffffffffffffffffffffffffffffffffffffff163373ffffffffffffffffffffffffffffffffffffffff1614610505576040517f08c379a000000000000000000000000000000000000000000000000000000000815260040180806020018281038252601e8152602001807f577261707065723a206f70657261746f7220697320696e636f7272656374000081525060200191505060405180910390fd5b600073ffffffffffffffffffffffffffffffffffffffff168273ffffffffffffffffffffffffffffffffffffffff161415801561056f5750600073ffffffffffffffffffffffffffffffffffffffff168173ffffffffffffffffffffffffffffffffffffffff1614155b6105e1576040517f08c379a000000000000000000000000000000000000000000000000000000000815260040180806020018281038252601a8152602001807f577261707065723a206164647265737320696e636f727265637400000000000081525060200191505060405180910390fd5b80600260008473ffffffffffffffffffffffffffffffffffffffff1673ffffffffffffffffffffffffffffffffffffffff16815260200190815260200160002060006101000a81548173ffffffffffffffffffffffffffffffffffffffff021916908373ffffffffffffffffffffffffffffffffffffffff1602179055505050565b600160009054906101000a900473ffffffffffffffffffffffffffffffffffffffff1681565b600160009054906101000a900473ffffffffffffffffffffffffffffffffffffffff1673ffffffffffffffffffffffffffffffffffffffff163373ffffffffffffffffffffffffffffffffffffffff161461074c576040517f08c379a000000000000000000000000000000000000000000000000000000000815260040180806020018281038252601e8152602001807f577261707065723a206f70657261746f7220697320696e636f7272656374000081525060200191505060405180910390fd5b80600160006101000a81548173ffffffffffffffffffffffffffffffffffffffff021916908373ffffffffffffffffffffffffffffffffffffffff16021790555050565b3373ffffffffffffffffffffffffffffffffffffffff166000809054906101000a900473ffffffffffffffffffffffffffffffffffffffff1673ffffffffffffffffffffffffffffffffffffffff1614610852576040517f08c379a00000000000000000000000000000000000000000000000000000000081526004018080602001828103825260208152602001807f4f776e61626c653a2063616c6c6572206973206e6f7420746865206f776e657281525060200191505060405180910390fd5b3373ffffffffffffffffffffffffffffffffffffffff167ffd80ccbc6bfc2e7fbbede0ca451179e86853be7776523642799c03113409589f600060149054906101000a900460ff16836040518083151515158152602001821515151581526020019250505060405180910390a280600060146101000a81548160ff02191690831515021790555050565b60008173ffffffffffffffffffffffffffffffffffffffff16600073ffffffffffffffffffffffffffffffffffffffff161415610981576040517f08c379a000000000000000000000000000000000000000000000000000000000815260040180806020018281038252601e8152602001807f577261707065723a20746f6b656e206973205a45524f5f41444452455353000081525060200191505060405180910390fd5b600160009054906101000a900473ffffffffffffffffffffffffffffffffffffffff1673ffffffffffffffffffffffffffffffffffffffff163373ffffffffffffffffffffffffffffffffffffffff1614610a44576040517f08c379a000000000000000000000000000000000000000000000000000000000815260040180806020018281038252601e8152602001807f577261707065723a206f70657261746f7220697320696e636f7272656374000081525060200191505060405180910390fd5b606060405180602001610a5690610fe6565b6020820181038252601f19601f820116604052509050600083604051602001808273ffffffffffffffffffffffffffffffffffffffff1673ffffffffffffffffffffffffffffffffffffffff1660601b8152601401915050604051602081830303815290604052805190602001209050808251602084016000f592508273ffffffffffffffffffffffffffffffffffffffff1663c4d66de8856040518263ffffffff1660e01b8152600401808273ffffffffffffffffffffffffffffffffffffffff1673ffffffffffffffffffffffffffffffffffffffff168152602001915050600060405180830381600087803b158015610b5157600080fd5b505af1158015610b65573d6000803e3d6000fd5b50505050600073ffffffffffffffffffffffffffffffffffffffff16600260008673ffffffffffffffffffffffffffffffffffffffff1673ffffffffffffffffffffffffffffffffffffffff16815260200190815260200160002060009054906101000a900473ffffffffffffffffffffffffffffffffffffffff1673ffffffffffffffffffffffffffffffffffffffff161415610c645760038490806001815401808255809150509060018203906000526020600020016000909192909190916101000a81548173ffffffffffffffffffffffffffffffffffffffff021916908373ffffffffffffffffffffffffffffffffffffffff160217905550505b82600260008673ffffffffffffffffffffffffffffffffffffffff1673ffffffffffffffffffffffffffffffffffffffff16815260200190815260200160002060006101000a81548173ffffffffffffffffffffffffffffffffffffffff021916908373ffffffffffffffffffffffffffffffffffffffff1602179055508373ffffffffffffffffffffffffffffffffffffffff167f90eefa90094f8512837b42c1ea8dfaa37fe58260184919c7dc5d987a2b0bba6a84604051808273ffffffffffffffffffffffffffffffffffffffff1673ffffffffffffffffffffffffffffffffffffffff16815260200191505060405180910390a25050919050565b60038181548110610d7057fe5b906000526020600020016000915054906101000a900473ffffffffffffffffffffffffffffffffffffffff1681565b6000600380549050905090565b60026020528060005260406000206000915054906101000a900473ffffffffffffffffffffffffffffffffffffffff1681565b3373ffffffffffffffffffffffffffffffffffffffff166000809054906101000a900473ffffffffffffffffffffffffffffffffffffffff1673ffffffffffffffffffffffffffffffffffffffff1614610ea1576040517f08c379a00000000000000000000000000000000000000000000000000000000081526004018080602001828103825260208152602001807f4f776e61626c653a2063616c6c6572206973206e6f7420746865206f776e657281525060200191505060405180910390fd5b600073ffffffffffffffffffffffffffffffffffffffff168173ffffffffffffffffffffffffffffffffffffffff161415610f28576040517f08c379a0000000000000000000000000000000000000000000000000000000008152600401808060200182810382526026815260200180620042216026913960400191505060405180910390fd5b8073ffffffffffffffffffffffffffffffffffffffff166000809054906101000a900473ffffffffffffffffffffffffffffffffffffffff1673ffffffffffffffffffffffffffffffffffffffff167f8be0079c531659141344cd1fd0a4f28419497f9722a3daafe3b4186f6b6457e060405160405180910390a3806000806101000a81548173ffffffffffffffffffffffffffffffffffffffff021916908373ffffffffffffffffffffffffffffffffffffffff16021790555050565b61322c8062000ff58339019056fe60806040523480156200001157600080fd5b5033600860006101000a81548173ffffffffffffffffffffffffffffffffffffffff021916908373ffffffffffffffffffffffffffffffffffffffff16021790555073866aca87ff33a0ae05d2164b3d999a804f58322273ffffffffffffffffffffffffffffffffffffffff166329965a1d3060405180807f455243373737546f6b656e000000000000000000000000000000000000000000815250600b0190506040518091039020306040518463ffffffff1660e01b8152600401808473ffffffffffffffffffffffffffffffffffffffff1673ffffffffffffffffffffffffffffffffffffffff1681526020018381526020018273ffffffffffffffffffffffffffffffffffffffff1673ffffffffffffffffffffffffffffffffffffffff1681526020019350505050600060405180830381600087803b1580156200015857600080fd5b505af11580156200016d573d6000803e3d6000fd5b5050505073866aca87ff33a0ae05d2164b3d999a804f58322273ffffffffffffffffffffffffffffffffffffffff166329965a1d307fb281fc8c12954d22544db45de3159a39272895b169a852b314f9cc762e44c53b60001b306040518463ffffffff1660e01b8152600401808473ffffffffffffffffffffffffffffffffffffffff1673ffffffffffffffffffffffffffffffffffffffff1681526020018381526020018273ffffffffffffffffffffffffffffffffffffffff1673ffffffffffffffffffffffffffffffffffffffff1681526020019350505050600060405180830381600087803b1580156200026457600080fd5b505af115801562000279573d6000803e3d6000fd5b5050505060606001604051908082528060200260200182016040528015620002b05781602001602082028038833980820191505090505b509050600081600081518110620002c357fe5b602002602001019073ffffffffffffffffffffffffffffffffffffffff16908173ffffffffffffffffffffffffffffffffffffffff168152505073088800000000000000000000000000000000000173ffffffffffffffffffffffffffffffffffffffff1663fe15156c826040518263ffffffff1660e01b81526004018080602001828103825283818151815260200191508051906020019060200280838360005b838110156200038257808201518184015260208101905062000365565b5050505090500192505050600060405180830381600087803b158015620003a857600080fd5b505af1158015620003bd573d6000803e3d6000fd5b5050505050612e5a80620003d26000396000f3fe608060405234801561001057600080fd5b50600436106101155760003560e01c806369e527da116100a2578063a9059cbb11610071578063a9059cbb14610707578063c45a01551461076d578063c4d66de8146107b7578063dd62ed3e146107fb578063f8c4bbf21461087357610115565b806369e527da146104e557806370a082311461052f57806395d89b41146105875780639bd9bbc61461060a57610115565b80631d073a7a116100e95780631d073a7a1461035957806323b872dd146103a3578063313ce5671461042957806342966c681461044d5780634ea98d161461047b57610115565b806223de291461011a57806306fdde0314610252578063095ea7b3146102d557806318160ddd1461033b575b600080fd5b610250600480360360c081101561013057600080fd5b81019080803573ffffffffffffffffffffffffffffffffffffffff169060200190929190803573ffffffffffffffffffffffffffffffffffffffff169060200190929190803573ffffffffffffffffffffffffffffffffffffffff16906020019092919080359060200190929190803590602001906401000000008111156101b757600080fd5b8201836020820111156101c957600080fd5b803590602001918460018302840111640100000000831117156101eb57600080fd5b90919293919293908035906020019064010000000081111561020c57600080fd5b82018360208201111561021e57600080fd5b8035906020019184600183028401116401000000008311171561024057600080fd5b9091929391929390505050610891565b005b61025a6109e4565b6040518080602001828103825283818151815260200191508051906020019080838360005b8381101561029a57808201518184015260208101905061027f565b50505050905090810190601f1680156102c75780820380516001836020036101000a031916815260200191505b509250505060405180910390f35b610321600480360360408110156102eb57600080fd5b81019080803573ffffffffffffffffffffffffffffffffffffffff16906020019092919080359060200190929190505050610a82565b604051808215151515815260200191505060405180910390f35b610343610a9e565b6040518082815260200191505060405180910390f35b610361610aa4565b604051808273ffffffffffffffffffffffffffffffffffffffff1673ffffffffffffffffffffffffffffffffffffffff16815260200191505060405180910390f35b61040f600480360360608110156103b957600080fd5b81019080803573ffffffffffffffffffffffffffffffffffffffff169060200190929190803573ffffffffffffffffffffffffffffffffffffffff16906020019092919080359060200190929190505050610abc565b604051808215151515815260200191505060405180910390f35b610431610de2565b604051808260ff1660ff16815260200191505060405180910390f35b6104796004803603602081101561046357600080fd5b8101908080359060200190929190505050610df5565b005b6104a76004803603602081101561049157600080fd5b8101908080359060200190929190505050610f44565b6040518082606460200280838360005b838110156104d25780820151818401526020810190506104b7565b5050505090500191505060405180910390f35b6104ed6110a4565b604051808273ffffffffffffffffffffffffffffffffffffffff1673ffffffffffffffffffffffffffffffffffffffff16815260200191505060405180910390f35b6105716004803603602081101561054557600080fd5b81019080803573ffffffffffffffffffffffffffffffffffffffff1690602001909291905050506110ca565b6040518082815260200191505060405180910390f35b61058f611113565b6040518080602001828103825283818151815260200191508051906020019080838360005b838110156105cf5780820151818401526020810190506105b4565b50505050905090810190601f1680156105fc5780820380516001836020036101000a031916815260200191505b509250505060405180910390f35b6106ed6004803603606081101561062057600080fd5b81019080803573ffffffffffffffffffffffffffffffffffffffff169060200190929190803590602001909291908035906020019064010000000081111561066757600080fd5b82018360208201111561067957600080fd5b8035906020019184600183028401116401000000008311171561069b57600080fd5b91908080601f016020809104026020016040519081016040528093929190818152602001838380828437600081840152601f19601f8201169050808301925050505050505091929192905050506111b1565b604051808215151515815260200191505060405180910390f35b6107536004803603604081101561071d57600080fd5b81019080803573ffffffffffffffffffffffffffffffffffffffff16906020019092919080359060200190929190505050611302565b604051808215151515815260200191505060405180910390f35b610775611461565b604051808273ffffffffffffffffffffffffffffffffffffffff1673ffffffffffffffffffffffffffffffffffffffff16815260200191505060405180910390f35b6107f9600480360360208110156107cd57600080fd5b81019080803573ffffffffffffffffffffffffffffffffffffffff169060200190929190505050611487565b005b61085d6004803603604081101561081157600080fd5b81019080803573ffffffffffffffffffffffffffffffffffffffff169060200190929190803573ffffffffffffffffffffffffffffffffffffffff1690602001909291905050506119f7565b6040518082815260200191505060405180910390f35b61087b611a7e565b6040518082815260200191505060405180910390f35b3373ffffffffffffffffffffffffffffffffffffffff16600960009054906101000a900473ffffffffffffffffffffffffffffffffffffffff1673ffffffffffffffffffffffffffffffffffffffff1614610937576040517f08c379a0000000000000000000000000000000000000000000000000000000008152600401808060200182810382526021815260200180612d936021913960400191505060405180910390fd5b6109418786611a8b565b8673ffffffffffffffffffffffffffffffffffffffff163373ffffffffffffffffffffffffffffffffffffffff167fae33cb06d7303f889d953bb09540983050163c1c4c98b330db432a911cfb63fd8888604051808373ffffffffffffffffffffffffffffffffffffffff1673ffffffffffffffffffffffffffffffffffffffff1681526020018281526020019250505060405180910390a35050505050505050565b60008054600181600116156101000203166002900480601f016020809104026020016040519081016040528092919081815260200182805460018160011615610100020316600290048015610a7a5780601f10610a4f57610100808354040283529160200191610a7a565b820191906000526020600020905b815481529060010190602001808311610a5d57829003601f168201915b505050505081565b600080339050610a93818585611ba9565b600191505092915050565b60035481565b73088800000000000000000000000000000000000181565b6000600860009054906101000a900473ffffffffffffffffffffffffffffffffffffffff1673ffffffffffffffffffffffffffffffffffffffff16633e3ca9d36040518163ffffffff1660e01b815260040160206040518083038186803b158015610b2657600080fd5b505afa158015610b3a573d6000803e3d6000fd5b505050506040513d6020811015610b5057600080fd5b810190808051906020019092919050505015610bd4576040517f08c379a00000000000000000000000000000000000000000000000000000000081526004018080602001828103825260198152602001807f506175736561626c653a2057726170706572207061757365640000000000000081525060200191505060405180910390fd5b600073ffffffffffffffffffffffffffffffffffffffff168373ffffffffffffffffffffffffffffffffffffffff161415610c5a576040517f08c379a0000000000000000000000000000000000000000000000000000000008152600401808060200182810382526024815260200180612d6f6024913960400191505060405180910390fd5b600073ffffffffffffffffffffffffffffffffffffffff168473ffffffffffffffffffffffffffffffffffffffff161415610ce0576040517f08c379a0000000000000000000000000000000000000000000000000000000008152600401808060200182810382526026815260200180612ddd6026913960400191505060405180910390fd5b60003390506000610cf2868686611d3b565b9050610da78683610da287604051806060016040528060298152602001612db460299139600560008d73ffffffffffffffffffffffffffffffffffffffff1673ffffffffffffffffffffffffffffffffffffffff16815260200190815260200160002060008973ffffffffffffffffffffffffffffffffffffffff1673ffffffffffffffffffffffffffffffffffffffff1681526020019081526020016000205461213e9092919063ffffffff16565b611ba9565b610dd582878787604051806020016040528060008152506040518060200160405280600081525060006121fe565b6001925050509392505050565b600260009054906101000a900460ff1681565b600860009054906101000a900473ffffffffffffffffffffffffffffffffffffffff1673ffffffffffffffffffffffffffffffffffffffff16633e3ca9d36040518163ffffffff1660e01b815260040160206040518083038186803b158015610e5d57600080fd5b505afa158015610e71573d6000803e3d6000fd5b505050506040513d6020811015610e8757600080fd5b810190808051906020019092919050505015610f0b576040517f08c379a00000000000000000000000000000000000000000000000000000000081526004018080602001828103825260198152602001807f506175736561626c653a2057726170706572207061757365640000000000000081525060200191505060405180910390fd5b610f1481612518565b610f41600960009054906101000a900473ffffffffffffffffffffffffffffffffffffffff163383612789565b50565b610f4c612c81565b60008210158015610f61575060078054905082105b610fd3576040517f08c379a00000000000000000000000000000000000000000000000000000000081526004018080602001828103825260188152602001807f6163636f756e744c697374206f7574206f662072616e6765000000000000000081525060200191505060405180910390fd5b610fdb612c81565b6000610fff600780549050610ffa6064876129d690919063ffffffff16565b612a5e565b905060008490505b81811015611099576007818154811061101c57fe5b9060005260206000200160009054906101000a900473ffffffffffffffffffffffffffffffffffffffff16838683036064811061105557fe5b602002019073ffffffffffffffffffffffffffffffffffffffff16908173ffffffffffffffffffffffffffffffffffffffff16815250508080600101915050611007565b508192505050919050565b600960009054906101000a900473ffffffffffffffffffffffffffffffffffffffff1681565b6000600460008373ffffffffffffffffffffffffffffffffffffffff1673ffffffffffffffffffffffffffffffffffffffff168152602001908152602001600020549050919050565b60018054600181600116156101000203166002900480601f0160208091040260200160405190810160405280929190818152602001828054600181600116156101000203166002900480156111a95780601f1061117e576101008083540402835291602001916111a9565b820191906000526020600020905b81548152906001019060200180831161118c57829003601f168201915b505050505081565b6000600860009054906101000a900473ffffffffffffffffffffffffffffffffffffffff1673ffffffffffffffffffffffffffffffffffffffff16633e3ca9d36040518163ffffffff1660e01b815260040160206040518083038186803b15801561121b57600080fd5b505afa15801561122f573d6000803e3d6000fd5b505050506040513d602081101561124557600080fd5b8101908080519060200190929190505050156112c9576040517f08c379a00000000000000000000000000000000000000000000000000000000081526004018080602001828103825260198152602001807f506175736561626c653a2057726170706572207061757365640000000000000081525060200191505060405180910390fd5b60006112d6338686611d3b565b90506112f733338787876040518060200160405280600081525060016121fe565b809150509392505050565b6000600860009054906101000a900473ffffffffffffffffffffffffffffffffffffffff1673ffffffffffffffffffffffffffffffffffffffff16633e3ca9d36040518163ffffffff1660e01b815260040160206040518083038186803b15801561136c57600080fd5b505afa158015611380573d6000803e3d6000fd5b505050506040513d602081101561139657600080fd5b81019080805190602001909291905050501561141a576040517f08c379a00000000000000000000000000000000000000000000000000000000081526004018080602001828103825260198152602001807f506175736561626c653a2057726170706572207061757365640000000000000081525060200191505060405180910390fd5b6000611427338585611d3b565b905061145733338686604051806020016040528060008152506040518060200160405280600081525060006121fe565b8091505092915050565b600860009054906101000a900473ffffffffffffffffffffffffffffffffffffffff1681565b600860009054906101000a900473ffffffffffffffffffffffffffffffffffffffff1673ffffffffffffffffffffffffffffffffffffffff163373ffffffffffffffffffffffffffffffffffffffff161461154a576040517f08c379a00000000000000000000000000000000000000000000000000000000081526004018080602001828103825260128152602001807f577261707065723a20464f5242494444454e000000000000000000000000000081525060200191505060405180910390fd5b80600960006101000a81548173ffffffffffffffffffffffffffffffffffffffff021916908373ffffffffffffffffffffffffffffffffffffffff1602179055508073ffffffffffffffffffffffffffffffffffffffff166395d89b416040518163ffffffff1660e01b815260040160006040518083038186803b1580156115d157600080fd5b505afa1580156115e5573d6000803e3d6000fd5b505050506040513d6000823e3d601f19601f82011682018060405250602081101561160f57600080fd5b810190808051604051939291908464010000000082111561162f57600080fd5b8382019150602082018581111561164557600080fd5b825186600182028301116401000000008211171561166257600080fd5b8083526020830192505050908051906020019080838360005b8381101561169657808201518184015260208101905061167b565b50505050905090810190601f1680156116c35780820380516001836020036101000a031916815260200191505b5060405250505060405160200180807f4d4f4f4e5f00000000000000000000000000000000000000000000000000000081525060050182805190602001908083835b602083106117285780518252602082019150602081019050602083039250611705565b6001836020036101000a03801982511681845116808217855250505050505090500191505060405160208183030381529060405260009080519060200190611771929190612ca4565b508073ffffffffffffffffffffffffffffffffffffffff166395d89b416040518163ffffffff1660e01b815260040160006040518083038186803b1580156117b857600080fd5b505afa1580156117cc573d6000803e3d6000fd5b505050506040513d6000823e3d601f19601f8201168201806040525060208110156117f657600080fd5b810190808051604051939291908464010000000082111561181657600080fd5b8382019150602082018581111561182c57600080fd5b825186600182028301116401000000008211171561184957600080fd5b8083526020830192505050908051906020019080838360005b8381101561187d578082015181840152602081019050611862565b50505050905090810190601f1680156118aa5780820380516001836020036101000a031916815260200191505b5060405250505060405160200180807f6d0000000000000000000000000000000000000000000000000000000000000081525060010182805190602001908083835b6020831061190f57805182526020820191506020810190506020830392506118ec565b6001836020036101000a03801982511681845116808217855250505050505090500191505060405160208183030381529060405260019080519060200190611958929190612ca4565b508073ffffffffffffffffffffffffffffffffffffffff1663313ce5676040518163ffffffff1660e01b815260040160206040518083038186803b15801561199f57600080fd5b505afa1580156119b3573d6000803e3d6000fd5b505050506040513d60208110156119c957600080fd5b8101908080519060200190929190505050600260006101000a81548160ff021916908360ff16021790555050565b6000600560008473ffffffffffffffffffffffffffffffffffffffff1673ffffffffffffffffffffffffffffffffffffffff16815260200190815260200160002060008373ffffffffffffffffffffffffffffffffffffffff1673ffffffffffffffffffffffffffffffffffffffff16815260200190815260200160002054905092915050565b6000600780549050905090565b600660008373ffffffffffffffffffffffffffffffffffffffff1673ffffffffffffffffffffffffffffffffffffffff16815260200190815260200160002060009054906101000a900460ff16611b9b576001600660008473ffffffffffffffffffffffffffffffffffffffff1673ffffffffffffffffffffffffffffffffffffffff16815260200190815260200160002060006101000a81548160ff02191690831515021790555060078290806001815401808255809150509060018203906000526020600020016000909192909190916101000a81548173ffffffffffffffffffffffffffffffffffffffff021916908373ffffffffffffffffffffffffffffffffffffffff160217905550505b611ba58282612a7a565b5050565b600073ffffffffffffffffffffffffffffffffffffffff168373ffffffffffffffffffffffffffffffffffffffff161415611c2f576040517f08c379a0000000000000000000000000000000000000000000000000000000008152600401808060200182810382526025815260200180612d4a6025913960400191505060405180910390fd5b600073ffffffffffffffffffffffffffffffffffffffff168273ffffffffffffffffffffffffffffffffffffffff161415611cb5576040517f08c379a0000000000000000000000000000000000000000000000000000000008152600401808060200182810382526023815260200180612e036023913960400191505060405180910390fd5b80600560008573ffffffffffffffffffffffffffffffffffffffff1673ffffffffffffffffffffffffffffffffffffffff16815260200190815260200160002060008473ffffffffffffffffffffffffffffffffffffffff1673ffffffffffffffffffffffffffffffffffffffff16815260200190815260200160002081905550505050565b60008073ffffffffffffffffffffffffffffffffffffffff168373ffffffffffffffffffffffffffffffffffffffff161415611ddf576040517f08c379a000000000000000000000000000000000000000000000000000000000815260040180806020018281038252601c8152602001807f7472616e7366657220746f20746865207a65726f20616464726573730000000081525060200191505060405180910390fd5b600460008573ffffffffffffffffffffffffffffffffffffffff1673ffffffffffffffffffffffffffffffffffffffff16815260200190815260200160002054821115611e94576040517f08c379a000000000000000000000000000000000000000000000000000000000815260040180806020018281038252601b8152602001807f7472616e7366657220696e73756666696369656e742066756e6473000000000081525060200191505060405180910390fd5b600660008473ffffffffffffffffffffffffffffffffffffffff1673ffffffffffffffffffffffffffffffffffffffff16815260200190815260200160002060009054906101000a900460ff16611fa4576001600660008573ffffffffffffffffffffffffffffffffffffffff1673ffffffffffffffffffffffffffffffffffffffff16815260200190815260200160002060006101000a81548160ff02191690831515021790555060078390806001815401808255809150509060018203906000526020600020016000909192909190916101000a81548173ffffffffffffffffffffffffffffffffffffffff021916908373ffffffffffffffffffffffffffffffffffffffff160217905550505b611ff682600460008773ffffffffffffffffffffffffffffffffffffffff1673ffffffffffffffffffffffffffffffffffffffff16815260200190815260200160002054612c3790919063ffffffff16565b600460008673ffffffffffffffffffffffffffffffffffffffff1673ffffffffffffffffffffffffffffffffffffffff1681526020019081526020016000208190555061208b82600460008673ffffffffffffffffffffffffffffffffffffffff1673ffffffffffffffffffffffffffffffffffffffff168152602001908152602001600020546129d690919063ffffffff16565b600460008573ffffffffffffffffffffffffffffffffffffffff1673ffffffffffffffffffffffffffffffffffffffff168152602001908152602001600020819055508273ffffffffffffffffffffffffffffffffffffffff168473ffffffffffffffffffffffffffffffffffffffff167fddf252ad1be2c89b69c2b068fc378daa952ba7f163c4a11628f55a4df523b3ef846040518082815260200191505060405180910390a3600190509392505050565b60008383111582906121eb576040517f08c379a00000000000000000000000000000000000000000000000000000000081526004018080602001828103825283818151815260200191508051906020019080838360005b838110156121b0578082015181840152602081019050612195565b50505050905090810190601f1680156121dd5780820380516001836020036101000a031916815260200191505b509250505060405180910390fd5b5060008385039050809150509392505050565b600073866aca87ff33a0ae05d2164b3d999a804f58322273ffffffffffffffffffffffffffffffffffffffff1663aabbb8ca877fb281fc8c12954d22544db45de3159a39272895b169a852b314f9cc762e44c53b60001b6040518363ffffffff1660e01b8152600401808373ffffffffffffffffffffffffffffffffffffffff1673ffffffffffffffffffffffffffffffffffffffff1681526020018281526020019250505060206040518083038186803b1580156122bc57600080fd5b505afa1580156122d0573d6000803e3d6000fd5b505050506040513d60208110156122e657600080fd5b81019080805190602001909291905050509050600073ffffffffffffffffffffffffffffffffffffffff168173ffffffffffffffffffffffffffffffffffffffff161461250e578073ffffffffffffffffffffffffffffffffffffffff166223de298989898989896040518763ffffffff1660e01b8152600401808773ffffffffffffffffffffffffffffffffffffffff1673ffffffffffffffffffffffffffffffffffffffff1681526020018673ffffffffffffffffffffffffffffffffffffffff1673ffffffffffffffffffffffffffffffffffffffff1681526020018573ffffffffffffffffffffffffffffffffffffffff1673ffffffffffffffffffffffffffffffffffffffff1681526020018481526020018060200180602001838103835285818151815260200191508051906020019080838360005b8381101561243d578082015181840152602081019050612422565b50505050905090810190601f16801561246a5780820380516001836020036101000a031916815260200191505b50838103825284818151815260200191508051906020019080838360005b838110156124a3578082015181840152602081019050612488565b50505050905090810190601f1680156124d05780820380516001836020036101000a031916815260200191505b5098505050505050505050600060405180830381600087803b1580156124f557600080fd5b505af1158015612509573d6000803e3d6000fd5b505050505b5050505050505050565b600073ffffffffffffffffffffffffffffffffffffffff163373ffffffffffffffffffffffffffffffffffffffff1614156125bb576040517f08c379a000000000000000000000000000000000000000000000000000000000815260040180806020018281038252601a8152602001807f6275726e2066726f6d20746865207a65726f206164647265737300000000000081525060200191505060405180910390fd5b600460003373ffffffffffffffffffffffffffffffffffffffff1673ffffffffffffffffffffffffffffffffffffffff16815260200190815260200160002054811115612670576040517f08c379a000000000000000000000000000000000000000000000000000000000815260040180806020018281038252601b8152602001807f7472616e7366657220696e73756666696369656e742066756e6473000000000081525060200191505060405180910390fd5b6126c281600460003373ffffffffffffffffffffffffffffffffffffffff1673ffffffffffffffffffffffffffffffffffffffff16815260200190815260200160002054612c3790919063ffffffff16565b600460003373ffffffffffffffffffffffffffffffffffffffff1673ffffffffffffffffffffffffffffffffffffffff1681526020019081526020016000208190555061271a81600354612c3790919063ffffffff16565b600381905550600073ffffffffffffffffffffffffffffffffffffffff163373ffffffffffffffffffffffffffffffffffffffff167fddf252ad1be2c89b69c2b068fc378daa952ba7f163c4a11628f55a4df523b3ef836040518082815260200191505060405180910390a350565b600060608473ffffffffffffffffffffffffffffffffffffffff166040518060400160405280601981526020017f7472616e7366657228616464726573732c75696e743235362900000000000000815250805190602001208585604051602401808373ffffffffffffffffffffffffffffffffffffffff1673ffffffffffffffffffffffffffffffffffffffff16815260200182815260200192505050604051602081830303815290604052907bffffffffffffffffffffffffffffffffffffffffffffffffffffffff19166020820180517bffffffffffffffffffffffffffffffffffffffffffffffffffffffff83818316178352505050506040518082805190602001908083835b602083106128b65780518252602082019150602081019050602083039250612893565b6001836020036101000a0380198251168184511680821785525050505050509050019150506000604051808303816000865af19150503d8060008114612918576040519150601f19603f3d011682016040523d82523d6000602084013e61291d565b606091505b509150915081801561295d575060008151148061295c575080806020019051602081101561294a57600080fd5b81019080805190602001909291905050505b5b6129cf576040517f08c379a000000000000000000000000000000000000000000000000000000000815260040180806020018281038252601d8152602001807f57726170706572546f6b656e3a205452414e534645525f4641494c454400000081525060200191505060405180910390fd5b5050505050565b600080828401905083811015612a54576040517f08c379a000000000000000000000000000000000000000000000000000000000815260040180806020018281038252601b8152602001807f536166654d6174683a206164646974696f6e206f766572666c6f77000000000081525060200191505060405180910390fd5b8091505092915050565b600081831115612a7057819050612a74565b8290505b92915050565b600073ffffffffffffffffffffffffffffffffffffffff168273ffffffffffffffffffffffffffffffffffffffff161415612b1d576040517f08c379a00000000000000000000000000000000000000000000000000000000081526004018080602001828103825260188152602001807f6d696e7420746f20746865207a65726f2061646472657373000000000000000081525060200191505060405180910390fd5b612b32816003546129d690919063ffffffff16565b600381905550612b8a81600460008573ffffffffffffffffffffffffffffffffffffffff1673ffffffffffffffffffffffffffffffffffffffff168152602001908152602001600020546129d690919063ffffffff16565b600460008473ffffffffffffffffffffffffffffffffffffffff1673ffffffffffffffffffffffffffffffffffffffff168152602001908152602001600020819055508173ffffffffffffffffffffffffffffffffffffffff16600073ffffffffffffffffffffffffffffffffffffffff167fddf252ad1be2c89b69c2b068fc378daa952ba7f163c4a11628f55a4df523b3ef836040518082815260200191505060405180910390a35050565b6000612c7983836040518060400160405280601e81526020017f536166654d6174683a207375627472616374696f6e206f766572666c6f77000081525061213e565b905092915050565b60405180610c800160405280606490602082028038833980820191505090505090565b828054600181600116156101000203166002900490600052602060002090601f016020900481019282601f10612ce557805160ff1916838001178555612d13565b82800160010185558215612d13579182015b82811115612d12578251825591602001919060010190612cf7565b5b509050612d209190612d24565b5090565b612d4691905b80821115612d42576000816000905550600101612d2a565b5090565b9056fe4552433737373a20617070726f76652066726f6d20746865207a65726f20616464726573734552433737373a207472616e7366657220746f20746865207a65726f206164647265737357726170706572546f6b656e3a206f6e6c7920726563656976652063546f6b656e4552433737373a207472616e7366657220616d6f756e74206578636565647320616c6c6f77616e63654552433737373a207472616e736665722066726f6d20746865207a65726f20616464726573734552433737373a20617070726f766520746f20746865207a65726f2061646472657373a265627a7a723158204ca79f3371a1b55c874649e37ab1e70c360f8790cc61360d8fd52b5f379cd52b64736f6c634300051000324f776e61626c653a206e6577206f776e657220697320746865207a65726f2061646472657373a265627a7a723158201cb650e1d71d0fd60b060fe11b49b44a959ac61724fdc96a627f6a08596ad2c464736f6c63430005100032",
  "source": "pragma solidity >=0.5.16;\n\nimport './WrapperToken.sol';\nimport './SponsorWhitelistControl.sol';\nimport \"./Pauseable.sol\";\n\ncontract WrapperFactory is Pauseable {\n    address public operator;\n    // cToken => mToken\n    mapping(address => address) public tokens;\n    address[] public cTokens;\n    SponsorWhitelistControl constant public SPONSOR = SponsorWhitelistControl(address(0x0888000000000000000000000000000000000001));\n\n    event CreatedMToken(address indexed _cToken, address _mToken);\n\n    constructor()\n      Pauseable()\n      public {\n        operator = msg.sender;\n\n        // register all users as sponsees\n        address[] memory users = new address[](1);\n        users[0] = address(0);\n        SPONSOR.add_privilege(users);\n    }\n\n    function createToken(address _cToken) external returns (address _mToken){\n      require(address(0) != _cToken, \"Wrapper: token is ZERO_ADDRESS\");\n      require(msg.sender == operator, \"Wrapper: operator is incorrect\");\n\n      bytes memory bytecode = type(WrapperToken).creationCode;\n      bytes32 salt = keccak256(abi.encodePacked(_cToken));\n      assembly {\n          _mToken := create2(0, add(bytecode, 32), mload(bytecode), salt)\n      }\n\n      WrapperToken(_mToken).initialize(_cToken);\n      if(tokens[_cToken] == address(0)){\n          cTokens.push(_cToken);\n      }\n\n      tokens[_cToken] = _mToken;\n\n      emit CreatedMToken(_cToken, _mToken);\n    }\n\n    function addToken(address _cToken, address _mToken) external {\n        require(msg.sender == operator, \"Wrapper: operator is incorrect\");\n        require(_cToken != address(0) && _mToken != address(0), \"Wrapper: address incorrect\");\n        tokens[_cToken] = _mToken;\n    }\n\n    function tokenLength() external view returns (uint) {\n        return cTokens.length;\n    }\n\n    function setOperator(address _operator) external {\n       require(msg.sender == operator, \"Wrapper: operator is incorrect\");\n\n       operator = _operator;\n    }\n}\n",
  "sourcePath": "/Users/junhuazhou/Documents/GitHub/moonswap-amm/contracts/WrapperFactory.sol",
  "compiler": {
    "name": "solc",
    "version": "0.5.16+commit.9c3226ce.Emscripten.clang"
  },
  "schemaVersion": "3.2.0",
  "updatedAt": "2020-10-20T13:11:40.437Z",
  "devdoc": {
    "methods": {}
  },
  "userdoc": {
    "methods": {}
  }
}