{
  "contractName": "WrapperToken",
  "abi": [
    {
      "inputs": [],
      "payable": false,
      "stateMutability": "nonpayable",
      "type": "constructor"
    },
    {
      "anonymous": false,
      "inputs": [
        {
          "indexed": true,
          "internalType": "address",
          "name": "tokenAddress",
          "type": "address"
        },
        {
          "indexed": true,
          "internalType": "address",
          "name": "from",
          "type": "address"
        },
        {
          "indexed": false,
          "internalType": "address",
          "name": "to",
          "type": "address"
        },
        {
          "indexed": false,
          "internalType": "uint256",
          "name": "value",
          "type": "uint256"
        }
      ],
      "name": "TokenTransfer",
      "type": "event"
    },
    {
      "anonymous": false,
      "inputs": [
        {
          "indexed": true,
          "internalType": "address",
          "name": "from",
          "type": "address"
        },
        {
          "indexed": true,
          "internalType": "address",
          "name": "to",
          "type": "address"
        },
        {
          "indexed": false,
          "internalType": "uint256",
          "name": "value",
          "type": "uint256"
        }
      ],
      "name": "Transfer",
      "type": "event"
    },
    {
      "constant": true,
      "inputs": [],
      "name": "SPONSOR",
      "outputs": [
        {
          "internalType": "contract SponsorWhitelistControl",
          "name": "",
          "type": "address"
        }
      ],
      "payable": false,
      "stateMutability": "view",
      "type": "function"
    },
    {
      "constant": true,
      "inputs": [],
      "name": "cToken",
      "outputs": [
        {
          "internalType": "address",
          "name": "",
          "type": "address"
        }
      ],
      "payable": false,
      "stateMutability": "view",
      "type": "function"
    },
    {
      "constant": true,
      "inputs": [],
      "name": "decimals",
      "outputs": [
        {
          "internalType": "uint8",
          "name": "",
          "type": "uint8"
        }
      ],
      "payable": false,
      "stateMutability": "view",
      "type": "function"
    },
    {
      "constant": true,
      "inputs": [],
      "name": "factory",
      "outputs": [
        {
          "internalType": "address",
          "name": "",
          "type": "address"
        }
      ],
      "payable": false,
      "stateMutability": "view",
      "type": "function"
    },
    {
      "constant": true,
      "inputs": [],
      "name": "name",
      "outputs": [
        {
          "internalType": "string",
          "name": "",
          "type": "string"
        }
      ],
      "payable": false,
      "stateMutability": "view",
      "type": "function"
    },
    {
      "constant": true,
      "inputs": [],
      "name": "symbol",
      "outputs": [
        {
          "internalType": "string",
          "name": "",
          "type": "string"
        }
      ],
      "payable": false,
      "stateMutability": "view",
      "type": "function"
    },
    {
      "constant": true,
      "inputs": [],
      "name": "totalSupply",
      "outputs": [
        {
          "internalType": "uint256",
          "name": "",
          "type": "uint256"
        }
      ],
      "payable": false,
      "stateMutability": "view",
      "type": "function"
    },
    {
      "constant": false,
      "inputs": [
        {
          "internalType": "address",
          "name": "_cToken",
          "type": "address"
        }
      ],
      "name": "initialize",
      "outputs": [],
      "payable": false,
      "stateMutability": "nonpayable",
      "type": "function"
    },
    {
      "constant": false,
      "inputs": [
        {
          "internalType": "string",
          "name": "_symbol",
          "type": "string"
        }
      ],
      "name": "modifySymbol",
      "outputs": [],
      "payable": false,
      "stateMutability": "nonpayable",
      "type": "function"
    },
    {
      "constant": true,
      "inputs": [
        {
          "internalType": "address",
          "name": "account",
          "type": "address"
        }
      ],
      "name": "balanceOf",
      "outputs": [
        {
          "internalType": "uint256",
          "name": "",
          "type": "uint256"
        }
      ],
      "payable": false,
      "stateMutability": "view",
      "type": "function"
    },
    {
      "constant": true,
      "inputs": [
        {
          "internalType": "address",
          "name": "holder",
          "type": "address"
        },
        {
          "internalType": "address",
          "name": "spender",
          "type": "address"
        }
      ],
      "name": "allowance",
      "outputs": [
        {
          "internalType": "uint256",
          "name": "",
          "type": "uint256"
        }
      ],
      "payable": false,
      "stateMutability": "view",
      "type": "function"
    },
    {
      "constant": false,
      "inputs": [
        {
          "internalType": "address",
          "name": "spender",
          "type": "address"
        },
        {
          "internalType": "uint256",
          "name": "value",
          "type": "uint256"
        }
      ],
      "name": "approve",
      "outputs": [
        {
          "internalType": "bool",
          "name": "",
          "type": "bool"
        }
      ],
      "payable": false,
      "stateMutability": "nonpayable",
      "type": "function"
    },
    {
      "constant": false,
      "inputs": [
        {
          "internalType": "address",
          "name": "holder",
          "type": "address"
        },
        {
          "internalType": "address",
          "name": "recipient",
          "type": "address"
        },
        {
          "internalType": "uint256",
          "name": "value",
          "type": "uint256"
        }
      ],
      "name": "transferFrom",
      "outputs": [
        {
          "internalType": "bool",
          "name": "",
          "type": "bool"
        }
      ],
      "payable": false,
      "stateMutability": "nonpayable",
      "type": "function"
    },
    {
      "constant": false,
      "inputs": [
        {
          "internalType": "address",
          "name": "recipient",
          "type": "address"
        },
        {
          "internalType": "uint256",
          "name": "value",
          "type": "uint256"
        }
      ],
      "name": "transfer",
      "outputs": [
        {
          "internalType": "bool",
          "name": "",
          "type": "bool"
        }
      ],
      "payable": false,
      "stateMutability": "nonpayable",
      "type": "function"
    },
    {
      "constant": false,
      "inputs": [
        {
          "internalType": "address",
          "name": "recipient",
          "type": "address"
        },
        {
          "internalType": "uint256",
          "name": "value",
          "type": "uint256"
        },
        {
          "internalType": "bytes",
          "name": "data",
          "type": "bytes"
        }
      ],
      "name": "send",
      "outputs": [
        {
          "internalType": "bool",
          "name": "",
          "type": "bool"
        }
      ],
      "payable": false,
      "stateMutability": "nonpayable",
      "type": "function"
    },
    {
      "constant": false,
      "inputs": [
        {
          "internalType": "uint256",
          "name": "_amount",
          "type": "uint256"
        }
      ],
      "name": "burn",
      "outputs": [],
      "payable": false,
      "stateMutability": "nonpayable",
      "type": "function"
    },
    {
      "constant": false,
      "inputs": [
        {
          "internalType": "address",
          "name": "operator",
          "type": "address"
        },
        {
          "internalType": "address",
          "name": "from",
          "type": "address"
        },
        {
          "internalType": "address",
          "name": "to",
          "type": "address"
        },
        {
          "internalType": "uint256",
          "name": "amount",
          "type": "uint256"
        },
        {
          "internalType": "bytes",
          "name": "userData",
          "type": "bytes"
        },
        {
          "internalType": "bytes",
          "name": "operatorData",
          "type": "bytes"
        }
      ],
      "name": "tokensReceived",
      "outputs": [],
      "payable": false,
      "stateMutability": "nonpayable",
      "type": "function"
    },
    {
      "constant": true,
      "inputs": [],
      "name": "accountTotal",
      "outputs": [
        {
          "internalType": "uint256",
          "name": "",
          "type": "uint256"
        }
      ],
      "payable": false,
      "stateMutability": "view",
      "type": "function"
    },
    {
      "constant": true,
      "inputs": [
        {
          "internalType": "uint256",
          "name": "begin",
          "type": "uint256"
        }
      ],
      "name": "accountList",
      "outputs": [
        {
          "internalType": "address[100]",
          "name": "",
          "type": "address[100]"
        }
      ],
      "payable": false,
      "stateMutability": "view",
      "type": "function"
    }
  ],
  "bytecode": "0x60806040523480156200001157600080fd5b5033600860006101000a81548173ffffffffffffffffffffffffffffffffffffffff021916908373ffffffffffffffffffffffffffffffffffffffff16021790555073866aca87ff33a0ae05d2164b3d999a804f58322273ffffffffffffffffffffffffffffffffffffffff166329965a1d3060405180807f455243373737546f6b656e000000000000000000000000000000000000000000815250600b0190506040518091039020306040518463ffffffff1660e01b8152600401808473ffffffffffffffffffffffffffffffffffffffff1673ffffffffffffffffffffffffffffffffffffffff1681526020018381526020018273ffffffffffffffffffffffffffffffffffffffff1673ffffffffffffffffffffffffffffffffffffffff1681526020019350505050600060405180830381600087803b1580156200015857600080fd5b505af11580156200016d573d6000803e3d6000fd5b5050505073866aca87ff33a0ae05d2164b3d999a804f58322273ffffffffffffffffffffffffffffffffffffffff166329965a1d307fb281fc8c12954d22544db45de3159a39272895b169a852b314f9cc762e44c53b60001b306040518463ffffffff1660e01b8152600401808473ffffffffffffffffffffffffffffffffffffffff1673ffffffffffffffffffffffffffffffffffffffff1681526020018381526020018273ffffffffffffffffffffffffffffffffffffffff1673ffffffffffffffffffffffffffffffffffffffff1681526020019350505050600060405180830381600087803b1580156200026457600080fd5b505af115801562000279573d6000803e3d6000fd5b5050505060606001604051908082528060200260200182016040528015620002b05781602001602082028038833980820191505090505b509050600081600081518110620002c357fe5b602002602001019073ffffffffffffffffffffffffffffffffffffffff16908173ffffffffffffffffffffffffffffffffffffffff168152505073088800000000000000000000000000000000000173ffffffffffffffffffffffffffffffffffffffff1663fe15156c826040518263ffffffff1660e01b81526004018080602001828103825283818151815260200191508051906020019060200280838360005b838110156200038257808201518184015260208101905062000365565b5050505090500192505050600060405180830381600087803b158015620003a857600080fd5b505af1158015620003bd573d6000803e3d6000fd5b505050505061303780620003d26000396000f3fe608060405234801561001057600080fd5b50600436106101205760003560e01c806369e527da116100ad578063c45a015511610071578063c45a015514610778578063c47494ad146107c2578063c4d66de81461083b578063dd62ed3e1461087f578063f8c4bbf2146108f757610120565b806369e527da146104f057806370a082311461053a57806395d89b41146105925780639bd9bbc614610615578063a9059cbb1461071257610120565b80631d073a7a116100f45780631d073a7a1461036457806323b872dd146103ae578063313ce5671461043457806342966c68146104585780634ea98d161461048657610120565b806223de291461012557806306fdde031461025d578063095ea7b3146102e057806318160ddd14610346575b600080fd5b61025b600480360360c081101561013b57600080fd5b81019080803573ffffffffffffffffffffffffffffffffffffffff169060200190929190803573ffffffffffffffffffffffffffffffffffffffff169060200190929190803573ffffffffffffffffffffffffffffffffffffffff16906020019092919080359060200190929190803590602001906401000000008111156101c257600080fd5b8201836020820111156101d457600080fd5b803590602001918460018302840111640100000000831117156101f657600080fd5b90919293919293908035906020019064010000000081111561021757600080fd5b82018360208201111561022957600080fd5b8035906020019184600183028401116401000000008311171561024b57600080fd5b9091929391929390505050610915565b005b610265610a68565b6040518080602001828103825283818151815260200191508051906020019080838360005b838110156102a557808201518184015260208101905061028a565b50505050905090810190601f1680156102d25780820380516001836020036101000a031916815260200191505b509250505060405180910390f35b61032c600480360360408110156102f657600080fd5b81019080803573ffffffffffffffffffffffffffffffffffffffff16906020019092919080359060200190929190505050610b06565b604051808215151515815260200191505060405180910390f35b61034e610b22565b6040518082815260200191505060405180910390f35b61036c610b28565b604051808273ffffffffffffffffffffffffffffffffffffffff1673ffffffffffffffffffffffffffffffffffffffff16815260200191505060405180910390f35b61041a600480360360608110156103c457600080fd5b81019080803573ffffffffffffffffffffffffffffffffffffffff169060200190929190803573ffffffffffffffffffffffffffffffffffffffff16906020019092919080359060200190929190505050610b40565b604051808215151515815260200191505060405180910390f35b61043c610e66565b604051808260ff1660ff16815260200191505060405180910390f35b6104846004803603602081101561046e57600080fd5b8101908080359060200190929190505050610e79565b005b6104b26004803603602081101561049c57600080fd5b8101908080359060200190929190505050610fc8565b6040518082606460200280838360005b838110156104dd5780820151818401526020810190506104c2565b5050505090500191505060405180910390f35b6104f8611128565b604051808273ffffffffffffffffffffffffffffffffffffffff1673ffffffffffffffffffffffffffffffffffffffff16815260200191505060405180910390f35b61057c6004803603602081101561055057600080fd5b81019080803573ffffffffffffffffffffffffffffffffffffffff16906020019092919050505061114e565b6040518082815260200191505060405180910390f35b61059a611197565b6040518080602001828103825283818151815260200191508051906020019080838360005b838110156105da5780820151818401526020810190506105bf565b50505050905090810190601f1680156106075780820380516001836020036101000a031916815260200191505b509250505060405180910390f35b6106f86004803603606081101561062b57600080fd5b81019080803573ffffffffffffffffffffffffffffffffffffffff169060200190929190803590602001909291908035906020019064010000000081111561067257600080fd5b82018360208201111561068457600080fd5b803590602001918460018302840111640100000000831117156106a657600080fd5b91908080601f016020809104026020016040519081016040528093929190818152602001838380828437600081840152601f19601f820116905080830192505050505050509192919290505050611235565b604051808215151515815260200191505060405180910390f35b61075e6004803603604081101561072857600080fd5b81019080803573ffffffffffffffffffffffffffffffffffffffff16906020019092919080359060200190929190505050611386565b604051808215151515815260200191505060405180910390f35b6107806114e5565b604051808273ffffffffffffffffffffffffffffffffffffffff1673ffffffffffffffffffffffffffffffffffffffff16815260200191505060405180910390f35b610839600480360360208110156107d857600080fd5b81019080803590602001906401000000008111156107f557600080fd5b82018360208201111561080757600080fd5b8035906020019184600183028401116401000000008311171561082957600080fd5b909192939192939050505061150b565b005b61087d6004803603602081101561085157600080fd5b81019080803573ffffffffffffffffffffffffffffffffffffffff1690602001909291905050506115e4565b005b6108e16004803603604081101561089557600080fd5b81019080803573ffffffffffffffffffffffffffffffffffffffff169060200190929190803573ffffffffffffffffffffffffffffffffffffffff169060200190929190505050611b54565b6040518082815260200191505060405180910390f35b6108ff611bdb565b6040518082815260200191505060405180910390f35b3373ffffffffffffffffffffffffffffffffffffffff16600960009054906101000a900473ffffffffffffffffffffffffffffffffffffffff1673ffffffffffffffffffffffffffffffffffffffff16146109bb576040517f08c379a0000000000000000000000000000000000000000000000000000000008152600401808060200182810382526021815260200180612f706021913960400191505060405180910390fd5b6109c58786611be8565b8673ffffffffffffffffffffffffffffffffffffffff163373ffffffffffffffffffffffffffffffffffffffff167fae33cb06d7303f889d953bb09540983050163c1c4c98b330db432a911cfb63fd8888604051808373ffffffffffffffffffffffffffffffffffffffff1673ffffffffffffffffffffffffffffffffffffffff1681526020018281526020019250505060405180910390a35050505050505050565b60008054600181600116156101000203166002900480601f016020809104026020016040519081016040528092919081815260200182805460018160011615610100020316600290048015610afe5780601f10610ad357610100808354040283529160200191610afe565b820191906000526020600020905b815481529060010190602001808311610ae157829003601f168201915b505050505081565b600080339050610b17818585611d06565b600191505092915050565b60035481565b73088800000000000000000000000000000000000181565b6000600860009054906101000a900473ffffffffffffffffffffffffffffffffffffffff1673ffffffffffffffffffffffffffffffffffffffff16633e3ca9d36040518163ffffffff1660e01b815260040160206040518083038186803b158015610baa57600080fd5b505afa158015610bbe573d6000803e3d6000fd5b505050506040513d6020811015610bd457600080fd5b810190808051906020019092919050505015610c58576040517f08c379a00000000000000000000000000000000000000000000000000000000081526004018080602001828103825260198152602001807f506175736561626c653a2057726170706572207061757365640000000000000081525060200191505060405180910390fd5b600073ffffffffffffffffffffffffffffffffffffffff168373ffffffffffffffffffffffffffffffffffffffff161415610cde576040517f08c379a0000000000000000000000000000000000000000000000000000000008152600401808060200182810382526024815260200180612f4c6024913960400191505060405180910390fd5b600073ffffffffffffffffffffffffffffffffffffffff168473ffffffffffffffffffffffffffffffffffffffff161415610d64576040517f08c379a0000000000000000000000000000000000000000000000000000000008152600401808060200182810382526026815260200180612fba6026913960400191505060405180910390fd5b60003390506000610d76868686611e98565b9050610e2b8683610e2687604051806060016040528060298152602001612f9160299139600560008d73ffffffffffffffffffffffffffffffffffffffff1673ffffffffffffffffffffffffffffffffffffffff16815260200190815260200160002060008973ffffffffffffffffffffffffffffffffffffffff1673ffffffffffffffffffffffffffffffffffffffff1681526020019081526020016000205461229b9092919063ffffffff16565b611d06565b610e59828787876040518060200160405280600081525060405180602001604052806000815250600061235b565b6001925050509392505050565b600260009054906101000a900460ff1681565b600860009054906101000a900473ffffffffffffffffffffffffffffffffffffffff1673ffffffffffffffffffffffffffffffffffffffff16633e3ca9d36040518163ffffffff1660e01b815260040160206040518083038186803b158015610ee157600080fd5b505afa158015610ef5573d6000803e3d6000fd5b505050506040513d6020811015610f0b57600080fd5b810190808051906020019092919050505015610f8f576040517f08c379a00000000000000000000000000000000000000000000000000000000081526004018080602001828103825260198152602001807f506175736561626c653a2057726170706572207061757365640000000000000081525060200191505060405180910390fd5b610f9881612675565b610fc5600960009054906101000a900473ffffffffffffffffffffffffffffffffffffffff1633836128e6565b50565b610fd0612dde565b60008210158015610fe5575060078054905082105b611057576040517f08c379a00000000000000000000000000000000000000000000000000000000081526004018080602001828103825260188152602001807f6163636f756e744c697374206f7574206f662072616e6765000000000000000081525060200191505060405180910390fd5b61105f612dde565b600061108360078054905061107e606487612b3390919063ffffffff16565b612bbb565b905060008490505b8181101561111d57600781815481106110a057fe5b9060005260206000200160009054906101000a900473ffffffffffffffffffffffffffffffffffffffff1683868303606481106110d957fe5b602002019073ffffffffffffffffffffffffffffffffffffffff16908173ffffffffffffffffffffffffffffffffffffffff1681525050808060010191505061108b565b508192505050919050565b600960009054906101000a900473ffffffffffffffffffffffffffffffffffffffff1681565b6000600460008373ffffffffffffffffffffffffffffffffffffffff1673ffffffffffffffffffffffffffffffffffffffff168152602001908152602001600020549050919050565b60018054600181600116156101000203166002900480601f01602080910402602001604051908101604052809291908181526020018280546001816001161561010002031660029004801561122d5780601f106112025761010080835404028352916020019161122d565b820191906000526020600020905b81548152906001019060200180831161121057829003601f168201915b505050505081565b6000600860009054906101000a900473ffffffffffffffffffffffffffffffffffffffff1673ffffffffffffffffffffffffffffffffffffffff16633e3ca9d36040518163ffffffff1660e01b815260040160206040518083038186803b15801561129f57600080fd5b505afa1580156112b3573d6000803e3d6000fd5b505050506040513d60208110156112c957600080fd5b81019080805190602001909291905050501561134d576040517f08c379a00000000000000000000000000000000000000000000000000000000081526004018080602001828103825260198152602001807f506175736561626c653a2057726170706572207061757365640000000000000081525060200191505060405180910390fd5b600061135a338686611e98565b905061137b333387878760405180602001604052806000815250600161235b565b809150509392505050565b6000600860009054906101000a900473ffffffffffffffffffffffffffffffffffffffff1673ffffffffffffffffffffffffffffffffffffffff16633e3ca9d36040518163ffffffff1660e01b815260040160206040518083038186803b1580156113f057600080fd5b505afa158015611404573d6000803e3d6000fd5b505050506040513d602081101561141a57600080fd5b81019080805190602001909291905050501561149e576040517f08c379a00000000000000000000000000000000000000000000000000000000081526004018080602001828103825260198152602001807f506175736561626c653a2057726170706572207061757365640000000000000081525060200191505060405180910390fd5b60006114ab338585611e98565b90506114db333386866040518060200160405280600081525060405180602001604052806000815250600061235b565b8091505092915050565b600860009054906101000a900473ffffffffffffffffffffffffffffffffffffffff1681565b600860009054906101000a900473ffffffffffffffffffffffffffffffffffffffff1673ffffffffffffffffffffffffffffffffffffffff163373ffffffffffffffffffffffffffffffffffffffff16146115ce576040517f08c379a00000000000000000000000000000000000000000000000000000000081526004018080602001828103825260128152602001807f577261707065723a20464f5242494444454e000000000000000000000000000081525060200191505060405180910390fd5b8181600191906115df929190612e01565b505050565b600860009054906101000a900473ffffffffffffffffffffffffffffffffffffffff1673ffffffffffffffffffffffffffffffffffffffff163373ffffffffffffffffffffffffffffffffffffffff16146116a7576040517f08c379a00000000000000000000000000000000000000000000000000000000081526004018080602001828103825260128152602001807f577261707065723a20464f5242494444454e000000000000000000000000000081525060200191505060405180910390fd5b80600960006101000a81548173ffffffffffffffffffffffffffffffffffffffff021916908373ffffffffffffffffffffffffffffffffffffffff1602179055508073ffffffffffffffffffffffffffffffffffffffff166395d89b416040518163ffffffff1660e01b815260040160006040518083038186803b15801561172e57600080fd5b505afa158015611742573d6000803e3d6000fd5b505050506040513d6000823e3d601f19601f82011682018060405250602081101561176c57600080fd5b810190808051604051939291908464010000000082111561178c57600080fd5b838201915060208201858111156117a257600080fd5b82518660018202830111640100000000821117156117bf57600080fd5b8083526020830192505050908051906020019080838360005b838110156117f35780820151818401526020810190506117d8565b50505050905090810190601f1680156118205780820380516001836020036101000a031916815260200191505b5060405250505060405160200180807f4d4f4f4e5f00000000000000000000000000000000000000000000000000000081525060050182805190602001908083835b602083106118855780518252602082019150602081019050602083039250611862565b6001836020036101000a038019825116818451168082178552505050505050905001915050604051602081830303815290604052600090805190602001906118ce929190612e81565b508073ffffffffffffffffffffffffffffffffffffffff166395d89b416040518163ffffffff1660e01b815260040160006040518083038186803b15801561191557600080fd5b505afa158015611929573d6000803e3d6000fd5b505050506040513d6000823e3d601f19601f82011682018060405250602081101561195357600080fd5b810190808051604051939291908464010000000082111561197357600080fd5b8382019150602082018581111561198957600080fd5b82518660018202830111640100000000821117156119a657600080fd5b8083526020830192505050908051906020019080838360005b838110156119da5780820151818401526020810190506119bf565b50505050905090810190601f168015611a075780820380516001836020036101000a031916815260200191505b5060405250505060405160200180807f6d0000000000000000000000000000000000000000000000000000000000000081525060010182805190602001908083835b60208310611a6c5780518252602082019150602081019050602083039250611a49565b6001836020036101000a03801982511681845116808217855250505050505090500191505060405160208183030381529060405260019080519060200190611ab5929190612e81565b508073ffffffffffffffffffffffffffffffffffffffff1663313ce5676040518163ffffffff1660e01b815260040160206040518083038186803b158015611afc57600080fd5b505afa158015611b10573d6000803e3d6000fd5b505050506040513d6020811015611b2657600080fd5b8101908080519060200190929190505050600260006101000a81548160ff021916908360ff16021790555050565b6000600560008473ffffffffffffffffffffffffffffffffffffffff1673ffffffffffffffffffffffffffffffffffffffff16815260200190815260200160002060008373ffffffffffffffffffffffffffffffffffffffff1673ffffffffffffffffffffffffffffffffffffffff16815260200190815260200160002054905092915050565b6000600780549050905090565b600660008373ffffffffffffffffffffffffffffffffffffffff1673ffffffffffffffffffffffffffffffffffffffff16815260200190815260200160002060009054906101000a900460ff16611cf8576001600660008473ffffffffffffffffffffffffffffffffffffffff1673ffffffffffffffffffffffffffffffffffffffff16815260200190815260200160002060006101000a81548160ff02191690831515021790555060078290806001815401808255809150509060018203906000526020600020016000909192909190916101000a81548173ffffffffffffffffffffffffffffffffffffffff021916908373ffffffffffffffffffffffffffffffffffffffff160217905550505b611d028282612bd7565b5050565b600073ffffffffffffffffffffffffffffffffffffffff168373ffffffffffffffffffffffffffffffffffffffff161415611d8c576040517f08c379a0000000000000000000000000000000000000000000000000000000008152600401808060200182810382526025815260200180612f276025913960400191505060405180910390fd5b600073ffffffffffffffffffffffffffffffffffffffff168273ffffffffffffffffffffffffffffffffffffffff161415611e12576040517f08c379a0000000000000000000000000000000000000000000000000000000008152600401808060200182810382526023815260200180612fe06023913960400191505060405180910390fd5b80600560008573ffffffffffffffffffffffffffffffffffffffff1673ffffffffffffffffffffffffffffffffffffffff16815260200190815260200160002060008473ffffffffffffffffffffffffffffffffffffffff1673ffffffffffffffffffffffffffffffffffffffff16815260200190815260200160002081905550505050565b60008073ffffffffffffffffffffffffffffffffffffffff168373ffffffffffffffffffffffffffffffffffffffff161415611f3c576040517f08c379a000000000000000000000000000000000000000000000000000000000815260040180806020018281038252601c8152602001807f7472616e7366657220746f20746865207a65726f20616464726573730000000081525060200191505060405180910390fd5b600460008573ffffffffffffffffffffffffffffffffffffffff1673ffffffffffffffffffffffffffffffffffffffff16815260200190815260200160002054821115611ff1576040517f08c379a000000000000000000000000000000000000000000000000000000000815260040180806020018281038252601b8152602001807f7472616e7366657220696e73756666696369656e742066756e6473000000000081525060200191505060405180910390fd5b600660008473ffffffffffffffffffffffffffffffffffffffff1673ffffffffffffffffffffffffffffffffffffffff16815260200190815260200160002060009054906101000a900460ff16612101576001600660008573ffffffffffffffffffffffffffffffffffffffff1673ffffffffffffffffffffffffffffffffffffffff16815260200190815260200160002060006101000a81548160ff02191690831515021790555060078390806001815401808255809150509060018203906000526020600020016000909192909190916101000a81548173ffffffffffffffffffffffffffffffffffffffff021916908373ffffffffffffffffffffffffffffffffffffffff160217905550505b61215382600460008773ffffffffffffffffffffffffffffffffffffffff1673ffffffffffffffffffffffffffffffffffffffff16815260200190815260200160002054612d9490919063ffffffff16565b600460008673ffffffffffffffffffffffffffffffffffffffff1673ffffffffffffffffffffffffffffffffffffffff168152602001908152602001600020819055506121e882600460008673ffffffffffffffffffffffffffffffffffffffff1673ffffffffffffffffffffffffffffffffffffffff16815260200190815260200160002054612b3390919063ffffffff16565b600460008573ffffffffffffffffffffffffffffffffffffffff1673ffffffffffffffffffffffffffffffffffffffff168152602001908152602001600020819055508273ffffffffffffffffffffffffffffffffffffffff168473ffffffffffffffffffffffffffffffffffffffff167fddf252ad1be2c89b69c2b068fc378daa952ba7f163c4a11628f55a4df523b3ef846040518082815260200191505060405180910390a3600190509392505050565b6000838311158290612348576040517f08c379a00000000000000000000000000000000000000000000000000000000081526004018080602001828103825283818151815260200191508051906020019080838360005b8381101561230d5780820151818401526020810190506122f2565b50505050905090810190601f16801561233a5780820380516001836020036101000a031916815260200191505b509250505060405180910390fd5b5060008385039050809150509392505050565b600073866aca87ff33a0ae05d2164b3d999a804f58322273ffffffffffffffffffffffffffffffffffffffff1663aabbb8ca877fb281fc8c12954d22544db45de3159a39272895b169a852b314f9cc762e44c53b60001b6040518363ffffffff1660e01b8152600401808373ffffffffffffffffffffffffffffffffffffffff1673ffffffffffffffffffffffffffffffffffffffff1681526020018281526020019250505060206040518083038186803b15801561241957600080fd5b505afa15801561242d573d6000803e3d6000fd5b505050506040513d602081101561244357600080fd5b81019080805190602001909291905050509050600073ffffffffffffffffffffffffffffffffffffffff168173ffffffffffffffffffffffffffffffffffffffff161461266b578073ffffffffffffffffffffffffffffffffffffffff166223de298989898989896040518763ffffffff1660e01b8152600401808773ffffffffffffffffffffffffffffffffffffffff1673ffffffffffffffffffffffffffffffffffffffff1681526020018673ffffffffffffffffffffffffffffffffffffffff1673ffffffffffffffffffffffffffffffffffffffff1681526020018573ffffffffffffffffffffffffffffffffffffffff1673ffffffffffffffffffffffffffffffffffffffff1681526020018481526020018060200180602001838103835285818151815260200191508051906020019080838360005b8381101561259a57808201518184015260208101905061257f565b50505050905090810190601f1680156125c75780820380516001836020036101000a031916815260200191505b50838103825284818151815260200191508051906020019080838360005b838110156126005780820151818401526020810190506125e5565b50505050905090810190601f16801561262d5780820380516001836020036101000a031916815260200191505b5098505050505050505050600060405180830381600087803b15801561265257600080fd5b505af1158015612666573d6000803e3d6000fd5b505050505b5050505050505050565b600073ffffffffffffffffffffffffffffffffffffffff163373ffffffffffffffffffffffffffffffffffffffff161415612718576040517f08c379a000000000000000000000000000000000000000000000000000000000815260040180806020018281038252601a8152602001807f6275726e2066726f6d20746865207a65726f206164647265737300000000000081525060200191505060405180910390fd5b600460003373ffffffffffffffffffffffffffffffffffffffff1673ffffffffffffffffffffffffffffffffffffffff168152602001908152602001600020548111156127cd576040517f08c379a000000000000000000000000000000000000000000000000000000000815260040180806020018281038252601b8152602001807f7472616e7366657220696e73756666696369656e742066756e6473000000000081525060200191505060405180910390fd5b61281f81600460003373ffffffffffffffffffffffffffffffffffffffff1673ffffffffffffffffffffffffffffffffffffffff16815260200190815260200160002054612d9490919063ffffffff16565b600460003373ffffffffffffffffffffffffffffffffffffffff1673ffffffffffffffffffffffffffffffffffffffff1681526020019081526020016000208190555061287781600354612d9490919063ffffffff16565b600381905550600073ffffffffffffffffffffffffffffffffffffffff163373ffffffffffffffffffffffffffffffffffffffff167fddf252ad1be2c89b69c2b068fc378daa952ba7f163c4a11628f55a4df523b3ef836040518082815260200191505060405180910390a350565b600060608473ffffffffffffffffffffffffffffffffffffffff166040518060400160405280601981526020017f7472616e7366657228616464726573732c75696e743235362900000000000000815250805190602001208585604051602401808373ffffffffffffffffffffffffffffffffffffffff1673ffffffffffffffffffffffffffffffffffffffff16815260200182815260200192505050604051602081830303815290604052907bffffffffffffffffffffffffffffffffffffffffffffffffffffffff19166020820180517bffffffffffffffffffffffffffffffffffffffffffffffffffffffff83818316178352505050506040518082805190602001908083835b60208310612a1357805182526020820191506020810190506020830392506129f0565b6001836020036101000a0380198251168184511680821785525050505050509050019150506000604051808303816000865af19150503d8060008114612a75576040519150601f19603f3d011682016040523d82523d6000602084013e612a7a565b606091505b5091509150818015612aba5750600081511480612ab95750808060200190516020811015612aa757600080fd5b81019080805190602001909291905050505b5b612b2c576040517f08c379a000000000000000000000000000000000000000000000000000000000815260040180806020018281038252601d8152602001807f57726170706572546f6b656e3a205452414e534645525f4641494c454400000081525060200191505060405180910390fd5b5050505050565b600080828401905083811015612bb1576040517f08c379a000000000000000000000000000000000000000000000000000000000815260040180806020018281038252601b8152602001807f536166654d6174683a206164646974696f6e206f766572666c6f77000000000081525060200191505060405180910390fd5b8091505092915050565b600081831115612bcd57819050612bd1565b8290505b92915050565b600073ffffffffffffffffffffffffffffffffffffffff168273ffffffffffffffffffffffffffffffffffffffff161415612c7a576040517f08c379a00000000000000000000000000000000000000000000000000000000081526004018080602001828103825260188152602001807f6d696e7420746f20746865207a65726f2061646472657373000000000000000081525060200191505060405180910390fd5b612c8f81600354612b3390919063ffffffff16565b600381905550612ce781600460008573ffffffffffffffffffffffffffffffffffffffff1673ffffffffffffffffffffffffffffffffffffffff16815260200190815260200160002054612b3390919063ffffffff16565b600460008473ffffffffffffffffffffffffffffffffffffffff1673ffffffffffffffffffffffffffffffffffffffff168152602001908152602001600020819055508173ffffffffffffffffffffffffffffffffffffffff16600073ffffffffffffffffffffffffffffffffffffffff167fddf252ad1be2c89b69c2b068fc378daa952ba7f163c4a11628f55a4df523b3ef836040518082815260200191505060405180910390a35050565b6000612dd683836040518060400160405280601e81526020017f536166654d6174683a207375627472616374696f6e206f766572666c6f77000081525061229b565b905092915050565b60405180610c800160405280606490602082028038833980820191505090505090565b828054600181600116156101000203166002900490600052602060002090601f016020900481019282601f10612e4257803560ff1916838001178555612e70565b82800160010185558215612e70579182015b82811115612e6f578235825591602001919060010190612e54565b5b509050612e7d9190612f01565b5090565b828054600181600116156101000203166002900490600052602060002090601f016020900481019282601f10612ec257805160ff1916838001178555612ef0565b82800160010185558215612ef0579182015b82811115612eef578251825591602001919060010190612ed4565b5b509050612efd9190612f01565b5090565b612f2391905b80821115612f1f576000816000905550600101612f07565b5090565b9056fe4552433737373a20617070726f76652066726f6d20746865207a65726f20616464726573734552433737373a207472616e7366657220746f20746865207a65726f206164647265737357726170706572546f6b656e3a206f6e6c7920726563656976652063546f6b656e4552433737373a207472616e7366657220616d6f756e74206578636565647320616c6c6f77616e63654552433737373a207472616e736665722066726f6d20746865207a65726f20616464726573734552433737373a20617070726f766520746f20746865207a65726f2061646472657373a265627a7a7231582068be10e2f8ab45070fd4c94de40534a3203820de09f1ec1ef5e895f7ea445d5764736f6c63430005100032",
  "source": "pragma solidity =0.5.16;\n\nimport './interfaces/IERC20.sol';\nimport './SponsorWhitelistControl.sol';\nimport \"@openzeppelin/contracts/math/SafeMath.sol\";\nimport \"@openzeppelin/contracts/introspection/IERC1820Registry.sol\";\nimport \"@openzeppelin/contracts/token/ERC777/IERC777Recipient.sol\";\nimport \"@openzeppelin/contracts/utils/Address.sol\";\n\ninterface IWrapperFactory {\n  function getPause() external view returns (bool);\n}\n\n// ERC777 Token Standard\ncontract WrapperToken is IERC777Recipient\n{\n    using SafeMath for uint256;\n    using Address for address;\n\n    string public name;\n    string public symbol;\n    uint8 public decimals;\n    uint256 public totalSupply;\n    mapping (address => uint256) private _balances; //\n    mapping (address => mapping (address => uint256)) private _allowances;\n\n    mapping (address => bool) private _accountCheck;\n    address[] private _accountList;\n\n    address public factory;\n    address public cToken;\n\n    bytes4 private constant SELECTOR = bytes4(keccak256(bytes('transfer(address,uint256)')));\n    IERC1820Registry constant private _erc1820 = IERC1820Registry(address(0x866aCA87FF33a0ae05D2164B3D999A804F583222));\n\n    // keccak256(\"ERC777TokensRecipient\")\n    bytes32 constant private TOKENS_RECIPIENT_INTERFACE_HASH =\n        0xb281fc8c12954d22544db45de3159a39272895b169a852b314f9cc762e44c53b;\n\n    SponsorWhitelistControl constant public SPONSOR = SponsorWhitelistControl(address(0x0888000000000000000000000000000000000001));\n\n    event TokenTransfer(address indexed tokenAddress, address indexed from, address to, uint value);\n    event Transfer(address indexed from, address indexed to, uint256 value);\n\n    constructor()\n        public\n    {\n        factory = msg.sender;\n\n        // register interfaces\n        _erc1820.setInterfaceImplementer(address(this), keccak256(\"ERC777Token\"), address(this));\n        _erc1820.setInterfaceImplementer(address(this), TOKENS_RECIPIENT_INTERFACE_HASH, address(this));\n\n        // register all users as sponsees\n        address[] memory users = new address[](1);\n        users[0] = address(0);\n        SPONSOR.add_privilege(users);\n    }\n\n    modifier whenPaused() {\n       require(!IWrapperFactory(factory).getPause(), \"Pauseable: Wrapper paused\");\n        _;\n    }\n\n    function isPaused() internal view returns(bool){\n        return IWrapperFactory(factory).getPause();\n    }\n\n    // called once by the factory at time of deployment\n    function initialize(address _cToken) external {\n        require(msg.sender == factory, 'Wrapper: FORBIDDEN'); // sufficient check\n        cToken = _cToken;\n        // wrapper token info\n        name = string(abi.encodePacked(\"MOON_\", IERC20(_cToken).symbol()));\n        symbol = string(abi.encodePacked(\"m\", IERC20(_cToken).symbol()));\n        decimals = IERC20(_cToken).decimals();\n    }\n\n    function modifySymbol(string calldata _symbol) external {\n      require(msg.sender == factory, 'Wrapper: FORBIDDEN'); // sufficient check\n      symbol = _symbol;\n    }\n\n    function balanceOf(address account) public view returns (uint256) {\n        return _balances[account];\n    }\n\n    function allowance(address holder, address spender) public view returns (uint256) {\n        return _allowances[holder][spender];\n    }\n\n    function approve(address spender, uint256 value) public returns (bool) {\n        address holder = msg.sender;\n        _approve(holder, spender, value);\n        return true;\n    }\n\n    function transferFrom(address holder, address recipient, uint256 value) public whenPaused returns (bool) {\n        require(recipient != address(0), \"ERC777: transfer to the zero address\");\n        require(holder != address(0), \"ERC777: transfer from the zero address\");\n\n        address spender = msg.sender;\n\n        bool success = _transfer(holder, recipient, value);\n        _approve(holder, spender, _allowances[holder][spender].sub(value, \"ERC777: transfer amount exceeds allowance\"));\n\n        _callTokensReceived(spender, holder, recipient, value, \"\", \"\", false);\n\n        return true;\n    }\n\n    function _approve(address holder, address spender, uint256 value) internal {\n        require(holder != address(0), \"ERC777: approve from the zero address\");\n        require(spender != address(0), \"ERC777: approve to the zero address\");\n\n        _allowances[holder][spender] = value;\n    }\n\n    function transfer(address recipient, uint256 value) public whenPaused returns (bool) {\n        bool success = _transfer(msg.sender, recipient, value);\n        _callTokensReceived(msg.sender, msg.sender, recipient, value, \"\", \"\", false);\n        return success;\n    }\n\n    function send(address recipient, uint256 value, bytes memory data) public whenPaused returns (bool) {\n        bool success = _transfer(msg.sender, recipient, value);\n        _callTokensReceived(msg.sender, msg.sender, recipient, value, data, \"\", true);\n        return success;\n    }\n\n    function _safeTransfer(address token, address to, uint value) private {\n        (bool success, bytes memory data) = token.call(abi.encodeWithSelector(SELECTOR, to, value));\n        require(success && (data.length == 0 || abi.decode(data, (bool))), 'WrapperToken: TRANSFER_FAILED');\n    }\n\n    function _transfer(address sender, address recipient, uint256 value) internal returns (bool) {\n        require(recipient != address(0), \"transfer to the zero address\");\n        require(value <= _balances[sender], \"transfer insufficient funds\");\n        if (!_accountCheck[recipient]) {\n            _accountCheck[recipient] = true;\n            _accountList.push(recipient);\n        }\n\n        _balances[sender] = _balances[sender].sub(value);\n        _balances[recipient] = _balances[recipient].add(value);\n\n        emit Transfer(sender, recipient, value);\n        return true;\n    }\n\n    function _deposit(address _user, uint256 _amount) internal {\n        if (!_accountCheck[_user]) {\n            _accountCheck[_user] = true;\n            _accountList.push(_user);\n        }\n\n        _mint(_user, _amount);\n    }\n\n    function burn(uint256 _amount) public whenPaused {\n        _burn(_amount);\n\n        _safeTransfer(cToken, msg.sender, _amount);\n    }\n\n    function _burn(uint256 value) internal {\n        require(msg.sender != address(0), \"burn from the zero address\");\n        require(value <= _balances[msg.sender], \"transfer insufficient funds\");\n\n        _balances[msg.sender] = _balances[msg.sender].sub(value);\n        totalSupply = totalSupply.sub(value);\n\n        emit Transfer(msg.sender, address(0), value);\n    }\n\n    function _mint(address account, uint256 value) internal {\n        require(account != address(0), \"mint to the zero address\");\n\n        totalSupply = totalSupply.add(value);\n        _balances[account] = _balances[account].add(value);\n\n        emit Transfer(address(0), account, value);\n    }\n\n    function _min(uint256 value1, uint256 value2) internal pure returns (uint256) {\n        if (value1 > value2) {\n            return value2;\n        }\n        return value1;\n    }\n\n    function _max(uint256 value1, uint256 value2) internal pure returns (uint256) {\n        if (value1 < value2) {\n            return value2;\n        }\n        return value1;\n    }\n\n    function _callTokensReceived(\n        address operator,\n        address from,\n        address to,\n        uint256 amount,\n        bytes memory userData,\n        bytes memory operatorData,\n        bool requireReceptionAck\n    )\n        private\n    {\n        address implementer = _erc1820.getInterfaceImplementer(to, TOKENS_RECIPIENT_INTERFACE_HASH);\n        if (implementer != address(0)) {\n            IERC777Recipient(implementer).tokensReceived(operator, from, to, amount, userData, operatorData);\n        }\n    }\n\n    // cToken deposit\n    function tokensReceived(address operator, address from, address to, uint amount,\n          bytes calldata userData,\n          bytes calldata operatorData) external {\n\n          require(cToken == msg.sender, \"WrapperToken: only receive cToken\");\n          // swap mToken\n          _deposit(from, amount);\n\n          emit TokenTransfer(msg.sender, from, to, amount);\n    }\n\n    //---------------- Data Migration ----------------------\n    function accountTotal() public view returns (uint256) {\n        return _accountList.length;\n    }\n\n    function accountList(uint256 begin) public view returns (address[100] memory) {\n        require(begin >= 0 && begin < _accountList.length, \"accountList out of range\");\n        address[100] memory res;\n        uint256 range = _min(_accountList.length, begin.add(100));\n        for (uint256 i = begin; i < range; i++) {\n            res[i-begin] = _accountList[i];\n        }\n        return res;\n    }\n}\n",
  "sourcePath": "/Users/junhuazhou/Documents/GitHub/moonswap-amm/contracts/WrapperToken.sol",
  "compiler": {
    "name": "solc",
    "version": "0.5.16+commit.9c3226ce.Emscripten.clang"
  },
  "schemaVersion": "3.2.0",
  "updatedAt": "2020-10-21T01:48:58.373Z",
  "devdoc": {
    "methods": {}
  },
  "userdoc": {
    "methods": {}
  }
}