{
  "contractName": "WrapperFactory",
  "abi": [
    {
      "inputs": [],
      "payable": false,
      "stateMutability": "nonpayable",
      "type": "constructor"
    },
    {
      "anonymous": false,
      "inputs": [
        {
          "indexed": true,
          "internalType": "address",
          "name": "_cToken",
          "type": "address"
        },
        {
          "indexed": false,
          "internalType": "address",
          "name": "_mToken",
          "type": "address"
        }
      ],
      "name": "CreatedMToken",
      "type": "event"
    },
    {
      "anonymous": false,
      "inputs": [
        {
          "indexed": true,
          "internalType": "address",
          "name": "previousOwner",
          "type": "address"
        },
        {
          "indexed": true,
          "internalType": "address",
          "name": "newOwner",
          "type": "address"
        }
      ],
      "name": "OwnershipTransferred",
      "type": "event"
    },
    {
      "anonymous": false,
      "inputs": [
        {
          "indexed": true,
          "internalType": "address",
          "name": "from",
          "type": "address"
        },
        {
          "indexed": false,
          "internalType": "bool",
          "name": "originalPause",
          "type": "bool"
        },
        {
          "indexed": false,
          "internalType": "bool",
          "name": "newPause",
          "type": "bool"
        }
      ],
      "name": "SetPaused",
      "type": "event"
    },
    {
      "constant": true,
      "inputs": [],
      "name": "SPONSOR",
      "outputs": [
        {
          "internalType": "contract SponsorWhitelistControl",
          "name": "",
          "type": "address"
        }
      ],
      "payable": false,
      "stateMutability": "view",
      "type": "function"
    },
    {
      "constant": true,
      "inputs": [
        {
          "internalType": "uint256",
          "name": "",
          "type": "uint256"
        }
      ],
      "name": "cTokens",
      "outputs": [
        {
          "internalType": "address",
          "name": "",
          "type": "address"
        }
      ],
      "payable": false,
      "stateMutability": "view",
      "type": "function"
    },
    {
      "constant": true,
      "inputs": [],
      "name": "getPause",
      "outputs": [
        {
          "internalType": "bool",
          "name": "",
          "type": "bool"
        }
      ],
      "payable": false,
      "stateMutability": "view",
      "type": "function"
    },
    {
      "constant": true,
      "inputs": [],
      "name": "operator",
      "outputs": [
        {
          "internalType": "address",
          "name": "",
          "type": "address"
        }
      ],
      "payable": false,
      "stateMutability": "view",
      "type": "function"
    },
    {
      "constant": false,
      "inputs": [
        {
          "internalType": "bool",
          "name": "isPause",
          "type": "bool"
        }
      ],
      "name": "setPause",
      "outputs": [],
      "payable": false,
      "stateMutability": "nonpayable",
      "type": "function"
    },
    {
      "constant": true,
      "inputs": [
        {
          "internalType": "address",
          "name": "",
          "type": "address"
        }
      ],
      "name": "tokens",
      "outputs": [
        {
          "internalType": "address",
          "name": "",
          "type": "address"
        }
      ],
      "payable": false,
      "stateMutability": "view",
      "type": "function"
    },
    {
      "constant": false,
      "inputs": [
        {
          "internalType": "address",
          "name": "newOwner",
          "type": "address"
        }
      ],
      "name": "transferOwnership",
      "outputs": [],
      "payable": false,
      "stateMutability": "nonpayable",
      "type": "function"
    },
    {
      "constant": false,
      "inputs": [
        {
          "internalType": "address",
          "name": "_cToken",
          "type": "address"
        }
      ],
      "name": "createToken",
      "outputs": [
        {
          "internalType": "address",
          "name": "_mToken",
          "type": "address"
        }
      ],
      "payable": false,
      "stateMutability": "nonpayable",
      "type": "function"
    },
    {
      "constant": false,
      "inputs": [
        {
          "internalType": "address",
          "name": "_cToken",
          "type": "address"
        },
        {
          "internalType": "address",
          "name": "_mToken",
          "type": "address"
        }
      ],
      "name": "addToken",
      "outputs": [],
      "payable": false,
      "stateMutability": "nonpayable",
      "type": "function"
    },
    {
      "constant": true,
      "inputs": [],
      "name": "tokenLength",
      "outputs": [
        {
          "internalType": "uint256",
          "name": "",
          "type": "uint256"
        }
      ],
      "payable": false,
      "stateMutability": "view",
      "type": "function"
    },
    {
      "constant": false,
      "inputs": [
        {
          "internalType": "address",
          "name": "_operator",
          "type": "address"
        }
      ],
      "name": "setOperator",
      "outputs": [],
      "payable": false,
      "stateMutability": "nonpayable",
      "type": "function"
    },
    {
      "constant": false,
      "inputs": [
        {
          "internalType": "address",
          "name": "_cToken",
          "type": "address"
        },
        {
          "internalType": "string",
          "name": "_symbol",
          "type": "string"
        }
      ],
      "name": "modifySymbol",
      "outputs": [],
      "payable": false,
      "stateMutability": "nonpayable",
      "type": "function"
    }
  ],
  "bytecode": "0x608060405234801561001057600080fd5b50336000806101000a81548173ffffffffffffffffffffffffffffffffffffffff021916908373ffffffffffffffffffffffffffffffffffffffff16021790555060008060146101000a81548160ff02191690831515021790555033600160006101000a81548173ffffffffffffffffffffffffffffffffffffffff021916908373ffffffffffffffffffffffffffffffffffffffff160217905550606060016040519080825280602002602001820160405280156100de5781602001602082028038833980820191505090505b5090506000816000815181106100f057fe5b602002602001019073ffffffffffffffffffffffffffffffffffffffff16908173ffffffffffffffffffffffffffffffffffffffff168152505073088800000000000000000000000000000000000173ffffffffffffffffffffffffffffffffffffffff166310128d3e826040518263ffffffff1660e01b81526004018080602001828103825283818151815260200191508051906020019060200280838360005b838110156101ad578082015181840152602081019050610192565b5050505090500192505050600060405180830381600087803b1580156101d257600080fd5b505af11580156101e6573d6000803e3d6000fd5b50505050506149ca806101fa6000396000f3fe60806040523480156200001157600080fd5b5060043610620000c45760003560e01c8063bedb86fb116200007b578063bedb86fb14620002d2578063c21ab7f91462000305578063c2d141be146200038c578063de66341e14620003fd578063e4860339146200041d578063f2fde38b14620004a457620000c4565b80631d073a7a14620000c95780633e3ca9d314620001155780635476bd721462000139578063570ca73514620001a0578063afdd925a14620001ec578063b3ab15fb146200028b575b600080fd5b620000d3620004eb565b604051808273ffffffffffffffffffffffffffffffffffffffff1673ffffffffffffffffffffffffffffffffffffffff16815260200191505060405180910390f35b6200011f62000503565b604051808215151515815260200191505060405180910390f35b6200019e600480360360408110156200015157600080fd5b81019080803573ffffffffffffffffffffffffffffffffffffffff169060200190929190803573ffffffffffffffffffffffffffffffffffffffff16906020019092919050505062000519565b005b620001aa62000839565b604051808273ffffffffffffffffffffffffffffffffffffffff1673ffffffffffffffffffffffffffffffffffffffff16815260200191505060405180910390f35b62000289600480360360408110156200020457600080fd5b81019080803573ffffffffffffffffffffffffffffffffffffffff169060200190929190803590602001906401000000008111156200024257600080fd5b8201836020820111156200025557600080fd5b803590602001918460018302840111640100000000831117156200027857600080fd5b90919293919293905050506200085f565b005b620002d060048036036020811015620002a357600080fd5b81019080803573ffffffffffffffffffffffffffffffffffffffff16906020019092919050505062000aca565b005b6200030360048036036020811015620002ea57600080fd5b8101908080351515906020019092919050505062000bd2565b005b6200034a600480360360208110156200031d57600080fd5b81019080803573ffffffffffffffffffffffffffffffffffffffff16906020019092919050505062000d1f565b604051808273ffffffffffffffffffffffffffffffffffffffff1673ffffffffffffffffffffffffffffffffffffffff16815260200191505060405180910390f35b620003bb60048036036020811015620003a457600080fd5b8101908080359060200190929190505050620011ad565b604051808273ffffffffffffffffffffffffffffffffffffffff1673ffffffffffffffffffffffffffffffffffffffff16815260200191505060405180910390f35b62000407620011ea565b6040518082815260200191505060405180910390f35b62000462600480360360208110156200043557600080fd5b81019080803573ffffffffffffffffffffffffffffffffffffffff169060200190929190505050620011f7565b604051808273ffffffffffffffffffffffffffffffffffffffff1673ffffffffffffffffffffffffffffffffffffffff16815260200191505060405180910390f35b620004e960048036036020811015620004bc57600080fd5b81019080803573ffffffffffffffffffffffffffffffffffffffff1690602001909291905050506200122a565b005b73088800000000000000000000000000000000000181565b60008060149054906101000a900460ff16905090565b600160009054906101000a900473ffffffffffffffffffffffffffffffffffffffff1673ffffffffffffffffffffffffffffffffffffffff163373ffffffffffffffffffffffffffffffffffffffff1614620005dd576040517f08c379a000000000000000000000000000000000000000000000000000000000815260040180806020018281038252601e8152602001807f577261707065723a206f70657261746f7220697320696e636f7272656374000081525060200191505060405180910390fd5b600073ffffffffffffffffffffffffffffffffffffffff168273ffffffffffffffffffffffffffffffffffffffff1614158015620006485750600073ffffffffffffffffffffffffffffffffffffffff168173ffffffffffffffffffffffffffffffffffffffff1614155b620006bb576040517f08c379a000000000000000000000000000000000000000000000000000000000815260040180806020018281038252601a8152602001807f577261707065723a206164647265737320696e636f727265637400000000000081525060200191505060405180910390fd5b600073ffffffffffffffffffffffffffffffffffffffff16600260008473ffffffffffffffffffffffffffffffffffffffff1673ffffffffffffffffffffffffffffffffffffffff16815260200190815260200160002060009054906101000a900473ffffffffffffffffffffffffffffffffffffffff1673ffffffffffffffffffffffffffffffffffffffff161415620007b75760038290806001815401808255809150509060018203906000526020600020016000909192909190916101000a81548173ffffffffffffffffffffffffffffffffffffffff021916908373ffffffffffffffffffffffffffffffffffffffff160217905550505b80600260008473ffffffffffffffffffffffffffffffffffffffff1673ffffffffffffffffffffffffffffffffffffffff16815260200190815260200160002060006101000a81548173ffffffffffffffffffffffffffffffffffffffff021916908373ffffffffffffffffffffffffffffffffffffffff1602179055505050565b600160009054906101000a900473ffffffffffffffffffffffffffffffffffffffff1681565b600160009054906101000a900473ffffffffffffffffffffffffffffffffffffffff1673ffffffffffffffffffffffffffffffffffffffff163373ffffffffffffffffffffffffffffffffffffffff161462000923576040517f08c379a000000000000000000000000000000000000000000000000000000000815260040180806020018281038252601e8152602001807f577261707065723a206f70657261746f7220697320696e636f7272656374000081525060200191505060405180910390fd5b6000600260008573ffffffffffffffffffffffffffffffffffffffff1673ffffffffffffffffffffffffffffffffffffffff16815260200190815260200160002060009054906101000a900473ffffffffffffffffffffffffffffffffffffffff169050600073ffffffffffffffffffffffffffffffffffffffff168173ffffffffffffffffffffffffffffffffffffffff16141562000a2b576040517f08c379a000000000000000000000000000000000000000000000000000000000815260040180806020018281038252601a8152602001807f577261707065723a206164647265737320696e636f727265637400000000000081525060200191505060405180910390fd5b8073ffffffffffffffffffffffffffffffffffffffff1663c47494ad84846040518363ffffffff1660e01b815260040180806020018281038252848482818152602001925080828437600081840152601f19601f8201169050808301925050509350505050600060405180830381600087803b15801562000aab57600080fd5b505af115801562000ac0573d6000803e3d6000fd5b5050505050505050565b600160009054906101000a900473ffffffffffffffffffffffffffffffffffffffff1673ffffffffffffffffffffffffffffffffffffffff163373ffffffffffffffffffffffffffffffffffffffff161462000b8e576040517f08c379a000000000000000000000000000000000000000000000000000000000815260040180806020018281038252601e8152602001807f577261707065723a206f70657261746f7220697320696e636f7272656374000081525060200191505060405180910390fd5b80600160006101000a81548173ffffffffffffffffffffffffffffffffffffffff021916908373ffffffffffffffffffffffffffffffffffffffff16021790555050565b3373ffffffffffffffffffffffffffffffffffffffff166000809054906101000a900473ffffffffffffffffffffffffffffffffffffffff1673ffffffffffffffffffffffffffffffffffffffff161462000c95576040517f08c379a00000000000000000000000000000000000000000000000000000000081526004018080602001828103825260208152602001807f4f776e61626c653a2063616c6c6572206973206e6f7420746865206f776e657281525060200191505060405180910390fd5b3373ffffffffffffffffffffffffffffffffffffffff167ffd80ccbc6bfc2e7fbbede0ca451179e86853be7776523642799c03113409589f600060149054906101000a900460ff16836040518083151515158152602001821515151581526020019250505060405180910390a280600060146101000a81548160ff02191690831515021790555050565b60008173ffffffffffffffffffffffffffffffffffffffff16600073ffffffffffffffffffffffffffffffffffffffff16141562000dc5576040517f08c379a000000000000000000000000000000000000000000000000000000000815260040180806020018281038252601e8152602001807f577261707065723a20746f6b656e206973205a45524f5f41444452455353000081525060200191505060405180910390fd5b600160009054906101000a900473ffffffffffffffffffffffffffffffffffffffff1673ffffffffffffffffffffffffffffffffffffffff163373ffffffffffffffffffffffffffffffffffffffff161462000e89576040517f08c379a000000000000000000000000000000000000000000000000000000000815260040180806020018281038252601e8152602001807f577261707065723a206f70657261746f7220697320696e636f7272656374000081525060200191505060405180910390fd5b60606040518060200162000e9d9062001433565b6020820181038252601f19601f820116604052509050600083604051602001808273ffffffffffffffffffffffffffffffffffffffff1673ffffffffffffffffffffffffffffffffffffffff1660601b8152601401915050604051602081830303815290604052805190602001209050808251602084016000f592508273ffffffffffffffffffffffffffffffffffffffff1663c4d66de8856040518263ffffffff1660e01b8152600401808273ffffffffffffffffffffffffffffffffffffffff1673ffffffffffffffffffffffffffffffffffffffff168152602001915050600060405180830381600087803b15801562000f9957600080fd5b505af115801562000fae573d6000803e3d6000fd5b50505050600073ffffffffffffffffffffffffffffffffffffffff16600260008673ffffffffffffffffffffffffffffffffffffffff1673ffffffffffffffffffffffffffffffffffffffff16815260200190815260200160002060009054906101000a900473ffffffffffffffffffffffffffffffffffffffff1673ffffffffffffffffffffffffffffffffffffffff161415620010ae5760038490806001815401808255809150509060018203906000526020600020016000909192909190916101000a81548173ffffffffffffffffffffffffffffffffffffffff021916908373ffffffffffffffffffffffffffffffffffffffff160217905550505b82600260008673ffffffffffffffffffffffffffffffffffffffff1673ffffffffffffffffffffffffffffffffffffffff16815260200190815260200160002060006101000a81548173ffffffffffffffffffffffffffffffffffffffff021916908373ffffffffffffffffffffffffffffffffffffffff1602179055508373ffffffffffffffffffffffffffffffffffffffff167f90eefa90094f8512837b42c1ea8dfaa37fe58260184919c7dc5d987a2b0bba6a84604051808273ffffffffffffffffffffffffffffffffffffffff1673ffffffffffffffffffffffffffffffffffffffff16815260200191505060405180910390a25050919050565b60038181548110620011bb57fe5b906000526020600020016000915054906101000a900473ffffffffffffffffffffffffffffffffffffffff1681565b6000600380549050905090565b60026020528060005260406000206000915054906101000a900473ffffffffffffffffffffffffffffffffffffffff1681565b3373ffffffffffffffffffffffffffffffffffffffff166000809054906101000a900473ffffffffffffffffffffffffffffffffffffffff1673ffffffffffffffffffffffffffffffffffffffff1614620012ed576040517f08c379a00000000000000000000000000000000000000000000000000000000081526004018080602001828103825260208152602001807f4f776e61626c653a2063616c6c6572206973206e6f7420746865206f776e657281525060200191505060405180910390fd5b600073ffffffffffffffffffffffffffffffffffffffff168173ffffffffffffffffffffffffffffffffffffffff16141562001375576040517f08c379a0000000000000000000000000000000000000000000000000000000008152600401808060200182810382526026815260200180620049706026913960400191505060405180910390fd5b8073ffffffffffffffffffffffffffffffffffffffff166000809054906101000a900473ffffffffffffffffffffffffffffffffffffffff1673ffffffffffffffffffffffffffffffffffffffff167f8be0079c531659141344cd1fd0a4f28419497f9722a3daafe3b4186f6b6457e060405160405180910390a3806000806101000a81548173ffffffffffffffffffffffffffffffffffffffff021916908373ffffffffffffffffffffffffffffffffffffffff16021790555050565b61352e80620014428339019056fe60806040523480156200001157600080fd5b5033600860006101000a81548173ffffffffffffffffffffffffffffffffffffffff021916908373ffffffffffffffffffffffffffffffffffffffff16021790555073866aca87ff33a0ae05d2164b3d999a804f58322273ffffffffffffffffffffffffffffffffffffffff166329965a1d3060405180807f455243373737546f6b656e000000000000000000000000000000000000000000815250600b0190506040518091039020306040518463ffffffff1660e01b8152600401808473ffffffffffffffffffffffffffffffffffffffff1673ffffffffffffffffffffffffffffffffffffffff1681526020018381526020018273ffffffffffffffffffffffffffffffffffffffff1673ffffffffffffffffffffffffffffffffffffffff1681526020019350505050600060405180830381600087803b1580156200015857600080fd5b505af11580156200016d573d6000803e3d6000fd5b5050505073866aca87ff33a0ae05d2164b3d999a804f58322273ffffffffffffffffffffffffffffffffffffffff166329965a1d307fb281fc8c12954d22544db45de3159a39272895b169a852b314f9cc762e44c53b60001b306040518463ffffffff1660e01b8152600401808473ffffffffffffffffffffffffffffffffffffffff1673ffffffffffffffffffffffffffffffffffffffff1681526020018381526020018273ffffffffffffffffffffffffffffffffffffffff1673ffffffffffffffffffffffffffffffffffffffff1681526020019350505050600060405180830381600087803b1580156200026457600080fd5b505af115801562000279573d6000803e3d6000fd5b5050505060606001604051908082528060200260200182016040528015620002b05781602001602082028038833980820191505090505b509050600081600081518110620002c357fe5b602002602001019073ffffffffffffffffffffffffffffffffffffffff16908173ffffffffffffffffffffffffffffffffffffffff168152505073088800000000000000000000000000000000000173ffffffffffffffffffffffffffffffffffffffff166310128d3e826040518263ffffffff1660e01b81526004018080602001828103825283818151815260200191508051906020019060200280838360005b838110156200038257808201518184015260208101905062000365565b5050505090500192505050600060405180830381600087803b158015620003a857600080fd5b505af1158015620003bd573d6000803e3d6000fd5b505050505061315c80620003d26000396000f3fe608060405234801561001057600080fd5b50600436106101205760003560e01c806369e527da116100ad578063c45a015511610071578063c45a015514610778578063c47494ad146107c2578063c4d66de81461083b578063dd62ed3e1461087f578063f8c4bbf2146108f757610120565b806369e527da146104f057806370a082311461053a57806395d89b41146105925780639bd9bbc614610615578063a9059cbb1461071257610120565b80631d073a7a116100f45780631d073a7a1461036457806323b872dd146103ae578063313ce5671461043457806342966c68146104585780634ea98d161461048657610120565b806223de291461012557806306fdde031461025d578063095ea7b3146102e057806318160ddd14610346575b600080fd5b61025b600480360360c081101561013b57600080fd5b81019080803573ffffffffffffffffffffffffffffffffffffffff169060200190929190803573ffffffffffffffffffffffffffffffffffffffff169060200190929190803573ffffffffffffffffffffffffffffffffffffffff16906020019092919080359060200190929190803590602001906401000000008111156101c257600080fd5b8201836020820111156101d457600080fd5b803590602001918460018302840111640100000000831117156101f657600080fd5b90919293919293908035906020019064010000000081111561021757600080fd5b82018360208201111561022957600080fd5b8035906020019184600183028401116401000000008311171561024b57600080fd5b9091929391929390505050610915565b005b610265610a68565b6040518080602001828103825283818151815260200191508051906020019080838360005b838110156102a557808201518184015260208101905061028a565b50505050905090810190601f1680156102d25780820380516001836020036101000a031916815260200191505b509250505060405180910390f35b61032c600480360360408110156102f657600080fd5b81019080803573ffffffffffffffffffffffffffffffffffffffff16906020019092919080359060200190929190505050610b06565b604051808215151515815260200191505060405180910390f35b61034e610b22565b6040518082815260200191505060405180910390f35b61036c610b28565b604051808273ffffffffffffffffffffffffffffffffffffffff1673ffffffffffffffffffffffffffffffffffffffff16815260200191505060405180910390f35b61041a600480360360608110156103c457600080fd5b81019080803573ffffffffffffffffffffffffffffffffffffffff169060200190929190803573ffffffffffffffffffffffffffffffffffffffff16906020019092919080359060200190929190505050610b40565b604051808215151515815260200191505060405180910390f35b61043c610e66565b604051808260ff1660ff16815260200191505060405180910390f35b6104846004803603602081101561046e57600080fd5b8101908080359060200190929190505050610e79565b005b6104b26004803603602081101561049c57600080fd5b8101908080359060200190929190505050610fc8565b6040518082606460200280838360005b838110156104dd5780820151818401526020810190506104c2565b5050505090500191505060405180910390f35b6104f8611128565b604051808273ffffffffffffffffffffffffffffffffffffffff1673ffffffffffffffffffffffffffffffffffffffff16815260200191505060405180910390f35b61057c6004803603602081101561055057600080fd5b81019080803573ffffffffffffffffffffffffffffffffffffffff16906020019092919050505061114e565b6040518082815260200191505060405180910390f35b61059a611197565b6040518080602001828103825283818151815260200191508051906020019080838360005b838110156105da5780820151818401526020810190506105bf565b50505050905090810190601f1680156106075780820380516001836020036101000a031916815260200191505b509250505060405180910390f35b6106f86004803603606081101561062b57600080fd5b81019080803573ffffffffffffffffffffffffffffffffffffffff169060200190929190803590602001909291908035906020019064010000000081111561067257600080fd5b82018360208201111561068457600080fd5b803590602001918460018302840111640100000000831117156106a657600080fd5b91908080601f016020809104026020016040519081016040528093929190818152602001838380828437600081840152601f19601f820116905080830192505050505050509192919290505050611235565b604051808215151515815260200191505060405180910390f35b61075e6004803603604081101561072857600080fd5b81019080803573ffffffffffffffffffffffffffffffffffffffff16906020019092919080359060200190929190505050611386565b604051808215151515815260200191505060405180910390f35b6107806114e5565b604051808273ffffffffffffffffffffffffffffffffffffffff1673ffffffffffffffffffffffffffffffffffffffff16815260200191505060405180910390f35b610839600480360360208110156107d857600080fd5b81019080803590602001906401000000008111156107f557600080fd5b82018360208201111561080757600080fd5b8035906020019184600183028401116401000000008311171561082957600080fd5b909192939192939050505061150b565b005b61087d6004803603602081101561085157600080fd5b81019080803573ffffffffffffffffffffffffffffffffffffffff1690602001909291905050506115e4565b005b6108e16004803603604081101561089557600080fd5b81019080803573ffffffffffffffffffffffffffffffffffffffff169060200190929190803573ffffffffffffffffffffffffffffffffffffffff169060200190929190505050611b54565b6040518082815260200191505060405180910390f35b6108ff611bdb565b6040518082815260200191505060405180910390f35b3373ffffffffffffffffffffffffffffffffffffffff16600960009054906101000a900473ffffffffffffffffffffffffffffffffffffffff1673ffffffffffffffffffffffffffffffffffffffff16146109bb576040517f08c379a00000000000000000000000000000000000000000000000000000000081526004018080602001828103825260218152602001806130956021913960400191505060405180910390fd5b6109c58786611be8565b8673ffffffffffffffffffffffffffffffffffffffff163373ffffffffffffffffffffffffffffffffffffffff167fae33cb06d7303f889d953bb09540983050163c1c4c98b330db432a911cfb63fd8888604051808373ffffffffffffffffffffffffffffffffffffffff1673ffffffffffffffffffffffffffffffffffffffff1681526020018281526020019250505060405180910390a35050505050505050565b60008054600181600116156101000203166002900480601f016020809104026020016040519081016040528092919081815260200182805460018160011615610100020316600290048015610afe5780601f10610ad357610100808354040283529160200191610afe565b820191906000526020600020905b815481529060010190602001808311610ae157829003601f168201915b505050505081565b600080339050610b17818585611d06565b600191505092915050565b60035481565b73088800000000000000000000000000000000000181565b6000600860009054906101000a900473ffffffffffffffffffffffffffffffffffffffff1673ffffffffffffffffffffffffffffffffffffffff16633e3ca9d36040518163ffffffff1660e01b815260040160206040518083038186803b158015610baa57600080fd5b505afa158015610bbe573d6000803e3d6000fd5b505050506040513d6020811015610bd457600080fd5b810190808051906020019092919050505015610c58576040517f08c379a00000000000000000000000000000000000000000000000000000000081526004018080602001828103825260198152602001807f506175736561626c653a2057726170706572207061757365640000000000000081525060200191505060405180910390fd5b600073ffffffffffffffffffffffffffffffffffffffff168373ffffffffffffffffffffffffffffffffffffffff161415610cde576040517f08c379a00000000000000000000000000000000000000000000000000000000081526004018080602001828103825260248152602001806130716024913960400191505060405180910390fd5b600073ffffffffffffffffffffffffffffffffffffffff168473ffffffffffffffffffffffffffffffffffffffff161415610d64576040517f08c379a00000000000000000000000000000000000000000000000000000000081526004018080602001828103825260268152602001806130df6026913960400191505060405180910390fd5b60003390506000610d76868686611e98565b9050610e2b8683610e26876040518060600160405280602981526020016130b660299139600560008d73ffffffffffffffffffffffffffffffffffffffff1673ffffffffffffffffffffffffffffffffffffffff16815260200190815260200160002060008973ffffffffffffffffffffffffffffffffffffffff1673ffffffffffffffffffffffffffffffffffffffff1681526020019081526020016000205461229b9092919063ffffffff16565b611d06565b610e59828787876040518060200160405280600081525060405180602001604052806000815250600061235b565b6001925050509392505050565b600260009054906101000a900460ff1681565b600860009054906101000a900473ffffffffffffffffffffffffffffffffffffffff1673ffffffffffffffffffffffffffffffffffffffff16633e3ca9d36040518163ffffffff1660e01b815260040160206040518083038186803b158015610ee157600080fd5b505afa158015610ef5573d6000803e3d6000fd5b505050506040513d6020811015610f0b57600080fd5b810190808051906020019092919050505015610f8f576040517f08c379a00000000000000000000000000000000000000000000000000000000081526004018080602001828103825260198152602001807f506175736561626c653a2057726170706572207061757365640000000000000081525060200191505060405180910390fd5b610f9881612675565b610fc5600960009054906101000a900473ffffffffffffffffffffffffffffffffffffffff1633836128e6565b50565b610fd0612f03565b60008210158015610fe5575060078054905082105b611057576040517f08c379a00000000000000000000000000000000000000000000000000000000081526004018080602001828103825260188152602001807f6163636f756e744c697374206f7574206f662072616e6765000000000000000081525060200191505060405180910390fd5b61105f612f03565b600061108360078054905061107e606487612b3390919063ffffffff16565b612bbb565b905060008490505b8181101561111d57600781815481106110a057fe5b9060005260206000200160009054906101000a900473ffffffffffffffffffffffffffffffffffffffff1683868303606481106110d957fe5b602002019073ffffffffffffffffffffffffffffffffffffffff16908173ffffffffffffffffffffffffffffffffffffffff1681525050808060010191505061108b565b508192505050919050565b600960009054906101000a900473ffffffffffffffffffffffffffffffffffffffff1681565b6000600460008373ffffffffffffffffffffffffffffffffffffffff1673ffffffffffffffffffffffffffffffffffffffff168152602001908152602001600020549050919050565b60018054600181600116156101000203166002900480601f01602080910402602001604051908101604052809291908181526020018280546001816001161561010002031660029004801561122d5780601f106112025761010080835404028352916020019161122d565b820191906000526020600020905b81548152906001019060200180831161121057829003601f168201915b505050505081565b6000600860009054906101000a900473ffffffffffffffffffffffffffffffffffffffff1673ffffffffffffffffffffffffffffffffffffffff16633e3ca9d36040518163ffffffff1660e01b815260040160206040518083038186803b15801561129f57600080fd5b505afa1580156112b3573d6000803e3d6000fd5b505050506040513d60208110156112c957600080fd5b81019080805190602001909291905050501561134d576040517f08c379a00000000000000000000000000000000000000000000000000000000081526004018080602001828103825260198152602001807f506175736561626c653a2057726170706572207061757365640000000000000081525060200191505060405180910390fd5b600061135a338686611e98565b905061137b333387878760405180602001604052806000815250600161235b565b809150509392505050565b6000600860009054906101000a900473ffffffffffffffffffffffffffffffffffffffff1673ffffffffffffffffffffffffffffffffffffffff16633e3ca9d36040518163ffffffff1660e01b815260040160206040518083038186803b1580156113f057600080fd5b505afa158015611404573d6000803e3d6000fd5b505050506040513d602081101561141a57600080fd5b81019080805190602001909291905050501561149e576040517f08c379a00000000000000000000000000000000000000000000000000000000081526004018080602001828103825260198152602001807f506175736561626c653a2057726170706572207061757365640000000000000081525060200191505060405180910390fd5b60006114ab338585611e98565b90506114db333386866040518060200160405280600081525060405180602001604052806000815250600061235b565b8091505092915050565b600860009054906101000a900473ffffffffffffffffffffffffffffffffffffffff1681565b600860009054906101000a900473ffffffffffffffffffffffffffffffffffffffff1673ffffffffffffffffffffffffffffffffffffffff163373ffffffffffffffffffffffffffffffffffffffff16146115ce576040517f08c379a00000000000000000000000000000000000000000000000000000000081526004018080602001828103825260128152602001807f577261707065723a20464f5242494444454e000000000000000000000000000081525060200191505060405180910390fd5b8181600191906115df929190612f26565b505050565b600860009054906101000a900473ffffffffffffffffffffffffffffffffffffffff1673ffffffffffffffffffffffffffffffffffffffff163373ffffffffffffffffffffffffffffffffffffffff16146116a7576040517f08c379a00000000000000000000000000000000000000000000000000000000081526004018080602001828103825260128152602001807f577261707065723a20464f5242494444454e000000000000000000000000000081525060200191505060405180910390fd5b80600960006101000a81548173ffffffffffffffffffffffffffffffffffffffff021916908373ffffffffffffffffffffffffffffffffffffffff1602179055508073ffffffffffffffffffffffffffffffffffffffff166395d89b416040518163ffffffff1660e01b815260040160006040518083038186803b15801561172e57600080fd5b505afa158015611742573d6000803e3d6000fd5b505050506040513d6000823e3d601f19601f82011682018060405250602081101561176c57600080fd5b810190808051604051939291908464010000000082111561178c57600080fd5b838201915060208201858111156117a257600080fd5b82518660018202830111640100000000821117156117bf57600080fd5b8083526020830192505050908051906020019080838360005b838110156117f35780820151818401526020810190506117d8565b50505050905090810190601f1680156118205780820380516001836020036101000a031916815260200191505b5060405250505060405160200180807f4d4f4f4e5f00000000000000000000000000000000000000000000000000000081525060050182805190602001908083835b602083106118855780518252602082019150602081019050602083039250611862565b6001836020036101000a038019825116818451168082178552505050505050905001915050604051602081830303815290604052600090805190602001906118ce929190612fa6565b508073ffffffffffffffffffffffffffffffffffffffff166395d89b416040518163ffffffff1660e01b815260040160006040518083038186803b15801561191557600080fd5b505afa158015611929573d6000803e3d6000fd5b505050506040513d6000823e3d601f19601f82011682018060405250602081101561195357600080fd5b810190808051604051939291908464010000000082111561197357600080fd5b8382019150602082018581111561198957600080fd5b82518660018202830111640100000000821117156119a657600080fd5b8083526020830192505050908051906020019080838360005b838110156119da5780820151818401526020810190506119bf565b50505050905090810190601f168015611a075780820380516001836020036101000a031916815260200191505b5060405250505060405160200180807f6d0000000000000000000000000000000000000000000000000000000000000081525060010182805190602001908083835b60208310611a6c5780518252602082019150602081019050602083039250611a49565b6001836020036101000a03801982511681845116808217855250505050505090500191505060405160208183030381529060405260019080519060200190611ab5929190612fa6565b508073ffffffffffffffffffffffffffffffffffffffff1663313ce5676040518163ffffffff1660e01b815260040160206040518083038186803b158015611afc57600080fd5b505afa158015611b10573d6000803e3d6000fd5b505050506040513d6020811015611b2657600080fd5b8101908080519060200190929190505050600260006101000a81548160ff021916908360ff16021790555050565b6000600560008473ffffffffffffffffffffffffffffffffffffffff1673ffffffffffffffffffffffffffffffffffffffff16815260200190815260200160002060008373ffffffffffffffffffffffffffffffffffffffff1673ffffffffffffffffffffffffffffffffffffffff16815260200190815260200160002054905092915050565b6000600780549050905090565b600660008373ffffffffffffffffffffffffffffffffffffffff1673ffffffffffffffffffffffffffffffffffffffff16815260200190815260200160002060009054906101000a900460ff16611cf8576001600660008473ffffffffffffffffffffffffffffffffffffffff1673ffffffffffffffffffffffffffffffffffffffff16815260200190815260200160002060006101000a81548160ff02191690831515021790555060078290806001815401808255809150509060018203906000526020600020016000909192909190916101000a81548173ffffffffffffffffffffffffffffffffffffffff021916908373ffffffffffffffffffffffffffffffffffffffff160217905550505b611d028282612bd7565b5050565b600073ffffffffffffffffffffffffffffffffffffffff168373ffffffffffffffffffffffffffffffffffffffff161415611d8c576040517f08c379a000000000000000000000000000000000000000000000000000000000815260040180806020018281038252602581526020018061304c6025913960400191505060405180910390fd5b600073ffffffffffffffffffffffffffffffffffffffff168273ffffffffffffffffffffffffffffffffffffffff161415611e12576040517f08c379a00000000000000000000000000000000000000000000000000000000081526004018080602001828103825260238152602001806131056023913960400191505060405180910390fd5b80600560008573ffffffffffffffffffffffffffffffffffffffff1673ffffffffffffffffffffffffffffffffffffffff16815260200190815260200160002060008473ffffffffffffffffffffffffffffffffffffffff1673ffffffffffffffffffffffffffffffffffffffff16815260200190815260200160002081905550505050565b60008073ffffffffffffffffffffffffffffffffffffffff168373ffffffffffffffffffffffffffffffffffffffff161415611f3c576040517f08c379a000000000000000000000000000000000000000000000000000000000815260040180806020018281038252601c8152602001807f7472616e7366657220746f20746865207a65726f20616464726573730000000081525060200191505060405180910390fd5b600460008573ffffffffffffffffffffffffffffffffffffffff1673ffffffffffffffffffffffffffffffffffffffff16815260200190815260200160002054821115611ff1576040517f08c379a000000000000000000000000000000000000000000000000000000000815260040180806020018281038252601b8152602001807f7472616e7366657220696e73756666696369656e742066756e6473000000000081525060200191505060405180910390fd5b600660008473ffffffffffffffffffffffffffffffffffffffff1673ffffffffffffffffffffffffffffffffffffffff16815260200190815260200160002060009054906101000a900460ff16612101576001600660008573ffffffffffffffffffffffffffffffffffffffff1673ffffffffffffffffffffffffffffffffffffffff16815260200190815260200160002060006101000a81548160ff02191690831515021790555060078390806001815401808255809150509060018203906000526020600020016000909192909190916101000a81548173ffffffffffffffffffffffffffffffffffffffff021916908373ffffffffffffffffffffffffffffffffffffffff160217905550505b61215382600460008773ffffffffffffffffffffffffffffffffffffffff1673ffffffffffffffffffffffffffffffffffffffff16815260200190815260200160002054612e0f90919063ffffffff16565b600460008673ffffffffffffffffffffffffffffffffffffffff1673ffffffffffffffffffffffffffffffffffffffff168152602001908152602001600020819055506121e882600460008673ffffffffffffffffffffffffffffffffffffffff1673ffffffffffffffffffffffffffffffffffffffff16815260200190815260200160002054612b3390919063ffffffff16565b600460008573ffffffffffffffffffffffffffffffffffffffff1673ffffffffffffffffffffffffffffffffffffffff168152602001908152602001600020819055508273ffffffffffffffffffffffffffffffffffffffff168473ffffffffffffffffffffffffffffffffffffffff167fddf252ad1be2c89b69c2b068fc378daa952ba7f163c4a11628f55a4df523b3ef846040518082815260200191505060405180910390a3600190509392505050565b6000838311158290612348576040517f08c379a00000000000000000000000000000000000000000000000000000000081526004018080602001828103825283818151815260200191508051906020019080838360005b8381101561230d5780820151818401526020810190506122f2565b50505050905090810190601f16801561233a5780820380516001836020036101000a031916815260200191505b509250505060405180910390fd5b5060008385039050809150509392505050565b600073866aca87ff33a0ae05d2164b3d999a804f58322273ffffffffffffffffffffffffffffffffffffffff1663aabbb8ca877fb281fc8c12954d22544db45de3159a39272895b169a852b314f9cc762e44c53b60001b6040518363ffffffff1660e01b8152600401808373ffffffffffffffffffffffffffffffffffffffff1673ffffffffffffffffffffffffffffffffffffffff1681526020018281526020019250505060206040518083038186803b15801561241957600080fd5b505afa15801561242d573d6000803e3d6000fd5b505050506040513d602081101561244357600080fd5b81019080805190602001909291905050509050600073ffffffffffffffffffffffffffffffffffffffff168173ffffffffffffffffffffffffffffffffffffffff161461266b578073ffffffffffffffffffffffffffffffffffffffff166223de298989898989896040518763ffffffff1660e01b8152600401808773ffffffffffffffffffffffffffffffffffffffff1673ffffffffffffffffffffffffffffffffffffffff1681526020018673ffffffffffffffffffffffffffffffffffffffff1673ffffffffffffffffffffffffffffffffffffffff1681526020018573ffffffffffffffffffffffffffffffffffffffff1673ffffffffffffffffffffffffffffffffffffffff1681526020018481526020018060200180602001838103835285818151815260200191508051906020019080838360005b8381101561259a57808201518184015260208101905061257f565b50505050905090810190601f1680156125c75780820380516001836020036101000a031916815260200191505b50838103825284818151815260200191508051906020019080838360005b838110156126005780820151818401526020810190506125e5565b50505050905090810190601f16801561262d5780820380516001836020036101000a031916815260200191505b5098505050505050505050600060405180830381600087803b15801561265257600080fd5b505af1158015612666573d6000803e3d6000fd5b505050505b5050505050505050565b600073ffffffffffffffffffffffffffffffffffffffff163373ffffffffffffffffffffffffffffffffffffffff161415612718576040517f08c379a000000000000000000000000000000000000000000000000000000000815260040180806020018281038252601a8152602001807f6275726e2066726f6d20746865207a65726f206164647265737300000000000081525060200191505060405180910390fd5b600460003373ffffffffffffffffffffffffffffffffffffffff1673ffffffffffffffffffffffffffffffffffffffff168152602001908152602001600020548111156127cd576040517f08c379a000000000000000000000000000000000000000000000000000000000815260040180806020018281038252601b8152602001807f7472616e7366657220696e73756666696369656e742066756e6473000000000081525060200191505060405180910390fd5b61281f81600460003373ffffffffffffffffffffffffffffffffffffffff1673ffffffffffffffffffffffffffffffffffffffff16815260200190815260200160002054612e0f90919063ffffffff16565b600460003373ffffffffffffffffffffffffffffffffffffffff1673ffffffffffffffffffffffffffffffffffffffff1681526020019081526020016000208190555061287781600354612e0f90919063ffffffff16565b600381905550600073ffffffffffffffffffffffffffffffffffffffff163373ffffffffffffffffffffffffffffffffffffffff167fddf252ad1be2c89b69c2b068fc378daa952ba7f163c4a11628f55a4df523b3ef836040518082815260200191505060405180910390a350565b600060608473ffffffffffffffffffffffffffffffffffffffff166040518060400160405280601981526020017f7472616e7366657228616464726573732c75696e743235362900000000000000815250805190602001208585604051602401808373ffffffffffffffffffffffffffffffffffffffff1673ffffffffffffffffffffffffffffffffffffffff16815260200182815260200192505050604051602081830303815290604052907bffffffffffffffffffffffffffffffffffffffffffffffffffffffff19166020820180517bffffffffffffffffffffffffffffffffffffffffffffffffffffffff83818316178352505050506040518082805190602001908083835b60208310612a1357805182526020820191506020810190506020830392506129f0565b6001836020036101000a0380198251168184511680821785525050505050509050019150506000604051808303816000865af19150503d8060008114612a75576040519150601f19603f3d011682016040523d82523d6000602084013e612a7a565b606091505b5091509150818015612aba5750600081511480612ab95750808060200190516020811015612aa757600080fd5b81019080805190602001909291905050505b5b612b2c576040517f08c379a000000000000000000000000000000000000000000000000000000000815260040180806020018281038252601d8152602001807f57726170706572546f6b656e3a205452414e534645525f4641494c454400000081525060200191505060405180910390fd5b5050505050565b600080828401905083811015612bb1576040517f08c379a000000000000000000000000000000000000000000000000000000000815260040180806020018281038252601b8152602001807f536166654d6174683a206164646974696f6e206f766572666c6f77000000000081525060200191505060405180910390fd5b8091505092915050565b600081831115612bcd57819050612bd1565b8290505b92915050565b600073ffffffffffffffffffffffffffffffffffffffff168273ffffffffffffffffffffffffffffffffffffffff161415612c7a576040517f08c379a00000000000000000000000000000000000000000000000000000000081526004018080602001828103825260188152602001807f6d696e7420746f20746865207a65726f2061646472657373000000000000000081525060200191505060405180910390fd5b612c82612e59565b15612cf5576040517f08c379a00000000000000000000000000000000000000000000000000000000081526004018080602001828103825260138152602001807f57726170706572546f6b656e3a2070617573650000000000000000000000000081525060200191505060405180910390fd5b612d0a81600354612b3390919063ffffffff16565b600381905550612d6281600460008573ffffffffffffffffffffffffffffffffffffffff1673ffffffffffffffffffffffffffffffffffffffff16815260200190815260200160002054612b3390919063ffffffff16565b600460008473ffffffffffffffffffffffffffffffffffffffff1673ffffffffffffffffffffffffffffffffffffffff168152602001908152602001600020819055508173ffffffffffffffffffffffffffffffffffffffff16600073ffffffffffffffffffffffffffffffffffffffff167fddf252ad1be2c89b69c2b068fc378daa952ba7f163c4a11628f55a4df523b3ef836040518082815260200191505060405180910390a35050565b6000612e5183836040518060400160405280601e81526020017f536166654d6174683a207375627472616374696f6e206f766572666c6f77000081525061229b565b905092915050565b6000600860009054906101000a900473ffffffffffffffffffffffffffffffffffffffff1673ffffffffffffffffffffffffffffffffffffffff16633e3ca9d36040518163ffffffff1660e01b815260040160206040518083038186803b158015612ec357600080fd5b505afa158015612ed7573d6000803e3d6000fd5b505050506040513d6020811015612eed57600080fd5b8101908080519060200190929190505050905090565b60405180610c800160405280606490602082028038833980820191505090505090565b828054600181600116156101000203166002900490600052602060002090601f016020900481019282601f10612f6757803560ff1916838001178555612f95565b82800160010185558215612f95579182015b82811115612f94578235825591602001919060010190612f79565b5b509050612fa29190613026565b5090565b828054600181600116156101000203166002900490600052602060002090601f016020900481019282601f10612fe757805160ff1916838001178555613015565b82800160010185558215613015579182015b82811115613014578251825591602001919060010190612ff9565b5b5090506130229190613026565b5090565b61304891905b8082111561304457600081600090555060010161302c565b5090565b9056fe4552433737373a20617070726f76652066726f6d20746865207a65726f20616464726573734552433737373a207472616e7366657220746f20746865207a65726f206164647265737357726170706572546f6b656e3a206f6e6c7920726563656976652063546f6b656e4552433737373a207472616e7366657220616d6f756e74206578636565647320616c6c6f77616e63654552433737373a207472616e736665722066726f6d20746865207a65726f20616464726573734552433737373a20617070726f766520746f20746865207a65726f2061646472657373a265627a7a72315820daba05e3e28cb50e543b386f2b2df9147abbe14477c62d28da343e422b72a16564736f6c634300051000324f776e61626c653a206e6577206f776e657220697320746865207a65726f2061646472657373a265627a7a72315820ee67bda6e4b9941b731f0cf5a8093bb59d2ef3be52f4cec54900efad1e6f306c64736f6c63430005100032",
  "source": "pragma solidity >=0.5.16;\n\nimport './WrapperToken.sol';\nimport './SponsorWhitelistControl.sol';\nimport \"./Pauseable.sol\";\n\ncontract WrapperFactory is Pauseable {\n    address public operator;\n    // cToken => mToken\n    mapping(address => address) public tokens;\n    address[] public cTokens;\n    SponsorWhitelistControl constant public SPONSOR = SponsorWhitelistControl(address(0x0888000000000000000000000000000000000001));\n\n    event CreatedMToken(address indexed _cToken, address _mToken);\n\n    constructor()\n      Pauseable()\n      public {\n        operator = msg.sender;\n\n        // register all users as sponsees\n        address[] memory users = new address[](1);\n        users[0] = address(0);\n        SPONSOR.addPrivilege(users);\n    }\n\n    function createToken(address _cToken) external returns (address _mToken){\n      require(address(0) != _cToken, \"Wrapper: token is ZERO_ADDRESS\");\n      require(msg.sender == operator, \"Wrapper: operator is incorrect\");\n\n      bytes memory bytecode = type(WrapperToken).creationCode;\n      bytes32 salt = keccak256(abi.encodePacked(_cToken));\n      assembly {\n          _mToken := create2(0, add(bytecode, 32), mload(bytecode), salt)\n      }\n\n      WrapperToken(_mToken).initialize(_cToken);\n      if(tokens[_cToken] == address(0)){\n          cTokens.push(_cToken);\n      }\n\n      tokens[_cToken] = _mToken;\n\n      emit CreatedMToken(_cToken, _mToken);\n    }\n\n    function addToken(address _cToken, address _mToken) external {\n        require(msg.sender == operator, \"Wrapper: operator is incorrect\");\n        require(_cToken != address(0) && _mToken != address(0), \"Wrapper: address incorrect\");\n        if(tokens[_cToken] == address(0)){\n            cTokens.push(_cToken);\n        }\n\n        tokens[_cToken] = _mToken;\n    }\n\n    function tokenLength() external view returns (uint) {\n        return cTokens.length;\n    }\n\n    function setOperator(address _operator) external {\n       require(msg.sender == operator, \"Wrapper: operator is incorrect\");\n\n       operator = _operator;\n    }\n\n    function modifySymbol(address _cToken, string calldata _symbol) external {\n      require(msg.sender == operator, \"Wrapper: operator is incorrect\");\n      address _mToken = tokens[_cToken];\n      require(_mToken != address(0), \"Wrapper: address incorrect\");\n      WrapperToken(_mToken).modifySymbol(_symbol);\n    }\n}\n",
  "sourcePath": "/Users/junhuazhou/Documents/GitHub/moonswap-core/contracts/WrapperFactory.sol",
  "compiler": {
    "name": "solc",
    "version": "0.5.16+commit.9c3226ce.Emscripten.clang"
  },
  "schemaVersion": "3.2.0",
  "updatedAt": "2021-04-01T09:42:49.243Z",
  "devdoc": {
    "methods": {}
  },
  "userdoc": {
    "methods": {}
  }
}